{"abi":[{"inputs":[{"internalType":"address","name":"_dappTokenAddress","type":"address"},{"internalType":"address","name":"_loanTokenAddress","type":"address"}],"stateMutability":"nonpayable","type":"constructor","name":"constructor"},{"anonymous":false,"inputs":[{"indexed":true,"internalType":"address","name":"previousOwner","type":"address"},{"indexed":true,"internalType":"address","name":"newOwner","type":"address"}],"name":"OwnershipTransferred","type":"event"},{"inputs":[{"internalType":"address","name":"_nftAddress","type":"address"}],"name":"addAllowedNfts","outputs":[],"stateMutability":"nonpayable","type":"function"},{"inputs":[{"internalType":"uint256","name":"","type":"uint256"}],"name":"allowedNfts","outputs":[{"internalType":"address","name":"","type":"address"}],"stateMutability":"view","type":"function"},{"inputs":[{"internalType":"uint256","name":"","type":"uint256"}],"name":"borrowers","outputs":[{"internalType":"address","name":"","type":"address"}],"stateMutability":"view","type":"function"},{"inputs":[],"name":"dappToken","outputs":[{"internalType":"contract IERC20","name":"","type":"address"}],"stateMutability":"view","type":"function"},{"inputs":[],"name":"getBalance","outputs":[{"internalType":"uint256","name":"","type":"uint256"}],"stateMutability":"view","type":"function"},{"inputs":[{"internalType":"address","name":"_nftAddress","type":"address"},{"internalType":"uint256","name":"_nftId","type":"uint256"}],"name":"getNftLockData","outputs":[{"internalType":"address","name":"","type":"address"},{"internalType":"uint256","name":"","type":"uint256"},{"internalType":"uint256","name":"","type":"uint256"}],"stateMutability":"view","type":"function"},{"inputs":[{"internalType":"address","name":"_nftAddress","type":"address"},{"internalType":"uint256","name":"_nftId","type":"uint256"}],"name":"getNftValue","outputs":[{"internalType":"uint256","name":"","type":"uint256"},{"internalType":"uint256","name":"","type":"uint256"}],"stateMutability":"view","type":"function"},{"inputs":[{"internalType":"address","name":"_user","type":"address"},{"internalType":"address","name":"_nftAddress","type":"address"},{"internalType":"uint256","name":"_nftId","type":"uint256"}],"name":"getUserSingleNftValue","outputs":[{"internalType":"uint256","name":"","type":"uint256"}],"stateMutability":"view","type":"function"},{"inputs":[{"internalType":"address","name":"_user","type":"address"}],"name":"getUserTotalValue","outputs":[{"internalType":"uint256","name":"","type":"uint256"}],"stateMutability":"view","type":"function"},{"inputs":[],"name":"inspector","outputs":[{"internalType":"address","name":"","type":"address"}],"stateMutability":"view","type":"function"},{"inputs":[{"internalType":"address","name":"_user","type":"address"}],"name":"isBorrowers","outputs":[{"internalType":"bool","name":"","type":"bool"}],"stateMutability":"view","type":"function"},{"inputs":[],"name":"issueTokens","outputs":[],"stateMutability":"nonpayable","type":"function"},{"inputs":[],"name":"lender","outputs":[{"internalType":"address","name":"","type":"address"}],"stateMutability":"view","type":"function"},{"inputs":[],"name":"loanToken","outputs":[{"internalType":"contract IERC20","name":"","type":"address"}],"stateMutability":"view","type":"function"},{"inputs":[{"internalType":"address","name":"_nftHolderAddress","type":"address"},{"internalType":"uint256","name":"_loanAmount","type":"uint256"}],"name":"loanTransfer","outputs":[],"stateMutability":"nonpayable","type":"function"},{"inputs":[{"internalType":"address","name":"_nftAddress","type":"address"}],"name":"nftIsAllowed","outputs":[{"internalType":"bool","name":"","type":"bool"}],"stateMutability":"view","type":"function"},{"inputs":[{"internalType":"address","name":"_nftAddress","type":"address"},{"internalType":"uint256","name":"_nftId","type":"uint256"}],"name":"nftStaking","outputs":[],"stateMutability":"nonpayable","type":"function"},{"inputs":[{"internalType":"address","name":"_nftAddress","type":"address"},{"internalType":"uint256","name":"_nftId","type":"uint256"}],"name":"nftUnStaking","outputs":[],"stateMutability":"nonpayable","type":"function"},{"inputs":[],"name":"owner","outputs":[{"internalType":"address","name":"","type":"address"}],"stateMutability":"view","type":"function"},{"inputs":[],"name":"renounceOwnership","outputs":[],"stateMutability":"nonpayable","type":"function"},{"inputs":[{"internalType":"address","name":"_nftAddress","type":"address"},{"internalType":"uint256","name":"_nftId","type":"uint256"},{"internalType":"uint256","name":"_loanAmount","type":"uint256"},{"internalType":"uint256","name":"_loanDays","type":"uint256"},{"internalType":"uint256","name":"_loanInterest","type":"uint256"}],"name":"requestLoan","outputs":[],"stateMutability":"nonpayable","type":"function"},{"inputs":[{"internalType":"address","name":"_nftAddress","type":"address"},{"internalType":"address","name":"_priceFeed","type":"address"}],"name":"setPriceFeedContract","outputs":[],"stateMutability":"nonpayable","type":"function"},{"inputs":[{"internalType":"address","name":"","type":"address"},{"internalType":"uint256","name":"","type":"uint256"}],"name":"stakedNftAddressId","outputs":[{"internalType":"address","name":"_nftAddress","type":"address"},{"internalType":"uint256","name":"_nftId","type":"uint256"}],"stateMutability":"view","type":"function"},{"inputs":[{"internalType":"address","name":"newOwner","type":"address"}],"name":"transferOwnership","outputs":[],"stateMutability":"nonpayable","type":"function"}],"bytecode":"6080604052600460015534801561001557600080fd5b506040516111bb3803806111bb833981016040819052610034916100da565b61003d3361006e565b600a80546001600160a01b039384166001600160a01b031991821617909155600b805492909316911617905561010d565b600080546001600160a01b038381166001600160a01b0319831681178455604051919092169283917f8be0079c531659141344cd1fd0a4f28419497f9722a3daafe3b4186f6b6457e09190a35050565b80516001600160a01b03811681146100d557600080fd5b919050565b600080604083850312156100ed57600080fd5b6100f6836100be565b9150610104602084016100be565b90509250929050565b61109f8061011c6000396000f3fe608060405234801561001057600080fd5b50600436106101585760003560e01c80638dc3306f116100c3578063bfeecc511161007c578063bfeecc511461031e578063e45e09a214610331578063ec57354b14610359578063ed2cee9e146103b6578063f2fde38b146103c9578063fc339d7f146103dc57600080fd5b80638dc3306f146102ac5780638ddefa36146102bf578063acdc410d146102d2578063af3f5e22146102e5578063bbb62028146102f8578063bcead63e1461030b57600080fd5b806360ab58521161011557806360ab5852146102505780636c59eb3b1461025a578063715018a61461026d5780637924d93f14610275578063877dd39d146102885780638da5cb5b1461029b57600080fd5b806306d378171461015d5780630e32a0e31461018d57806312065fe0146101b05780632cdb786a146101c05780634d23d8af1461022a5780635eb186f81461023d575b600080fd5b600b54610170906001600160a01b031681565b6040516001600160a01b0390911681526020015b60405180910390f35b6101a061019b366004610cdc565b6103ef565b6040519015158152602001610184565b475b604051908152602001610184565b6102056101ce366004610cf7565b6001600160a01b03918216600090815260056020908152604080832093835292905220600281015460018201549154921692909190565b604080516001600160a01b039094168452602084019290925290820152606001610184565b610170610238366004610d21565b610458565b600a54610170906001600160a01b031681565b610258610482565b005b610258610268366004610cdc565b61055d565b6102586105b7565b610170610283366004610d21565b6105cb565b610258610296366004610d3a565b6105db565b6000546001600160a01b0316610170565b6101b26102ba366004610d6d565b610611565b6101a06102cd366004610cdc565b610669565b6102586102e0366004610da9565b6106c9565b6101b26102f3366004610cdc565b6107b8565b610258610306366004610cf7565b610861565b600854610170906001600160a01b031681565b61025861032c366004610cf7565b6108c5565b61034461033f366004610cf7565b610a1b565b60408051928352602083019190915201610184565b610397610367366004610cf7565b6002602090815260009283526040808420909152908252902080546001909101546001600160a01b039091169082565b604080516001600160a01b039093168352602083019190915201610184565b600954610170906001600160a01b031681565b6102586103d7366004610cdc565b610b1c565b6102586103ea366004610cf7565b610b92565b6000805b60075481101561044f57826001600160a01b03166004828154811061041a5761041a610deb565b6000918252602090912001546001600160a01b03160361043d5750600192915050565b8061044781610e17565b9150506103f3565b50600092915050565b6007818154811061046857600080fd5b6000918252602090912001546001600160a01b0316905081565b61048a610c16565b60005b60045481101561055a576000600482815481106104ac576104ac610deb565b60009182526020822001546001600160a01b031691506104cb826107b8565b600a5460405163a9059cbb60e01b81526001600160a01b0385811660048301526024820184905292935091169063a9059cbb906044016020604051808303816000875af1158015610520573d6000803e3d6000fd5b505050506040513d601f19601f820116820180604052508101906105449190610e30565b505050808061055290610e17565b91505061048d565b50565b610565610c16565b600780546001810182556000919091527fa66cc928b5edb82af9bd49922954155ab7b0942694bea4ce44661d9a8736c6880180546001600160a01b0319166001600160a01b0392909216919091179055565b6105bf610c16565b6105c96000610c70565b565b6004818154811061046857600080fd5b6105e3610c16565b6001600160a01b03918216600090815260066020526040902080546001600160a01b03191691909216179055565b6001600160a01b03831660009081526003602052604081205461063657506000610662565b6000806106438585610a1b565b909250905061065381600a610f38565b61065d9083610f44565b925050505b9392505050565b6000805b60075481101561044f57826001600160a01b03166007828154811061069457610694610deb565b6000918252602090912001546001600160a01b0316036106b75750600192915050565b806106c181610e17565b91505061066d565b6106d285610669565b6106f75760405162461bcd60e51b81526004016106ee90610f66565b60405180910390fd5b61070185856108c5565b61070b3384610b92565b426000610719846018610fb2565b61072490603c610fb2565b61072f90603c610fb2565b6107399083610fc9565b90506000600154600a61074c9190610f38565b6107569085610f44565b610761906001610fc9565b61076b9087610fb2565b6001600160a01b03891660009081526005602090815260408083208b845290915290206002810180546001600160a01b031916331790556001810184905581905590505050505050505050565b6001600160a01b03811660009081526003602052604081205481906107e05750600092915050565b60005b6001600160a01b03841660009081526003602052604090205481101561085a576001600160a01b0384811660009081526002602090815260408083208584529091529020805460019091015461083c9287921690610611565b6108469083610fc9565b91508061085281610e17565b9150506107e3565b5092915050565b61086a336103ef565b6108c15760405162461bcd60e51b815260206004820152602260248201527f4f6e6c7920626f72726f7765722063616e2063616c6c2074686973206d6574686044820152611bd960f21b60648201526084016106ee565b5050565b6108ce82610669565b6108ea5760405162461bcd60e51b81526004016106ee90610f66565b6040516323b872dd60e01b8152336004820152306024820152604481018290526001600160a01b038316906323b872dd90606401600060405180830381600087803b15801561093857600080fd5b505af115801561094c573d6000803e3d6000fd5b505033600081815260026020908152604080832060038084528285208054865291845282852080546001600160a01b0319166001600160a01b038c161790558154855291842060010188905593835290529054900391506109ec905057600480546001810182556000919091527f8a35acfbc15ff81a39ae7d344fd709f28e8600b4aa8c65c6b64bfe7fe36bd19b0180546001600160a01b031916331790555b33600090815260036020526040902054610a07906001610fc9565b336000908152600360205260409020555050565b6001600160a01b03808316600090815260066020526040808220548151633fabe5a360e21b815291519293849391169182918491839163feaf968c9160048082019260a0929091908290030181865afa158015610a7c573d6000803e3d6000fd5b505050506040513d601f19601f82011682018060405250810190610aa09190610ff6565b5050509150506000826001600160a01b031663313ce5676040518163ffffffff1660e01b8152600401602060405180830381865afa158015610ae6573d6000803e3d6000fd5b505050506040513d601f19601f82011682018060405250810190610b0a9190611046565b9195505060ff16925050509250929050565b610b24610c16565b6001600160a01b038116610b895760405162461bcd60e51b815260206004820152602660248201527f4f776e61626c653a206e6577206f776e657220697320746865207a65726f206160448201526564647265737360d01b60648201526084016106ee565b61055a81610c70565b610b9a610c16565b600b5460405163a9059cbb60e01b81526001600160a01b038481166004830152602482018490529091169063a9059cbb906044016020604051808303816000875af1158015610bed573d6000803e3d6000fd5b505050506040513d601f19601f82011682018060405250810190610c119190610e30565b505050565b6000546001600160a01b031633146105c95760405162461bcd60e51b815260206004820181905260248201527f4f776e61626c653a2063616c6c6572206973206e6f7420746865206f776e657260448201526064016106ee565b600080546001600160a01b038381166001600160a01b0319831681178455604051919092169283917f8be0079c531659141344cd1fd0a4f28419497f9722a3daafe3b4186f6b6457e09190a35050565b80356001600160a01b0381168114610cd757600080fd5b919050565b600060208284031215610cee57600080fd5b61066282610cc0565b60008060408385031215610d0a57600080fd5b610d1383610cc0565b946020939093013593505050565b600060208284031215610d3357600080fd5b5035919050565b60008060408385031215610d4d57600080fd5b610d5683610cc0565b9150610d6460208401610cc0565b90509250929050565b600080600060608486031215610d8257600080fd5b610d8b84610cc0565b9250610d9960208501610cc0565b9150604084013590509250925092565b600080600080600060a08688031215610dc157600080fd5b610dca86610cc0565b97602087013597506040870135966060810135965060800135945092505050565b634e487b7160e01b600052603260045260246000fd5b634e487b7160e01b600052601160045260246000fd5b600060018201610e2957610e29610e01565b5060010190565b600060208284031215610e4257600080fd5b8151801515811461066257600080fd5b600181815b80851115610e8d578160001904821115610e7357610e73610e01565b80851615610e8057918102915b93841c9390800290610e57565b509250929050565b600082610ea457506001610f32565b81610eb157506000610f32565b8160018114610ec75760028114610ed157610eed565b6001915050610f32565b60ff841115610ee257610ee2610e01565b50506001821b610f32565b5060208310610133831016604e8410600b8410161715610f10575081810a610f32565b610f1a8383610e52565b8060001904821115610f2e57610f2e610e01565b0290505b92915050565b60006106628383610e95565b600082610f6157634e487b7160e01b600052601260045260246000fd5b500490565b6020808252602c908201527f63757272656e74206e6674206973206e6f7420616c6c6f77656420696e206f7560408201526b722077686974656c6973742160a01b606082015260800190565b8082028115828204841417610f3257610f32610e01565b80820180821115610f3257610f32610e01565b805169ffffffffffffffffffff81168114610cd757600080fd5b600080600080600060a0868803121561100e57600080fd5b61101786610fdc565b945060208601519350604086015192506060860151915061103a60808701610fdc565b90509295509295909350565b60006020828403121561105857600080fd5b815160ff8116811461066257600080fdfea2646970667358221220c5f7ad0cb14cbd949e0e720ba64fa90ccec501cbb7a14ae174d7670b20f9f31f64736f6c63430008110033","bytecodeSha1":"b80b611bc4eb951bf971cde101fbeb48e512056b","compiler":{"evm_version":"istanbul","optimizer":{"enabled":true,"runs":200},"version":"0.8.17+commit.8df45f5f"},"contractName":"Escrow","language":"Solidity","natspec":{"kind":"dev","methods":{"owner()":{"details":"Returns the address of the current owner."},"renounceOwnership()":{"details":"Leaves the contract without owner. It will not be possible to call `onlyOwner` functions anymore. Can only be called by the current owner. NOTE: Renouncing ownership will leave the contract without an owner, thereby removing any functionality that is only available to the owner."},"transferOwnership(address)":{"details":"Transfers ownership of the contract to a new account (`newOwner`). Can only be called by the current owner."}},"version":1},"opcodes":"PUSH1 0x80 PUSH1 0x40 MSTORE CALLVALUE DUP1 ISZERO PUSH2 0x10 JUMPI PUSH1 0x0 DUP1 REVERT JUMPDEST POP PUSH1 0x4 CALLDATASIZE LT PUSH2 0x158 JUMPI PUSH1 0x0 CALLDATALOAD PUSH1 0xE0 SHR DUP1 PUSH4 0x8DC3306F GT PUSH2 0xC3 JUMPI DUP1 PUSH4 0xBFEECC51 GT PUSH2 0x7C JUMPI DUP1 PUSH4 0xBFEECC51 EQ PUSH2 0x31E JUMPI DUP1 PUSH4 0xE45E09A2 EQ PUSH2 0x331 JUMPI DUP1 PUSH4 0xEC57354B EQ PUSH2 0x359 JUMPI DUP1 PUSH4 0xED2CEE9E EQ PUSH2 0x3B6 JUMPI DUP1 PUSH4 0xF2FDE38B EQ PUSH2 0x3C9 JUMPI DUP1 PUSH4 0xFC339D7F EQ PUSH2 0x3DC JUMPI PUSH1 0x0 DUP1 REVERT JUMPDEST DUP1 PUSH4 0x8DC3306F EQ PUSH2 0x2AC JUMPI DUP1 PUSH4 0x8DDEFA36 EQ PUSH2 0x2BF JUMPI DUP1 PUSH4 0xACDC410D EQ PUSH2 0x2D2 JUMPI DUP1 PUSH4 0xAF3F5E22 EQ PUSH2 0x2E5 JUMPI DUP1 PUSH4 0xBBB62028 EQ PUSH2 0x2F8 JUMPI DUP1 PUSH4 0xBCEAD63E EQ PUSH2 0x30B JUMPI PUSH1 0x0 DUP1 REVERT JUMPDEST DUP1 PUSH4 0x60AB5852 GT PUSH2 0x115 JUMPI DUP1 PUSH4 0x60AB5852 EQ PUSH2 0x250 JUMPI DUP1 PUSH4 0x6C59EB3B EQ PUSH2 0x25A JUMPI DUP1 PUSH4 0x715018A6 EQ PUSH2 0x26D JUMPI DUP1 PUSH4 0x7924D93F EQ PUSH2 0x275 JUMPI DUP1 PUSH4 0x877DD39D EQ PUSH2 0x288 JUMPI DUP1 PUSH4 0x8DA5CB5B EQ PUSH2 0x29B JUMPI PUSH1 0x0 DUP1 REVERT JUMPDEST DUP1 PUSH4 0x6D37817 EQ PUSH2 0x15D JUMPI DUP1 PUSH4 0xE32A0E3 EQ PUSH2 0x18D JUMPI DUP1 PUSH4 0x12065FE0 EQ PUSH2 0x1B0 JUMPI DUP1 PUSH4 0x2CDB786A EQ PUSH2 0x1C0 JUMPI DUP1 PUSH4 0x4D23D8AF EQ PUSH2 0x22A JUMPI DUP1 PUSH4 0x5EB186F8 EQ PUSH2 0x23D JUMPI JUMPDEST PUSH1 0x0 DUP1 REVERT JUMPDEST PUSH1 0xB SLOAD PUSH2 0x170 SWAP1 PUSH1 0x1 PUSH1 0x1 PUSH1 0xA0 SHL SUB AND DUP2 JUMP JUMPDEST PUSH1 0x40 MLOAD PUSH1 0x1 PUSH1 0x1 PUSH1 0xA0 SHL SUB SWAP1 SWAP2 AND DUP2 MSTORE PUSH1 0x20 ADD JUMPDEST PUSH1 0x40 MLOAD DUP1 SWAP2 SUB SWAP1 RETURN JUMPDEST PUSH2 0x1A0 PUSH2 0x19B CALLDATASIZE PUSH1 0x4 PUSH2 0xCDC JUMP JUMPDEST PUSH2 0x3EF JUMP JUMPDEST PUSH1 0x40 MLOAD SWAP1 ISZERO ISZERO DUP2 MSTORE PUSH1 0x20 ADD PUSH2 0x184 JUMP JUMPDEST SELFBALANCE JUMPDEST PUSH1 0x40 MLOAD SWAP1 DUP2 MSTORE PUSH1 0x20 ADD PUSH2 0x184 JUMP JUMPDEST PUSH2 0x205 PUSH2 0x1CE CALLDATASIZE PUSH1 0x4 PUSH2 0xCF7 JUMP JUMPDEST PUSH1 0x1 PUSH1 0x1 PUSH1 0xA0 SHL SUB SWAP2 DUP3 AND PUSH1 0x0 SWAP1 DUP2 MSTORE PUSH1 0x5 PUSH1 0x20 SWAP1 DUP2 MSTORE PUSH1 0x40 DUP1 DUP4 KECCAK256 SWAP4 DUP4 MSTORE SWAP3 SWAP1 MSTORE KECCAK256 PUSH1 0x2 DUP2 ADD SLOAD PUSH1 0x1 DUP3 ADD SLOAD SWAP2 SLOAD SWAP3 AND SWAP3 SWAP1 SWAP2 SWAP1 JUMP JUMPDEST PUSH1 0x40 DUP1 MLOAD PUSH1 0x1 PUSH1 0x1 PUSH1 0xA0 SHL SUB SWAP1 SWAP5 AND DUP5 MSTORE PUSH1 0x20 DUP5 ADD SWAP3 SWAP1 SWAP3 MSTORE SWAP1 DUP3 ADD MSTORE PUSH1 0x60 ADD PUSH2 0x184 JUMP JUMPDEST PUSH2 0x170 PUSH2 0x238 CALLDATASIZE PUSH1 0x4 PUSH2 0xD21 JUMP JUMPDEST PUSH2 0x458 JUMP JUMPDEST PUSH1 0xA SLOAD PUSH2 0x170 SWAP1 PUSH1 0x1 PUSH1 0x1 PUSH1 0xA0 SHL SUB AND DUP2 JUMP JUMPDEST PUSH2 0x258 PUSH2 0x482 JUMP JUMPDEST STOP JUMPDEST PUSH2 0x258 PUSH2 0x268 CALLDATASIZE PUSH1 0x4 PUSH2 0xCDC JUMP JUMPDEST PUSH2 0x55D JUMP JUMPDEST PUSH2 0x258 PUSH2 0x5B7 JUMP JUMPDEST PUSH2 0x170 PUSH2 0x283 CALLDATASIZE PUSH1 0x4 PUSH2 0xD21 JUMP JUMPDEST PUSH2 0x5CB JUMP JUMPDEST PUSH2 0x258 PUSH2 0x296 CALLDATASIZE PUSH1 0x4 PUSH2 0xD3A JUMP JUMPDEST PUSH2 0x5DB JUMP JUMPDEST PUSH1 0x0 SLOAD PUSH1 0x1 PUSH1 0x1 PUSH1 0xA0 SHL SUB AND PUSH2 0x170 JUMP JUMPDEST PUSH2 0x1B2 PUSH2 0x2BA CALLDATASIZE PUSH1 0x4 PUSH2 0xD6D JUMP JUMPDEST PUSH2 0x611 JUMP JUMPDEST PUSH2 0x1A0 PUSH2 0x2CD CALLDATASIZE PUSH1 0x4 PUSH2 0xCDC JUMP JUMPDEST PUSH2 0x669 JUMP JUMPDEST PUSH2 0x258 PUSH2 0x2E0 CALLDATASIZE PUSH1 0x4 PUSH2 0xDA9 JUMP JUMPDEST PUSH2 0x6C9 JUMP JUMPDEST PUSH2 0x1B2 PUSH2 0x2F3 CALLDATASIZE PUSH1 0x4 PUSH2 0xCDC JUMP JUMPDEST PUSH2 0x7B8 JUMP JUMPDEST PUSH2 0x258 PUSH2 0x306 CALLDATASIZE PUSH1 0x4 PUSH2 0xCF7 JUMP JUMPDEST PUSH2 0x861 JUMP JUMPDEST PUSH1 0x8 SLOAD PUSH2 0x170 SWAP1 PUSH1 0x1 PUSH1 0x1 PUSH1 0xA0 SHL SUB AND DUP2 JUMP JUMPDEST PUSH2 0x258 PUSH2 0x32C CALLDATASIZE PUSH1 0x4 PUSH2 0xCF7 JUMP JUMPDEST PUSH2 0x8C5 JUMP JUMPDEST PUSH2 0x344 PUSH2 0x33F CALLDATASIZE PUSH1 0x4 PUSH2 0xCF7 JUMP JUMPDEST PUSH2 0xA1B JUMP JUMPDEST PUSH1 0x40 DUP1 MLOAD SWAP3 DUP4 MSTORE PUSH1 0x20 DUP4 ADD SWAP2 SWAP1 SWAP2 MSTORE ADD PUSH2 0x184 JUMP JUMPDEST PUSH2 0x397 PUSH2 0x367 CALLDATASIZE PUSH1 0x4 PUSH2 0xCF7 JUMP JUMPDEST PUSH1 0x2 PUSH1 0x20 SWAP1 DUP2 MSTORE PUSH1 0x0 SWAP3 DUP4 MSTORE PUSH1 0x40 DUP1 DUP5 KECCAK256 SWAP1 SWAP2 MSTORE SWAP1 DUP3 MSTORE SWAP1 KECCAK256 DUP1 SLOAD PUSH1 0x1 SWAP1 SWAP2 ADD SLOAD PUSH1 0x1 PUSH1 0x1 PUSH1 0xA0 SHL SUB SWAP1 SWAP2 AND SWAP1 DUP3 JUMP JUMPDEST PUSH1 0x40 DUP1 MLOAD PUSH1 0x1 PUSH1 0x1 PUSH1 0xA0 SHL SUB SWAP1 SWAP4 AND DUP4 MSTORE PUSH1 0x20 DUP4 ADD SWAP2 SWAP1 SWAP2 MSTORE ADD PUSH2 0x184 JUMP JUMPDEST PUSH1 0x9 SLOAD PUSH2 0x170 SWAP1 PUSH1 0x1 PUSH1 0x1 PUSH1 0xA0 SHL SUB AND DUP2 JUMP JUMPDEST PUSH2 0x258 PUSH2 0x3D7 CALLDATASIZE PUSH1 0x4 PUSH2 0xCDC JUMP JUMPDEST PUSH2 0xB1C JUMP JUMPDEST PUSH2 0x258 PUSH2 0x3EA CALLDATASIZE PUSH1 0x4 PUSH2 0xCF7 JUMP JUMPDEST PUSH2 0xB92 JUMP JUMPDEST PUSH1 0x0 DUP1 JUMPDEST PUSH1 0x7 SLOAD DUP2 LT ISZERO PUSH2 0x44F JUMPI DUP3 PUSH1 0x1 PUSH1 0x1 PUSH1 0xA0 SHL SUB AND PUSH1 0x4 DUP3 DUP2 SLOAD DUP2 LT PUSH2 0x41A JUMPI PUSH2 0x41A PUSH2 0xDEB JUMP JUMPDEST PUSH1 0x0 SWAP2 DUP3 MSTORE PUSH1 0x20 SWAP1 SWAP2 KECCAK256 ADD SLOAD PUSH1 0x1 PUSH1 0x1 PUSH1 0xA0 SHL SUB AND SUB PUSH2 0x43D JUMPI POP PUSH1 0x1 SWAP3 SWAP2 POP POP JUMP JUMPDEST DUP1 PUSH2 0x447 DUP2 PUSH2 0xE17 JUMP JUMPDEST SWAP2 POP POP PUSH2 0x3F3 JUMP JUMPDEST POP PUSH1 0x0 SWAP3 SWAP2 POP POP JUMP JUMPDEST PUSH1 0x7 DUP2 DUP2 SLOAD DUP2 LT PUSH2 0x468 JUMPI PUSH1 0x0 DUP1 REVERT JUMPDEST PUSH1 0x0 SWAP2 DUP3 MSTORE PUSH1 0x20 SWAP1 SWAP2 KECCAK256 ADD SLOAD PUSH1 0x1 PUSH1 0x1 PUSH1 0xA0 SHL SUB AND SWAP1 POP DUP2 JUMP JUMPDEST PUSH2 0x48A PUSH2 0xC16 JUMP JUMPDEST PUSH1 0x0 JUMPDEST PUSH1 0x4 SLOAD DUP2 LT ISZERO PUSH2 0x55A JUMPI PUSH1 0x0 PUSH1 0x4 DUP3 DUP2 SLOAD DUP2 LT PUSH2 0x4AC JUMPI PUSH2 0x4AC PUSH2 0xDEB JUMP JUMPDEST PUSH1 0x0 SWAP2 DUP3 MSTORE PUSH1 0x20 DUP3 KECCAK256 ADD SLOAD PUSH1 0x1 PUSH1 0x1 PUSH1 0xA0 SHL SUB AND SWAP2 POP PUSH2 0x4CB DUP3 PUSH2 0x7B8 JUMP JUMPDEST PUSH1 0xA SLOAD PUSH1 0x40 MLOAD PUSH4 0xA9059CBB PUSH1 0xE0 SHL DUP2 MSTORE PUSH1 0x1 PUSH1 0x1 PUSH1 0xA0 SHL SUB DUP6 DUP2 AND PUSH1 0x4 DUP4 ADD MSTORE PUSH1 0x24 DUP3 ADD DUP5 SWAP1 MSTORE SWAP3 SWAP4 POP SWAP2 AND SWAP1 PUSH4 0xA9059CBB SWAP1 PUSH1 0x44 ADD PUSH1 0x20 PUSH1 0x40 MLOAD DUP1 DUP4 SUB DUP2 PUSH1 0x0 DUP8 GAS CALL ISZERO DUP1 ISZERO PUSH2 0x520 JUMPI RETURNDATASIZE PUSH1 0x0 DUP1 RETURNDATACOPY RETURNDATASIZE PUSH1 0x0 REVERT JUMPDEST POP POP POP POP PUSH1 0x40 MLOAD RETURNDATASIZE PUSH1 0x1F NOT PUSH1 0x1F DUP3 ADD AND DUP3 ADD DUP1 PUSH1 0x40 MSTORE POP DUP2 ADD SWAP1 PUSH2 0x544 SWAP2 SWAP1 PUSH2 0xE30 JUMP JUMPDEST POP POP POP DUP1 DUP1 PUSH2 0x552 SWAP1 PUSH2 0xE17 JUMP JUMPDEST SWAP2 POP POP PUSH2 0x48D JUMP JUMPDEST POP JUMP JUMPDEST PUSH2 0x565 PUSH2 0xC16 JUMP JUMPDEST PUSH1 0x7 DUP1 SLOAD PUSH1 0x1 DUP2 ADD DUP3 SSTORE PUSH1 0x0 SWAP2 SWAP1 SWAP2 MSTORE PUSH32 0xA66CC928B5EDB82AF9BD49922954155AB7B0942694BEA4CE44661D9A8736C688 ADD DUP1 SLOAD PUSH1 0x1 PUSH1 0x1 PUSH1 0xA0 SHL SUB NOT AND PUSH1 0x1 PUSH1 0x1 PUSH1 0xA0 SHL SUB SWAP3 SWAP1 SWAP3 AND SWAP2 SWAP1 SWAP2 OR SWAP1 SSTORE JUMP JUMPDEST PUSH2 0x5BF PUSH2 0xC16 JUMP JUMPDEST PUSH2 0x5C9 PUSH1 0x0 PUSH2 0xC70 JUMP JUMPDEST JUMP JUMPDEST PUSH1 0x4 DUP2 DUP2 SLOAD DUP2 LT PUSH2 0x468 JUMPI PUSH1 0x0 DUP1 REVERT JUMPDEST PUSH2 0x5E3 PUSH2 0xC16 JUMP JUMPDEST PUSH1 0x1 PUSH1 0x1 PUSH1 0xA0 SHL SUB SWAP2 DUP3 AND PUSH1 0x0 SWAP1 DUP2 MSTORE PUSH1 0x6 PUSH1 0x20 MSTORE PUSH1 0x40 SWAP1 KECCAK256 DUP1 SLOAD PUSH1 0x1 PUSH1 0x1 PUSH1 0xA0 SHL SUB NOT AND SWAP2 SWAP1 SWAP3 AND OR SWAP1 SSTORE JUMP JUMPDEST PUSH1 0x1 PUSH1 0x1 PUSH1 0xA0 SHL SUB DUP4 AND PUSH1 0x0 SWAP1 DUP2 MSTORE PUSH1 0x3 PUSH1 0x20 MSTORE PUSH1 0x40 DUP2 KECCAK256 SLOAD PUSH2 0x636 JUMPI POP PUSH1 0x0 PUSH2 0x662 JUMP JUMPDEST PUSH1 0x0 DUP1 PUSH2 0x643 DUP6 DUP6 PUSH2 0xA1B JUMP JUMPDEST SWAP1 SWAP3 POP SWAP1 POP PUSH2 0x653 DUP2 PUSH1 0xA PUSH2 0xF38 JUMP JUMPDEST PUSH2 0x65D SWAP1 DUP4 PUSH2 0xF44 JUMP JUMPDEST SWAP3 POP POP POP JUMPDEST SWAP4 SWAP3 POP POP POP JUMP JUMPDEST PUSH1 0x0 DUP1 JUMPDEST PUSH1 0x7 SLOAD DUP2 LT ISZERO PUSH2 0x44F JUMPI DUP3 PUSH1 0x1 PUSH1 0x1 PUSH1 0xA0 SHL SUB AND PUSH1 0x7 DUP3 DUP2 SLOAD DUP2 LT PUSH2 0x694 JUMPI PUSH2 0x694 PUSH2 0xDEB JUMP JUMPDEST PUSH1 0x0 SWAP2 DUP3 MSTORE PUSH1 0x20 SWAP1 SWAP2 KECCAK256 ADD SLOAD PUSH1 0x1 PUSH1 0x1 PUSH1 0xA0 SHL SUB AND SUB PUSH2 0x6B7 JUMPI POP PUSH1 0x1 SWAP3 SWAP2 POP POP JUMP JUMPDEST DUP1 PUSH2 0x6C1 DUP2 PUSH2 0xE17 JUMP JUMPDEST SWAP2 POP POP PUSH2 0x66D JUMP JUMPDEST PUSH2 0x6D2 DUP6 PUSH2 0x669 JUMP JUMPDEST PUSH2 0x6F7 JUMPI PUSH1 0x40 MLOAD PUSH3 0x461BCD PUSH1 0xE5 SHL DUP2 MSTORE PUSH1 0x4 ADD PUSH2 0x6EE SWAP1 PUSH2 0xF66 JUMP JUMPDEST PUSH1 0x40 MLOAD DUP1 SWAP2 SUB SWAP1 REVERT JUMPDEST PUSH2 0x701 DUP6 DUP6 PUSH2 0x8C5 JUMP JUMPDEST PUSH2 0x70B CALLER DUP5 PUSH2 0xB92 JUMP JUMPDEST TIMESTAMP PUSH1 0x0 PUSH2 0x719 DUP5 PUSH1 0x18 PUSH2 0xFB2 JUMP JUMPDEST PUSH2 0x724 SWAP1 PUSH1 0x3C PUSH2 0xFB2 JUMP JUMPDEST PUSH2 0x72F SWAP1 PUSH1 0x3C PUSH2 0xFB2 JUMP JUMPDEST PUSH2 0x739 SWAP1 DUP4 PUSH2 0xFC9 JUMP JUMPDEST SWAP1 POP PUSH1 0x0 PUSH1 0x1 SLOAD PUSH1 0xA PUSH2 0x74C SWAP2 SWAP1 PUSH2 0xF38 JUMP JUMPDEST PUSH2 0x756 SWAP1 DUP6 PUSH2 0xF44 JUMP JUMPDEST PUSH2 0x761 SWAP1 PUSH1 0x1 PUSH2 0xFC9 JUMP JUMPDEST PUSH2 0x76B SWAP1 DUP8 PUSH2 0xFB2 JUMP JUMPDEST PUSH1 0x1 PUSH1 0x1 PUSH1 0xA0 SHL SUB DUP10 AND PUSH1 0x0 SWAP1 DUP2 MSTORE PUSH1 0x5 PUSH1 0x20 SWAP1 DUP2 MSTORE PUSH1 0x40 DUP1 DUP4 KECCAK256 DUP12 DUP5 MSTORE SWAP1 SWAP2 MSTORE SWAP1 KECCAK256 PUSH1 0x2 DUP2 ADD DUP1 SLOAD PUSH1 0x1 PUSH1 0x1 PUSH1 0xA0 SHL SUB NOT AND CALLER OR SWAP1 SSTORE PUSH1 0x1 DUP2 ADD DUP5 SWAP1 SSTORE DUP2 SWAP1 SSTORE SWAP1 POP POP POP POP POP POP POP POP POP JUMP JUMPDEST PUSH1 0x1 PUSH1 0x1 PUSH1 0xA0 SHL SUB DUP2 AND PUSH1 0x0 SWAP1 DUP2 MSTORE PUSH1 0x3 PUSH1 0x20 MSTORE PUSH1 0x40 DUP2 KECCAK256 SLOAD DUP2 SWAP1 PUSH2 0x7E0 JUMPI POP PUSH1 0x0 SWAP3 SWAP2 POP POP JUMP JUMPDEST PUSH1 0x0 JUMPDEST PUSH1 0x1 PUSH1 0x1 PUSH1 0xA0 SHL SUB DUP5 AND PUSH1 0x0 SWAP1 DUP2 MSTORE PUSH1 0x3 PUSH1 0x20 MSTORE PUSH1 0x40 SWAP1 KECCAK256 SLOAD DUP2 LT ISZERO PUSH2 0x85A JUMPI PUSH1 0x1 PUSH1 0x1 PUSH1 0xA0 SHL SUB DUP5 DUP2 AND PUSH1 0x0 SWAP1 DUP2 MSTORE PUSH1 0x2 PUSH1 0x20 SWAP1 DUP2 MSTORE PUSH1 0x40 DUP1 DUP4 KECCAK256 DUP6 DUP5 MSTORE SWAP1 SWAP2 MSTORE SWAP1 KECCAK256 DUP1 SLOAD PUSH1 0x1 SWAP1 SWAP2 ADD SLOAD PUSH2 0x83C SWAP3 DUP8 SWAP3 AND SWAP1 PUSH2 0x611 JUMP JUMPDEST PUSH2 0x846 SWAP1 DUP4 PUSH2 0xFC9 JUMP JUMPDEST SWAP2 POP DUP1 PUSH2 0x852 DUP2 PUSH2 0xE17 JUMP JUMPDEST SWAP2 POP POP PUSH2 0x7E3 JUMP JUMPDEST POP SWAP3 SWAP2 POP POP JUMP JUMPDEST PUSH2 0x86A CALLER PUSH2 0x3EF JUMP JUMPDEST PUSH2 0x8C1 JUMPI PUSH1 0x40 MLOAD PUSH3 0x461BCD PUSH1 0xE5 SHL DUP2 MSTORE PUSH1 0x20 PUSH1 0x4 DUP3 ADD MSTORE PUSH1 0x22 PUSH1 0x24 DUP3 ADD MSTORE PUSH32 0x4F6E6C7920626F72726F7765722063616E2063616C6C2074686973206D657468 PUSH1 0x44 DUP3 ADD MSTORE PUSH2 0x1BD9 PUSH1 0xF2 SHL PUSH1 0x64 DUP3 ADD MSTORE PUSH1 0x84 ADD PUSH2 0x6EE JUMP JUMPDEST POP POP JUMP JUMPDEST PUSH2 0x8CE DUP3 PUSH2 0x669 JUMP JUMPDEST PUSH2 0x8EA JUMPI PUSH1 0x40 MLOAD PUSH3 0x461BCD PUSH1 0xE5 SHL DUP2 MSTORE PUSH1 0x4 ADD PUSH2 0x6EE SWAP1 PUSH2 0xF66 JUMP JUMPDEST PUSH1 0x40 MLOAD PUSH4 0x23B872DD PUSH1 0xE0 SHL DUP2 MSTORE CALLER PUSH1 0x4 DUP3 ADD MSTORE ADDRESS PUSH1 0x24 DUP3 ADD MSTORE PUSH1 0x44 DUP2 ADD DUP3 SWAP1 MSTORE PUSH1 0x1 PUSH1 0x1 PUSH1 0xA0 SHL SUB DUP4 AND SWAP1 PUSH4 0x23B872DD SWAP1 PUSH1 0x64 ADD PUSH1 0x0 PUSH1 0x40 MLOAD DUP1 DUP4 SUB DUP2 PUSH1 0x0 DUP8 DUP1 EXTCODESIZE ISZERO DUP1 ISZERO PUSH2 0x938 JUMPI PUSH1 0x0 DUP1 REVERT JUMPDEST POP GAS CALL ISZERO DUP1 ISZERO PUSH2 0x94C JUMPI RETURNDATASIZE PUSH1 0x0 DUP1 RETURNDATACOPY RETURNDATASIZE PUSH1 0x0 REVERT JUMPDEST POP POP CALLER PUSH1 0x0 DUP2 DUP2 MSTORE PUSH1 0x2 PUSH1 0x20 SWAP1 DUP2 MSTORE PUSH1 0x40 DUP1 DUP4 KECCAK256 PUSH1 0x3 DUP1 DUP5 MSTORE DUP3 DUP6 KECCAK256 DUP1 SLOAD DUP7 MSTORE SWAP2 DUP5 MSTORE DUP3 DUP6 KECCAK256 DUP1 SLOAD PUSH1 0x1 PUSH1 0x1 PUSH1 0xA0 SHL SUB NOT AND PUSH1 0x1 PUSH1 0x1 PUSH1 0xA0 SHL SUB DUP13 AND OR SWAP1 SSTORE DUP2 SLOAD DUP6 MSTORE SWAP2 DUP5 KECCAK256 PUSH1 0x1 ADD DUP9 SWAP1 SSTORE SWAP4 DUP4 MSTORE SWAP1 MSTORE SWAP1 SLOAD SWAP1 SUB SWAP2 POP PUSH2 0x9EC SWAP1 POP JUMPI PUSH1 0x4 DUP1 SLOAD PUSH1 0x1 DUP2 ADD DUP3 SSTORE PUSH1 0x0 SWAP2 SWAP1 SWAP2 MSTORE PUSH32 0x8A35ACFBC15FF81A39AE7D344FD709F28E8600B4AA8C65C6B64BFE7FE36BD19B ADD DUP1 SLOAD PUSH1 0x1 PUSH1 0x1 PUSH1 0xA0 SHL SUB NOT AND CALLER OR SWAP1 SSTORE JUMPDEST CALLER PUSH1 0x0 SWAP1 DUP2 MSTORE PUSH1 0x3 PUSH1 0x20 MSTORE PUSH1 0x40 SWAP1 KECCAK256 SLOAD PUSH2 0xA07 SWAP1 PUSH1 0x1 PUSH2 0xFC9 JUMP JUMPDEST CALLER PUSH1 0x0 SWAP1 DUP2 MSTORE PUSH1 0x3 PUSH1 0x20 MSTORE PUSH1 0x40 SWAP1 KECCAK256 SSTORE POP POP JUMP JUMPDEST PUSH1 0x1 PUSH1 0x1 PUSH1 0xA0 SHL SUB DUP1 DUP4 AND PUSH1 0x0 SWAP1 DUP2 MSTORE PUSH1 0x6 PUSH1 0x20 MSTORE PUSH1 0x40 DUP1 DUP3 KECCAK256 SLOAD DUP2 MLOAD PUSH4 0x3FABE5A3 PUSH1 0xE2 SHL DUP2 MSTORE SWAP2 MLOAD SWAP3 SWAP4 DUP5 SWAP4 SWAP2 AND SWAP2 DUP3 SWAP2 DUP5 SWAP2 DUP4 SWAP2 PUSH4 0xFEAF968C SWAP2 PUSH1 0x4 DUP1 DUP3 ADD SWAP3 PUSH1 0xA0 SWAP3 SWAP1 SWAP2 SWAP1 DUP3 SWAP1 SUB ADD DUP2 DUP7 GAS STATICCALL ISZERO DUP1 ISZERO PUSH2 0xA7C JUMPI RETURNDATASIZE PUSH1 0x0 DUP1 RETURNDATACOPY RETURNDATASIZE PUSH1 0x0 REVERT JUMPDEST POP POP POP POP PUSH1 0x40 MLOAD RETURNDATASIZE PUSH1 0x1F NOT PUSH1 0x1F DUP3 ADD AND DUP3 ADD DUP1 PUSH1 0x40 MSTORE POP DUP2 ADD SWAP1 PUSH2 0xAA0 SWAP2 SWAP1 PUSH2 0xFF6 JUMP JUMPDEST POP POP POP SWAP2 POP POP PUSH1 0x0 DUP3 PUSH1 0x1 PUSH1 0x1 PUSH1 0xA0 SHL SUB AND PUSH4 0x313CE567 PUSH1 0x40 MLOAD DUP2 PUSH4 0xFFFFFFFF AND PUSH1 0xE0 SHL DUP2 MSTORE PUSH1 0x4 ADD PUSH1 0x20 PUSH1 0x40 MLOAD DUP1 DUP4 SUB DUP2 DUP7 GAS STATICCALL ISZERO DUP1 ISZERO PUSH2 0xAE6 JUMPI RETURNDATASIZE PUSH1 0x0 DUP1 RETURNDATACOPY RETURNDATASIZE PUSH1 0x0 REVERT JUMPDEST POP POP POP POP PUSH1 0x40 MLOAD RETURNDATASIZE PUSH1 0x1F NOT PUSH1 0x1F DUP3 ADD AND DUP3 ADD DUP1 PUSH1 0x40 MSTORE POP DUP2 ADD SWAP1 PUSH2 0xB0A SWAP2 SWAP1 PUSH2 0x1046 JUMP JUMPDEST SWAP2 SWAP6 POP POP PUSH1 0xFF AND SWAP3 POP POP POP SWAP3 POP SWAP3 SWAP1 POP JUMP JUMPDEST PUSH2 0xB24 PUSH2 0xC16 JUMP JUMPDEST PUSH1 0x1 PUSH1 0x1 PUSH1 0xA0 SHL SUB DUP2 AND PUSH2 0xB89 JUMPI PUSH1 0x40 MLOAD PUSH3 0x461BCD PUSH1 0xE5 SHL DUP2 MSTORE PUSH1 0x20 PUSH1 0x4 DUP3 ADD MSTORE PUSH1 0x26 PUSH1 0x24 DUP3 ADD MSTORE PUSH32 0x4F776E61626C653A206E6577206F776E657220697320746865207A65726F2061 PUSH1 0x44 DUP3 ADD MSTORE PUSH6 0x646472657373 PUSH1 0xD0 SHL PUSH1 0x64 DUP3 ADD MSTORE PUSH1 0x84 ADD PUSH2 0x6EE JUMP JUMPDEST PUSH2 0x55A DUP2 PUSH2 0xC70 JUMP JUMPDEST PUSH2 0xB9A PUSH2 0xC16 JUMP JUMPDEST PUSH1 0xB SLOAD PUSH1 0x40 MLOAD PUSH4 0xA9059CBB PUSH1 0xE0 SHL DUP2 MSTORE PUSH1 0x1 PUSH1 0x1 PUSH1 0xA0 SHL SUB DUP5 DUP2 AND PUSH1 0x4 DUP4 ADD MSTORE PUSH1 0x24 DUP3 ADD DUP5 SWAP1 MSTORE SWAP1 SWAP2 AND SWAP1 PUSH4 0xA9059CBB SWAP1 PUSH1 0x44 ADD PUSH1 0x20 PUSH1 0x40 MLOAD DUP1 DUP4 SUB DUP2 PUSH1 0x0 DUP8 GAS CALL ISZERO DUP1 ISZERO PUSH2 0xBED JUMPI RETURNDATASIZE PUSH1 0x0 DUP1 RETURNDATACOPY RETURNDATASIZE PUSH1 0x0 REVERT JUMPDEST POP POP POP POP PUSH1 0x40 MLOAD RETURNDATASIZE PUSH1 0x1F NOT PUSH1 0x1F DUP3 ADD AND DUP3 ADD DUP1 PUSH1 0x40 MSTORE POP DUP2 ADD SWAP1 PUSH2 0xC11 SWAP2 SWAP1 PUSH2 0xE30 JUMP JUMPDEST POP POP POP JUMP JUMPDEST PUSH1 0x0 SLOAD PUSH1 0x1 PUSH1 0x1 PUSH1 0xA0 SHL SUB AND CALLER EQ PUSH2 0x5C9 JUMPI PUSH1 0x40 MLOAD PUSH3 0x461BCD PUSH1 0xE5 SHL DUP2 MSTORE PUSH1 0x20 PUSH1 0x4 DUP3 ADD DUP2 SWAP1 MSTORE PUSH1 0x24 DUP3 ADD MSTORE PUSH32 0x4F776E61626C653A2063616C6C6572206973206E6F7420746865206F776E6572 PUSH1 0x44 DUP3 ADD MSTORE PUSH1 0x64 ADD PUSH2 0x6EE JUMP JUMPDEST PUSH1 0x0 DUP1 SLOAD PUSH1 0x1 PUSH1 0x1 PUSH1 0xA0 SHL SUB DUP4 DUP2 AND PUSH1 0x1 PUSH1 0x1 PUSH1 0xA0 SHL SUB NOT DUP4 AND DUP2 OR DUP5 SSTORE PUSH1 0x40 MLOAD SWAP2 SWAP1 SWAP3 AND SWAP3 DUP4 SWAP2 PUSH32 0x8BE0079C531659141344CD1FD0A4F28419497F9722A3DAAFE3B4186F6B6457E0 SWAP2 SWAP1 LOG3 POP POP JUMP JUMPDEST DUP1 CALLDATALOAD PUSH1 0x1 PUSH1 0x1 PUSH1 0xA0 SHL SUB DUP2 AND DUP2 EQ PUSH2 0xCD7 JUMPI PUSH1 0x0 DUP1 REVERT JUMPDEST SWAP2 SWAP1 POP JUMP JUMPDEST PUSH1 0x0 PUSH1 0x20 DUP3 DUP5 SUB SLT ISZERO PUSH2 0xCEE JUMPI PUSH1 0x0 DUP1 REVERT JUMPDEST PUSH2 0x662 DUP3 PUSH2 0xCC0 JUMP JUMPDEST PUSH1 0x0 DUP1 PUSH1 0x40 DUP4 DUP6 SUB SLT ISZERO PUSH2 0xD0A JUMPI PUSH1 0x0 DUP1 REVERT JUMPDEST PUSH2 0xD13 DUP4 PUSH2 0xCC0 JUMP JUMPDEST SWAP5 PUSH1 0x20 SWAP4 SWAP1 SWAP4 ADD CALLDATALOAD SWAP4 POP POP POP JUMP JUMPDEST PUSH1 0x0 PUSH1 0x20 DUP3 DUP5 SUB SLT ISZERO PUSH2 0xD33 JUMPI PUSH1 0x0 DUP1 REVERT JUMPDEST POP CALLDATALOAD SWAP2 SWAP1 POP JUMP JUMPDEST PUSH1 0x0 DUP1 PUSH1 0x40 DUP4 DUP6 SUB SLT ISZERO PUSH2 0xD4D JUMPI PUSH1 0x0 DUP1 REVERT JUMPDEST PUSH2 0xD56 DUP4 PUSH2 0xCC0 JUMP JUMPDEST SWAP2 POP PUSH2 0xD64 PUSH1 0x20 DUP5 ADD PUSH2 0xCC0 JUMP JUMPDEST SWAP1 POP SWAP3 POP SWAP3 SWAP1 POP JUMP JUMPDEST PUSH1 0x0 DUP1 PUSH1 0x0 PUSH1 0x60 DUP5 DUP7 SUB SLT ISZERO PUSH2 0xD82 JUMPI PUSH1 0x0 DUP1 REVERT JUMPDEST PUSH2 0xD8B DUP5 PUSH2 0xCC0 JUMP JUMPDEST SWAP3 POP PUSH2 0xD99 PUSH1 0x20 DUP6 ADD PUSH2 0xCC0 JUMP JUMPDEST SWAP2 POP PUSH1 0x40 DUP5 ADD CALLDATALOAD SWAP1 POP SWAP3 POP SWAP3 POP SWAP3 JUMP JUMPDEST PUSH1 0x0 DUP1 PUSH1 0x0 DUP1 PUSH1 0x0 PUSH1 0xA0 DUP7 DUP9 SUB SLT ISZERO PUSH2 0xDC1 JUMPI PUSH1 0x0 DUP1 REVERT JUMPDEST PUSH2 0xDCA DUP7 PUSH2 0xCC0 JUMP JUMPDEST SWAP8 PUSH1 0x20 DUP8 ADD CALLDATALOAD SWAP8 POP PUSH1 0x40 DUP8 ADD CALLDATALOAD SWAP7 PUSH1 0x60 DUP2 ADD CALLDATALOAD SWAP7 POP PUSH1 0x80 ADD CALLDATALOAD SWAP5 POP SWAP3 POP POP POP JUMP JUMPDEST PUSH4 0x4E487B71 PUSH1 0xE0 SHL PUSH1 0x0 MSTORE PUSH1 0x32 PUSH1 0x4 MSTORE PUSH1 0x24 PUSH1 0x0 REVERT JUMPDEST PUSH4 0x4E487B71 PUSH1 0xE0 SHL PUSH1 0x0 MSTORE PUSH1 0x11 PUSH1 0x4 MSTORE PUSH1 0x24 PUSH1 0x0 REVERT JUMPDEST PUSH1 0x0 PUSH1 0x1 DUP3 ADD PUSH2 0xE29 JUMPI PUSH2 0xE29 PUSH2 0xE01 JUMP JUMPDEST POP PUSH1 0x1 ADD SWAP1 JUMP JUMPDEST PUSH1 0x0 PUSH1 0x20 DUP3 DUP5 SUB SLT ISZERO PUSH2 0xE42 JUMPI PUSH1 0x0 DUP1 REVERT JUMPDEST DUP2 MLOAD DUP1 ISZERO ISZERO DUP2 EQ PUSH2 0x662 JUMPI PUSH1 0x0 DUP1 REVERT JUMPDEST PUSH1 0x1 DUP2 DUP2 JUMPDEST DUP1 DUP6 GT ISZERO PUSH2 0xE8D JUMPI DUP2 PUSH1 0x0 NOT DIV DUP3 GT ISZERO PUSH2 0xE73 JUMPI PUSH2 0xE73 PUSH2 0xE01 JUMP JUMPDEST DUP1 DUP6 AND ISZERO PUSH2 0xE80 JUMPI SWAP2 DUP2 MUL SWAP2 JUMPDEST SWAP4 DUP5 SHR SWAP4 SWAP1 DUP1 MUL SWAP1 PUSH2 0xE57 JUMP JUMPDEST POP SWAP3 POP SWAP3 SWAP1 POP JUMP JUMPDEST PUSH1 0x0 DUP3 PUSH2 0xEA4 JUMPI POP PUSH1 0x1 PUSH2 0xF32 JUMP JUMPDEST DUP2 PUSH2 0xEB1 JUMPI POP PUSH1 0x0 PUSH2 0xF32 JUMP JUMPDEST DUP2 PUSH1 0x1 DUP2 EQ PUSH2 0xEC7 JUMPI PUSH1 0x2 DUP2 EQ PUSH2 0xED1 JUMPI PUSH2 0xEED JUMP JUMPDEST PUSH1 0x1 SWAP2 POP POP PUSH2 0xF32 JUMP JUMPDEST PUSH1 0xFF DUP5 GT ISZERO PUSH2 0xEE2 JUMPI PUSH2 0xEE2 PUSH2 0xE01 JUMP JUMPDEST POP POP PUSH1 0x1 DUP3 SHL PUSH2 0xF32 JUMP JUMPDEST POP PUSH1 0x20 DUP4 LT PUSH2 0x133 DUP4 LT AND PUSH1 0x4E DUP5 LT PUSH1 0xB DUP5 LT AND OR ISZERO PUSH2 0xF10 JUMPI POP DUP2 DUP2 EXP PUSH2 0xF32 JUMP JUMPDEST PUSH2 0xF1A DUP4 DUP4 PUSH2 0xE52 JUMP JUMPDEST DUP1 PUSH1 0x0 NOT DIV DUP3 GT ISZERO PUSH2 0xF2E JUMPI PUSH2 0xF2E PUSH2 0xE01 JUMP JUMPDEST MUL SWAP1 POP JUMPDEST SWAP3 SWAP2 POP POP JUMP JUMPDEST PUSH1 0x0 PUSH2 0x662 DUP4 DUP4 PUSH2 0xE95 JUMP JUMPDEST PUSH1 0x0 DUP3 PUSH2 0xF61 JUMPI PUSH4 0x4E487B71 PUSH1 0xE0 SHL PUSH1 0x0 MSTORE PUSH1 0x12 PUSH1 0x4 MSTORE PUSH1 0x24 PUSH1 0x0 REVERT JUMPDEST POP DIV SWAP1 JUMP JUMPDEST PUSH1 0x20 DUP1 DUP3 MSTORE PUSH1 0x2C SWAP1 DUP3 ADD MSTORE PUSH32 0x63757272656E74206E6674206973206E6F7420616C6C6F77656420696E206F75 PUSH1 0x40 DUP3 ADD MSTORE PUSH12 0x722077686974656C69737421 PUSH1 0xA0 SHL PUSH1 0x60 DUP3 ADD MSTORE PUSH1 0x80 ADD SWAP1 JUMP JUMPDEST DUP1 DUP3 MUL DUP2 ISZERO DUP3 DUP3 DIV DUP5 EQ OR PUSH2 0xF32 JUMPI PUSH2 0xF32 PUSH2 0xE01 JUMP JUMPDEST DUP1 DUP3 ADD DUP1 DUP3 GT ISZERO PUSH2 0xF32 JUMPI PUSH2 0xF32 PUSH2 0xE01 JUMP JUMPDEST DUP1 MLOAD PUSH10 0xFFFFFFFFFFFFFFFFFFFF DUP2 AND DUP2 EQ PUSH2 0xCD7 JUMPI PUSH1 0x0 DUP1 REVERT JUMPDEST PUSH1 0x0 DUP1 PUSH1 0x0 DUP1 PUSH1 0x0 PUSH1 0xA0 DUP7 DUP9 SUB SLT ISZERO PUSH2 0x100E JUMPI PUSH1 0x0 DUP1 REVERT JUMPDEST PUSH2 0x1017 DUP7 PUSH2 0xFDC JUMP JUMPDEST SWAP5 POP PUSH1 0x20 DUP7 ADD MLOAD SWAP4 POP PUSH1 0x40 DUP7 ADD MLOAD SWAP3 POP PUSH1 0x60 DUP7 ADD MLOAD SWAP2 POP PUSH2 0x103A PUSH1 0x80 DUP8 ADD PUSH2 0xFDC JUMP JUMPDEST SWAP1 POP SWAP3 SWAP6 POP SWAP3 SWAP6 SWAP1 SWAP4 POP JUMP JUMPDEST PUSH1 0x0 PUSH1 0x20 DUP3 DUP5 SUB SLT ISZERO PUSH2 0x1058 JUMPI PUSH1 0x0 DUP1 REVERT JUMPDEST DUP2 MLOAD PUSH1 0xFF DUP2 AND DUP2 EQ PUSH2 0x662 JUMPI PUSH1 0x0 DUP1 REVERT INVALID LOG2 PUSH5 0x6970667358 0x22 SLT KECCAK256 0xC5 0xF7 0xAD 0xC 0xB1 0x4C 0xBD SWAP5 SWAP15 0xE PUSH19 0xBA64FA90CCEC501CBB7A14AE174D7670B20F9 RETURN 0x1F PUSH5 0x736F6C6343 STOP ADDMOD GT STOP CALLER ","sha1":"0532c31ce16f0bada6e58a95e28382f7a83f126f","source":"//SPDX-License-Identifier: MIT\n\n// this will be upgraded for new roles and procedures\n// principles: minimize memory storage, breakdown a complex on-chain action to several short actions\n// roles: borrower, liquidator, inspector, validator(about price info.)\n//      inspector should be the owner of the contract, sometimes as liquidator\n//      validator acts as priceFeed Aggregator, when expired highest quote one of them\n//      can change into liquidator when they deposit the quoteAmount (internal)\n// Must functions: connectWallet, showLoanableNFT, setBasePrice(real fp deal in 14days), setThreshold(e.g., 60%on base price),\n//                 autoGenOffers(3 offers: amount[100,80,60], period[3,7,14], APR[80,100,120], +some random disturbation),\n//                 manGenOffers(amount, period, APR, ),\n//                 updateOffers(offerIndex, update=0:del/1:update/2)\n//                 acceptOffer(approveTransfer, nftDeposit,loanTransfer)\n// Later functions: getPrice, showOffers, makeOffers, approve,sendOffers(by validators)\n// objects: offer{evalAmount, loanPeriod, interest}\n// Global array: arrPeriod[3,7,14], arrAPR, arrLoanRatio\n// randome value: randDeltaAPR,randDeltaLoanRatio\n// Global mappings will be used:\n//      nftAddr->nftID->{ownerAddress, interest, repayAmount, loanTime{initTime, period, expireTime}}\n//      liquidatorAddr->depositLiquid (pre-deposited amount of liquidator)\n// Must check after repay & before return NFTs: ownerAddress, repayAmount, time\n// after loan: ownerAddress should be updated to borrower address\n// after expiration: ownerAddress should be updated to liquidator address\n// ? how to get rarity info. then corresponding evalPrice -> metadata\n// ? how to achieve bundle or reduce gas fee\n//\npragma solidity ^0.8.0;\n\nimport \"@openzeppelin/contracts/access/Ownable.sol\";\nimport \"@openzeppelin/contracts/token/ERC721/IERC721.sol\";\nimport \"@openzeppelin/contracts/token/ERC20/IERC20.sol\";\nimport \"@chainlink/contracts/src/v0.8/interfaces/AggregatorV3Interface.sol\";\n\ncontract Escrow is Ownable {\n    struct addressId {\n        address _nftAddress;\n        uint256 _nftId;\n    }\n    struct loanOffer {\n        uint256 _loanAmount; //18 decimals in ether(wei)\n        uint256 _loanDays; // in days\n        uint256 _loanInterest; //with decimals 10**4, e.g. 2.83% = 283/(10**4)\n    }\n    uint256 interestDecimals = 4;\n    struct nftLockParameters {\n        uint256 _repayAmount; //18 decimals in ether(wei)\n        // uint256 _lockInitTime; // in seconds\n        uint256 _expireTime; // in seconds\n        address _holderAddress;\n    }\n    // mapping borrower address -> borrower stake index -> staked NFT address and ID\n    mapping(address => mapping(uint256 => addressId)) public stakedNftAddressId;\n    mapping(address => uint256) numOfNftStaked;\n    address[] public borrowers;\n    // mapping nft address -> nft id -> {priceFeed, loanPeriod, repayAmount, holderAddress}\n    // ? consider using struct too? maybe more memory saving?\n    mapping(address => mapping(uint256 => nftLockParameters)) nftLoanLockData;\n    // for priceFeed, currently can not get precise control on nft id and\n    // so move forward with nft address only\n    // mapping(address => mapping(uint256 => address)) nftPriceFeedMapping;\n    mapping(address => address) nftPriceFeedMapping;\n    // mapping(address => mapping(uint256 => address)) nftHolderAddress;\n    // mapping(address => mapping(uint256 => uint256)) nftLockPeriod;\n    // mapping(address => mapping(uint256 => uint256)) nftRepayAmount;\n\n    //\n\n    address[] public allowedNfts;\n    address public lender;\n    address public inspector;\n\n    IERC20 public dappToken;\n    IERC20 public loanToken;\n\n    constructor(address _dappTokenAddress, address _loanTokenAddress) public {\n        dappToken = IERC20(_dappTokenAddress);\n        loanToken = IERC20(_loanTokenAddress);\n    }\n\n    function nftUnStaking(address _nftAddress, uint256 _nftId)\n        public\n        onlyBorrower\n    {\n        // must satisfy:\n        // 1. time not expire,\n        // 2. repay enough,\n        // 3. the owner is the owner\n    }\n\n    function loanTransfer(address _nftHolderAddress, uint256 _loanAmount)\n        public\n        onlyOwner\n    {\n        // is onlyOwner used here correct?\n        loanToken.transfer(_nftHolderAddress, _loanAmount);\n    }\n\n    function nftStaking(address _nftAddress, uint256 _nftId) public {\n        // what NFT can they stake?\n        require(\n            nftIsAllowed(_nftAddress),\n            \"current nft is not allowed in our whitelist!\"\n        );\n        IERC721(_nftAddress).transferFrom(msg.sender, address(this), _nftId);\n        stakedNftAddressId[msg.sender][numOfNftStaked[msg.sender]]\n            ._nftAddress = _nftAddress;\n        stakedNftAddressId[msg.sender][numOfNftStaked[msg.sender]]\n            ._nftId = _nftId;\n        if (numOfNftStaked[msg.sender] == 0) {\n            borrowers.push(msg.sender);\n        }\n        numOfNftStaked[msg.sender] = numOfNftStaked[msg.sender] + 1;\n    }\n\n    function nftLock(\n        address _nftAddress,\n        uint256 _nftId,\n        address _holderAddress,\n        uint256 _expireTime,\n        uint256 _repayAmount\n    ) internal {\n        // nft lock parameters setting, is the function public ok?\n        nftLoanLockData[_nftAddress][_nftId]._holderAddress = _holderAddress;\n        nftLoanLockData[_nftAddress][_nftId]._expireTime = _expireTime;\n        nftLoanLockData[_nftAddress][_nftId]._repayAmount = _repayAmount;\n    }\n\n    function getNftLockData(address _nftAddress, uint256 _nftId)\n        public\n        view\n        returns (\n            address,\n            uint256,\n            uint256\n        )\n    {\n        return (\n            nftLoanLockData[_nftAddress][_nftId]._holderAddress,\n            nftLoanLockData[_nftAddress][_nftId]._expireTime,\n            nftLoanLockData[_nftAddress][_nftId]._repayAmount\n        );\n    }\n\n    function requestLoan(\n        address _nftAddress,\n        uint256 _nftId,\n        uint256 _loanAmount,\n        uint256 _loanDays,\n        uint256 _loanInterest\n    ) public {\n        require(\n            nftIsAllowed(_nftAddress),\n            \"current nft is not allowed in our whitelist!\"\n        );\n        nftStaking(_nftAddress, _nftId);\n        loanTransfer(address(msg.sender), _loanAmount);\n        uint256 initTime = block.timestamp;\n        uint256 expireTime = initTime + _loanDays * 24 * 60 * 60;\n        uint256 repayAmount = _loanAmount *\n            (1 + _loanInterest / (10**interestDecimals));\n        nftLock(\n            _nftAddress,\n            _nftId,\n            address(msg.sender),\n            expireTime,\n            repayAmount\n        );\n    }\n\n    function addAllowedNfts(address _nftAddress) public onlyOwner {\n        allowedNfts.push(_nftAddress);\n    }\n\n    function nftIsAllowed(address _nftAddress) public view returns (bool) {\n        for (\n            uint256 allowedNftsIndex = 0;\n            allowedNftsIndex < allowedNfts.length;\n            allowedNftsIndex++\n        ) {\n            if (allowedNfts[allowedNftsIndex] == _nftAddress) {\n                return true;\n            }\n        }\n        return false;\n    }\n\n    modifier onlyLender() {\n        require(msg.sender == lender, \"Only lender can call this method\");\n        _;\n    }\n\n    function isBorrowers(address _user) public view returns (bool) {\n        for (uint256 index = 0; index < allowedNfts.length; index++) {\n            if (borrowers[index] == _user) {\n                return true;\n            }\n        }\n        return false;\n    }\n\n    modifier onlyBorrower() {\n        require(isBorrowers(msg.sender), \"Only borrower can call this method\");\n        _;\n    }\n\n    modifier onlyInspector() {\n        require(msg.sender == inspector, \"Only inspector can call this method\");\n        _;\n    }\n\n    function getBalance() public view returns (uint256) {\n        return address(this).balance;\n    }\n\n    // e.g.: give 1 DappToken per loanToken loan\n    function issueTokens() public onlyOwner {\n        // ? get each borrower total loan interest profit\n        // ? get each NFT (address, id) loaned interest profit\n        // Issue tokens to all stakers\n        for (\n            uint256 borrowersIndex = 0;\n            borrowersIndex < borrowers.length;\n            borrowersIndex++\n        ) {\n            address recipient = borrowers[borrowersIndex];\n            uint256 userTotalValue = getUserTotalValue(recipient);\n            dappToken.transfer(recipient, userTotalValue);\n        }\n    }\n\n    function getUserTotalValue(address _user) public view returns (uint256) {\n        uint256 totalValue = 0;\n        // require(numOfNftStaked[_user] > 0, \"No nft staked!\");\n        if (numOfNftStaked[_user] <= 0) {\n            return 0;\n        }\n        for (\n            uint256 nftStakedIndex = 0;\n            nftStakedIndex < numOfNftStaked[_user];\n            nftStakedIndex++\n        ) {\n            totalValue =\n                totalValue +\n                getUserSingleNftValue(\n                    _user,\n                    stakedNftAddressId[_user][nftStakedIndex]._nftAddress,\n                    stakedNftAddressId[_user][nftStakedIndex]._nftId\n                );\n        }\n        return totalValue;\n    }\n\n    function getUserSingleNftValue(\n        address _user,\n        address _nftAddress,\n        uint256 _nftId\n    ) public view returns (uint256) {\n        if (numOfNftStaked[_user] <= 0) {\n            return 0;\n        }\n        (uint256 price, uint256 decimals) = getNftValue(_nftAddress, _nftId);\n        return (price / (10**decimals));\n        // 10000000000000000000 ETH\n        // ETH/USD -> 10000000000\n        // 10 * 100 = 1,000\n    }\n\n    function getNftValue(address _nftAddress, uint256 _nftId)\n        public\n        view\n        returns (uint256, uint256)\n    {\n        // // default setted to 1ETH and 18decimals\n        // return (1, 18);\n\n        // priceFeedAddress\n        // address priceFeedAddress = nftPriceFeedMapping[_nftAddress][_nftId];\n        address priceFeedAddress = nftPriceFeedMapping[_nftAddress];\n        AggregatorV3Interface priceFeed = AggregatorV3Interface(\n            priceFeedAddress\n        );\n        (, int256 price, , , ) = priceFeed.latestRoundData();\n        uint256 decimals = uint256(priceFeed.decimals());\n        return (uint256(price), decimals);\n    }\n\n    function setPriceFeedContract(\n        address _nftAddress,\n        // uint256 _nftId=none,\n        address _priceFeed\n    ) public onlyOwner {\n        // nftPriceFeedMapping[_nftAddress][_nftId] = _priceFeed;\n        nftPriceFeedMapping[_nftAddress] = _priceFeed;\n    }\n}\n","sourcePath":"contracts/Escrow.sol","type":"contract","deployment":{"address":"0x1971b65f66bDB1b38540017d4f79b05a2297E882","chainid":"5","blockHeight":7921983}}