{"abi":[{"inputs":[{"internalType":"address","name":"_dappTokenAddress","type":"address"},{"internalType":"address","name":"_loanTokenAddress","type":"address"}],"stateMutability":"nonpayable","type":"constructor","name":"constructor"},{"anonymous":false,"inputs":[{"indexed":true,"internalType":"address","name":"previousOwner","type":"address"},{"indexed":true,"internalType":"address","name":"newOwner","type":"address"}],"name":"OwnershipTransferred","type":"event"},{"inputs":[{"internalType":"address","name":"_nftAddress","type":"address"}],"name":"addAllowedNfts","outputs":[],"stateMutability":"nonpayable","type":"function"},{"inputs":[{"internalType":"uint256","name":"","type":"uint256"}],"name":"allowedNfts","outputs":[{"internalType":"address","name":"","type":"address"}],"stateMutability":"view","type":"function"},{"inputs":[{"internalType":"uint256","name":"","type":"uint256"}],"name":"borrowers","outputs":[{"internalType":"address","name":"","type":"address"}],"stateMutability":"view","type":"function"},{"inputs":[],"name":"dappToken","outputs":[{"internalType":"contract IERC20","name":"","type":"address"}],"stateMutability":"view","type":"function"},{"inputs":[],"name":"getBalance","outputs":[{"internalType":"uint256","name":"","type":"uint256"}],"stateMutability":"view","type":"function"},{"inputs":[{"internalType":"address","name":"_nftAddress","type":"address"},{"internalType":"uint256","name":"_nftId","type":"uint256"}],"name":"getNftValue","outputs":[{"internalType":"uint256","name":"","type":"uint256"},{"internalType":"uint256","name":"","type":"uint256"}],"stateMutability":"view","type":"function"},{"inputs":[{"internalType":"address","name":"_user","type":"address"},{"internalType":"address","name":"_nftAddress","type":"address"},{"internalType":"uint256","name":"_nftId","type":"uint256"}],"name":"getUserSingleNftValue","outputs":[{"internalType":"uint256","name":"","type":"uint256"}],"stateMutability":"view","type":"function"},{"inputs":[{"internalType":"address","name":"_user","type":"address"}],"name":"getUserTotalValue","outputs":[{"internalType":"uint256","name":"","type":"uint256"}],"stateMutability":"view","type":"function"},{"inputs":[],"name":"inspector","outputs":[{"internalType":"address","name":"","type":"address"}],"stateMutability":"view","type":"function"},{"inputs":[{"internalType":"address","name":"_user","type":"address"}],"name":"isBorrowers","outputs":[{"internalType":"bool","name":"","type":"bool"}],"stateMutability":"nonpayable","type":"function"},{"inputs":[],"name":"issueTokens","outputs":[],"stateMutability":"nonpayable","type":"function"},{"inputs":[],"name":"lender","outputs":[{"internalType":"address","name":"","type":"address"}],"stateMutability":"view","type":"function"},{"inputs":[],"name":"loanToken","outputs":[{"internalType":"contract IERC20","name":"","type":"address"}],"stateMutability":"view","type":"function"},{"inputs":[{"internalType":"address","name":"_nftHolderAddress","type":"address"},{"internalType":"uint256","name":"_loanAmount","type":"uint256"}],"name":"loanTransfer","outputs":[],"stateMutability":"nonpayable","type":"function"},{"inputs":[{"internalType":"address","name":"_nftAddress","type":"address"}],"name":"nftIsAllowed","outputs":[{"internalType":"bool","name":"","type":"bool"}],"stateMutability":"view","type":"function"},{"inputs":[{"internalType":"address","name":"_nftAddress","type":"address"},{"internalType":"uint256","name":"_nftId","type":"uint256"}],"name":"nftStaking","outputs":[],"stateMutability":"nonpayable","type":"function"},{"inputs":[{"internalType":"address","name":"_nftAddress","type":"address"},{"internalType":"uint256","name":"_nftId","type":"uint256"}],"name":"nftUnStaking","outputs":[],"stateMutability":"nonpayable","type":"function"},{"inputs":[],"name":"owner","outputs":[{"internalType":"address","name":"","type":"address"}],"stateMutability":"view","type":"function"},{"inputs":[],"name":"renounceOwnership","outputs":[],"stateMutability":"nonpayable","type":"function"},{"inputs":[{"internalType":"address","name":"_nftAddress","type":"address"},{"internalType":"uint256","name":"_nftId","type":"uint256"},{"internalType":"uint256","name":"_loanAmount","type":"uint256"},{"internalType":"uint256","name":"_loanDays","type":"uint256"},{"internalType":"uint256","name":"_loanInterest","type":"uint256"}],"name":"requestLoan","outputs":[],"stateMutability":"nonpayable","type":"function"},{"inputs":[{"internalType":"address","name":"_nftAddress","type":"address"},{"internalType":"address","name":"_priceFeed","type":"address"}],"name":"setPriceFeedContract","outputs":[],"stateMutability":"nonpayable","type":"function"},{"inputs":[{"internalType":"address","name":"","type":"address"},{"internalType":"uint256","name":"","type":"uint256"}],"name":"stakedNftAddressId","outputs":[{"internalType":"address","name":"_nftAddress","type":"address"},{"internalType":"uint256","name":"_nftId","type":"uint256"}],"stateMutability":"view","type":"function"},{"inputs":[{"internalType":"address","name":"newOwner","type":"address"}],"name":"transferOwnership","outputs":[],"stateMutability":"nonpayable","type":"function"}],"bytecode":"6080604052600460015534801561001557600080fd5b50604051611146380380611146833981016040819052610034916100da565b61003d3361006e565b600a80546001600160a01b039384166001600160a01b031991821617909155600b805492909316911617905561010d565b600080546001600160a01b038381166001600160a01b0319831681178455604051919092169283917f8be0079c531659141344cd1fd0a4f28419497f9722a3daafe3b4186f6b6457e09190a35050565b80516001600160a01b03811681146100d557600080fd5b919050565b600080604083850312156100ed57600080fd5b6100f6836100be565b9150610104602084016100be565b90509250929050565b61102a8061011c6000396000f3fe608060405234801561001057600080fd5b506004361061014d5760003560e01c80638dc3306f116100c3578063bfeecc511161007c578063bfeecc51146102a9578063e45e09a2146102bc578063ec57354b146102e4578063ed2cee9e14610341578063f2fde38b14610354578063fc339d7f1461036757600080fd5b80638dc3306f146102375780638ddefa361461024a578063acdc410d1461025d578063af3f5e2214610270578063bbb6202814610283578063bcead63e1461029657600080fd5b806360ab58521161011557806360ab5852146101db5780636c59eb3b146101e5578063715018a6146101f85780637924d93f14610200578063877dd39d146102135780638da5cb5b1461022657600080fd5b806306d37817146101525780630e32a0e31461018257806312065fe0146101a55780634d23d8af146101b55780635eb186f8146101c8575b600080fd5b600b54610165906001600160a01b031681565b6040516001600160a01b0390911681526020015b60405180910390f35b610195610190366004610c67565b61037a565b6040519015158152602001610179565b475b604051908152602001610179565b6101656101c3366004610c82565b6103e3565b600a54610165906001600160a01b031681565b6101e361040d565b005b6101e36101f3366004610c67565b6104e8565b6101e3610542565b61016561020e366004610c82565b610556565b6101e3610221366004610c9b565b610566565b6000546001600160a01b0316610165565b6101a7610245366004610cce565b61059c565b610195610258366004610c67565b6105f4565b6101e361026b366004610d0a565b610654565b6101a761027e366004610c67565b610743565b6101e3610291366004610d4c565b6107ec565b600854610165906001600160a01b031681565b6101e36102b7366004610d4c565b610850565b6102cf6102ca366004610d4c565b6109a6565b60408051928352602083019190915201610179565b6103226102f2366004610d4c565b6002602090815260009283526040808420909152908252902080546001909101546001600160a01b039091169082565b604080516001600160a01b039093168352602083019190915201610179565b600954610165906001600160a01b031681565b6101e3610362366004610c67565b610aa7565b6101e3610375366004610d4c565b610b1d565b6000805b6007548110156103da57826001600160a01b0316600482815481106103a5576103a5610d76565b6000918252602090912001546001600160a01b0316036103c85750600192915050565b806103d281610da2565b91505061037e565b50600092915050565b600781815481106103f357600080fd5b6000918252602090912001546001600160a01b0316905081565b610415610ba1565b60005b6004548110156104e55760006004828154811061043757610437610d76565b60009182526020822001546001600160a01b0316915061045682610743565b600a5460405163a9059cbb60e01b81526001600160a01b0385811660048301526024820184905292935091169063a9059cbb906044016020604051808303816000875af11580156104ab573d6000803e3d6000fd5b505050506040513d601f19601f820116820180604052508101906104cf9190610dbb565b50505080806104dd90610da2565b915050610418565b50565b6104f0610ba1565b600780546001810182556000919091527fa66cc928b5edb82af9bd49922954155ab7b0942694bea4ce44661d9a8736c6880180546001600160a01b0319166001600160a01b0392909216919091179055565b61054a610ba1565b6105546000610bfb565b565b600481815481106103f357600080fd5b61056e610ba1565b6001600160a01b03918216600090815260066020526040902080546001600160a01b03191691909216179055565b6001600160a01b0383166000908152600360205260408120546105c1575060006105ed565b6000806105ce85856109a6565b90925090506105de81600a610ec3565b6105e89083610ecf565b925050505b9392505050565b6000805b6007548110156103da57826001600160a01b03166007828154811061061f5761061f610d76565b6000918252602090912001546001600160a01b0316036106425750600192915050565b8061064c81610da2565b9150506105f8565b61065d856105f4565b6106825760405162461bcd60e51b815260040161067990610ef1565b60405180910390fd5b61068c8585610850565b6106963384610b1d565b4260006106a4846018610f3d565b6106af90603c610f3d565b6106ba90603c610f3d565b6106c49083610f54565b90506000600154600a6106d79190610ec3565b6106e19085610ecf565b6106ec906001610f54565b6106f69087610f3d565b6001600160a01b03891660009081526005602090815260408083208b845290915290206002810180546001600160a01b031916331790556001810184905581905590505050505050505050565b6001600160a01b038116600090815260036020526040812054819061076b5750600092915050565b60005b6001600160a01b0384166000908152600360205260409020548110156107e5576001600160a01b038481166000908152600260209081526040808320858452909152902080546001909101546107c7928792169061059c565b6107d19083610f54565b9150806107dd81610da2565b91505061076e565b5092915050565b6107f53361037a565b61084c5760405162461bcd60e51b815260206004820152602260248201527f4f6e6c7920626f72726f7765722063616e2063616c6c2074686973206d6574686044820152611bd960f21b6064820152608401610679565b5050565b610859826105f4565b6108755760405162461bcd60e51b815260040161067990610ef1565b6040516323b872dd60e01b8152336004820152306024820152604481018290526001600160a01b038316906323b872dd90606401600060405180830381600087803b1580156108c357600080fd5b505af11580156108d7573d6000803e3d6000fd5b505033600081815260026020908152604080832060038084528285208054865291845282852080546001600160a01b0319166001600160a01b038c16179055815485529184206001018890559383529052905490039150610977905057600480546001810182556000919091527f8a35acfbc15ff81a39ae7d344fd709f28e8600b4aa8c65c6b64bfe7fe36bd19b0180546001600160a01b031916331790555b33600090815260036020526040902054610992906001610f54565b336000908152600360205260409020555050565b6001600160a01b03808316600090815260066020526040808220548151633fabe5a360e21b815291519293849391169182918491839163feaf968c9160048082019260a0929091908290030181865afa158015610a07573d6000803e3d6000fd5b505050506040513d601f19601f82011682018060405250810190610a2b9190610f81565b5050509150506000826001600160a01b031663313ce5676040518163ffffffff1660e01b8152600401602060405180830381865afa158015610a71573d6000803e3d6000fd5b505050506040513d601f19601f82011682018060405250810190610a959190610fd1565b9195505060ff16925050509250929050565b610aaf610ba1565b6001600160a01b038116610b145760405162461bcd60e51b815260206004820152602660248201527f4f776e61626c653a206e6577206f776e657220697320746865207a65726f206160448201526564647265737360d01b6064820152608401610679565b6104e581610bfb565b610b25610ba1565b600b5460405163a9059cbb60e01b81526001600160a01b038481166004830152602482018490529091169063a9059cbb906044016020604051808303816000875af1158015610b78573d6000803e3d6000fd5b505050506040513d601f19601f82011682018060405250810190610b9c9190610dbb565b505050565b6000546001600160a01b031633146105545760405162461bcd60e51b815260206004820181905260248201527f4f776e61626c653a2063616c6c6572206973206e6f7420746865206f776e65726044820152606401610679565b600080546001600160a01b038381166001600160a01b0319831681178455604051919092169283917f8be0079c531659141344cd1fd0a4f28419497f9722a3daafe3b4186f6b6457e09190a35050565b80356001600160a01b0381168114610c6257600080fd5b919050565b600060208284031215610c7957600080fd5b6105ed82610c4b565b600060208284031215610c9457600080fd5b5035919050565b60008060408385031215610cae57600080fd5b610cb783610c4b565b9150610cc560208401610c4b565b90509250929050565b600080600060608486031215610ce357600080fd5b610cec84610c4b565b9250610cfa60208501610c4b565b9150604084013590509250925092565b600080600080600060a08688031215610d2257600080fd5b610d2b86610c4b565b97602087013597506040870135966060810135965060800135945092505050565b60008060408385031215610d5f57600080fd5b610d6883610c4b565b946020939093013593505050565b634e487b7160e01b600052603260045260246000fd5b634e487b7160e01b600052601160045260246000fd5b600060018201610db457610db4610d8c565b5060010190565b600060208284031215610dcd57600080fd5b815180151581146105ed57600080fd5b600181815b80851115610e18578160001904821115610dfe57610dfe610d8c565b80851615610e0b57918102915b93841c9390800290610de2565b509250929050565b600082610e2f57506001610ebd565b81610e3c57506000610ebd565b8160018114610e525760028114610e5c57610e78565b6001915050610ebd565b60ff841115610e6d57610e6d610d8c565b50506001821b610ebd565b5060208310610133831016604e8410600b8410161715610e9b575081810a610ebd565b610ea58383610ddd565b8060001904821115610eb957610eb9610d8c565b0290505b92915050565b60006105ed8383610e20565b600082610eec57634e487b7160e01b600052601260045260246000fd5b500490565b6020808252602c908201527f63757272656e74206e6674206973206e6f7420616c6c6f77656420696e206f7560408201526b722077686974656c6973742160a01b606082015260800190565b8082028115828204841417610ebd57610ebd610d8c565b80820180821115610ebd57610ebd610d8c565b805169ffffffffffffffffffff81168114610c6257600080fd5b600080600080600060a08688031215610f9957600080fd5b610fa286610f67565b9450602086015193506040860151925060608601519150610fc560808701610f67565b90509295509295909350565b600060208284031215610fe357600080fd5b815160ff811681146105ed57600080fdfea2646970667358221220b358331bff1dd3f4908486c9fc5575be7bc4f11f8a48134f770a9ccb72c6199a64736f6c63430008110033","bytecodeSha1":"a1d0d4f32247213e227c892f25759b22686d3ea6","compiler":{"evm_version":"istanbul","optimizer":{"enabled":true,"runs":200},"version":"0.8.17+commit.8df45f5f"},"contractName":"Escrow","language":"Solidity","natspec":{"kind":"dev","methods":{"owner()":{"details":"Returns the address of the current owner."},"renounceOwnership()":{"details":"Leaves the contract without owner. It will not be possible to call `onlyOwner` functions anymore. Can only be called by the current owner. NOTE: Renouncing ownership will leave the contract without an owner, thereby removing any functionality that is only available to the owner."},"transferOwnership(address)":{"details":"Transfers ownership of the contract to a new account (`newOwner`). Can only be called by the current owner."}},"version":1},"opcodes":"PUSH1 0x80 PUSH1 0x40 MSTORE CALLVALUE DUP1 ISZERO PUSH2 0x10 JUMPI PUSH1 0x0 DUP1 REVERT JUMPDEST POP PUSH1 0x4 CALLDATASIZE LT PUSH2 0x14D JUMPI PUSH1 0x0 CALLDATALOAD PUSH1 0xE0 SHR DUP1 PUSH4 0x8DC3306F GT PUSH2 0xC3 JUMPI DUP1 PUSH4 0xBFEECC51 GT PUSH2 0x7C JUMPI DUP1 PUSH4 0xBFEECC51 EQ PUSH2 0x2A9 JUMPI DUP1 PUSH4 0xE45E09A2 EQ PUSH2 0x2BC JUMPI DUP1 PUSH4 0xEC57354B EQ PUSH2 0x2E4 JUMPI DUP1 PUSH4 0xED2CEE9E EQ PUSH2 0x341 JUMPI DUP1 PUSH4 0xF2FDE38B EQ PUSH2 0x354 JUMPI DUP1 PUSH4 0xFC339D7F EQ PUSH2 0x367 JUMPI PUSH1 0x0 DUP1 REVERT JUMPDEST DUP1 PUSH4 0x8DC3306F EQ PUSH2 0x237 JUMPI DUP1 PUSH4 0x8DDEFA36 EQ PUSH2 0x24A JUMPI DUP1 PUSH4 0xACDC410D EQ PUSH2 0x25D JUMPI DUP1 PUSH4 0xAF3F5E22 EQ PUSH2 0x270 JUMPI DUP1 PUSH4 0xBBB62028 EQ PUSH2 0x283 JUMPI DUP1 PUSH4 0xBCEAD63E EQ PUSH2 0x296 JUMPI PUSH1 0x0 DUP1 REVERT JUMPDEST DUP1 PUSH4 0x60AB5852 GT PUSH2 0x115 JUMPI DUP1 PUSH4 0x60AB5852 EQ PUSH2 0x1DB JUMPI DUP1 PUSH4 0x6C59EB3B EQ PUSH2 0x1E5 JUMPI DUP1 PUSH4 0x715018A6 EQ PUSH2 0x1F8 JUMPI DUP1 PUSH4 0x7924D93F EQ PUSH2 0x200 JUMPI DUP1 PUSH4 0x877DD39D EQ PUSH2 0x213 JUMPI DUP1 PUSH4 0x8DA5CB5B EQ PUSH2 0x226 JUMPI PUSH1 0x0 DUP1 REVERT JUMPDEST DUP1 PUSH4 0x6D37817 EQ PUSH2 0x152 JUMPI DUP1 PUSH4 0xE32A0E3 EQ PUSH2 0x182 JUMPI DUP1 PUSH4 0x12065FE0 EQ PUSH2 0x1A5 JUMPI DUP1 PUSH4 0x4D23D8AF EQ PUSH2 0x1B5 JUMPI DUP1 PUSH4 0x5EB186F8 EQ PUSH2 0x1C8 JUMPI JUMPDEST PUSH1 0x0 DUP1 REVERT JUMPDEST PUSH1 0xB SLOAD PUSH2 0x165 SWAP1 PUSH1 0x1 PUSH1 0x1 PUSH1 0xA0 SHL SUB AND DUP2 JUMP JUMPDEST PUSH1 0x40 MLOAD PUSH1 0x1 PUSH1 0x1 PUSH1 0xA0 SHL SUB SWAP1 SWAP2 AND DUP2 MSTORE PUSH1 0x20 ADD JUMPDEST PUSH1 0x40 MLOAD DUP1 SWAP2 SUB SWAP1 RETURN JUMPDEST PUSH2 0x195 PUSH2 0x190 CALLDATASIZE PUSH1 0x4 PUSH2 0xC67 JUMP JUMPDEST PUSH2 0x37A JUMP JUMPDEST PUSH1 0x40 MLOAD SWAP1 ISZERO ISZERO DUP2 MSTORE PUSH1 0x20 ADD PUSH2 0x179 JUMP JUMPDEST SELFBALANCE JUMPDEST PUSH1 0x40 MLOAD SWAP1 DUP2 MSTORE PUSH1 0x20 ADD PUSH2 0x179 JUMP JUMPDEST PUSH2 0x165 PUSH2 0x1C3 CALLDATASIZE PUSH1 0x4 PUSH2 0xC82 JUMP JUMPDEST PUSH2 0x3E3 JUMP JUMPDEST PUSH1 0xA SLOAD PUSH2 0x165 SWAP1 PUSH1 0x1 PUSH1 0x1 PUSH1 0xA0 SHL SUB AND DUP2 JUMP JUMPDEST PUSH2 0x1E3 PUSH2 0x40D JUMP JUMPDEST STOP JUMPDEST PUSH2 0x1E3 PUSH2 0x1F3 CALLDATASIZE PUSH1 0x4 PUSH2 0xC67 JUMP JUMPDEST PUSH2 0x4E8 JUMP JUMPDEST PUSH2 0x1E3 PUSH2 0x542 JUMP JUMPDEST PUSH2 0x165 PUSH2 0x20E CALLDATASIZE PUSH1 0x4 PUSH2 0xC82 JUMP JUMPDEST PUSH2 0x556 JUMP JUMPDEST PUSH2 0x1E3 PUSH2 0x221 CALLDATASIZE PUSH1 0x4 PUSH2 0xC9B JUMP JUMPDEST PUSH2 0x566 JUMP JUMPDEST PUSH1 0x0 SLOAD PUSH1 0x1 PUSH1 0x1 PUSH1 0xA0 SHL SUB AND PUSH2 0x165 JUMP JUMPDEST PUSH2 0x1A7 PUSH2 0x245 CALLDATASIZE PUSH1 0x4 PUSH2 0xCCE JUMP JUMPDEST PUSH2 0x59C JUMP JUMPDEST PUSH2 0x195 PUSH2 0x258 CALLDATASIZE PUSH1 0x4 PUSH2 0xC67 JUMP JUMPDEST PUSH2 0x5F4 JUMP JUMPDEST PUSH2 0x1E3 PUSH2 0x26B CALLDATASIZE PUSH1 0x4 PUSH2 0xD0A JUMP JUMPDEST PUSH2 0x654 JUMP JUMPDEST PUSH2 0x1A7 PUSH2 0x27E CALLDATASIZE PUSH1 0x4 PUSH2 0xC67 JUMP JUMPDEST PUSH2 0x743 JUMP JUMPDEST PUSH2 0x1E3 PUSH2 0x291 CALLDATASIZE PUSH1 0x4 PUSH2 0xD4C JUMP JUMPDEST PUSH2 0x7EC JUMP JUMPDEST PUSH1 0x8 SLOAD PUSH2 0x165 SWAP1 PUSH1 0x1 PUSH1 0x1 PUSH1 0xA0 SHL SUB AND DUP2 JUMP JUMPDEST PUSH2 0x1E3 PUSH2 0x2B7 CALLDATASIZE PUSH1 0x4 PUSH2 0xD4C JUMP JUMPDEST PUSH2 0x850 JUMP JUMPDEST PUSH2 0x2CF PUSH2 0x2CA CALLDATASIZE PUSH1 0x4 PUSH2 0xD4C JUMP JUMPDEST PUSH2 0x9A6 JUMP JUMPDEST PUSH1 0x40 DUP1 MLOAD SWAP3 DUP4 MSTORE PUSH1 0x20 DUP4 ADD SWAP2 SWAP1 SWAP2 MSTORE ADD PUSH2 0x179 JUMP JUMPDEST PUSH2 0x322 PUSH2 0x2F2 CALLDATASIZE PUSH1 0x4 PUSH2 0xD4C JUMP JUMPDEST PUSH1 0x2 PUSH1 0x20 SWAP1 DUP2 MSTORE PUSH1 0x0 SWAP3 DUP4 MSTORE PUSH1 0x40 DUP1 DUP5 KECCAK256 SWAP1 SWAP2 MSTORE SWAP1 DUP3 MSTORE SWAP1 KECCAK256 DUP1 SLOAD PUSH1 0x1 SWAP1 SWAP2 ADD SLOAD PUSH1 0x1 PUSH1 0x1 PUSH1 0xA0 SHL SUB SWAP1 SWAP2 AND SWAP1 DUP3 JUMP JUMPDEST PUSH1 0x40 DUP1 MLOAD PUSH1 0x1 PUSH1 0x1 PUSH1 0xA0 SHL SUB SWAP1 SWAP4 AND DUP4 MSTORE PUSH1 0x20 DUP4 ADD SWAP2 SWAP1 SWAP2 MSTORE ADD PUSH2 0x179 JUMP JUMPDEST PUSH1 0x9 SLOAD PUSH2 0x165 SWAP1 PUSH1 0x1 PUSH1 0x1 PUSH1 0xA0 SHL SUB AND DUP2 JUMP JUMPDEST PUSH2 0x1E3 PUSH2 0x362 CALLDATASIZE PUSH1 0x4 PUSH2 0xC67 JUMP JUMPDEST PUSH2 0xAA7 JUMP JUMPDEST PUSH2 0x1E3 PUSH2 0x375 CALLDATASIZE PUSH1 0x4 PUSH2 0xD4C JUMP JUMPDEST PUSH2 0xB1D JUMP JUMPDEST PUSH1 0x0 DUP1 JUMPDEST PUSH1 0x7 SLOAD DUP2 LT ISZERO PUSH2 0x3DA JUMPI DUP3 PUSH1 0x1 PUSH1 0x1 PUSH1 0xA0 SHL SUB AND PUSH1 0x4 DUP3 DUP2 SLOAD DUP2 LT PUSH2 0x3A5 JUMPI PUSH2 0x3A5 PUSH2 0xD76 JUMP JUMPDEST PUSH1 0x0 SWAP2 DUP3 MSTORE PUSH1 0x20 SWAP1 SWAP2 KECCAK256 ADD SLOAD PUSH1 0x1 PUSH1 0x1 PUSH1 0xA0 SHL SUB AND SUB PUSH2 0x3C8 JUMPI POP PUSH1 0x1 SWAP3 SWAP2 POP POP JUMP JUMPDEST DUP1 PUSH2 0x3D2 DUP2 PUSH2 0xDA2 JUMP JUMPDEST SWAP2 POP POP PUSH2 0x37E JUMP JUMPDEST POP PUSH1 0x0 SWAP3 SWAP2 POP POP JUMP JUMPDEST PUSH1 0x7 DUP2 DUP2 SLOAD DUP2 LT PUSH2 0x3F3 JUMPI PUSH1 0x0 DUP1 REVERT JUMPDEST PUSH1 0x0 SWAP2 DUP3 MSTORE PUSH1 0x20 SWAP1 SWAP2 KECCAK256 ADD SLOAD PUSH1 0x1 PUSH1 0x1 PUSH1 0xA0 SHL SUB AND SWAP1 POP DUP2 JUMP JUMPDEST PUSH2 0x415 PUSH2 0xBA1 JUMP JUMPDEST PUSH1 0x0 JUMPDEST PUSH1 0x4 SLOAD DUP2 LT ISZERO PUSH2 0x4E5 JUMPI PUSH1 0x0 PUSH1 0x4 DUP3 DUP2 SLOAD DUP2 LT PUSH2 0x437 JUMPI PUSH2 0x437 PUSH2 0xD76 JUMP JUMPDEST PUSH1 0x0 SWAP2 DUP3 MSTORE PUSH1 0x20 DUP3 KECCAK256 ADD SLOAD PUSH1 0x1 PUSH1 0x1 PUSH1 0xA0 SHL SUB AND SWAP2 POP PUSH2 0x456 DUP3 PUSH2 0x743 JUMP JUMPDEST PUSH1 0xA SLOAD PUSH1 0x40 MLOAD PUSH4 0xA9059CBB PUSH1 0xE0 SHL DUP2 MSTORE PUSH1 0x1 PUSH1 0x1 PUSH1 0xA0 SHL SUB DUP6 DUP2 AND PUSH1 0x4 DUP4 ADD MSTORE PUSH1 0x24 DUP3 ADD DUP5 SWAP1 MSTORE SWAP3 SWAP4 POP SWAP2 AND SWAP1 PUSH4 0xA9059CBB SWAP1 PUSH1 0x44 ADD PUSH1 0x20 PUSH1 0x40 MLOAD DUP1 DUP4 SUB DUP2 PUSH1 0x0 DUP8 GAS CALL ISZERO DUP1 ISZERO PUSH2 0x4AB JUMPI RETURNDATASIZE PUSH1 0x0 DUP1 RETURNDATACOPY RETURNDATASIZE PUSH1 0x0 REVERT JUMPDEST POP POP POP POP PUSH1 0x40 MLOAD RETURNDATASIZE PUSH1 0x1F NOT PUSH1 0x1F DUP3 ADD AND DUP3 ADD DUP1 PUSH1 0x40 MSTORE POP DUP2 ADD SWAP1 PUSH2 0x4CF SWAP2 SWAP1 PUSH2 0xDBB JUMP JUMPDEST POP POP POP DUP1 DUP1 PUSH2 0x4DD SWAP1 PUSH2 0xDA2 JUMP JUMPDEST SWAP2 POP POP PUSH2 0x418 JUMP JUMPDEST POP JUMP JUMPDEST PUSH2 0x4F0 PUSH2 0xBA1 JUMP JUMPDEST PUSH1 0x7 DUP1 SLOAD PUSH1 0x1 DUP2 ADD DUP3 SSTORE PUSH1 0x0 SWAP2 SWAP1 SWAP2 MSTORE PUSH32 0xA66CC928B5EDB82AF9BD49922954155AB7B0942694BEA4CE44661D9A8736C688 ADD DUP1 SLOAD PUSH1 0x1 PUSH1 0x1 PUSH1 0xA0 SHL SUB NOT AND PUSH1 0x1 PUSH1 0x1 PUSH1 0xA0 SHL SUB SWAP3 SWAP1 SWAP3 AND SWAP2 SWAP1 SWAP2 OR SWAP1 SSTORE JUMP JUMPDEST PUSH2 0x54A PUSH2 0xBA1 JUMP JUMPDEST PUSH2 0x554 PUSH1 0x0 PUSH2 0xBFB JUMP JUMPDEST JUMP JUMPDEST PUSH1 0x4 DUP2 DUP2 SLOAD DUP2 LT PUSH2 0x3F3 JUMPI PUSH1 0x0 DUP1 REVERT JUMPDEST PUSH2 0x56E PUSH2 0xBA1 JUMP JUMPDEST PUSH1 0x1 PUSH1 0x1 PUSH1 0xA0 SHL SUB SWAP2 DUP3 AND PUSH1 0x0 SWAP1 DUP2 MSTORE PUSH1 0x6 PUSH1 0x20 MSTORE PUSH1 0x40 SWAP1 KECCAK256 DUP1 SLOAD PUSH1 0x1 PUSH1 0x1 PUSH1 0xA0 SHL SUB NOT AND SWAP2 SWAP1 SWAP3 AND OR SWAP1 SSTORE JUMP JUMPDEST PUSH1 0x1 PUSH1 0x1 PUSH1 0xA0 SHL SUB DUP4 AND PUSH1 0x0 SWAP1 DUP2 MSTORE PUSH1 0x3 PUSH1 0x20 MSTORE PUSH1 0x40 DUP2 KECCAK256 SLOAD PUSH2 0x5C1 JUMPI POP PUSH1 0x0 PUSH2 0x5ED JUMP JUMPDEST PUSH1 0x0 DUP1 PUSH2 0x5CE DUP6 DUP6 PUSH2 0x9A6 JUMP JUMPDEST SWAP1 SWAP3 POP SWAP1 POP PUSH2 0x5DE DUP2 PUSH1 0xA PUSH2 0xEC3 JUMP JUMPDEST PUSH2 0x5E8 SWAP1 DUP4 PUSH2 0xECF JUMP JUMPDEST SWAP3 POP POP POP JUMPDEST SWAP4 SWAP3 POP POP POP JUMP JUMPDEST PUSH1 0x0 DUP1 JUMPDEST PUSH1 0x7 SLOAD DUP2 LT ISZERO PUSH2 0x3DA JUMPI DUP3 PUSH1 0x1 PUSH1 0x1 PUSH1 0xA0 SHL SUB AND PUSH1 0x7 DUP3 DUP2 SLOAD DUP2 LT PUSH2 0x61F JUMPI PUSH2 0x61F PUSH2 0xD76 JUMP JUMPDEST PUSH1 0x0 SWAP2 DUP3 MSTORE PUSH1 0x20 SWAP1 SWAP2 KECCAK256 ADD SLOAD PUSH1 0x1 PUSH1 0x1 PUSH1 0xA0 SHL SUB AND SUB PUSH2 0x642 JUMPI POP PUSH1 0x1 SWAP3 SWAP2 POP POP JUMP JUMPDEST DUP1 PUSH2 0x64C DUP2 PUSH2 0xDA2 JUMP JUMPDEST SWAP2 POP POP PUSH2 0x5F8 JUMP JUMPDEST PUSH2 0x65D DUP6 PUSH2 0x5F4 JUMP JUMPDEST PUSH2 0x682 JUMPI PUSH1 0x40 MLOAD PUSH3 0x461BCD PUSH1 0xE5 SHL DUP2 MSTORE PUSH1 0x4 ADD PUSH2 0x679 SWAP1 PUSH2 0xEF1 JUMP JUMPDEST PUSH1 0x40 MLOAD DUP1 SWAP2 SUB SWAP1 REVERT JUMPDEST PUSH2 0x68C DUP6 DUP6 PUSH2 0x850 JUMP JUMPDEST PUSH2 0x696 CALLER DUP5 PUSH2 0xB1D JUMP JUMPDEST TIMESTAMP PUSH1 0x0 PUSH2 0x6A4 DUP5 PUSH1 0x18 PUSH2 0xF3D JUMP JUMPDEST PUSH2 0x6AF SWAP1 PUSH1 0x3C PUSH2 0xF3D JUMP JUMPDEST PUSH2 0x6BA SWAP1 PUSH1 0x3C PUSH2 0xF3D JUMP JUMPDEST PUSH2 0x6C4 SWAP1 DUP4 PUSH2 0xF54 JUMP JUMPDEST SWAP1 POP PUSH1 0x0 PUSH1 0x1 SLOAD PUSH1 0xA PUSH2 0x6D7 SWAP2 SWAP1 PUSH2 0xEC3 JUMP JUMPDEST PUSH2 0x6E1 SWAP1 DUP6 PUSH2 0xECF JUMP JUMPDEST PUSH2 0x6EC SWAP1 PUSH1 0x1 PUSH2 0xF54 JUMP JUMPDEST PUSH2 0x6F6 SWAP1 DUP8 PUSH2 0xF3D JUMP JUMPDEST PUSH1 0x1 PUSH1 0x1 PUSH1 0xA0 SHL SUB DUP10 AND PUSH1 0x0 SWAP1 DUP2 MSTORE PUSH1 0x5 PUSH1 0x20 SWAP1 DUP2 MSTORE PUSH1 0x40 DUP1 DUP4 KECCAK256 DUP12 DUP5 MSTORE SWAP1 SWAP2 MSTORE SWAP1 KECCAK256 PUSH1 0x2 DUP2 ADD DUP1 SLOAD PUSH1 0x1 PUSH1 0x1 PUSH1 0xA0 SHL SUB NOT AND CALLER OR SWAP1 SSTORE PUSH1 0x1 DUP2 ADD DUP5 SWAP1 SSTORE DUP2 SWAP1 SSTORE SWAP1 POP POP POP POP POP POP POP POP POP JUMP JUMPDEST PUSH1 0x1 PUSH1 0x1 PUSH1 0xA0 SHL SUB DUP2 AND PUSH1 0x0 SWAP1 DUP2 MSTORE PUSH1 0x3 PUSH1 0x20 MSTORE PUSH1 0x40 DUP2 KECCAK256 SLOAD DUP2 SWAP1 PUSH2 0x76B JUMPI POP PUSH1 0x0 SWAP3 SWAP2 POP POP JUMP JUMPDEST PUSH1 0x0 JUMPDEST PUSH1 0x1 PUSH1 0x1 PUSH1 0xA0 SHL SUB DUP5 AND PUSH1 0x0 SWAP1 DUP2 MSTORE PUSH1 0x3 PUSH1 0x20 MSTORE PUSH1 0x40 SWAP1 KECCAK256 SLOAD DUP2 LT ISZERO PUSH2 0x7E5 JUMPI PUSH1 0x1 PUSH1 0x1 PUSH1 0xA0 SHL SUB DUP5 DUP2 AND PUSH1 0x0 SWAP1 DUP2 MSTORE PUSH1 0x2 PUSH1 0x20 SWAP1 DUP2 MSTORE PUSH1 0x40 DUP1 DUP4 KECCAK256 DUP6 DUP5 MSTORE SWAP1 SWAP2 MSTORE SWAP1 KECCAK256 DUP1 SLOAD PUSH1 0x1 SWAP1 SWAP2 ADD SLOAD PUSH2 0x7C7 SWAP3 DUP8 SWAP3 AND SWAP1 PUSH2 0x59C JUMP JUMPDEST PUSH2 0x7D1 SWAP1 DUP4 PUSH2 0xF54 JUMP JUMPDEST SWAP2 POP DUP1 PUSH2 0x7DD DUP2 PUSH2 0xDA2 JUMP JUMPDEST SWAP2 POP POP PUSH2 0x76E JUMP JUMPDEST POP SWAP3 SWAP2 POP POP JUMP JUMPDEST PUSH2 0x7F5 CALLER PUSH2 0x37A JUMP JUMPDEST PUSH2 0x84C JUMPI PUSH1 0x40 MLOAD PUSH3 0x461BCD PUSH1 0xE5 SHL DUP2 MSTORE PUSH1 0x20 PUSH1 0x4 DUP3 ADD MSTORE PUSH1 0x22 PUSH1 0x24 DUP3 ADD MSTORE PUSH32 0x4F6E6C7920626F72726F7765722063616E2063616C6C2074686973206D657468 PUSH1 0x44 DUP3 ADD MSTORE PUSH2 0x1BD9 PUSH1 0xF2 SHL PUSH1 0x64 DUP3 ADD MSTORE PUSH1 0x84 ADD PUSH2 0x679 JUMP JUMPDEST POP POP JUMP JUMPDEST PUSH2 0x859 DUP3 PUSH2 0x5F4 JUMP JUMPDEST PUSH2 0x875 JUMPI PUSH1 0x40 MLOAD PUSH3 0x461BCD PUSH1 0xE5 SHL DUP2 MSTORE PUSH1 0x4 ADD PUSH2 0x679 SWAP1 PUSH2 0xEF1 JUMP JUMPDEST PUSH1 0x40 MLOAD PUSH4 0x23B872DD PUSH1 0xE0 SHL DUP2 MSTORE CALLER PUSH1 0x4 DUP3 ADD MSTORE ADDRESS PUSH1 0x24 DUP3 ADD MSTORE PUSH1 0x44 DUP2 ADD DUP3 SWAP1 MSTORE PUSH1 0x1 PUSH1 0x1 PUSH1 0xA0 SHL SUB DUP4 AND SWAP1 PUSH4 0x23B872DD SWAP1 PUSH1 0x64 ADD PUSH1 0x0 PUSH1 0x40 MLOAD DUP1 DUP4 SUB DUP2 PUSH1 0x0 DUP8 DUP1 EXTCODESIZE ISZERO DUP1 ISZERO PUSH2 0x8C3 JUMPI PUSH1 0x0 DUP1 REVERT JUMPDEST POP GAS CALL ISZERO DUP1 ISZERO PUSH2 0x8D7 JUMPI RETURNDATASIZE PUSH1 0x0 DUP1 RETURNDATACOPY RETURNDATASIZE PUSH1 0x0 REVERT JUMPDEST POP POP CALLER PUSH1 0x0 DUP2 DUP2 MSTORE PUSH1 0x2 PUSH1 0x20 SWAP1 DUP2 MSTORE PUSH1 0x40 DUP1 DUP4 KECCAK256 PUSH1 0x3 DUP1 DUP5 MSTORE DUP3 DUP6 KECCAK256 DUP1 SLOAD DUP7 MSTORE SWAP2 DUP5 MSTORE DUP3 DUP6 KECCAK256 DUP1 SLOAD PUSH1 0x1 PUSH1 0x1 PUSH1 0xA0 SHL SUB NOT AND PUSH1 0x1 PUSH1 0x1 PUSH1 0xA0 SHL SUB DUP13 AND OR SWAP1 SSTORE DUP2 SLOAD DUP6 MSTORE SWAP2 DUP5 KECCAK256 PUSH1 0x1 ADD DUP9 SWAP1 SSTORE SWAP4 DUP4 MSTORE SWAP1 MSTORE SWAP1 SLOAD SWAP1 SUB SWAP2 POP PUSH2 0x977 SWAP1 POP JUMPI PUSH1 0x4 DUP1 SLOAD PUSH1 0x1 DUP2 ADD DUP3 SSTORE PUSH1 0x0 SWAP2 SWAP1 SWAP2 MSTORE PUSH32 0x8A35ACFBC15FF81A39AE7D344FD709F28E8600B4AA8C65C6B64BFE7FE36BD19B ADD DUP1 SLOAD PUSH1 0x1 PUSH1 0x1 PUSH1 0xA0 SHL SUB NOT AND CALLER OR SWAP1 SSTORE JUMPDEST CALLER PUSH1 0x0 SWAP1 DUP2 MSTORE PUSH1 0x3 PUSH1 0x20 MSTORE PUSH1 0x40 SWAP1 KECCAK256 SLOAD PUSH2 0x992 SWAP1 PUSH1 0x1 PUSH2 0xF54 JUMP JUMPDEST CALLER PUSH1 0x0 SWAP1 DUP2 MSTORE PUSH1 0x3 PUSH1 0x20 MSTORE PUSH1 0x40 SWAP1 KECCAK256 SSTORE POP POP JUMP JUMPDEST PUSH1 0x1 PUSH1 0x1 PUSH1 0xA0 SHL SUB DUP1 DUP4 AND PUSH1 0x0 SWAP1 DUP2 MSTORE PUSH1 0x6 PUSH1 0x20 MSTORE PUSH1 0x40 DUP1 DUP3 KECCAK256 SLOAD DUP2 MLOAD PUSH4 0x3FABE5A3 PUSH1 0xE2 SHL DUP2 MSTORE SWAP2 MLOAD SWAP3 SWAP4 DUP5 SWAP4 SWAP2 AND SWAP2 DUP3 SWAP2 DUP5 SWAP2 DUP4 SWAP2 PUSH4 0xFEAF968C SWAP2 PUSH1 0x4 DUP1 DUP3 ADD SWAP3 PUSH1 0xA0 SWAP3 SWAP1 SWAP2 SWAP1 DUP3 SWAP1 SUB ADD DUP2 DUP7 GAS STATICCALL ISZERO DUP1 ISZERO PUSH2 0xA07 JUMPI RETURNDATASIZE PUSH1 0x0 DUP1 RETURNDATACOPY RETURNDATASIZE PUSH1 0x0 REVERT JUMPDEST POP POP POP POP PUSH1 0x40 MLOAD RETURNDATASIZE PUSH1 0x1F NOT PUSH1 0x1F DUP3 ADD AND DUP3 ADD DUP1 PUSH1 0x40 MSTORE POP DUP2 ADD SWAP1 PUSH2 0xA2B SWAP2 SWAP1 PUSH2 0xF81 JUMP JUMPDEST POP POP POP SWAP2 POP POP PUSH1 0x0 DUP3 PUSH1 0x1 PUSH1 0x1 PUSH1 0xA0 SHL SUB AND PUSH4 0x313CE567 PUSH1 0x40 MLOAD DUP2 PUSH4 0xFFFFFFFF AND PUSH1 0xE0 SHL DUP2 MSTORE PUSH1 0x4 ADD PUSH1 0x20 PUSH1 0x40 MLOAD DUP1 DUP4 SUB DUP2 DUP7 GAS STATICCALL ISZERO DUP1 ISZERO PUSH2 0xA71 JUMPI RETURNDATASIZE PUSH1 0x0 DUP1 RETURNDATACOPY RETURNDATASIZE PUSH1 0x0 REVERT JUMPDEST POP POP POP POP PUSH1 0x40 MLOAD RETURNDATASIZE PUSH1 0x1F NOT PUSH1 0x1F DUP3 ADD AND DUP3 ADD DUP1 PUSH1 0x40 MSTORE POP DUP2 ADD SWAP1 PUSH2 0xA95 SWAP2 SWAP1 PUSH2 0xFD1 JUMP JUMPDEST SWAP2 SWAP6 POP POP PUSH1 0xFF AND SWAP3 POP POP POP SWAP3 POP SWAP3 SWAP1 POP JUMP JUMPDEST PUSH2 0xAAF PUSH2 0xBA1 JUMP JUMPDEST PUSH1 0x1 PUSH1 0x1 PUSH1 0xA0 SHL SUB DUP2 AND PUSH2 0xB14 JUMPI PUSH1 0x40 MLOAD PUSH3 0x461BCD PUSH1 0xE5 SHL DUP2 MSTORE PUSH1 0x20 PUSH1 0x4 DUP3 ADD MSTORE PUSH1 0x26 PUSH1 0x24 DUP3 ADD MSTORE PUSH32 0x4F776E61626C653A206E6577206F776E657220697320746865207A65726F2061 PUSH1 0x44 DUP3 ADD MSTORE PUSH6 0x646472657373 PUSH1 0xD0 SHL PUSH1 0x64 DUP3 ADD MSTORE PUSH1 0x84 ADD PUSH2 0x679 JUMP JUMPDEST PUSH2 0x4E5 DUP2 PUSH2 0xBFB JUMP JUMPDEST PUSH2 0xB25 PUSH2 0xBA1 JUMP JUMPDEST PUSH1 0xB SLOAD PUSH1 0x40 MLOAD PUSH4 0xA9059CBB PUSH1 0xE0 SHL DUP2 MSTORE PUSH1 0x1 PUSH1 0x1 PUSH1 0xA0 SHL SUB DUP5 DUP2 AND PUSH1 0x4 DUP4 ADD MSTORE PUSH1 0x24 DUP3 ADD DUP5 SWAP1 MSTORE SWAP1 SWAP2 AND SWAP1 PUSH4 0xA9059CBB SWAP1 PUSH1 0x44 ADD PUSH1 0x20 PUSH1 0x40 MLOAD DUP1 DUP4 SUB DUP2 PUSH1 0x0 DUP8 GAS CALL ISZERO DUP1 ISZERO PUSH2 0xB78 JUMPI RETURNDATASIZE PUSH1 0x0 DUP1 RETURNDATACOPY RETURNDATASIZE PUSH1 0x0 REVERT JUMPDEST POP POP POP POP PUSH1 0x40 MLOAD RETURNDATASIZE PUSH1 0x1F NOT PUSH1 0x1F DUP3 ADD AND DUP3 ADD DUP1 PUSH1 0x40 MSTORE POP DUP2 ADD SWAP1 PUSH2 0xB9C SWAP2 SWAP1 PUSH2 0xDBB JUMP JUMPDEST POP POP POP JUMP JUMPDEST PUSH1 0x0 SLOAD PUSH1 0x1 PUSH1 0x1 PUSH1 0xA0 SHL SUB AND CALLER EQ PUSH2 0x554 JUMPI PUSH1 0x40 MLOAD PUSH3 0x461BCD PUSH1 0xE5 SHL DUP2 MSTORE PUSH1 0x20 PUSH1 0x4 DUP3 ADD DUP2 SWAP1 MSTORE PUSH1 0x24 DUP3 ADD MSTORE PUSH32 0x4F776E61626C653A2063616C6C6572206973206E6F7420746865206F776E6572 PUSH1 0x44 DUP3 ADD MSTORE PUSH1 0x64 ADD PUSH2 0x679 JUMP JUMPDEST PUSH1 0x0 DUP1 SLOAD PUSH1 0x1 PUSH1 0x1 PUSH1 0xA0 SHL SUB DUP4 DUP2 AND PUSH1 0x1 PUSH1 0x1 PUSH1 0xA0 SHL SUB NOT DUP4 AND DUP2 OR DUP5 SSTORE PUSH1 0x40 MLOAD SWAP2 SWAP1 SWAP3 AND SWAP3 DUP4 SWAP2 PUSH32 0x8BE0079C531659141344CD1FD0A4F28419497F9722A3DAAFE3B4186F6B6457E0 SWAP2 SWAP1 LOG3 POP POP JUMP JUMPDEST DUP1 CALLDATALOAD PUSH1 0x1 PUSH1 0x1 PUSH1 0xA0 SHL SUB DUP2 AND DUP2 EQ PUSH2 0xC62 JUMPI PUSH1 0x0 DUP1 REVERT JUMPDEST SWAP2 SWAP1 POP JUMP JUMPDEST PUSH1 0x0 PUSH1 0x20 DUP3 DUP5 SUB SLT ISZERO PUSH2 0xC79 JUMPI PUSH1 0x0 DUP1 REVERT JUMPDEST PUSH2 0x5ED DUP3 PUSH2 0xC4B JUMP JUMPDEST PUSH1 0x0 PUSH1 0x20 DUP3 DUP5 SUB SLT ISZERO PUSH2 0xC94 JUMPI PUSH1 0x0 DUP1 REVERT JUMPDEST POP CALLDATALOAD SWAP2 SWAP1 POP JUMP JUMPDEST PUSH1 0x0 DUP1 PUSH1 0x40 DUP4 DUP6 SUB SLT ISZERO PUSH2 0xCAE JUMPI PUSH1 0x0 DUP1 REVERT JUMPDEST PUSH2 0xCB7 DUP4 PUSH2 0xC4B JUMP JUMPDEST SWAP2 POP PUSH2 0xCC5 PUSH1 0x20 DUP5 ADD PUSH2 0xC4B JUMP JUMPDEST SWAP1 POP SWAP3 POP SWAP3 SWAP1 POP JUMP JUMPDEST PUSH1 0x0 DUP1 PUSH1 0x0 PUSH1 0x60 DUP5 DUP7 SUB SLT ISZERO PUSH2 0xCE3 JUMPI PUSH1 0x0 DUP1 REVERT JUMPDEST PUSH2 0xCEC DUP5 PUSH2 0xC4B JUMP JUMPDEST SWAP3 POP PUSH2 0xCFA PUSH1 0x20 DUP6 ADD PUSH2 0xC4B JUMP JUMPDEST SWAP2 POP PUSH1 0x40 DUP5 ADD CALLDATALOAD SWAP1 POP SWAP3 POP SWAP3 POP SWAP3 JUMP JUMPDEST PUSH1 0x0 DUP1 PUSH1 0x0 DUP1 PUSH1 0x0 PUSH1 0xA0 DUP7 DUP9 SUB SLT ISZERO PUSH2 0xD22 JUMPI PUSH1 0x0 DUP1 REVERT JUMPDEST PUSH2 0xD2B DUP7 PUSH2 0xC4B JUMP JUMPDEST SWAP8 PUSH1 0x20 DUP8 ADD CALLDATALOAD SWAP8 POP PUSH1 0x40 DUP8 ADD CALLDATALOAD SWAP7 PUSH1 0x60 DUP2 ADD CALLDATALOAD SWAP7 POP PUSH1 0x80 ADD CALLDATALOAD SWAP5 POP SWAP3 POP POP POP JUMP JUMPDEST PUSH1 0x0 DUP1 PUSH1 0x40 DUP4 DUP6 SUB SLT ISZERO PUSH2 0xD5F JUMPI PUSH1 0x0 DUP1 REVERT JUMPDEST PUSH2 0xD68 DUP4 PUSH2 0xC4B JUMP JUMPDEST SWAP5 PUSH1 0x20 SWAP4 SWAP1 SWAP4 ADD CALLDATALOAD SWAP4 POP POP POP JUMP JUMPDEST PUSH4 0x4E487B71 PUSH1 0xE0 SHL PUSH1 0x0 MSTORE PUSH1 0x32 PUSH1 0x4 MSTORE PUSH1 0x24 PUSH1 0x0 REVERT JUMPDEST PUSH4 0x4E487B71 PUSH1 0xE0 SHL PUSH1 0x0 MSTORE PUSH1 0x11 PUSH1 0x4 MSTORE PUSH1 0x24 PUSH1 0x0 REVERT JUMPDEST PUSH1 0x0 PUSH1 0x1 DUP3 ADD PUSH2 0xDB4 JUMPI PUSH2 0xDB4 PUSH2 0xD8C JUMP JUMPDEST POP PUSH1 0x1 ADD SWAP1 JUMP JUMPDEST PUSH1 0x0 PUSH1 0x20 DUP3 DUP5 SUB SLT ISZERO PUSH2 0xDCD JUMPI PUSH1 0x0 DUP1 REVERT JUMPDEST DUP2 MLOAD DUP1 ISZERO ISZERO DUP2 EQ PUSH2 0x5ED JUMPI PUSH1 0x0 DUP1 REVERT JUMPDEST PUSH1 0x1 DUP2 DUP2 JUMPDEST DUP1 DUP6 GT ISZERO PUSH2 0xE18 JUMPI DUP2 PUSH1 0x0 NOT DIV DUP3 GT ISZERO PUSH2 0xDFE JUMPI PUSH2 0xDFE PUSH2 0xD8C JUMP JUMPDEST DUP1 DUP6 AND ISZERO PUSH2 0xE0B JUMPI SWAP2 DUP2 MUL SWAP2 JUMPDEST SWAP4 DUP5 SHR SWAP4 SWAP1 DUP1 MUL SWAP1 PUSH2 0xDE2 JUMP JUMPDEST POP SWAP3 POP SWAP3 SWAP1 POP JUMP JUMPDEST PUSH1 0x0 DUP3 PUSH2 0xE2F JUMPI POP PUSH1 0x1 PUSH2 0xEBD JUMP JUMPDEST DUP2 PUSH2 0xE3C JUMPI POP PUSH1 0x0 PUSH2 0xEBD JUMP JUMPDEST DUP2 PUSH1 0x1 DUP2 EQ PUSH2 0xE52 JUMPI PUSH1 0x2 DUP2 EQ PUSH2 0xE5C JUMPI PUSH2 0xE78 JUMP JUMPDEST PUSH1 0x1 SWAP2 POP POP PUSH2 0xEBD JUMP JUMPDEST PUSH1 0xFF DUP5 GT ISZERO PUSH2 0xE6D JUMPI PUSH2 0xE6D PUSH2 0xD8C JUMP JUMPDEST POP POP PUSH1 0x1 DUP3 SHL PUSH2 0xEBD JUMP JUMPDEST POP PUSH1 0x20 DUP4 LT PUSH2 0x133 DUP4 LT AND PUSH1 0x4E DUP5 LT PUSH1 0xB DUP5 LT AND OR ISZERO PUSH2 0xE9B JUMPI POP DUP2 DUP2 EXP PUSH2 0xEBD JUMP JUMPDEST PUSH2 0xEA5 DUP4 DUP4 PUSH2 0xDDD JUMP JUMPDEST DUP1 PUSH1 0x0 NOT DIV DUP3 GT ISZERO PUSH2 0xEB9 JUMPI PUSH2 0xEB9 PUSH2 0xD8C JUMP JUMPDEST MUL SWAP1 POP JUMPDEST SWAP3 SWAP2 POP POP JUMP JUMPDEST PUSH1 0x0 PUSH2 0x5ED DUP4 DUP4 PUSH2 0xE20 JUMP JUMPDEST PUSH1 0x0 DUP3 PUSH2 0xEEC JUMPI PUSH4 0x4E487B71 PUSH1 0xE0 SHL PUSH1 0x0 MSTORE PUSH1 0x12 PUSH1 0x4 MSTORE PUSH1 0x24 PUSH1 0x0 REVERT JUMPDEST POP DIV SWAP1 JUMP JUMPDEST PUSH1 0x20 DUP1 DUP3 MSTORE PUSH1 0x2C SWAP1 DUP3 ADD MSTORE PUSH32 0x63757272656E74206E6674206973206E6F7420616C6C6F77656420696E206F75 PUSH1 0x40 DUP3 ADD MSTORE PUSH12 0x722077686974656C69737421 PUSH1 0xA0 SHL PUSH1 0x60 DUP3 ADD MSTORE PUSH1 0x80 ADD SWAP1 JUMP JUMPDEST DUP1 DUP3 MUL DUP2 ISZERO DUP3 DUP3 DIV DUP5 EQ OR PUSH2 0xEBD JUMPI PUSH2 0xEBD PUSH2 0xD8C JUMP JUMPDEST DUP1 DUP3 ADD DUP1 DUP3 GT ISZERO PUSH2 0xEBD JUMPI PUSH2 0xEBD PUSH2 0xD8C JUMP JUMPDEST DUP1 MLOAD PUSH10 0xFFFFFFFFFFFFFFFFFFFF DUP2 AND DUP2 EQ PUSH2 0xC62 JUMPI PUSH1 0x0 DUP1 REVERT JUMPDEST PUSH1 0x0 DUP1 PUSH1 0x0 DUP1 PUSH1 0x0 PUSH1 0xA0 DUP7 DUP9 SUB SLT ISZERO PUSH2 0xF99 JUMPI PUSH1 0x0 DUP1 REVERT JUMPDEST PUSH2 0xFA2 DUP7 PUSH2 0xF67 JUMP JUMPDEST SWAP5 POP PUSH1 0x20 DUP7 ADD MLOAD SWAP4 POP PUSH1 0x40 DUP7 ADD MLOAD SWAP3 POP PUSH1 0x60 DUP7 ADD MLOAD SWAP2 POP PUSH2 0xFC5 PUSH1 0x80 DUP8 ADD PUSH2 0xF67 JUMP JUMPDEST SWAP1 POP SWAP3 SWAP6 POP SWAP3 SWAP6 SWAP1 SWAP4 POP JUMP JUMPDEST PUSH1 0x0 PUSH1 0x20 DUP3 DUP5 SUB SLT ISZERO PUSH2 0xFE3 JUMPI PUSH1 0x0 DUP1 REVERT JUMPDEST DUP2 MLOAD PUSH1 0xFF DUP2 AND DUP2 EQ PUSH2 0x5ED JUMPI PUSH1 0x0 DUP1 REVERT INVALID LOG2 PUSH5 0x6970667358 0x22 SLT KECCAK256 0xB3 PC CALLER SHL SELFDESTRUCT SAR 0xD3 DELEGATECALL SWAP1 DUP5 DUP7 0xC9 0xFC SSTORE PUSH22 0xBE7BC4F11F8A48134F770A9CCB72C6199A64736F6C63 NUMBER STOP ADDMOD GT STOP CALLER ","sha1":"8b534249bf2bf86a90f6d55efd3f667a0edb3971","source":"//SPDX-License-Identifier: MIT\n\n// this will be upgraded for new roles and procedures\n// principles: minimize memory storage, breakdown a complex on-chain action to several short actions\n// roles: borrower, liquidator, inspector, validator(about price info.)\n//      inspector should be the owner of the contract, sometimes as liquidator\n//      validator acts as priceFeed Aggregator, when expired highest quote one of them\n//      can change into liquidator when they deposit the quoteAmount (internal)\n// Must functions: connectWallet, showLoanableNFT, setBasePrice(real fp deal in 14days), setThreshold(e.g., 60%on base price),\n//                 autoGenOffers(3 offers: amount[100,80,60], period[3,7,14], APR[80,100,120], +some random disturbation),\n//                 manGenOffers(amount, period, APR, ),\n//                 updateOffers(offerIndex, update=0:del/1:update/2)\n//                 acceptOffer(approveTransfer, nftDeposit,loanTransfer)\n// Later functions: getPrice, showOffers, makeOffers, approve,sendOffers(by validators)\n// objects: offer{evalAmount, loanPeriod, interest}\n// Global array: arrPeriod[3,7,14], arrAPR, arrLoanRatio\n// randome value: randDeltaAPR,randDeltaLoanRatio\n// Global mappings will be used:\n//      nftAddr->nftID->{ownerAddress, interest, repayAmount, loanTime{initTime, period, expireTime}}\n//      liquidatorAddr->depositLiquid (pre-deposited amount of liquidator)\n// Must check after repay & before return NFTs: ownerAddress, repayAmount, time\n// after loan: ownerAddress should be updated to borrower address\n// after expiration: ownerAddress should be updated to liquidator address\n// ? how to get rarity info. then corresponding evalPrice -> metadata\n// ? how to achieve bundle or reduce gas fee\n//\npragma solidity ^0.8.0;\n\nimport \"@openzeppelin/contracts/access/Ownable.sol\";\nimport \"@openzeppelin/contracts/token/ERC721/IERC721.sol\";\nimport \"@openzeppelin/contracts/token/ERC20/IERC20.sol\";\nimport \"@chainlink/contracts/src/v0.8/interfaces/AggregatorV3Interface.sol\";\n\ncontract Escrow is Ownable {\n    struct addressId {\n        address _nftAddress;\n        uint256 _nftId;\n    }\n    struct loanOffer {\n        uint256 _loanAmount; //18 decimals in ether(wei)\n        uint256 _loanDays; // in days\n        uint256 _loanInterest; //with decimals 10**4, e.g. 2.83% = 283/(10**4)\n    }\n    uint256 interestDecimals = 4;\n    struct nftLockParameters {\n        uint256 _repayAmount; //18 decimals in ether(wei)\n        // uint256 _lockInitTime; // in seconds\n        uint256 _expireTime; // in seconds\n        address _holderAddress;\n    }\n    // mapping borrower address -> borrower stake index -> staked NFT address and ID\n    mapping(address => mapping(uint256 => addressId)) public stakedNftAddressId;\n    mapping(address => uint256) numOfNftStaked;\n    address[] public borrowers;\n    // mapping nft address -> nft id -> {priceFeed, loanPeriod, repayAmount, holderAddress}\n    // ? consider using struct too? maybe more memory saving?\n    mapping(address => mapping(uint256 => nftLockParameters)) nftLoanLockData;\n    // for priceFeed, currently can not get precise control on nft id and\n    // so move forward with nft address only\n    // mapping(address => mapping(uint256 => address)) nftPriceFeedMapping;\n    mapping(address => address) nftPriceFeedMapping;\n    // mapping(address => mapping(uint256 => address)) nftHolderAddress;\n    // mapping(address => mapping(uint256 => uint256)) nftLockPeriod;\n    // mapping(address => mapping(uint256 => uint256)) nftRepayAmount;\n\n    //\n\n    address[] public allowedNfts;\n    address public lender;\n    address public inspector;\n\n    IERC20 public dappToken;\n    IERC20 public loanToken;\n\n    constructor(address _dappTokenAddress, address _loanTokenAddress) public {\n        dappToken = IERC20(_dappTokenAddress);\n        loanToken = IERC20(_loanTokenAddress);\n    }\n\n    function nftUnStaking(address _nftAddress, uint256 _nftId)\n        public\n        onlyBorrower\n    {\n        // must satisfy:\n        // 1. time not expire,\n        // 2. repay enough,\n        // 3. the owner is the owner\n    }\n\n    function loanTransfer(address _nftHolderAddress, uint256 _loanAmount)\n        public\n        onlyOwner\n    {\n        // is onlyOwner used here correct?\n        loanToken.transfer(_nftHolderAddress, _loanAmount);\n    }\n\n    function nftStaking(address _nftAddress, uint256 _nftId) public {\n        // what NFT can they stake?\n        require(\n            nftIsAllowed(_nftAddress),\n            \"current nft is not allowed in our whitelist!\"\n        );\n        IERC721(_nftAddress).transferFrom(msg.sender, address(this), _nftId);\n        stakedNftAddressId[msg.sender][numOfNftStaked[msg.sender]]\n            ._nftAddress = _nftAddress;\n        stakedNftAddressId[msg.sender][numOfNftStaked[msg.sender]]\n            ._nftId = _nftId;\n        if (numOfNftStaked[msg.sender] == 0) {\n            borrowers.push(msg.sender);\n        }\n        numOfNftStaked[msg.sender] = numOfNftStaked[msg.sender] + 1;\n    }\n\n    function nftLock(\n        address _nftAddress,\n        uint256 _nftId,\n        address _holderAddress,\n        uint256 _expireTime,\n        uint256 _repayAmount\n    ) internal {\n        // nft lock parameters setting, is the function public ok?\n        nftLoanLockData[_nftAddress][_nftId]._holderAddress = _holderAddress;\n        nftLoanLockData[_nftAddress][_nftId]._expireTime = _expireTime;\n        nftLoanLockData[_nftAddress][_nftId]._repayAmount = _repayAmount;\n    }\n\n    function requestLoan(\n        address _nftAddress,\n        uint256 _nftId,\n        uint256 _loanAmount,\n        uint256 _loanDays,\n        uint256 _loanInterest\n    ) public {\n        require(\n            nftIsAllowed(_nftAddress),\n            \"current nft is not allowed in our whitelist!\"\n        );\n        nftStaking(_nftAddress, _nftId);\n        loanTransfer(address(msg.sender), _loanAmount);\n        uint256 initTime = block.timestamp;\n        uint256 expireTime = initTime + _loanDays * 24 * 60 * 60;\n        uint256 repayAmount = _loanAmount *\n            (1 + _loanInterest / (10**interestDecimals));\n        nftLock(\n            _nftAddress,\n            _nftId,\n            address(msg.sender),\n            expireTime,\n            repayAmount\n        );\n    }\n\n    function addAllowedNfts(address _nftAddress) public onlyOwner {\n        allowedNfts.push(_nftAddress);\n    }\n\n    function nftIsAllowed(address _nftAddress) public view returns (bool) {\n        for (\n            uint256 allowedNftsIndex = 0;\n            allowedNftsIndex < allowedNfts.length;\n            allowedNftsIndex++\n        ) {\n            if (allowedNfts[allowedNftsIndex] == _nftAddress) {\n                return true;\n            }\n        }\n        return false;\n    }\n\n    modifier onlyLender() {\n        require(msg.sender == lender, \"Only lender can call this method\");\n        _;\n    }\n\n    function isBorrowers(address _user) public returns (bool) {\n        for (uint256 index = 0; index < allowedNfts.length; index++) {\n            if (borrowers[index] == _user) {\n                return true;\n            }\n        }\n        return false;\n    }\n\n    modifier onlyBorrower() {\n        require(isBorrowers(msg.sender), \"Only borrower can call this method\");\n        _;\n    }\n\n    modifier onlyInspector() {\n        require(msg.sender == inspector, \"Only inspector can call this method\");\n        _;\n    }\n\n    function getBalance() public view returns (uint256) {\n        return address(this).balance;\n    }\n\n    // e.g.: give 1 DappToken per loanToken loan\n    function issueTokens() public onlyOwner {\n        // ? get each borrower total loan interest profit\n        // ? get each NFT (address, id) loaned interest profit\n        // Issue tokens to all stakers\n        for (\n            uint256 borrowersIndex = 0;\n            borrowersIndex < borrowers.length;\n            borrowersIndex++\n        ) {\n            address recipient = borrowers[borrowersIndex];\n            uint256 userTotalValue = getUserTotalValue(recipient);\n            dappToken.transfer(recipient, userTotalValue);\n        }\n    }\n\n    function getUserTotalValue(address _user) public view returns (uint256) {\n        uint256 totalValue = 0;\n        // require(numOfNftStaked[_user] > 0, \"No nft staked!\");\n        if (numOfNftStaked[_user] <= 0) {\n            return 0;\n        }\n        for (\n            uint256 nftStakedIndex = 0;\n            nftStakedIndex < numOfNftStaked[_user];\n            nftStakedIndex++\n        ) {\n            totalValue =\n                totalValue +\n                getUserSingleNftValue(\n                    _user,\n                    stakedNftAddressId[_user][nftStakedIndex]._nftAddress,\n                    stakedNftAddressId[_user][nftStakedIndex]._nftId\n                );\n        }\n        return totalValue;\n    }\n\n    function getUserSingleNftValue(\n        address _user,\n        address _nftAddress,\n        uint256 _nftId\n    ) public view returns (uint256) {\n        if (numOfNftStaked[_user] <= 0) {\n            return 0;\n        }\n        (uint256 price, uint256 decimals) = getNftValue(_nftAddress, _nftId);\n        return (price / (10**decimals));\n        // 10000000000000000000 ETH\n        // ETH/USD -> 10000000000\n        // 10 * 100 = 1,000\n    }\n\n    function getNftValue(address _nftAddress, uint256 _nftId)\n        public\n        view\n        returns (uint256, uint256)\n    {\n        // // default setted to 1ETH and 18decimals\n        // return (1, 18);\n\n        // priceFeedAddress\n        // address priceFeedAddress = nftPriceFeedMapping[_nftAddress][_nftId];\n        address priceFeedAddress = nftPriceFeedMapping[_nftAddress];\n        AggregatorV3Interface priceFeed = AggregatorV3Interface(\n            priceFeedAddress\n        );\n        (, int256 price, , , ) = priceFeed.latestRoundData();\n        uint256 decimals = uint256(priceFeed.decimals());\n        return (uint256(price), decimals);\n    }\n\n    function setPriceFeedContract(\n        address _nftAddress,\n        // uint256 _nftId=none,\n        address _priceFeed\n    ) public onlyOwner {\n        // nftPriceFeedMapping[_nftAddress][_nftId] = _priceFeed;\n        nftPriceFeedMapping[_nftAddress] = _priceFeed;\n    }\n}\n","sourcePath":"contracts/Escrow.sol","type":"contract","deployment":{"address":"0x50D20a4073Fa2E8c8e37Ce5F605048A96D052964","chainid":"5","blockHeight":7920880}}