{"abi":[{"inputs":[{"internalType":"address","name":"_dappTokenAddress","type":"address"},{"internalType":"address","name":"_loanTokenAddress","type":"address"}],"stateMutability":"nonpayable","type":"constructor","name":"constructor"},{"anonymous":false,"inputs":[{"indexed":true,"internalType":"address","name":"previousOwner","type":"address"},{"indexed":true,"internalType":"address","name":"newOwner","type":"address"}],"name":"OwnershipTransferred","type":"event"},{"inputs":[{"internalType":"address","name":"_nftAddress","type":"address"}],"name":"addAllowedNfts","outputs":[],"stateMutability":"nonpayable","type":"function"},{"inputs":[{"internalType":"uint256","name":"","type":"uint256"}],"name":"allowedNfts","outputs":[{"internalType":"address","name":"","type":"address"}],"stateMutability":"view","type":"function"},{"inputs":[{"internalType":"uint256","name":"","type":"uint256"}],"name":"borrowers","outputs":[{"internalType":"address","name":"","type":"address"}],"stateMutability":"view","type":"function"},{"inputs":[],"name":"dappToken","outputs":[{"internalType":"contract IERC20","name":"","type":"address"}],"stateMutability":"view","type":"function"},{"inputs":[],"name":"getBalance","outputs":[{"internalType":"uint256","name":"","type":"uint256"}],"stateMutability":"view","type":"function"},{"inputs":[{"internalType":"address","name":"_nftAddress","type":"address"},{"internalType":"uint256","name":"_nftId","type":"uint256"}],"name":"getNftLockData","outputs":[{"internalType":"address","name":"","type":"address"},{"internalType":"uint256","name":"","type":"uint256"},{"internalType":"uint256","name":"","type":"uint256"}],"stateMutability":"view","type":"function"},{"inputs":[{"internalType":"address","name":"_nftAddress","type":"address"},{"internalType":"uint256","name":"_nftId","type":"uint256"}],"name":"getNftValue","outputs":[{"internalType":"uint256","name":"","type":"uint256"},{"internalType":"uint256","name":"","type":"uint256"}],"stateMutability":"view","type":"function"},{"inputs":[{"internalType":"address","name":"_user","type":"address"},{"internalType":"address","name":"_nftAddress","type":"address"},{"internalType":"uint256","name":"_nftId","type":"uint256"}],"name":"getUserSingleNftValue","outputs":[{"internalType":"uint256","name":"","type":"uint256"}],"stateMutability":"view","type":"function"},{"inputs":[{"internalType":"address","name":"_user","type":"address"}],"name":"getUserTotalValue","outputs":[{"internalType":"uint256","name":"","type":"uint256"}],"stateMutability":"view","type":"function"},{"inputs":[],"name":"inspector","outputs":[{"internalType":"address","name":"","type":"address"}],"stateMutability":"view","type":"function"},{"inputs":[],"name":"interestDecimals","outputs":[{"internalType":"uint256","name":"","type":"uint256"}],"stateMutability":"view","type":"function"},{"inputs":[{"internalType":"address","name":"_user","type":"address"}],"name":"isBorrowers","outputs":[{"internalType":"bool","name":"","type":"bool"}],"stateMutability":"view","type":"function"},{"inputs":[],"name":"issueTokens","outputs":[],"stateMutability":"nonpayable","type":"function"},{"inputs":[],"name":"lender","outputs":[{"internalType":"address","name":"","type":"address"}],"stateMutability":"view","type":"function"},{"inputs":[],"name":"loanToken","outputs":[{"internalType":"contract IERC20","name":"","type":"address"}],"stateMutability":"view","type":"function"},{"inputs":[{"internalType":"address","name":"_nftHolderAddress","type":"address"},{"internalType":"uint256","name":"_loanAmount","type":"uint256"}],"name":"loanTransfer","outputs":[],"stateMutability":"nonpayable","type":"function"},{"inputs":[{"internalType":"address","name":"_nftAddress","type":"address"}],"name":"nftIsAllowed","outputs":[{"internalType":"bool","name":"","type":"bool"}],"stateMutability":"view","type":"function"},{"inputs":[{"internalType":"address","name":"","type":"address"},{"internalType":"uint256","name":"","type":"uint256"}],"name":"nftLoanExpireTime","outputs":[{"internalType":"uint256","name":"","type":"uint256"}],"stateMutability":"view","type":"function"},{"inputs":[{"internalType":"address","name":"","type":"address"},{"internalType":"uint256","name":"","type":"uint256"}],"name":"nftLoanHolderAddress","outputs":[{"internalType":"address","name":"","type":"address"}],"stateMutability":"view","type":"function"},{"inputs":[{"internalType":"address","name":"","type":"address"},{"internalType":"uint256","name":"","type":"uint256"}],"name":"nftLoanRepayAmount","outputs":[{"internalType":"uint256","name":"","type":"uint256"}],"stateMutability":"view","type":"function"},{"inputs":[{"internalType":"address","name":"","type":"address"}],"name":"nftPriceFeedMapping","outputs":[{"internalType":"address","name":"","type":"address"}],"stateMutability":"view","type":"function"},{"inputs":[{"internalType":"address","name":"_nftAddress","type":"address"},{"internalType":"uint256","name":"_nftId","type":"uint256"}],"name":"nftStaking","outputs":[],"stateMutability":"nonpayable","type":"function"},{"inputs":[{"internalType":"address","name":"_nftAddress","type":"address"},{"internalType":"uint256","name":"_nftId","type":"uint256"}],"name":"nftUnStaking","outputs":[],"stateMutability":"nonpayable","type":"function"},{"inputs":[{"internalType":"address","name":"","type":"address"}],"name":"numOfNftStaked","outputs":[{"internalType":"uint256","name":"","type":"uint256"}],"stateMutability":"view","type":"function"},{"inputs":[],"name":"owner","outputs":[{"internalType":"address","name":"","type":"address"}],"stateMutability":"view","type":"function"},{"inputs":[],"name":"renounceOwnership","outputs":[],"stateMutability":"nonpayable","type":"function"},{"inputs":[{"internalType":"address","name":"_nftAddress","type":"address"},{"internalType":"uint256","name":"_nftId","type":"uint256"},{"internalType":"uint256","name":"_loanAmount","type":"uint256"},{"internalType":"uint256","name":"_loanDays","type":"uint256"},{"internalType":"uint256","name":"_loanInterest","type":"uint256"}],"name":"requestLoan","outputs":[],"stateMutability":"nonpayable","type":"function"},{"inputs":[{"internalType":"address","name":"_nftAddress","type":"address"},{"internalType":"address","name":"_priceFeed","type":"address"}],"name":"setPriceFeedContract","outputs":[],"stateMutability":"nonpayable","type":"function"},{"inputs":[{"internalType":"address","name":"","type":"address"},{"internalType":"uint256","name":"","type":"uint256"}],"name":"stakedNftAddress","outputs":[{"internalType":"address","name":"","type":"address"}],"stateMutability":"view","type":"function"},{"inputs":[{"internalType":"address","name":"","type":"address"},{"internalType":"uint256","name":"","type":"uint256"}],"name":"stakedNftId","outputs":[{"internalType":"uint256","name":"","type":"uint256"}],"stateMutability":"view","type":"function"},{"inputs":[{"internalType":"address","name":"newOwner","type":"address"}],"name":"transferOwnership","outputs":[],"stateMutability":"nonpayable","type":"function"}],"bytecode":"6080604052600460075534801561001557600080fd5b5060405161136f38038061136f833981016040819052610034916100da565b61003d3361006e565b600580546001600160a01b039384166001600160a01b0319918216179091556006805492909316911617905561010d565b600080546001600160a01b038381166001600160a01b0319831681178455604051919092169283917f8be0079c531659141344cd1fd0a4f28419497f9722a3daafe3b4186f6b6457e09190a35050565b80516001600160a01b03811681146100d557600080fd5b919050565b600080604083850312156100ed57600080fd5b6100f6836100be565b9150610104602084016100be565b90509250929050565b6112538061011c6000396000f3fe608060405234801561001057600080fd5b50600436106101e55760003560e01c8063877dd39d1161010f578063bbb62028116100a2578063ed2cee9e11610071578063ed2cee9e14610514578063f2fde38b14610527578063f3eaf0051461053a578063fc339d7f1461056357600080fd5b8063bbb62028146104b3578063bcead63e146104c6578063bfeecc51146104d9578063e45e09a2146104ec57600080fd5b80639f42ce02116100de5780639f42ce021461042e578063acdc410d14610462578063aeb4e4a414610475578063af3f5e22146104a057600080fd5b8063877dd39d146103e45780638da5cb5b146103f75780638dc3306f146104085780638ddefa361461041b57600080fd5b8063567d1ebf116101875780636e9e9790116101565780636e9e97901461036a578063715018a6146103955780637924d93f1461039d5780637ef4c7ad146103b057600080fd5b8063567d1ebf146103315780635eb186f81461033a57806360ab58521461034d5780636c59eb3b1461035757600080fd5b80631316263a116101c35780631316263a1461024d5780632cdb786a1461026d5780632d1ab89c146102f35780634d23d8af1461031e57600080fd5b806306d37817146101ea5780630e32a0e31461021a57806312065fe01461023d575b600080fd5b6006546101fd906001600160a01b031681565b6040516001600160a01b0390911681526020015b60405180910390f35b61022d610228366004610e90565b610576565b6040519015158152602001610211565b475b604051908152602001610211565b61023f61025b366004610e90565b600a6020526000908152604090205481565b6102ce61027b366004610eab565b6001600160a01b039182166000818152600e60209081526040808320858452825280832054848452600d8352818420868552835281842054948452600c8352818420958452949091529020549190921692565b604080516001600160a01b039094168452602084019290925290820152606001610211565b61023f610301366004610eab565b600c60209081526000928352604080842090915290825290205481565b6101fd61032c366004610ed5565b6105df565b61023f60075481565b6005546101fd906001600160a01b031681565b610355610609565b005b610355610365366004610e90565b6106e4565b61023f610378366004610eab565b600d60209081526000928352604080842090915290825290205481565b61035561073d565b6101fd6103ab366004610ed5565b610751565b6101fd6103be366004610eab565b600e6020908152600092835260408084209091529082529020546001600160a01b031681565b6103556103f2366004610eee565b610761565b6000546001600160a01b03166101fd565b61023f610416366004610f21565b610797565b61022d610429366004610e90565b6107ef565b6101fd61043c366004610eab565b60086020908152600092835260408084209091529082529020546001600160a01b031681565b610355610470366004610f5d565b61084f565b61023f610483366004610eab565b600960209081526000928352604080842090915290825290205481565b61023f6104ae366004610e90565b610958565b6103556104c1366004610eab565b610a0d565b6002546101fd906001600160a01b031681565b6103556104e7366004610eab565b610a71565b6104ff6104fa366004610eab565b610bd0565b60408051928352602083019190915201610211565b6003546101fd906001600160a01b031681565b610355610535366004610e90565b610cd0565b6101fd610548366004610e90565b6004602052600090815260409020546001600160a01b031681565b610355610571366004610eab565b610d46565b6000805b6001548110156105d657826001600160a01b0316600b82815481106105a1576105a1610f9f565b6000918252602090912001546001600160a01b0316036105c45750600192915050565b806105ce81610fcb565b91505061057a565b50600092915050565b600181815481106105ef57600080fd5b6000918252602090912001546001600160a01b0316905081565b610611610dca565b60005b600b548110156106e1576000600b828154811061063357610633610f9f565b60009182526020822001546001600160a01b0316915061065282610958565b60055460405163a9059cbb60e01b81526001600160a01b0385811660048301526024820184905292935091169063a9059cbb906044016020604051808303816000875af11580156106a7573d6000803e3d6000fd5b505050506040513d601f19601f820116820180604052508101906106cb9190610fe4565b50505080806106d990610fcb565b915050610614565b50565b6106ec610dca565b6001805480820182556000919091527fb10e2d527612073b26eecdfd717e6a320cf44b4afac2b0732d9fcbe2b7fa0cf60180546001600160a01b0319166001600160a01b0392909216919091179055565b610745610dca565b61074f6000610e24565b565b600b81815481106105ef57600080fd5b610769610dca565b6001600160a01b03918216600090815260046020526040902080546001600160a01b03191691909216179055565b6001600160a01b0383166000908152600a60205260408120546107bc575060006107e8565b6000806107c98585610bd0565b90925090506107d981600a6110ec565b6107e390836110f8565b925050505b9392505050565b6000805b6001548110156105d657826001600160a01b03166001828154811061081a5761081a610f9f565b6000918252602090912001546001600160a01b03160361083d5750600192915050565b8061084781610fcb565b9150506107f3565b610858856107ef565b61087d5760405162461bcd60e51b81526004016108749061111a565b60405180910390fd5b6108878585610a71565b6108913384610d46565b42600061089f846018611166565b6108aa90603c611166565b6108b590603c611166565b6108bf908361117d565b90506000600754600a6108d291906110ec565b6108dc90856110f8565b6108e790600161117d565b6108f19087611166565b6001600160a01b0389166000818152600e602090815260408083208c8452825280832080546001600160a01b03191633179055838352600d82528083208c84528252808320879055928252600c81528282208b835290522081905590505050505050505050565b6001600160a01b0381166000908152600a602052604081205481906109805750600092915050565b60005b6001600160a01b0384166000908152600a6020526040902054811015610a06576001600160a01b038085166000818152600860209081526040808320868452825280832054938352600982528083208684529091529020546109e89287921690610797565b6109f2908361117d565b9150806109fe81610fcb565b915050610983565b5092915050565b610a1633610576565b610a6d5760405162461bcd60e51b815260206004820152602260248201527f4f6e6c7920626f72726f7765722063616e2063616c6c2074686973206d6574686044820152611bd960f21b6064820152608401610874565b5050565b610a7a826107ef565b610a965760405162461bcd60e51b81526004016108749061111a565b6040516323b872dd60e01b8152336004820152306024820152604481018290526001600160a01b038316906323b872dd90606401600060405180830381600087803b158015610ae457600080fd5b505af1158015610af8573d6000803e3d6000fd5b5050336000818152600860209081526040808320600a8084528285208054865291845282852080546001600160a01b0319166001600160a01b038c16179055858552600984528285208254865284529184208890559383529052905490039150610ba1905057600b80546001810182556000919091527f0175b7a638427703f0dbe7bb9bbf987a2551717b34e79f33b5b1008d1fa01db90180546001600160a01b031916331790555b336000908152600a6020526040902054610bbc90600161117d565b336000908152600a60205260409020555050565b6001600160a01b038083166000908152600460208190526040808320548151633fabe5a360e21b815291519394859491169283928592849263feaf968c928082019260a09290918290030181865afa158015610c30573d6000803e3d6000fd5b505050506040513d601f19601f82011682018060405250810190610c5491906111aa565b5050509150506000826001600160a01b031663313ce5676040518163ffffffff1660e01b8152600401602060405180830381865afa158015610c9a573d6000803e3d6000fd5b505050506040513d601f19601f82011682018060405250810190610cbe91906111fa565b9195505060ff16925050509250929050565b610cd8610dca565b6001600160a01b038116610d3d5760405162461bcd60e51b815260206004820152602660248201527f4f776e61626c653a206e6577206f776e657220697320746865207a65726f206160448201526564647265737360d01b6064820152608401610874565b6106e181610e24565b610d4e610dca565b60065460405163a9059cbb60e01b81526001600160a01b038481166004830152602482018490529091169063a9059cbb906044016020604051808303816000875af1158015610da1573d6000803e3d6000fd5b505050506040513d601f19601f82011682018060405250810190610dc59190610fe4565b505050565b6000546001600160a01b0316331461074f5760405162461bcd60e51b815260206004820181905260248201527f4f776e61626c653a2063616c6c6572206973206e6f7420746865206f776e65726044820152606401610874565b600080546001600160a01b038381166001600160a01b0319831681178455604051919092169283917f8be0079c531659141344cd1fd0a4f28419497f9722a3daafe3b4186f6b6457e09190a35050565b80356001600160a01b0381168114610e8b57600080fd5b919050565b600060208284031215610ea257600080fd5b6107e882610e74565b60008060408385031215610ebe57600080fd5b610ec783610e74565b946020939093013593505050565b600060208284031215610ee757600080fd5b5035919050565b60008060408385031215610f0157600080fd5b610f0a83610e74565b9150610f1860208401610e74565b90509250929050565b600080600060608486031215610f3657600080fd5b610f3f84610e74565b9250610f4d60208501610e74565b9150604084013590509250925092565b600080600080600060a08688031215610f7557600080fd5b610f7e86610e74565b97602087013597506040870135966060810135965060800135945092505050565b634e487b7160e01b600052603260045260246000fd5b634e487b7160e01b600052601160045260246000fd5b600060018201610fdd57610fdd610fb5565b5060010190565b600060208284031215610ff657600080fd5b815180151581146107e857600080fd5b600181815b8085111561104157816000190482111561102757611027610fb5565b8085161561103457918102915b93841c939080029061100b565b509250929050565b600082611058575060016110e6565b81611065575060006110e6565b816001811461107b5760028114611085576110a1565b60019150506110e6565b60ff84111561109657611096610fb5565b50506001821b6110e6565b5060208310610133831016604e8410600b84101617156110c4575081810a6110e6565b6110ce8383611006565b80600019048211156110e2576110e2610fb5565b0290505b92915050565b60006107e88383611049565b60008261111557634e487b7160e01b600052601260045260246000fd5b500490565b6020808252602c908201527f63757272656e74206e6674206973206e6f7420616c6c6f77656420696e206f7560408201526b722077686974656c6973742160a01b606082015260800190565b80820281158282048414176110e6576110e6610fb5565b808201808211156110e6576110e6610fb5565b805169ffffffffffffffffffff81168114610e8b57600080fd5b600080600080600060a086880312156111c257600080fd5b6111cb86611190565b94506020860151935060408601519250606086015191506111ee60808701611190565b90509295509295909350565b60006020828403121561120c57600080fd5b815160ff811681146107e857600080fdfea26469706673582212204f627146eeb632e29390d7fb28a7d06394cbc194e135e76e75622277cdbebb6a64736f6c63430008110033","bytecodeSha1":"9be496f33913b8e2835d0804b1dc5aa4dd2d725f","compiler":{"evm_version":"istanbul","optimizer":{"enabled":true,"runs":200},"version":"0.8.17+commit.8df45f5f"},"contractName":"Escrow","language":"Solidity","natspec":{"kind":"dev","methods":{"owner()":{"details":"Returns the address of the current owner."},"renounceOwnership()":{"details":"Leaves the contract without owner. It will not be possible to call `onlyOwner` functions anymore. Can only be called by the current owner. NOTE: Renouncing ownership will leave the contract without an owner, thereby removing any functionality that is only available to the owner."},"transferOwnership(address)":{"details":"Transfers ownership of the contract to a new account (`newOwner`). Can only be called by the current owner."}},"version":1},"opcodes":"PUSH1 0x80 PUSH1 0x40 MSTORE CALLVALUE DUP1 ISZERO PUSH2 0x10 JUMPI PUSH1 0x0 DUP1 REVERT JUMPDEST POP PUSH1 0x4 CALLDATASIZE LT PUSH2 0x1E5 JUMPI PUSH1 0x0 CALLDATALOAD PUSH1 0xE0 SHR DUP1 PUSH4 0x877DD39D GT PUSH2 0x10F JUMPI DUP1 PUSH4 0xBBB62028 GT PUSH2 0xA2 JUMPI DUP1 PUSH4 0xED2CEE9E GT PUSH2 0x71 JUMPI DUP1 PUSH4 0xED2CEE9E EQ PUSH2 0x514 JUMPI DUP1 PUSH4 0xF2FDE38B EQ PUSH2 0x527 JUMPI DUP1 PUSH4 0xF3EAF005 EQ PUSH2 0x53A JUMPI DUP1 PUSH4 0xFC339D7F EQ PUSH2 0x563 JUMPI PUSH1 0x0 DUP1 REVERT JUMPDEST DUP1 PUSH4 0xBBB62028 EQ PUSH2 0x4B3 JUMPI DUP1 PUSH4 0xBCEAD63E EQ PUSH2 0x4C6 JUMPI DUP1 PUSH4 0xBFEECC51 EQ PUSH2 0x4D9 JUMPI DUP1 PUSH4 0xE45E09A2 EQ PUSH2 0x4EC JUMPI PUSH1 0x0 DUP1 REVERT JUMPDEST DUP1 PUSH4 0x9F42CE02 GT PUSH2 0xDE JUMPI DUP1 PUSH4 0x9F42CE02 EQ PUSH2 0x42E JUMPI DUP1 PUSH4 0xACDC410D EQ PUSH2 0x462 JUMPI DUP1 PUSH4 0xAEB4E4A4 EQ PUSH2 0x475 JUMPI DUP1 PUSH4 0xAF3F5E22 EQ PUSH2 0x4A0 JUMPI PUSH1 0x0 DUP1 REVERT JUMPDEST DUP1 PUSH4 0x877DD39D EQ PUSH2 0x3E4 JUMPI DUP1 PUSH4 0x8DA5CB5B EQ PUSH2 0x3F7 JUMPI DUP1 PUSH4 0x8DC3306F EQ PUSH2 0x408 JUMPI DUP1 PUSH4 0x8DDEFA36 EQ PUSH2 0x41B JUMPI PUSH1 0x0 DUP1 REVERT JUMPDEST DUP1 PUSH4 0x567D1EBF GT PUSH2 0x187 JUMPI DUP1 PUSH4 0x6E9E9790 GT PUSH2 0x156 JUMPI DUP1 PUSH4 0x6E9E9790 EQ PUSH2 0x36A JUMPI DUP1 PUSH4 0x715018A6 EQ PUSH2 0x395 JUMPI DUP1 PUSH4 0x7924D93F EQ PUSH2 0x39D JUMPI DUP1 PUSH4 0x7EF4C7AD EQ PUSH2 0x3B0 JUMPI PUSH1 0x0 DUP1 REVERT JUMPDEST DUP1 PUSH4 0x567D1EBF EQ PUSH2 0x331 JUMPI DUP1 PUSH4 0x5EB186F8 EQ PUSH2 0x33A JUMPI DUP1 PUSH4 0x60AB5852 EQ PUSH2 0x34D JUMPI DUP1 PUSH4 0x6C59EB3B EQ PUSH2 0x357 JUMPI PUSH1 0x0 DUP1 REVERT JUMPDEST DUP1 PUSH4 0x1316263A GT PUSH2 0x1C3 JUMPI DUP1 PUSH4 0x1316263A EQ PUSH2 0x24D JUMPI DUP1 PUSH4 0x2CDB786A EQ PUSH2 0x26D JUMPI DUP1 PUSH4 0x2D1AB89C EQ PUSH2 0x2F3 JUMPI DUP1 PUSH4 0x4D23D8AF EQ PUSH2 0x31E JUMPI PUSH1 0x0 DUP1 REVERT JUMPDEST DUP1 PUSH4 0x6D37817 EQ PUSH2 0x1EA JUMPI DUP1 PUSH4 0xE32A0E3 EQ PUSH2 0x21A JUMPI DUP1 PUSH4 0x12065FE0 EQ PUSH2 0x23D JUMPI JUMPDEST PUSH1 0x0 DUP1 REVERT JUMPDEST PUSH1 0x6 SLOAD PUSH2 0x1FD SWAP1 PUSH1 0x1 PUSH1 0x1 PUSH1 0xA0 SHL SUB AND DUP2 JUMP JUMPDEST PUSH1 0x40 MLOAD PUSH1 0x1 PUSH1 0x1 PUSH1 0xA0 SHL SUB SWAP1 SWAP2 AND DUP2 MSTORE PUSH1 0x20 ADD JUMPDEST PUSH1 0x40 MLOAD DUP1 SWAP2 SUB SWAP1 RETURN JUMPDEST PUSH2 0x22D PUSH2 0x228 CALLDATASIZE PUSH1 0x4 PUSH2 0xE90 JUMP JUMPDEST PUSH2 0x576 JUMP JUMPDEST PUSH1 0x40 MLOAD SWAP1 ISZERO ISZERO DUP2 MSTORE PUSH1 0x20 ADD PUSH2 0x211 JUMP JUMPDEST SELFBALANCE JUMPDEST PUSH1 0x40 MLOAD SWAP1 DUP2 MSTORE PUSH1 0x20 ADD PUSH2 0x211 JUMP JUMPDEST PUSH2 0x23F PUSH2 0x25B CALLDATASIZE PUSH1 0x4 PUSH2 0xE90 JUMP JUMPDEST PUSH1 0xA PUSH1 0x20 MSTORE PUSH1 0x0 SWAP1 DUP2 MSTORE PUSH1 0x40 SWAP1 KECCAK256 SLOAD DUP2 JUMP JUMPDEST PUSH2 0x2CE PUSH2 0x27B CALLDATASIZE PUSH1 0x4 PUSH2 0xEAB JUMP JUMPDEST PUSH1 0x1 PUSH1 0x1 PUSH1 0xA0 SHL SUB SWAP2 DUP3 AND PUSH1 0x0 DUP2 DUP2 MSTORE PUSH1 0xE PUSH1 0x20 SWAP1 DUP2 MSTORE PUSH1 0x40 DUP1 DUP4 KECCAK256 DUP6 DUP5 MSTORE DUP3 MSTORE DUP1 DUP4 KECCAK256 SLOAD DUP5 DUP5 MSTORE PUSH1 0xD DUP4 MSTORE DUP2 DUP5 KECCAK256 DUP7 DUP6 MSTORE DUP4 MSTORE DUP2 DUP5 KECCAK256 SLOAD SWAP5 DUP5 MSTORE PUSH1 0xC DUP4 MSTORE DUP2 DUP5 KECCAK256 SWAP6 DUP5 MSTORE SWAP5 SWAP1 SWAP2 MSTORE SWAP1 KECCAK256 SLOAD SWAP2 SWAP1 SWAP3 AND SWAP3 JUMP JUMPDEST PUSH1 0x40 DUP1 MLOAD PUSH1 0x1 PUSH1 0x1 PUSH1 0xA0 SHL SUB SWAP1 SWAP5 AND DUP5 MSTORE PUSH1 0x20 DUP5 ADD SWAP3 SWAP1 SWAP3 MSTORE SWAP1 DUP3 ADD MSTORE PUSH1 0x60 ADD PUSH2 0x211 JUMP JUMPDEST PUSH2 0x23F PUSH2 0x301 CALLDATASIZE PUSH1 0x4 PUSH2 0xEAB JUMP JUMPDEST PUSH1 0xC PUSH1 0x20 SWAP1 DUP2 MSTORE PUSH1 0x0 SWAP3 DUP4 MSTORE PUSH1 0x40 DUP1 DUP5 KECCAK256 SWAP1 SWAP2 MSTORE SWAP1 DUP3 MSTORE SWAP1 KECCAK256 SLOAD DUP2 JUMP JUMPDEST PUSH2 0x1FD PUSH2 0x32C CALLDATASIZE PUSH1 0x4 PUSH2 0xED5 JUMP JUMPDEST PUSH2 0x5DF JUMP JUMPDEST PUSH2 0x23F PUSH1 0x7 SLOAD DUP2 JUMP JUMPDEST PUSH1 0x5 SLOAD PUSH2 0x1FD SWAP1 PUSH1 0x1 PUSH1 0x1 PUSH1 0xA0 SHL SUB AND DUP2 JUMP JUMPDEST PUSH2 0x355 PUSH2 0x609 JUMP JUMPDEST STOP JUMPDEST PUSH2 0x355 PUSH2 0x365 CALLDATASIZE PUSH1 0x4 PUSH2 0xE90 JUMP JUMPDEST PUSH2 0x6E4 JUMP JUMPDEST PUSH2 0x23F PUSH2 0x378 CALLDATASIZE PUSH1 0x4 PUSH2 0xEAB JUMP JUMPDEST PUSH1 0xD PUSH1 0x20 SWAP1 DUP2 MSTORE PUSH1 0x0 SWAP3 DUP4 MSTORE PUSH1 0x40 DUP1 DUP5 KECCAK256 SWAP1 SWAP2 MSTORE SWAP1 DUP3 MSTORE SWAP1 KECCAK256 SLOAD DUP2 JUMP JUMPDEST PUSH2 0x355 PUSH2 0x73D JUMP JUMPDEST PUSH2 0x1FD PUSH2 0x3AB CALLDATASIZE PUSH1 0x4 PUSH2 0xED5 JUMP JUMPDEST PUSH2 0x751 JUMP JUMPDEST PUSH2 0x1FD PUSH2 0x3BE CALLDATASIZE PUSH1 0x4 PUSH2 0xEAB JUMP JUMPDEST PUSH1 0xE PUSH1 0x20 SWAP1 DUP2 MSTORE PUSH1 0x0 SWAP3 DUP4 MSTORE PUSH1 0x40 DUP1 DUP5 KECCAK256 SWAP1 SWAP2 MSTORE SWAP1 DUP3 MSTORE SWAP1 KECCAK256 SLOAD PUSH1 0x1 PUSH1 0x1 PUSH1 0xA0 SHL SUB AND DUP2 JUMP JUMPDEST PUSH2 0x355 PUSH2 0x3F2 CALLDATASIZE PUSH1 0x4 PUSH2 0xEEE JUMP JUMPDEST PUSH2 0x761 JUMP JUMPDEST PUSH1 0x0 SLOAD PUSH1 0x1 PUSH1 0x1 PUSH1 0xA0 SHL SUB AND PUSH2 0x1FD JUMP JUMPDEST PUSH2 0x23F PUSH2 0x416 CALLDATASIZE PUSH1 0x4 PUSH2 0xF21 JUMP JUMPDEST PUSH2 0x797 JUMP JUMPDEST PUSH2 0x22D PUSH2 0x429 CALLDATASIZE PUSH1 0x4 PUSH2 0xE90 JUMP JUMPDEST PUSH2 0x7EF JUMP JUMPDEST PUSH2 0x1FD PUSH2 0x43C CALLDATASIZE PUSH1 0x4 PUSH2 0xEAB JUMP JUMPDEST PUSH1 0x8 PUSH1 0x20 SWAP1 DUP2 MSTORE PUSH1 0x0 SWAP3 DUP4 MSTORE PUSH1 0x40 DUP1 DUP5 KECCAK256 SWAP1 SWAP2 MSTORE SWAP1 DUP3 MSTORE SWAP1 KECCAK256 SLOAD PUSH1 0x1 PUSH1 0x1 PUSH1 0xA0 SHL SUB AND DUP2 JUMP JUMPDEST PUSH2 0x355 PUSH2 0x470 CALLDATASIZE PUSH1 0x4 PUSH2 0xF5D JUMP JUMPDEST PUSH2 0x84F JUMP JUMPDEST PUSH2 0x23F PUSH2 0x483 CALLDATASIZE PUSH1 0x4 PUSH2 0xEAB JUMP JUMPDEST PUSH1 0x9 PUSH1 0x20 SWAP1 DUP2 MSTORE PUSH1 0x0 SWAP3 DUP4 MSTORE PUSH1 0x40 DUP1 DUP5 KECCAK256 SWAP1 SWAP2 MSTORE SWAP1 DUP3 MSTORE SWAP1 KECCAK256 SLOAD DUP2 JUMP JUMPDEST PUSH2 0x23F PUSH2 0x4AE CALLDATASIZE PUSH1 0x4 PUSH2 0xE90 JUMP JUMPDEST PUSH2 0x958 JUMP JUMPDEST PUSH2 0x355 PUSH2 0x4C1 CALLDATASIZE PUSH1 0x4 PUSH2 0xEAB JUMP JUMPDEST PUSH2 0xA0D JUMP JUMPDEST PUSH1 0x2 SLOAD PUSH2 0x1FD SWAP1 PUSH1 0x1 PUSH1 0x1 PUSH1 0xA0 SHL SUB AND DUP2 JUMP JUMPDEST PUSH2 0x355 PUSH2 0x4E7 CALLDATASIZE PUSH1 0x4 PUSH2 0xEAB JUMP JUMPDEST PUSH2 0xA71 JUMP JUMPDEST PUSH2 0x4FF PUSH2 0x4FA CALLDATASIZE PUSH1 0x4 PUSH2 0xEAB JUMP JUMPDEST PUSH2 0xBD0 JUMP JUMPDEST PUSH1 0x40 DUP1 MLOAD SWAP3 DUP4 MSTORE PUSH1 0x20 DUP4 ADD SWAP2 SWAP1 SWAP2 MSTORE ADD PUSH2 0x211 JUMP JUMPDEST PUSH1 0x3 SLOAD PUSH2 0x1FD SWAP1 PUSH1 0x1 PUSH1 0x1 PUSH1 0xA0 SHL SUB AND DUP2 JUMP JUMPDEST PUSH2 0x355 PUSH2 0x535 CALLDATASIZE PUSH1 0x4 PUSH2 0xE90 JUMP JUMPDEST PUSH2 0xCD0 JUMP JUMPDEST PUSH2 0x1FD PUSH2 0x548 CALLDATASIZE PUSH1 0x4 PUSH2 0xE90 JUMP JUMPDEST PUSH1 0x4 PUSH1 0x20 MSTORE PUSH1 0x0 SWAP1 DUP2 MSTORE PUSH1 0x40 SWAP1 KECCAK256 SLOAD PUSH1 0x1 PUSH1 0x1 PUSH1 0xA0 SHL SUB AND DUP2 JUMP JUMPDEST PUSH2 0x355 PUSH2 0x571 CALLDATASIZE PUSH1 0x4 PUSH2 0xEAB JUMP JUMPDEST PUSH2 0xD46 JUMP JUMPDEST PUSH1 0x0 DUP1 JUMPDEST PUSH1 0x1 SLOAD DUP2 LT ISZERO PUSH2 0x5D6 JUMPI DUP3 PUSH1 0x1 PUSH1 0x1 PUSH1 0xA0 SHL SUB AND PUSH1 0xB DUP3 DUP2 SLOAD DUP2 LT PUSH2 0x5A1 JUMPI PUSH2 0x5A1 PUSH2 0xF9F JUMP JUMPDEST PUSH1 0x0 SWAP2 DUP3 MSTORE PUSH1 0x20 SWAP1 SWAP2 KECCAK256 ADD SLOAD PUSH1 0x1 PUSH1 0x1 PUSH1 0xA0 SHL SUB AND SUB PUSH2 0x5C4 JUMPI POP PUSH1 0x1 SWAP3 SWAP2 POP POP JUMP JUMPDEST DUP1 PUSH2 0x5CE DUP2 PUSH2 0xFCB JUMP JUMPDEST SWAP2 POP POP PUSH2 0x57A JUMP JUMPDEST POP PUSH1 0x0 SWAP3 SWAP2 POP POP JUMP JUMPDEST PUSH1 0x1 DUP2 DUP2 SLOAD DUP2 LT PUSH2 0x5EF JUMPI PUSH1 0x0 DUP1 REVERT JUMPDEST PUSH1 0x0 SWAP2 DUP3 MSTORE PUSH1 0x20 SWAP1 SWAP2 KECCAK256 ADD SLOAD PUSH1 0x1 PUSH1 0x1 PUSH1 0xA0 SHL SUB AND SWAP1 POP DUP2 JUMP JUMPDEST PUSH2 0x611 PUSH2 0xDCA JUMP JUMPDEST PUSH1 0x0 JUMPDEST PUSH1 0xB SLOAD DUP2 LT ISZERO PUSH2 0x6E1 JUMPI PUSH1 0x0 PUSH1 0xB DUP3 DUP2 SLOAD DUP2 LT PUSH2 0x633 JUMPI PUSH2 0x633 PUSH2 0xF9F JUMP JUMPDEST PUSH1 0x0 SWAP2 DUP3 MSTORE PUSH1 0x20 DUP3 KECCAK256 ADD SLOAD PUSH1 0x1 PUSH1 0x1 PUSH1 0xA0 SHL SUB AND SWAP2 POP PUSH2 0x652 DUP3 PUSH2 0x958 JUMP JUMPDEST PUSH1 0x5 SLOAD PUSH1 0x40 MLOAD PUSH4 0xA9059CBB PUSH1 0xE0 SHL DUP2 MSTORE PUSH1 0x1 PUSH1 0x1 PUSH1 0xA0 SHL SUB DUP6 DUP2 AND PUSH1 0x4 DUP4 ADD MSTORE PUSH1 0x24 DUP3 ADD DUP5 SWAP1 MSTORE SWAP3 SWAP4 POP SWAP2 AND SWAP1 PUSH4 0xA9059CBB SWAP1 PUSH1 0x44 ADD PUSH1 0x20 PUSH1 0x40 MLOAD DUP1 DUP4 SUB DUP2 PUSH1 0x0 DUP8 GAS CALL ISZERO DUP1 ISZERO PUSH2 0x6A7 JUMPI RETURNDATASIZE PUSH1 0x0 DUP1 RETURNDATACOPY RETURNDATASIZE PUSH1 0x0 REVERT JUMPDEST POP POP POP POP PUSH1 0x40 MLOAD RETURNDATASIZE PUSH1 0x1F NOT PUSH1 0x1F DUP3 ADD AND DUP3 ADD DUP1 PUSH1 0x40 MSTORE POP DUP2 ADD SWAP1 PUSH2 0x6CB SWAP2 SWAP1 PUSH2 0xFE4 JUMP JUMPDEST POP POP POP DUP1 DUP1 PUSH2 0x6D9 SWAP1 PUSH2 0xFCB JUMP JUMPDEST SWAP2 POP POP PUSH2 0x614 JUMP JUMPDEST POP JUMP JUMPDEST PUSH2 0x6EC PUSH2 0xDCA JUMP JUMPDEST PUSH1 0x1 DUP1 SLOAD DUP1 DUP3 ADD DUP3 SSTORE PUSH1 0x0 SWAP2 SWAP1 SWAP2 MSTORE PUSH32 0xB10E2D527612073B26EECDFD717E6A320CF44B4AFAC2B0732D9FCBE2B7FA0CF6 ADD DUP1 SLOAD PUSH1 0x1 PUSH1 0x1 PUSH1 0xA0 SHL SUB NOT AND PUSH1 0x1 PUSH1 0x1 PUSH1 0xA0 SHL SUB SWAP3 SWAP1 SWAP3 AND SWAP2 SWAP1 SWAP2 OR SWAP1 SSTORE JUMP JUMPDEST PUSH2 0x745 PUSH2 0xDCA JUMP JUMPDEST PUSH2 0x74F PUSH1 0x0 PUSH2 0xE24 JUMP JUMPDEST JUMP JUMPDEST PUSH1 0xB DUP2 DUP2 SLOAD DUP2 LT PUSH2 0x5EF JUMPI PUSH1 0x0 DUP1 REVERT JUMPDEST PUSH2 0x769 PUSH2 0xDCA JUMP JUMPDEST PUSH1 0x1 PUSH1 0x1 PUSH1 0xA0 SHL SUB SWAP2 DUP3 AND PUSH1 0x0 SWAP1 DUP2 MSTORE PUSH1 0x4 PUSH1 0x20 MSTORE PUSH1 0x40 SWAP1 KECCAK256 DUP1 SLOAD PUSH1 0x1 PUSH1 0x1 PUSH1 0xA0 SHL SUB NOT AND SWAP2 SWAP1 SWAP3 AND OR SWAP1 SSTORE JUMP JUMPDEST PUSH1 0x1 PUSH1 0x1 PUSH1 0xA0 SHL SUB DUP4 AND PUSH1 0x0 SWAP1 DUP2 MSTORE PUSH1 0xA PUSH1 0x20 MSTORE PUSH1 0x40 DUP2 KECCAK256 SLOAD PUSH2 0x7BC JUMPI POP PUSH1 0x0 PUSH2 0x7E8 JUMP JUMPDEST PUSH1 0x0 DUP1 PUSH2 0x7C9 DUP6 DUP6 PUSH2 0xBD0 JUMP JUMPDEST SWAP1 SWAP3 POP SWAP1 POP PUSH2 0x7D9 DUP2 PUSH1 0xA PUSH2 0x10EC JUMP JUMPDEST PUSH2 0x7E3 SWAP1 DUP4 PUSH2 0x10F8 JUMP JUMPDEST SWAP3 POP POP POP JUMPDEST SWAP4 SWAP3 POP POP POP JUMP JUMPDEST PUSH1 0x0 DUP1 JUMPDEST PUSH1 0x1 SLOAD DUP2 LT ISZERO PUSH2 0x5D6 JUMPI DUP3 PUSH1 0x1 PUSH1 0x1 PUSH1 0xA0 SHL SUB AND PUSH1 0x1 DUP3 DUP2 SLOAD DUP2 LT PUSH2 0x81A JUMPI PUSH2 0x81A PUSH2 0xF9F JUMP JUMPDEST PUSH1 0x0 SWAP2 DUP3 MSTORE PUSH1 0x20 SWAP1 SWAP2 KECCAK256 ADD SLOAD PUSH1 0x1 PUSH1 0x1 PUSH1 0xA0 SHL SUB AND SUB PUSH2 0x83D JUMPI POP PUSH1 0x1 SWAP3 SWAP2 POP POP JUMP JUMPDEST DUP1 PUSH2 0x847 DUP2 PUSH2 0xFCB JUMP JUMPDEST SWAP2 POP POP PUSH2 0x7F3 JUMP JUMPDEST PUSH2 0x858 DUP6 PUSH2 0x7EF JUMP JUMPDEST PUSH2 0x87D JUMPI PUSH1 0x40 MLOAD PUSH3 0x461BCD PUSH1 0xE5 SHL DUP2 MSTORE PUSH1 0x4 ADD PUSH2 0x874 SWAP1 PUSH2 0x111A JUMP JUMPDEST PUSH1 0x40 MLOAD DUP1 SWAP2 SUB SWAP1 REVERT JUMPDEST PUSH2 0x887 DUP6 DUP6 PUSH2 0xA71 JUMP JUMPDEST PUSH2 0x891 CALLER DUP5 PUSH2 0xD46 JUMP JUMPDEST TIMESTAMP PUSH1 0x0 PUSH2 0x89F DUP5 PUSH1 0x18 PUSH2 0x1166 JUMP JUMPDEST PUSH2 0x8AA SWAP1 PUSH1 0x3C PUSH2 0x1166 JUMP JUMPDEST PUSH2 0x8B5 SWAP1 PUSH1 0x3C PUSH2 0x1166 JUMP JUMPDEST PUSH2 0x8BF SWAP1 DUP4 PUSH2 0x117D JUMP JUMPDEST SWAP1 POP PUSH1 0x0 PUSH1 0x7 SLOAD PUSH1 0xA PUSH2 0x8D2 SWAP2 SWAP1 PUSH2 0x10EC JUMP JUMPDEST PUSH2 0x8DC SWAP1 DUP6 PUSH2 0x10F8 JUMP JUMPDEST PUSH2 0x8E7 SWAP1 PUSH1 0x1 PUSH2 0x117D JUMP JUMPDEST PUSH2 0x8F1 SWAP1 DUP8 PUSH2 0x1166 JUMP JUMPDEST PUSH1 0x1 PUSH1 0x1 PUSH1 0xA0 SHL SUB DUP10 AND PUSH1 0x0 DUP2 DUP2 MSTORE PUSH1 0xE PUSH1 0x20 SWAP1 DUP2 MSTORE PUSH1 0x40 DUP1 DUP4 KECCAK256 DUP13 DUP5 MSTORE DUP3 MSTORE DUP1 DUP4 KECCAK256 DUP1 SLOAD PUSH1 0x1 PUSH1 0x1 PUSH1 0xA0 SHL SUB NOT AND CALLER OR SWAP1 SSTORE DUP4 DUP4 MSTORE PUSH1 0xD DUP3 MSTORE DUP1 DUP4 KECCAK256 DUP13 DUP5 MSTORE DUP3 MSTORE DUP1 DUP4 KECCAK256 DUP8 SWAP1 SSTORE SWAP3 DUP3 MSTORE PUSH1 0xC DUP2 MSTORE DUP3 DUP3 KECCAK256 DUP12 DUP4 MSTORE SWAP1 MSTORE KECCAK256 DUP2 SWAP1 SSTORE SWAP1 POP POP POP POP POP POP POP POP POP JUMP JUMPDEST PUSH1 0x1 PUSH1 0x1 PUSH1 0xA0 SHL SUB DUP2 AND PUSH1 0x0 SWAP1 DUP2 MSTORE PUSH1 0xA PUSH1 0x20 MSTORE PUSH1 0x40 DUP2 KECCAK256 SLOAD DUP2 SWAP1 PUSH2 0x980 JUMPI POP PUSH1 0x0 SWAP3 SWAP2 POP POP JUMP JUMPDEST PUSH1 0x0 JUMPDEST PUSH1 0x1 PUSH1 0x1 PUSH1 0xA0 SHL SUB DUP5 AND PUSH1 0x0 SWAP1 DUP2 MSTORE PUSH1 0xA PUSH1 0x20 MSTORE PUSH1 0x40 SWAP1 KECCAK256 SLOAD DUP2 LT ISZERO PUSH2 0xA06 JUMPI PUSH1 0x1 PUSH1 0x1 PUSH1 0xA0 SHL SUB DUP1 DUP6 AND PUSH1 0x0 DUP2 DUP2 MSTORE PUSH1 0x8 PUSH1 0x20 SWAP1 DUP2 MSTORE PUSH1 0x40 DUP1 DUP4 KECCAK256 DUP7 DUP5 MSTORE DUP3 MSTORE DUP1 DUP4 KECCAK256 SLOAD SWAP4 DUP4 MSTORE PUSH1 0x9 DUP3 MSTORE DUP1 DUP4 KECCAK256 DUP7 DUP5 MSTORE SWAP1 SWAP2 MSTORE SWAP1 KECCAK256 SLOAD PUSH2 0x9E8 SWAP3 DUP8 SWAP3 AND SWAP1 PUSH2 0x797 JUMP JUMPDEST PUSH2 0x9F2 SWAP1 DUP4 PUSH2 0x117D JUMP JUMPDEST SWAP2 POP DUP1 PUSH2 0x9FE DUP2 PUSH2 0xFCB JUMP JUMPDEST SWAP2 POP POP PUSH2 0x983 JUMP JUMPDEST POP SWAP3 SWAP2 POP POP JUMP JUMPDEST PUSH2 0xA16 CALLER PUSH2 0x576 JUMP JUMPDEST PUSH2 0xA6D JUMPI PUSH1 0x40 MLOAD PUSH3 0x461BCD PUSH1 0xE5 SHL DUP2 MSTORE PUSH1 0x20 PUSH1 0x4 DUP3 ADD MSTORE PUSH1 0x22 PUSH1 0x24 DUP3 ADD MSTORE PUSH32 0x4F6E6C7920626F72726F7765722063616E2063616C6C2074686973206D657468 PUSH1 0x44 DUP3 ADD MSTORE PUSH2 0x1BD9 PUSH1 0xF2 SHL PUSH1 0x64 DUP3 ADD MSTORE PUSH1 0x84 ADD PUSH2 0x874 JUMP JUMPDEST POP POP JUMP JUMPDEST PUSH2 0xA7A DUP3 PUSH2 0x7EF JUMP JUMPDEST PUSH2 0xA96 JUMPI PUSH1 0x40 MLOAD PUSH3 0x461BCD PUSH1 0xE5 SHL DUP2 MSTORE PUSH1 0x4 ADD PUSH2 0x874 SWAP1 PUSH2 0x111A JUMP JUMPDEST PUSH1 0x40 MLOAD PUSH4 0x23B872DD PUSH1 0xE0 SHL DUP2 MSTORE CALLER PUSH1 0x4 DUP3 ADD MSTORE ADDRESS PUSH1 0x24 DUP3 ADD MSTORE PUSH1 0x44 DUP2 ADD DUP3 SWAP1 MSTORE PUSH1 0x1 PUSH1 0x1 PUSH1 0xA0 SHL SUB DUP4 AND SWAP1 PUSH4 0x23B872DD SWAP1 PUSH1 0x64 ADD PUSH1 0x0 PUSH1 0x40 MLOAD DUP1 DUP4 SUB DUP2 PUSH1 0x0 DUP8 DUP1 EXTCODESIZE ISZERO DUP1 ISZERO PUSH2 0xAE4 JUMPI PUSH1 0x0 DUP1 REVERT JUMPDEST POP GAS CALL ISZERO DUP1 ISZERO PUSH2 0xAF8 JUMPI RETURNDATASIZE PUSH1 0x0 DUP1 RETURNDATACOPY RETURNDATASIZE PUSH1 0x0 REVERT JUMPDEST POP POP CALLER PUSH1 0x0 DUP2 DUP2 MSTORE PUSH1 0x8 PUSH1 0x20 SWAP1 DUP2 MSTORE PUSH1 0x40 DUP1 DUP4 KECCAK256 PUSH1 0xA DUP1 DUP5 MSTORE DUP3 DUP6 KECCAK256 DUP1 SLOAD DUP7 MSTORE SWAP2 DUP5 MSTORE DUP3 DUP6 KECCAK256 DUP1 SLOAD PUSH1 0x1 PUSH1 0x1 PUSH1 0xA0 SHL SUB NOT AND PUSH1 0x1 PUSH1 0x1 PUSH1 0xA0 SHL SUB DUP13 AND OR SWAP1 SSTORE DUP6 DUP6 MSTORE PUSH1 0x9 DUP5 MSTORE DUP3 DUP6 KECCAK256 DUP3 SLOAD DUP7 MSTORE DUP5 MSTORE SWAP2 DUP5 KECCAK256 DUP9 SWAP1 SSTORE SWAP4 DUP4 MSTORE SWAP1 MSTORE SWAP1 SLOAD SWAP1 SUB SWAP2 POP PUSH2 0xBA1 SWAP1 POP JUMPI PUSH1 0xB DUP1 SLOAD PUSH1 0x1 DUP2 ADD DUP3 SSTORE PUSH1 0x0 SWAP2 SWAP1 SWAP2 MSTORE PUSH32 0x175B7A638427703F0DBE7BB9BBF987A2551717B34E79F33B5B1008D1FA01DB9 ADD DUP1 SLOAD PUSH1 0x1 PUSH1 0x1 PUSH1 0xA0 SHL SUB NOT AND CALLER OR SWAP1 SSTORE JUMPDEST CALLER PUSH1 0x0 SWAP1 DUP2 MSTORE PUSH1 0xA PUSH1 0x20 MSTORE PUSH1 0x40 SWAP1 KECCAK256 SLOAD PUSH2 0xBBC SWAP1 PUSH1 0x1 PUSH2 0x117D JUMP JUMPDEST CALLER PUSH1 0x0 SWAP1 DUP2 MSTORE PUSH1 0xA PUSH1 0x20 MSTORE PUSH1 0x40 SWAP1 KECCAK256 SSTORE POP POP JUMP JUMPDEST PUSH1 0x1 PUSH1 0x1 PUSH1 0xA0 SHL SUB DUP1 DUP4 AND PUSH1 0x0 SWAP1 DUP2 MSTORE PUSH1 0x4 PUSH1 0x20 DUP2 SWAP1 MSTORE PUSH1 0x40 DUP1 DUP4 KECCAK256 SLOAD DUP2 MLOAD PUSH4 0x3FABE5A3 PUSH1 0xE2 SHL DUP2 MSTORE SWAP2 MLOAD SWAP4 SWAP5 DUP6 SWAP5 SWAP2 AND SWAP3 DUP4 SWAP3 DUP6 SWAP3 DUP5 SWAP3 PUSH4 0xFEAF968C SWAP3 DUP1 DUP3 ADD SWAP3 PUSH1 0xA0 SWAP3 SWAP1 SWAP2 DUP3 SWAP1 SUB ADD DUP2 DUP7 GAS STATICCALL ISZERO DUP1 ISZERO PUSH2 0xC30 JUMPI RETURNDATASIZE PUSH1 0x0 DUP1 RETURNDATACOPY RETURNDATASIZE PUSH1 0x0 REVERT JUMPDEST POP POP POP POP PUSH1 0x40 MLOAD RETURNDATASIZE PUSH1 0x1F NOT PUSH1 0x1F DUP3 ADD AND DUP3 ADD DUP1 PUSH1 0x40 MSTORE POP DUP2 ADD SWAP1 PUSH2 0xC54 SWAP2 SWAP1 PUSH2 0x11AA JUMP JUMPDEST POP POP POP SWAP2 POP POP PUSH1 0x0 DUP3 PUSH1 0x1 PUSH1 0x1 PUSH1 0xA0 SHL SUB AND PUSH4 0x313CE567 PUSH1 0x40 MLOAD DUP2 PUSH4 0xFFFFFFFF AND PUSH1 0xE0 SHL DUP2 MSTORE PUSH1 0x4 ADD PUSH1 0x20 PUSH1 0x40 MLOAD DUP1 DUP4 SUB DUP2 DUP7 GAS STATICCALL ISZERO DUP1 ISZERO PUSH2 0xC9A JUMPI RETURNDATASIZE PUSH1 0x0 DUP1 RETURNDATACOPY RETURNDATASIZE PUSH1 0x0 REVERT JUMPDEST POP POP POP POP PUSH1 0x40 MLOAD RETURNDATASIZE PUSH1 0x1F NOT PUSH1 0x1F DUP3 ADD AND DUP3 ADD DUP1 PUSH1 0x40 MSTORE POP DUP2 ADD SWAP1 PUSH2 0xCBE SWAP2 SWAP1 PUSH2 0x11FA JUMP JUMPDEST SWAP2 SWAP6 POP POP PUSH1 0xFF AND SWAP3 POP POP POP SWAP3 POP SWAP3 SWAP1 POP JUMP JUMPDEST PUSH2 0xCD8 PUSH2 0xDCA JUMP JUMPDEST PUSH1 0x1 PUSH1 0x1 PUSH1 0xA0 SHL SUB DUP2 AND PUSH2 0xD3D JUMPI PUSH1 0x40 MLOAD PUSH3 0x461BCD PUSH1 0xE5 SHL DUP2 MSTORE PUSH1 0x20 PUSH1 0x4 DUP3 ADD MSTORE PUSH1 0x26 PUSH1 0x24 DUP3 ADD MSTORE PUSH32 0x4F776E61626C653A206E6577206F776E657220697320746865207A65726F2061 PUSH1 0x44 DUP3 ADD MSTORE PUSH6 0x646472657373 PUSH1 0xD0 SHL PUSH1 0x64 DUP3 ADD MSTORE PUSH1 0x84 ADD PUSH2 0x874 JUMP JUMPDEST PUSH2 0x6E1 DUP2 PUSH2 0xE24 JUMP JUMPDEST PUSH2 0xD4E PUSH2 0xDCA JUMP JUMPDEST PUSH1 0x6 SLOAD PUSH1 0x40 MLOAD PUSH4 0xA9059CBB PUSH1 0xE0 SHL DUP2 MSTORE PUSH1 0x1 PUSH1 0x1 PUSH1 0xA0 SHL SUB DUP5 DUP2 AND PUSH1 0x4 DUP4 ADD MSTORE PUSH1 0x24 DUP3 ADD DUP5 SWAP1 MSTORE SWAP1 SWAP2 AND SWAP1 PUSH4 0xA9059CBB SWAP1 PUSH1 0x44 ADD PUSH1 0x20 PUSH1 0x40 MLOAD DUP1 DUP4 SUB DUP2 PUSH1 0x0 DUP8 GAS CALL ISZERO DUP1 ISZERO PUSH2 0xDA1 JUMPI RETURNDATASIZE PUSH1 0x0 DUP1 RETURNDATACOPY RETURNDATASIZE PUSH1 0x0 REVERT JUMPDEST POP POP POP POP PUSH1 0x40 MLOAD RETURNDATASIZE PUSH1 0x1F NOT PUSH1 0x1F DUP3 ADD AND DUP3 ADD DUP1 PUSH1 0x40 MSTORE POP DUP2 ADD SWAP1 PUSH2 0xDC5 SWAP2 SWAP1 PUSH2 0xFE4 JUMP JUMPDEST POP POP POP JUMP JUMPDEST PUSH1 0x0 SLOAD PUSH1 0x1 PUSH1 0x1 PUSH1 0xA0 SHL SUB AND CALLER EQ PUSH2 0x74F JUMPI PUSH1 0x40 MLOAD PUSH3 0x461BCD PUSH1 0xE5 SHL DUP2 MSTORE PUSH1 0x20 PUSH1 0x4 DUP3 ADD DUP2 SWAP1 MSTORE PUSH1 0x24 DUP3 ADD MSTORE PUSH32 0x4F776E61626C653A2063616C6C6572206973206E6F7420746865206F776E6572 PUSH1 0x44 DUP3 ADD MSTORE PUSH1 0x64 ADD PUSH2 0x874 JUMP JUMPDEST PUSH1 0x0 DUP1 SLOAD PUSH1 0x1 PUSH1 0x1 PUSH1 0xA0 SHL SUB DUP4 DUP2 AND PUSH1 0x1 PUSH1 0x1 PUSH1 0xA0 SHL SUB NOT DUP4 AND DUP2 OR DUP5 SSTORE PUSH1 0x40 MLOAD SWAP2 SWAP1 SWAP3 AND SWAP3 DUP4 SWAP2 PUSH32 0x8BE0079C531659141344CD1FD0A4F28419497F9722A3DAAFE3B4186F6B6457E0 SWAP2 SWAP1 LOG3 POP POP JUMP JUMPDEST DUP1 CALLDATALOAD PUSH1 0x1 PUSH1 0x1 PUSH1 0xA0 SHL SUB DUP2 AND DUP2 EQ PUSH2 0xE8B JUMPI PUSH1 0x0 DUP1 REVERT JUMPDEST SWAP2 SWAP1 POP JUMP JUMPDEST PUSH1 0x0 PUSH1 0x20 DUP3 DUP5 SUB SLT ISZERO PUSH2 0xEA2 JUMPI PUSH1 0x0 DUP1 REVERT JUMPDEST PUSH2 0x7E8 DUP3 PUSH2 0xE74 JUMP JUMPDEST PUSH1 0x0 DUP1 PUSH1 0x40 DUP4 DUP6 SUB SLT ISZERO PUSH2 0xEBE JUMPI PUSH1 0x0 DUP1 REVERT JUMPDEST PUSH2 0xEC7 DUP4 PUSH2 0xE74 JUMP JUMPDEST SWAP5 PUSH1 0x20 SWAP4 SWAP1 SWAP4 ADD CALLDATALOAD SWAP4 POP POP POP JUMP JUMPDEST PUSH1 0x0 PUSH1 0x20 DUP3 DUP5 SUB SLT ISZERO PUSH2 0xEE7 JUMPI PUSH1 0x0 DUP1 REVERT JUMPDEST POP CALLDATALOAD SWAP2 SWAP1 POP JUMP JUMPDEST PUSH1 0x0 DUP1 PUSH1 0x40 DUP4 DUP6 SUB SLT ISZERO PUSH2 0xF01 JUMPI PUSH1 0x0 DUP1 REVERT JUMPDEST PUSH2 0xF0A DUP4 PUSH2 0xE74 JUMP JUMPDEST SWAP2 POP PUSH2 0xF18 PUSH1 0x20 DUP5 ADD PUSH2 0xE74 JUMP JUMPDEST SWAP1 POP SWAP3 POP SWAP3 SWAP1 POP JUMP JUMPDEST PUSH1 0x0 DUP1 PUSH1 0x0 PUSH1 0x60 DUP5 DUP7 SUB SLT ISZERO PUSH2 0xF36 JUMPI PUSH1 0x0 DUP1 REVERT JUMPDEST PUSH2 0xF3F DUP5 PUSH2 0xE74 JUMP JUMPDEST SWAP3 POP PUSH2 0xF4D PUSH1 0x20 DUP6 ADD PUSH2 0xE74 JUMP JUMPDEST SWAP2 POP PUSH1 0x40 DUP5 ADD CALLDATALOAD SWAP1 POP SWAP3 POP SWAP3 POP SWAP3 JUMP JUMPDEST PUSH1 0x0 DUP1 PUSH1 0x0 DUP1 PUSH1 0x0 PUSH1 0xA0 DUP7 DUP9 SUB SLT ISZERO PUSH2 0xF75 JUMPI PUSH1 0x0 DUP1 REVERT JUMPDEST PUSH2 0xF7E DUP7 PUSH2 0xE74 JUMP JUMPDEST SWAP8 PUSH1 0x20 DUP8 ADD CALLDATALOAD SWAP8 POP PUSH1 0x40 DUP8 ADD CALLDATALOAD SWAP7 PUSH1 0x60 DUP2 ADD CALLDATALOAD SWAP7 POP PUSH1 0x80 ADD CALLDATALOAD SWAP5 POP SWAP3 POP POP POP JUMP JUMPDEST PUSH4 0x4E487B71 PUSH1 0xE0 SHL PUSH1 0x0 MSTORE PUSH1 0x32 PUSH1 0x4 MSTORE PUSH1 0x24 PUSH1 0x0 REVERT JUMPDEST PUSH4 0x4E487B71 PUSH1 0xE0 SHL PUSH1 0x0 MSTORE PUSH1 0x11 PUSH1 0x4 MSTORE PUSH1 0x24 PUSH1 0x0 REVERT JUMPDEST PUSH1 0x0 PUSH1 0x1 DUP3 ADD PUSH2 0xFDD JUMPI PUSH2 0xFDD PUSH2 0xFB5 JUMP JUMPDEST POP PUSH1 0x1 ADD SWAP1 JUMP JUMPDEST PUSH1 0x0 PUSH1 0x20 DUP3 DUP5 SUB SLT ISZERO PUSH2 0xFF6 JUMPI PUSH1 0x0 DUP1 REVERT JUMPDEST DUP2 MLOAD DUP1 ISZERO ISZERO DUP2 EQ PUSH2 0x7E8 JUMPI PUSH1 0x0 DUP1 REVERT JUMPDEST PUSH1 0x1 DUP2 DUP2 JUMPDEST DUP1 DUP6 GT ISZERO PUSH2 0x1041 JUMPI DUP2 PUSH1 0x0 NOT DIV DUP3 GT ISZERO PUSH2 0x1027 JUMPI PUSH2 0x1027 PUSH2 0xFB5 JUMP JUMPDEST DUP1 DUP6 AND ISZERO PUSH2 0x1034 JUMPI SWAP2 DUP2 MUL SWAP2 JUMPDEST SWAP4 DUP5 SHR SWAP4 SWAP1 DUP1 MUL SWAP1 PUSH2 0x100B JUMP JUMPDEST POP SWAP3 POP SWAP3 SWAP1 POP JUMP JUMPDEST PUSH1 0x0 DUP3 PUSH2 0x1058 JUMPI POP PUSH1 0x1 PUSH2 0x10E6 JUMP JUMPDEST DUP2 PUSH2 0x1065 JUMPI POP PUSH1 0x0 PUSH2 0x10E6 JUMP JUMPDEST DUP2 PUSH1 0x1 DUP2 EQ PUSH2 0x107B JUMPI PUSH1 0x2 DUP2 EQ PUSH2 0x1085 JUMPI PUSH2 0x10A1 JUMP JUMPDEST PUSH1 0x1 SWAP2 POP POP PUSH2 0x10E6 JUMP JUMPDEST PUSH1 0xFF DUP5 GT ISZERO PUSH2 0x1096 JUMPI PUSH2 0x1096 PUSH2 0xFB5 JUMP JUMPDEST POP POP PUSH1 0x1 DUP3 SHL PUSH2 0x10E6 JUMP JUMPDEST POP PUSH1 0x20 DUP4 LT PUSH2 0x133 DUP4 LT AND PUSH1 0x4E DUP5 LT PUSH1 0xB DUP5 LT AND OR ISZERO PUSH2 0x10C4 JUMPI POP DUP2 DUP2 EXP PUSH2 0x10E6 JUMP JUMPDEST PUSH2 0x10CE DUP4 DUP4 PUSH2 0x1006 JUMP JUMPDEST DUP1 PUSH1 0x0 NOT DIV DUP3 GT ISZERO PUSH2 0x10E2 JUMPI PUSH2 0x10E2 PUSH2 0xFB5 JUMP JUMPDEST MUL SWAP1 POP JUMPDEST SWAP3 SWAP2 POP POP JUMP JUMPDEST PUSH1 0x0 PUSH2 0x7E8 DUP4 DUP4 PUSH2 0x1049 JUMP JUMPDEST PUSH1 0x0 DUP3 PUSH2 0x1115 JUMPI PUSH4 0x4E487B71 PUSH1 0xE0 SHL PUSH1 0x0 MSTORE PUSH1 0x12 PUSH1 0x4 MSTORE PUSH1 0x24 PUSH1 0x0 REVERT JUMPDEST POP DIV SWAP1 JUMP JUMPDEST PUSH1 0x20 DUP1 DUP3 MSTORE PUSH1 0x2C SWAP1 DUP3 ADD MSTORE PUSH32 0x63757272656E74206E6674206973206E6F7420616C6C6F77656420696E206F75 PUSH1 0x40 DUP3 ADD MSTORE PUSH12 0x722077686974656C69737421 PUSH1 0xA0 SHL PUSH1 0x60 DUP3 ADD MSTORE PUSH1 0x80 ADD SWAP1 JUMP JUMPDEST DUP1 DUP3 MUL DUP2 ISZERO DUP3 DUP3 DIV DUP5 EQ OR PUSH2 0x10E6 JUMPI PUSH2 0x10E6 PUSH2 0xFB5 JUMP JUMPDEST DUP1 DUP3 ADD DUP1 DUP3 GT ISZERO PUSH2 0x10E6 JUMPI PUSH2 0x10E6 PUSH2 0xFB5 JUMP JUMPDEST DUP1 MLOAD PUSH10 0xFFFFFFFFFFFFFFFFFFFF DUP2 AND DUP2 EQ PUSH2 0xE8B JUMPI PUSH1 0x0 DUP1 REVERT JUMPDEST PUSH1 0x0 DUP1 PUSH1 0x0 DUP1 PUSH1 0x0 PUSH1 0xA0 DUP7 DUP9 SUB SLT ISZERO PUSH2 0x11C2 JUMPI PUSH1 0x0 DUP1 REVERT JUMPDEST PUSH2 0x11CB DUP7 PUSH2 0x1190 JUMP JUMPDEST SWAP5 POP PUSH1 0x20 DUP7 ADD MLOAD SWAP4 POP PUSH1 0x40 DUP7 ADD MLOAD SWAP3 POP PUSH1 0x60 DUP7 ADD MLOAD SWAP2 POP PUSH2 0x11EE PUSH1 0x80 DUP8 ADD PUSH2 0x1190 JUMP JUMPDEST SWAP1 POP SWAP3 SWAP6 POP SWAP3 SWAP6 SWAP1 SWAP4 POP JUMP JUMPDEST PUSH1 0x0 PUSH1 0x20 DUP3 DUP5 SUB SLT ISZERO PUSH2 0x120C JUMPI PUSH1 0x0 DUP1 REVERT JUMPDEST DUP2 MLOAD PUSH1 0xFF DUP2 AND DUP2 EQ PUSH2 0x7E8 JUMPI PUSH1 0x0 DUP1 REVERT INVALID LOG2 PUSH5 0x6970667358 0x22 SLT KECCAK256 0x4F PUSH3 0x7146EE 0xB6 ORIGIN 0xE2 SWAP4 SWAP1 0xD7 0xFB 0x28 0xA7 0xD0 PUSH4 0x94CBC194 0xE1 CALLDATALOAD 0xE7 PUSH15 0x75622277CDBEBB6A64736F6C634300 ADDMOD GT STOP CALLER ","sha1":"cac33483b9709edf71f9558ddc24477b4f231324","source":"//SPDX-License-Identifier: MIT\n\n// this will be upgraded for new roles and procedures\n// principles: minimize memory storage, breakdown a complex on-chain action to several short actions\n// roles: borrower, liquidator, inspector, validator(about price info.)\n//      inspector should be the owner of the contract, sometimes as liquidator\n//      validator acts as priceFeed Aggregator, when expired highest quote one of them\n//      can change into liquidator when they deposit the quoteAmount (internal)\n// Must functions: connectWallet, showLoanableNFT, setBasePrice(real fp deal in 14days), setThreshold(e.g., 60%on base price),\n//                 autoGenOffers(3 offers: amount[100,80,60], period[3,7,14], APR[80,100,120], +some random disturbation),\n//                 manGenOffers(amount, period, APR, ),\n//                 updateOffers(offerIndex, update=0:del/1:update/2)\n//                 acceptOffer(approveTransfer, nftDeposit,loanTransfer)\n// Later functions: getPrice, showOffers, makeOffers, approve,sendOffers(by validators)\n// objects: offer{evalAmount, loanPeriod, interest}\n// Global array: arrPeriod[3,7,14], arrAPR, arrLoanRatio\n// randome value: randDeltaAPR,randDeltaLoanRatio\n// Global mappings will be used:\n//      nftAddr->nftID->{ownerAddress, interest, repayAmount, loanTime{initTime, period, expireTime}}\n//      liquidatorAddr->depositLiquid (pre-deposited amount of liquidator)\n// Must check after repay & before return NFTs: ownerAddress, repayAmount, time\n// after loan: ownerAddress should be updated to borrower address\n// after expiration: ownerAddress should be updated to liquidator address\n// ? how to get rarity info. then corresponding evalPrice -> metadata\n// ? how to achieve bundle or reduce gas fee\n//\npragma solidity ^0.8.0;\n\nimport \"@openzeppelin/contracts/access/Ownable.sol\";\nimport \"@openzeppelin/contracts/token/ERC721/IERC721.sol\";\nimport \"@openzeppelin/contracts/token/ERC20/IERC20.sol\";\nimport \"@chainlink/contracts/src/v0.8/interfaces/AggregatorV3Interface.sol\";\n\ncontract Escrow is Ownable {\n    address[] public allowedNfts;\n    address public lender;\n    address public inspector;\n    mapping(address => address) public nftPriceFeedMapping;\n\n    IERC20 public dappToken;\n    IERC20 public loanToken;\n\n    // struct addressId {\n    //     address _nftAddress;\n    //     uint256 _nftId;\n    // }\n    struct loanOffer {\n        uint256 _loanAmount; //18 decimals in ether(wei)\n        uint256 _loanDays; // in days\n        uint256 _loanInterest; //with decimals 10**4, e.g. 2.83% = 283/(10**4)\n    }\n    uint256 public interestDecimals = 4;\n    struct nftLockParameters {\n        uint256 _repayAmount; //18 decimals in ether(wei)\n        // uint256 _lockInitTime; // in seconds\n        uint256 _expireTime; // in seconds\n        address _holderAddress;\n    }\n    // mapping borrower address -> borrower stake index -> staked NFT address and ID\n    mapping(address => mapping(uint256 => address)) public stakedNftAddress;\n    mapping(address => mapping(uint256 => uint256)) public stakedNftId;\n    mapping(address => uint256) public numOfNftStaked;\n    address[] public borrowers;\n    // mapping nft address -> nft id -> {priceFeed, loanPeriod, repayAmount, holderAddress}\n    mapping(address => mapping(uint256 => uint256)) public nftLoanRepayAmount;\n    mapping(address => mapping(uint256 => uint256)) public nftLoanExpireTime;\n    mapping(address => mapping(uint256 => address)) public nftLoanHolderAddress;\n\n    constructor(address _dappTokenAddress, address _loanTokenAddress) public {\n        dappToken = IERC20(_dappTokenAddress);\n        loanToken = IERC20(_loanTokenAddress);\n    }\n\n    function nftUnStaking(address _nftAddress, uint256 _nftId)\n        public\n        onlyBorrower\n    {\n        // must satisfy:\n        // 1. time not expire,\n        // 2. repay enough,\n        // 3. the owner is the owner\n    }\n\n    function loanTransfer(address _nftHolderAddress, uint256 _loanAmount)\n        public\n        onlyOwner\n    {\n        // is onlyOwner used here correct?\n        loanToken.transfer(_nftHolderAddress, _loanAmount);\n    }\n\n    function nftStaking(address _nftAddress, uint256 _nftId) public {\n        // what NFT can they stake?\n        require(\n            nftIsAllowed(_nftAddress),\n            \"current nft is not allowed in our whitelist!\"\n        );\n        IERC721(_nftAddress).transferFrom(msg.sender, address(this), _nftId);\n        stakedNftAddress[msg.sender][numOfNftStaked[msg.sender]] = _nftAddress;\n        stakedNftId[msg.sender][numOfNftStaked[msg.sender]] = _nftId;\n        if (numOfNftStaked[msg.sender] == 0) {\n            borrowers.push(msg.sender);\n        }\n        numOfNftStaked[msg.sender] = numOfNftStaked[msg.sender] + 1;\n    }\n\n    function nftLock(\n        address _nftAddress,\n        uint256 _nftId,\n        address _holderAddress,\n        uint256 _expireTime,\n        uint256 _repayAmount\n    ) internal {\n        // nft lock parameters setting, is the function public ok?\n        nftLoanHolderAddress[_nftAddress][_nftId] = _holderAddress;\n        nftLoanExpireTime[_nftAddress][_nftId] = _expireTime;\n        nftLoanRepayAmount[_nftAddress][_nftId] = _repayAmount;\n    }\n\n    function getNftLockData(address _nftAddress, uint256 _nftId)\n        public\n        view\n        returns (\n            address,\n            uint256,\n            uint256\n        )\n    {\n        return (\n            nftLoanHolderAddress[_nftAddress][_nftId],\n            nftLoanExpireTime[_nftAddress][_nftId],\n            nftLoanRepayAmount[_nftAddress][_nftId]\n        );\n    }\n\n    function requestLoan(\n        address _nftAddress,\n        uint256 _nftId,\n        uint256 _loanAmount,\n        uint256 _loanDays,\n        uint256 _loanInterest\n    ) public {\n        require(\n            nftIsAllowed(_nftAddress),\n            \"current nft is not allowed in our whitelist!\"\n        );\n        nftStaking(_nftAddress, _nftId);\n        loanTransfer(address(msg.sender), _loanAmount);\n        uint256 initTime = block.timestamp;\n        uint256 expireTime = initTime + _loanDays * 24 * 60 * 60;\n        uint256 repayAmount = _loanAmount *\n            (1 + _loanInterest / (10**interestDecimals));\n        nftLock(\n            _nftAddress,\n            _nftId,\n            address(msg.sender),\n            expireTime,\n            repayAmount\n        );\n    }\n\n    function addAllowedNfts(address _nftAddress) public onlyOwner {\n        allowedNfts.push(_nftAddress);\n    }\n\n    function nftIsAllowed(address _nftAddress) public view returns (bool) {\n        for (\n            uint256 allowedNftsIndex = 0;\n            allowedNftsIndex < allowedNfts.length;\n            allowedNftsIndex++\n        ) {\n            if (allowedNfts[allowedNftsIndex] == _nftAddress) {\n                return true;\n            }\n        }\n        return false;\n    }\n\n    modifier onlyLender() {\n        require(msg.sender == lender, \"Only lender can call this method\");\n        _;\n    }\n\n    function isBorrowers(address _user) public view returns (bool) {\n        for (uint256 index = 0; index < allowedNfts.length; index++) {\n            if (borrowers[index] == _user) {\n                return true;\n            }\n        }\n        return false;\n    }\n\n    modifier onlyBorrower() {\n        require(isBorrowers(msg.sender), \"Only borrower can call this method\");\n        _;\n    }\n\n    modifier onlyInspector() {\n        require(msg.sender == inspector, \"Only inspector can call this method\");\n        _;\n    }\n\n    function getBalance() public view returns (uint256) {\n        return address(this).balance;\n    }\n\n    // e.g.: give 1 DappToken per loanToken loan\n    function issueTokens() public onlyOwner {\n        // ? get each borrower total loan interest profit\n        // ? get each NFT (address, id) loaned interest profit\n        // Issue tokens to all stakers\n        for (\n            uint256 borrowersIndex = 0;\n            borrowersIndex < borrowers.length;\n            borrowersIndex++\n        ) {\n            address recipient = borrowers[borrowersIndex];\n            uint256 userTotalValue = getUserTotalValue(recipient);\n            dappToken.transfer(recipient, userTotalValue);\n        }\n    }\n\n    function getUserTotalValue(address _user) public view returns (uint256) {\n        uint256 totalValue = 0;\n        // require(numOfNftStaked[_user] > 0, \"No nft staked!\");\n        if (numOfNftStaked[_user] <= 0) {\n            return 0;\n        }\n        for (\n            uint256 nftStakedIndex = 0;\n            nftStakedIndex < numOfNftStaked[_user];\n            nftStakedIndex++\n        ) {\n            totalValue =\n                totalValue +\n                getUserSingleNftValue(\n                    _user,\n                    stakedNftAddress[_user][nftStakedIndex],\n                    stakedNftId[_user][nftStakedIndex]\n                );\n        }\n        return totalValue;\n    }\n\n    function getUserSingleNftValue(\n        address _user,\n        address _nftAddress,\n        uint256 _nftId\n    ) public view returns (uint256) {\n        if (numOfNftStaked[_user] <= 0) {\n            return 0;\n        }\n        (uint256 price, uint256 decimals) = getNftValue(_nftAddress, _nftId);\n        return (price / (10**decimals));\n        // 10000000000000000000 ETH\n        // ETH/USD -> 10000000000\n        // 10 * 100 = 1,000\n    }\n\n    function getNftValue(address _nftAddress, uint256 _nftId)\n        public\n        view\n        returns (uint256, uint256)\n    {\n        // // default setted to 1ETH and 18decimals\n        // return (1, 18);\n\n        // priceFeedAddress\n        // address priceFeedAddress = nftPriceFeedMapping[_nftAddress][_nftId];\n        address priceFeedAddress = nftPriceFeedMapping[_nftAddress];\n        AggregatorV3Interface priceFeed = AggregatorV3Interface(\n            priceFeedAddress\n        );\n        (, int256 price, , , ) = priceFeed.latestRoundData();\n        uint256 decimals = uint256(priceFeed.decimals());\n        return (uint256(price), decimals);\n    }\n\n    function setPriceFeedContract(\n        address _nftAddress,\n        // uint256 _nftId=none,\n        address _priceFeed\n    ) public onlyOwner {\n        // nftPriceFeedMapping[_nftAddress][_nftId] = _priceFeed;\n        nftPriceFeedMapping[_nftAddress] = _priceFeed;\n    }\n}\n","sourcePath":"contracts/Escrow.sol","type":"contract","deployment":{"address":"0x546D99E520Eb4ED2AD161Ee5Ce358376E4Ce8AD7","chainid":"5","blockHeight":7926673}}