{"abi":[{"inputs":[],"stateMutability":"nonpayable","type":"constructor","name":"constructor"},{"anonymous":false,"inputs":[{"indexed":true,"internalType":"address","name":"owner","type":"address"},{"indexed":true,"internalType":"address","name":"approved","type":"address"},{"indexed":true,"internalType":"uint256","name":"tokenId","type":"uint256"}],"name":"Approval","type":"event"},{"anonymous":false,"inputs":[{"indexed":true,"internalType":"address","name":"owner","type":"address"},{"indexed":true,"internalType":"address","name":"operator","type":"address"},{"indexed":false,"internalType":"bool","name":"approved","type":"bool"}],"name":"ApprovalForAll","type":"event"},{"anonymous":false,"inputs":[{"indexed":true,"internalType":"address","name":"from","type":"address"},{"indexed":true,"internalType":"address","name":"to","type":"address"},{"indexed":true,"internalType":"uint256","name":"tokenId","type":"uint256"}],"name":"Transfer","type":"event"},{"inputs":[{"internalType":"address","name":"to","type":"address"},{"internalType":"uint256","name":"tokenId","type":"uint256"}],"name":"approve","outputs":[],"stateMutability":"nonpayable","type":"function"},{"inputs":[{"internalType":"address","name":"owner","type":"address"}],"name":"balanceOf","outputs":[{"internalType":"uint256","name":"","type":"uint256"}],"stateMutability":"view","type":"function"},{"inputs":[{"internalType":"string","name":"tokenUri","type":"string"}],"name":"createNFT","outputs":[{"internalType":"uint256","name":"","type":"uint256"}],"stateMutability":"nonpayable","type":"function"},{"inputs":[{"internalType":"uint256","name":"tokenId","type":"uint256"}],"name":"getApproved","outputs":[{"internalType":"address","name":"","type":"address"}],"stateMutability":"view","type":"function"},{"inputs":[{"internalType":"address","name":"owner","type":"address"},{"internalType":"address","name":"operator","type":"address"}],"name":"isApprovedForAll","outputs":[{"internalType":"bool","name":"","type":"bool"}],"stateMutability":"view","type":"function"},{"inputs":[],"name":"name","outputs":[{"internalType":"string","name":"","type":"string"}],"stateMutability":"view","type":"function"},{"inputs":[{"internalType":"uint256","name":"tokenId","type":"uint256"}],"name":"ownerOf","outputs":[{"internalType":"address","name":"","type":"address"}],"stateMutability":"view","type":"function"},{"inputs":[{"internalType":"address","name":"from","type":"address"},{"internalType":"address","name":"to","type":"address"},{"internalType":"uint256","name":"tokenId","type":"uint256"}],"name":"safeTransferFrom","outputs":[],"stateMutability":"nonpayable","type":"function"},{"inputs":[{"internalType":"address","name":"from","type":"address"},{"internalType":"address","name":"to","type":"address"},{"internalType":"uint256","name":"tokenId","type":"uint256"},{"internalType":"bytes","name":"data","type":"bytes"}],"name":"safeTransferFrom","outputs":[],"stateMutability":"nonpayable","type":"function"},{"inputs":[{"internalType":"address","name":"operator","type":"address"},{"internalType":"bool","name":"approved","type":"bool"}],"name":"setApprovalForAll","outputs":[],"stateMutability":"nonpayable","type":"function"},{"inputs":[{"internalType":"bytes4","name":"interfaceId","type":"bytes4"}],"name":"supportsInterface","outputs":[{"internalType":"bool","name":"","type":"bool"}],"stateMutability":"view","type":"function"},{"inputs":[],"name":"symbol","outputs":[{"internalType":"string","name":"","type":"string"}],"stateMutability":"view","type":"function"},{"inputs":[],"name":"tokenCounter","outputs":[{"internalType":"uint256","name":"","type":"uint256"}],"stateMutability":"view","type":"function"},{"inputs":[{"internalType":"uint256","name":"tokenId","type":"uint256"}],"name":"tokenURI","outputs":[{"internalType":"string","name":"","type":"string"}],"stateMutability":"view","type":"function"},{"inputs":[{"internalType":"address","name":"from","type":"address"},{"internalType":"address","name":"to","type":"address"},{"internalType":"uint256","name":"tokenId","type":"uint256"}],"name":"transferFrom","outputs":[],"stateMutability":"nonpayable","type":"function"}],"bytecode":"60806040523480156200001157600080fd5b5060405180604001604052806005815260200164446f67696560d81b81525060405180604001604052806003815260200162444f4760e81b81525081600090816200005d91906200011f565b5060016200006c82826200011f565b5050600060065550620001eb565b634e487b7160e01b600052604160045260246000fd5b600181811c90821680620000a557607f821691505b602082108103620000c657634e487b7160e01b600052602260045260246000fd5b50919050565b601f8211156200011a57600081815260208120601f850160051c81016020861015620000f55750805b601f850160051c820191505b81811015620001165782815560010162000101565b5050505b505050565b81516001600160401b038111156200013b576200013b6200007a565b62000153816200014c845462000090565b84620000cc565b602080601f8311600181146200018b5760008415620001725750858301515b600019600386901b1c1916600185901b17855562000116565b600085815260208120601f198616915b82811015620001bc578886015182559484019460019091019084016200019b565b5085821015620001db5787850151600019600388901b60f8161c191681555b5050505050600190811b01905550565b61139a80620001fb6000396000f3fe608060405234801561001057600080fd5b50600436106100f55760003560e01c806370a0823111610097578063c87b56dd11610066578063c87b56dd146101ff578063d082e38114610212578063da2ed03e1461021b578063e985e9c51461022e57600080fd5b806370a08231146101b057806395d89b41146101d1578063a22cb465146101d9578063b88d4fde146101ec57600080fd5b8063095ea7b3116100d3578063095ea7b31461016257806323b872dd1461017757806342842e0e1461018a5780636352211e1461019d57600080fd5b806301ffc9a7146100fa57806306fdde0314610122578063081812fc14610137575b600080fd5b61010d610108366004610e62565b610241565b60405190151581526020015b60405180910390f35b61012a610293565b6040516101199190610ecf565b61014a610145366004610ee2565b610325565b6040516001600160a01b039091168152602001610119565b610175610170366004610f17565b61034c565b005b610175610185366004610f41565b610466565b610175610198366004610f41565b610497565b61014a6101ab366004610ee2565b6104b2565b6101c36101be366004610f7d565b610512565b604051908152602001610119565b61012a610598565b6101756101e7366004610f98565b6105a7565b6101756101fa366004611060565b6105b6565b61012a61020d366004610ee2565b6105ee565b6101c360065481565b6101c36102293660046110dc565b610662565b61010d61023c366004611125565b61069d565b60006001600160e01b031982166380ac58cd60e01b148061027257506001600160e01b03198216635b5e139f60e01b145b8061028d57506301ffc9a760e01b6001600160e01b03198316145b92915050565b6060600080546102a290611158565b80601f01602080910402602001604051908101604052809291908181526020018280546102ce90611158565b801561031b5780601f106102f05761010080835404028352916020019161031b565b820191906000526020600020905b8154815290600101906020018083116102fe57829003601f168201915b5050505050905090565b6000610330826106cb565b506000908152600460205260409020546001600160a01b031690565b6000610357826104b2565b9050806001600160a01b0316836001600160a01b0316036103c95760405162461bcd60e51b815260206004820152602160248201527f4552433732313a20617070726f76616c20746f2063757272656e74206f776e656044820152603960f91b60648201526084015b60405180910390fd5b336001600160a01b03821614806103e557506103e5813361069d565b6104575760405162461bcd60e51b815260206004820152603e60248201527f4552433732313a20617070726f76652063616c6c6572206973206e6f7420746f60448201527f6b656e206f776e6572206e6f7220617070726f76656420666f7220616c6c000060648201526084016103c0565b610461838361072d565b505050565b610470338261079b565b61048c5760405162461bcd60e51b81526004016103c090611192565b6104618383836107fa565b610461838383604051806020016040528060008152506105b6565b6000818152600260205260408120546001600160a01b03168061028d5760405162461bcd60e51b8152602060048201526018602482015277115490cdcc8c4e881a5b9d985b1a59081d1bdad95b88125160421b60448201526064016103c0565b60006001600160a01b03821661057c5760405162461bcd60e51b815260206004820152602960248201527f4552433732313a2061646472657373207a65726f206973206e6f7420612076616044820152683634b21037bbb732b960b91b60648201526084016103c0565b506001600160a01b031660009081526003602052604090205490565b6060600180546102a290611158565b6105b2338383610996565b5050565b6105c0338361079b565b6105dc5760405162461bcd60e51b81526004016103c090611192565b6105e884848484610a64565b50505050565b60606105f9826106cb565b600061061060408051602081019091526000815290565b90506000815111610630576040518060200160405280600081525061065b565b8061063a84610a97565b60405160200161064b9291906111e0565b6040516020818303038152906040525b9392505050565b6006546000906106723382610b98565b61067b83610bb2565b50610685816105ee565b50600654610694906001611225565b60065592915050565b6001600160a01b03918216600090815260056020908152604080832093909416825291909152205460ff1690565b6000818152600260205260409020546001600160a01b031661072a5760405162461bcd60e51b8152602060048201526018602482015277115490cdcc8c4e881a5b9d985b1a59081d1bdad95b88125160421b60448201526064016103c0565b50565b600081815260046020526040902080546001600160a01b0319166001600160a01b0384169081179091558190610762826104b2565b6001600160a01b03167f8c5be1e5ebec7d5bd14f71427d1e84f3dd0314c0f7b2291e5b200ac8c7c3b92560405160405180910390a45050565b6000806107a7836104b2565b9050806001600160a01b0316846001600160a01b031614806107ce57506107ce818561069d565b806107f25750836001600160a01b03166107e784610325565b6001600160a01b0316145b949350505050565b826001600160a01b031661080d826104b2565b6001600160a01b0316146108715760405162461bcd60e51b815260206004820152602560248201527f4552433732313a207472616e736665722066726f6d20696e636f72726563742060448201526437bbb732b960d91b60648201526084016103c0565b6001600160a01b0382166108d35760405162461bcd60e51b8152602060048201526024808201527f4552433732313a207472616e7366657220746f20746865207a65726f206164646044820152637265737360e01b60648201526084016103c0565b6108de60008261072d565b6001600160a01b0383166000908152600360205260408120805460019290610907908490611238565b90915550506001600160a01b0382166000908152600360205260408120805460019290610935908490611225565b909155505060008181526002602052604080822080546001600160a01b0319166001600160a01b0386811691821790925591518493918716917fddf252ad1be2c89b69c2b068fc378daa952ba7f163c4a11628f55a4df523b3ef91a4505050565b816001600160a01b0316836001600160a01b0316036109f75760405162461bcd60e51b815260206004820152601960248201527f4552433732313a20617070726f766520746f2063616c6c65720000000000000060448201526064016103c0565b6001600160a01b03838116600081815260056020908152604080832094871680845294825291829020805460ff191686151590811790915591519182527f17307eab39ab6107e8899845ad3d59bd9653f200f220920489ca2b5937696c31910160405180910390a3505050565b610a6f8484846107fa565b610a7b84848484610bd6565b6105e85760405162461bcd60e51b81526004016103c09061124b565b606081600003610abe5750506040805180820190915260018152600360fc1b602082015290565b8160005b8115610ae85780610ad28161129d565b9150610ae19050600a836112cc565b9150610ac2565b60008167ffffffffffffffff811115610b0357610b03610fd4565b6040519080825280601f01601f191660200182016040528015610b2d576020820181803683370190505b5090505b84156107f257610b42600183611238565b9150610b4f600a866112e0565b610b5a906030611225565b60f81b818381518110610b6f57610b6f6112f4565b60200101906001600160f81b031916908160001a905350610b91600a866112cc565b9450610b31565b6105b2828260405180602001604052806000815250610cd7565b60606000825111610bd2576040518060200160405280600081525061028d565b5090565b60006001600160a01b0384163b15610ccc57604051630a85bd0160e11b81526001600160a01b0385169063150b7a0290610c1a90339089908890889060040161130a565b6020604051808303816000875af1925050508015610c55575060408051601f3d908101601f19168201909252610c5291810190611347565b60015b610cb2573d808015610c83576040519150601f19603f3d011682016040523d82523d6000602084013e610c88565b606091505b508051600003610caa5760405162461bcd60e51b81526004016103c09061124b565b805181602001fd5b6001600160e01b031916630a85bd0160e11b1490506107f2565b506001949350505050565b610ce18383610d0a565b610cee6000848484610bd6565b6104615760405162461bcd60e51b81526004016103c09061124b565b6001600160a01b038216610d605760405162461bcd60e51b815260206004820181905260248201527f4552433732313a206d696e7420746f20746865207a65726f206164647265737360448201526064016103c0565b6000818152600260205260409020546001600160a01b031615610dc55760405162461bcd60e51b815260206004820152601c60248201527f4552433732313a20746f6b656e20616c7265616479206d696e7465640000000060448201526064016103c0565b6001600160a01b0382166000908152600360205260408120805460019290610dee908490611225565b909155505060008181526002602052604080822080546001600160a01b0319166001600160a01b03861690811790915590518392907fddf252ad1be2c89b69c2b068fc378daa952ba7f163c4a11628f55a4df523b3ef908290a45050565b6001600160e01b03198116811461072a57600080fd5b600060208284031215610e7457600080fd5b813561065b81610e4c565b60005b83811015610e9a578181015183820152602001610e82565b50506000910152565b60008151808452610ebb816020860160208601610e7f565b601f01601f19169290920160200192915050565b60208152600061065b6020830184610ea3565b600060208284031215610ef457600080fd5b5035919050565b80356001600160a01b0381168114610f1257600080fd5b919050565b60008060408385031215610f2a57600080fd5b610f3383610efb565b946020939093013593505050565b600080600060608486031215610f5657600080fd5b610f5f84610efb565b9250610f6d60208501610efb565b9150604084013590509250925092565b600060208284031215610f8f57600080fd5b61065b82610efb565b60008060408385031215610fab57600080fd5b610fb483610efb565b915060208301358015158114610fc957600080fd5b809150509250929050565b634e487b7160e01b600052604160045260246000fd5b600067ffffffffffffffff8084111561100557611005610fd4565b604051601f8501601f19908116603f0116810190828211818310171561102d5761102d610fd4565b8160405280935085815286868601111561104657600080fd5b858560208301376000602087830101525050509392505050565b6000806000806080858703121561107657600080fd5b61107f85610efb565b935061108d60208601610efb565b925060408501359150606085013567ffffffffffffffff8111156110b057600080fd5b8501601f810187136110c157600080fd5b6110d087823560208401610fea565b91505092959194509250565b6000602082840312156110ee57600080fd5b813567ffffffffffffffff81111561110557600080fd5b8201601f8101841361111657600080fd5b6107f284823560208401610fea565b6000806040838503121561113857600080fd5b61114183610efb565b915061114f60208401610efb565b90509250929050565b600181811c9082168061116c57607f821691505b60208210810361118c57634e487b7160e01b600052602260045260246000fd5b50919050565b6020808252602e908201527f4552433732313a2063616c6c6572206973206e6f7420746f6b656e206f776e6560408201526d1c881b9bdc88185c1c1c9bdd995960921b606082015260800190565b600083516111f2818460208801610e7f565b835190830190611206818360208801610e7f565b01949350505050565b634e487b7160e01b600052601160045260246000fd5b8082018082111561028d5761028d61120f565b8181038181111561028d5761028d61120f565b60208082526032908201527f4552433732313a207472616e7366657220746f206e6f6e20455243373231526560408201527131b2b4bb32b91034b6b83632b6b2b73a32b960711b606082015260800190565b6000600182016112af576112af61120f565b5060010190565b634e487b7160e01b600052601260045260246000fd5b6000826112db576112db6112b6565b500490565b6000826112ef576112ef6112b6565b500690565b634e487b7160e01b600052603260045260246000fd5b6001600160a01b038581168252841660208201526040810183905260806060820181905260009061133d90830184610ea3565b9695505050505050565b60006020828403121561135957600080fd5b815161065b81610e4c56fea2646970667358221220ebf6142c1d7743c068152eab492f27c09652335637ce1b792ec9d3c698a5cb4c64736f6c63430008110033","bytecodeSha1":"0ef9e3ed7bfed7e0e29a3bc20713cd842c141ac1","compiler":{"evm_version":"istanbul","optimizer":{"enabled":true,"runs":200},"version":"0.8.17+commit.8df45f5f"},"contractName":"SimpleNFT","language":"Solidity","natspec":{"kind":"dev","methods":{"approve(address,uint256)":{"details":"See {IERC721-approve}."},"balanceOf(address)":{"details":"See {IERC721-balanceOf}."},"getApproved(uint256)":{"details":"See {IERC721-getApproved}."},"isApprovedForAll(address,address)":{"details":"See {IERC721-isApprovedForAll}."},"name()":{"details":"See {IERC721Metadata-name}."},"ownerOf(uint256)":{"details":"See {IERC721-ownerOf}."},"safeTransferFrom(address,address,uint256)":{"details":"See {IERC721-safeTransferFrom}."},"safeTransferFrom(address,address,uint256,bytes)":{"details":"See {IERC721-safeTransferFrom}."},"setApprovalForAll(address,bool)":{"details":"See {IERC721-setApprovalForAll}."},"supportsInterface(bytes4)":{"details":"See {IERC165-supportsInterface}."},"symbol()":{"details":"See {IERC721Metadata-symbol}."},"tokenURI(uint256)":{"details":"See {IERC721Metadata-tokenURI}."},"transferFrom(address,address,uint256)":{"details":"See {IERC721-transferFrom}."}},"version":1},"opcodes":"PUSH1 0x80 PUSH1 0x40 MSTORE CALLVALUE DUP1 ISZERO PUSH2 0x10 JUMPI PUSH1 0x0 DUP1 REVERT JUMPDEST POP PUSH1 0x4 CALLDATASIZE LT PUSH2 0xF5 JUMPI PUSH1 0x0 CALLDATALOAD PUSH1 0xE0 SHR DUP1 PUSH4 0x70A08231 GT PUSH2 0x97 JUMPI DUP1 PUSH4 0xC87B56DD GT PUSH2 0x66 JUMPI DUP1 PUSH4 0xC87B56DD EQ PUSH2 0x1FF JUMPI DUP1 PUSH4 0xD082E381 EQ PUSH2 0x212 JUMPI DUP1 PUSH4 0xDA2ED03E EQ PUSH2 0x21B JUMPI DUP1 PUSH4 0xE985E9C5 EQ PUSH2 0x22E JUMPI PUSH1 0x0 DUP1 REVERT JUMPDEST DUP1 PUSH4 0x70A08231 EQ PUSH2 0x1B0 JUMPI DUP1 PUSH4 0x95D89B41 EQ PUSH2 0x1D1 JUMPI DUP1 PUSH4 0xA22CB465 EQ PUSH2 0x1D9 JUMPI DUP1 PUSH4 0xB88D4FDE EQ PUSH2 0x1EC JUMPI PUSH1 0x0 DUP1 REVERT JUMPDEST DUP1 PUSH4 0x95EA7B3 GT PUSH2 0xD3 JUMPI DUP1 PUSH4 0x95EA7B3 EQ PUSH2 0x162 JUMPI DUP1 PUSH4 0x23B872DD EQ PUSH2 0x177 JUMPI DUP1 PUSH4 0x42842E0E EQ PUSH2 0x18A JUMPI DUP1 PUSH4 0x6352211E EQ PUSH2 0x19D JUMPI PUSH1 0x0 DUP1 REVERT JUMPDEST DUP1 PUSH4 0x1FFC9A7 EQ PUSH2 0xFA JUMPI DUP1 PUSH4 0x6FDDE03 EQ PUSH2 0x122 JUMPI DUP1 PUSH4 0x81812FC EQ PUSH2 0x137 JUMPI JUMPDEST PUSH1 0x0 DUP1 REVERT JUMPDEST PUSH2 0x10D PUSH2 0x108 CALLDATASIZE PUSH1 0x4 PUSH2 0xE62 JUMP JUMPDEST PUSH2 0x241 JUMP JUMPDEST PUSH1 0x40 MLOAD SWAP1 ISZERO ISZERO DUP2 MSTORE PUSH1 0x20 ADD JUMPDEST PUSH1 0x40 MLOAD DUP1 SWAP2 SUB SWAP1 RETURN JUMPDEST PUSH2 0x12A PUSH2 0x293 JUMP JUMPDEST PUSH1 0x40 MLOAD PUSH2 0x119 SWAP2 SWAP1 PUSH2 0xECF JUMP JUMPDEST PUSH2 0x14A PUSH2 0x145 CALLDATASIZE PUSH1 0x4 PUSH2 0xEE2 JUMP JUMPDEST PUSH2 0x325 JUMP JUMPDEST PUSH1 0x40 MLOAD PUSH1 0x1 PUSH1 0x1 PUSH1 0xA0 SHL SUB SWAP1 SWAP2 AND DUP2 MSTORE PUSH1 0x20 ADD PUSH2 0x119 JUMP JUMPDEST PUSH2 0x175 PUSH2 0x170 CALLDATASIZE PUSH1 0x4 PUSH2 0xF17 JUMP JUMPDEST PUSH2 0x34C JUMP JUMPDEST STOP JUMPDEST PUSH2 0x175 PUSH2 0x185 CALLDATASIZE PUSH1 0x4 PUSH2 0xF41 JUMP JUMPDEST PUSH2 0x466 JUMP JUMPDEST PUSH2 0x175 PUSH2 0x198 CALLDATASIZE PUSH1 0x4 PUSH2 0xF41 JUMP JUMPDEST PUSH2 0x497 JUMP JUMPDEST PUSH2 0x14A PUSH2 0x1AB CALLDATASIZE PUSH1 0x4 PUSH2 0xEE2 JUMP JUMPDEST PUSH2 0x4B2 JUMP JUMPDEST PUSH2 0x1C3 PUSH2 0x1BE CALLDATASIZE PUSH1 0x4 PUSH2 0xF7D JUMP JUMPDEST PUSH2 0x512 JUMP JUMPDEST PUSH1 0x40 MLOAD SWAP1 DUP2 MSTORE PUSH1 0x20 ADD PUSH2 0x119 JUMP JUMPDEST PUSH2 0x12A PUSH2 0x598 JUMP JUMPDEST PUSH2 0x175 PUSH2 0x1E7 CALLDATASIZE PUSH1 0x4 PUSH2 0xF98 JUMP JUMPDEST PUSH2 0x5A7 JUMP JUMPDEST PUSH2 0x175 PUSH2 0x1FA CALLDATASIZE PUSH1 0x4 PUSH2 0x1060 JUMP JUMPDEST PUSH2 0x5B6 JUMP JUMPDEST PUSH2 0x12A PUSH2 0x20D CALLDATASIZE PUSH1 0x4 PUSH2 0xEE2 JUMP JUMPDEST PUSH2 0x5EE JUMP JUMPDEST PUSH2 0x1C3 PUSH1 0x6 SLOAD DUP2 JUMP JUMPDEST PUSH2 0x1C3 PUSH2 0x229 CALLDATASIZE PUSH1 0x4 PUSH2 0x10DC JUMP JUMPDEST PUSH2 0x662 JUMP JUMPDEST PUSH2 0x10D PUSH2 0x23C CALLDATASIZE PUSH1 0x4 PUSH2 0x1125 JUMP JUMPDEST PUSH2 0x69D JUMP JUMPDEST PUSH1 0x0 PUSH1 0x1 PUSH1 0x1 PUSH1 0xE0 SHL SUB NOT DUP3 AND PUSH4 0x80AC58CD PUSH1 0xE0 SHL EQ DUP1 PUSH2 0x272 JUMPI POP PUSH1 0x1 PUSH1 0x1 PUSH1 0xE0 SHL SUB NOT DUP3 AND PUSH4 0x5B5E139F PUSH1 0xE0 SHL EQ JUMPDEST DUP1 PUSH2 0x28D JUMPI POP PUSH4 0x1FFC9A7 PUSH1 0xE0 SHL PUSH1 0x1 PUSH1 0x1 PUSH1 0xE0 SHL SUB NOT DUP4 AND EQ JUMPDEST SWAP3 SWAP2 POP POP JUMP JUMPDEST PUSH1 0x60 PUSH1 0x0 DUP1 SLOAD PUSH2 0x2A2 SWAP1 PUSH2 0x1158 JUMP JUMPDEST DUP1 PUSH1 0x1F ADD PUSH1 0x20 DUP1 SWAP2 DIV MUL PUSH1 0x20 ADD PUSH1 0x40 MLOAD SWAP1 DUP2 ADD PUSH1 0x40 MSTORE DUP1 SWAP3 SWAP2 SWAP1 DUP2 DUP2 MSTORE PUSH1 0x20 ADD DUP3 DUP1 SLOAD PUSH2 0x2CE SWAP1 PUSH2 0x1158 JUMP JUMPDEST DUP1 ISZERO PUSH2 0x31B JUMPI DUP1 PUSH1 0x1F LT PUSH2 0x2F0 JUMPI PUSH2 0x100 DUP1 DUP4 SLOAD DIV MUL DUP4 MSTORE SWAP2 PUSH1 0x20 ADD SWAP2 PUSH2 0x31B JUMP JUMPDEST DUP3 ADD SWAP2 SWAP1 PUSH1 0x0 MSTORE PUSH1 0x20 PUSH1 0x0 KECCAK256 SWAP1 JUMPDEST DUP2 SLOAD DUP2 MSTORE SWAP1 PUSH1 0x1 ADD SWAP1 PUSH1 0x20 ADD DUP1 DUP4 GT PUSH2 0x2FE JUMPI DUP3 SWAP1 SUB PUSH1 0x1F AND DUP3 ADD SWAP2 JUMPDEST POP POP POP POP POP SWAP1 POP SWAP1 JUMP JUMPDEST PUSH1 0x0 PUSH2 0x330 DUP3 PUSH2 0x6CB JUMP JUMPDEST POP PUSH1 0x0 SWAP1 DUP2 MSTORE PUSH1 0x4 PUSH1 0x20 MSTORE PUSH1 0x40 SWAP1 KECCAK256 SLOAD PUSH1 0x1 PUSH1 0x1 PUSH1 0xA0 SHL SUB AND SWAP1 JUMP JUMPDEST PUSH1 0x0 PUSH2 0x357 DUP3 PUSH2 0x4B2 JUMP JUMPDEST SWAP1 POP DUP1 PUSH1 0x1 PUSH1 0x1 PUSH1 0xA0 SHL SUB AND DUP4 PUSH1 0x1 PUSH1 0x1 PUSH1 0xA0 SHL SUB AND SUB PUSH2 0x3C9 JUMPI PUSH1 0x40 MLOAD PUSH3 0x461BCD PUSH1 0xE5 SHL DUP2 MSTORE PUSH1 0x20 PUSH1 0x4 DUP3 ADD MSTORE PUSH1 0x21 PUSH1 0x24 DUP3 ADD MSTORE PUSH32 0x4552433732313A20617070726F76616C20746F2063757272656E74206F776E65 PUSH1 0x44 DUP3 ADD MSTORE PUSH1 0x39 PUSH1 0xF9 SHL PUSH1 0x64 DUP3 ADD MSTORE PUSH1 0x84 ADD JUMPDEST PUSH1 0x40 MLOAD DUP1 SWAP2 SUB SWAP1 REVERT JUMPDEST CALLER PUSH1 0x1 PUSH1 0x1 PUSH1 0xA0 SHL SUB DUP3 AND EQ DUP1 PUSH2 0x3E5 JUMPI POP PUSH2 0x3E5 DUP2 CALLER PUSH2 0x69D JUMP JUMPDEST PUSH2 0x457 JUMPI PUSH1 0x40 MLOAD PUSH3 0x461BCD PUSH1 0xE5 SHL DUP2 MSTORE PUSH1 0x20 PUSH1 0x4 DUP3 ADD MSTORE PUSH1 0x3E PUSH1 0x24 DUP3 ADD MSTORE PUSH32 0x4552433732313A20617070726F76652063616C6C6572206973206E6F7420746F PUSH1 0x44 DUP3 ADD MSTORE PUSH32 0x6B656E206F776E6572206E6F7220617070726F76656420666F7220616C6C0000 PUSH1 0x64 DUP3 ADD MSTORE PUSH1 0x84 ADD PUSH2 0x3C0 JUMP JUMPDEST PUSH2 0x461 DUP4 DUP4 PUSH2 0x72D JUMP JUMPDEST POP POP POP JUMP JUMPDEST PUSH2 0x470 CALLER DUP3 PUSH2 0x79B JUMP JUMPDEST PUSH2 0x48C JUMPI PUSH1 0x40 MLOAD PUSH3 0x461BCD PUSH1 0xE5 SHL DUP2 MSTORE PUSH1 0x4 ADD PUSH2 0x3C0 SWAP1 PUSH2 0x1192 JUMP JUMPDEST PUSH2 0x461 DUP4 DUP4 DUP4 PUSH2 0x7FA JUMP JUMPDEST PUSH2 0x461 DUP4 DUP4 DUP4 PUSH1 0x40 MLOAD DUP1 PUSH1 0x20 ADD PUSH1 0x40 MSTORE DUP1 PUSH1 0x0 DUP2 MSTORE POP PUSH2 0x5B6 JUMP JUMPDEST PUSH1 0x0 DUP2 DUP2 MSTORE PUSH1 0x2 PUSH1 0x20 MSTORE PUSH1 0x40 DUP2 KECCAK256 SLOAD PUSH1 0x1 PUSH1 0x1 PUSH1 0xA0 SHL SUB AND DUP1 PUSH2 0x28D JUMPI PUSH1 0x40 MLOAD PUSH3 0x461BCD PUSH1 0xE5 SHL DUP2 MSTORE PUSH1 0x20 PUSH1 0x4 DUP3 ADD MSTORE PUSH1 0x18 PUSH1 0x24 DUP3 ADD MSTORE PUSH24 0x115490CDCC8C4E881A5B9D985B1A59081D1BDAD95B881251 PUSH1 0x42 SHL PUSH1 0x44 DUP3 ADD MSTORE PUSH1 0x64 ADD PUSH2 0x3C0 JUMP JUMPDEST PUSH1 0x0 PUSH1 0x1 PUSH1 0x1 PUSH1 0xA0 SHL SUB DUP3 AND PUSH2 0x57C JUMPI PUSH1 0x40 MLOAD PUSH3 0x461BCD PUSH1 0xE5 SHL DUP2 MSTORE PUSH1 0x20 PUSH1 0x4 DUP3 ADD MSTORE PUSH1 0x29 PUSH1 0x24 DUP3 ADD MSTORE PUSH32 0x4552433732313A2061646472657373207A65726F206973206E6F742061207661 PUSH1 0x44 DUP3 ADD MSTORE PUSH9 0x3634B21037BBB732B9 PUSH1 0xB9 SHL PUSH1 0x64 DUP3 ADD MSTORE PUSH1 0x84 ADD PUSH2 0x3C0 JUMP JUMPDEST POP PUSH1 0x1 PUSH1 0x1 PUSH1 0xA0 SHL SUB AND PUSH1 0x0 SWAP1 DUP2 MSTORE PUSH1 0x3 PUSH1 0x20 MSTORE PUSH1 0x40 SWAP1 KECCAK256 SLOAD SWAP1 JUMP JUMPDEST PUSH1 0x60 PUSH1 0x1 DUP1 SLOAD PUSH2 0x2A2 SWAP1 PUSH2 0x1158 JUMP JUMPDEST PUSH2 0x5B2 CALLER DUP4 DUP4 PUSH2 0x996 JUMP JUMPDEST POP POP JUMP JUMPDEST PUSH2 0x5C0 CALLER DUP4 PUSH2 0x79B JUMP JUMPDEST PUSH2 0x5DC JUMPI PUSH1 0x40 MLOAD PUSH3 0x461BCD PUSH1 0xE5 SHL DUP2 MSTORE PUSH1 0x4 ADD PUSH2 0x3C0 SWAP1 PUSH2 0x1192 JUMP JUMPDEST PUSH2 0x5E8 DUP5 DUP5 DUP5 DUP5 PUSH2 0xA64 JUMP JUMPDEST POP POP POP POP JUMP JUMPDEST PUSH1 0x60 PUSH2 0x5F9 DUP3 PUSH2 0x6CB JUMP JUMPDEST PUSH1 0x0 PUSH2 0x610 PUSH1 0x40 DUP1 MLOAD PUSH1 0x20 DUP2 ADD SWAP1 SWAP2 MSTORE PUSH1 0x0 DUP2 MSTORE SWAP1 JUMP JUMPDEST SWAP1 POP PUSH1 0x0 DUP2 MLOAD GT PUSH2 0x630 JUMPI PUSH1 0x40 MLOAD DUP1 PUSH1 0x20 ADD PUSH1 0x40 MSTORE DUP1 PUSH1 0x0 DUP2 MSTORE POP PUSH2 0x65B JUMP JUMPDEST DUP1 PUSH2 0x63A DUP5 PUSH2 0xA97 JUMP JUMPDEST PUSH1 0x40 MLOAD PUSH1 0x20 ADD PUSH2 0x64B SWAP3 SWAP2 SWAP1 PUSH2 0x11E0 JUMP JUMPDEST PUSH1 0x40 MLOAD PUSH1 0x20 DUP2 DUP4 SUB SUB DUP2 MSTORE SWAP1 PUSH1 0x40 MSTORE JUMPDEST SWAP4 SWAP3 POP POP POP JUMP JUMPDEST PUSH1 0x6 SLOAD PUSH1 0x0 SWAP1 PUSH2 0x672 CALLER DUP3 PUSH2 0xB98 JUMP JUMPDEST PUSH2 0x67B DUP4 PUSH2 0xBB2 JUMP JUMPDEST POP PUSH2 0x685 DUP2 PUSH2 0x5EE JUMP JUMPDEST POP PUSH1 0x6 SLOAD PUSH2 0x694 SWAP1 PUSH1 0x1 PUSH2 0x1225 JUMP JUMPDEST PUSH1 0x6 SSTORE SWAP3 SWAP2 POP POP JUMP JUMPDEST PUSH1 0x1 PUSH1 0x1 PUSH1 0xA0 SHL SUB SWAP2 DUP3 AND PUSH1 0x0 SWAP1 DUP2 MSTORE PUSH1 0x5 PUSH1 0x20 SWAP1 DUP2 MSTORE PUSH1 0x40 DUP1 DUP4 KECCAK256 SWAP4 SWAP1 SWAP5 AND DUP3 MSTORE SWAP2 SWAP1 SWAP2 MSTORE KECCAK256 SLOAD PUSH1 0xFF AND SWAP1 JUMP JUMPDEST PUSH1 0x0 DUP2 DUP2 MSTORE PUSH1 0x2 PUSH1 0x20 MSTORE PUSH1 0x40 SWAP1 KECCAK256 SLOAD PUSH1 0x1 PUSH1 0x1 PUSH1 0xA0 SHL SUB AND PUSH2 0x72A JUMPI PUSH1 0x40 MLOAD PUSH3 0x461BCD PUSH1 0xE5 SHL DUP2 MSTORE PUSH1 0x20 PUSH1 0x4 DUP3 ADD MSTORE PUSH1 0x18 PUSH1 0x24 DUP3 ADD MSTORE PUSH24 0x115490CDCC8C4E881A5B9D985B1A59081D1BDAD95B881251 PUSH1 0x42 SHL PUSH1 0x44 DUP3 ADD MSTORE PUSH1 0x64 ADD PUSH2 0x3C0 JUMP JUMPDEST POP JUMP JUMPDEST PUSH1 0x0 DUP2 DUP2 MSTORE PUSH1 0x4 PUSH1 0x20 MSTORE PUSH1 0x40 SWAP1 KECCAK256 DUP1 SLOAD PUSH1 0x1 PUSH1 0x1 PUSH1 0xA0 SHL SUB NOT AND PUSH1 0x1 PUSH1 0x1 PUSH1 0xA0 SHL SUB DUP5 AND SWAP1 DUP2 OR SWAP1 SWAP2 SSTORE DUP2 SWAP1 PUSH2 0x762 DUP3 PUSH2 0x4B2 JUMP JUMPDEST PUSH1 0x1 PUSH1 0x1 PUSH1 0xA0 SHL SUB AND PUSH32 0x8C5BE1E5EBEC7D5BD14F71427D1E84F3DD0314C0F7B2291E5B200AC8C7C3B925 PUSH1 0x40 MLOAD PUSH1 0x40 MLOAD DUP1 SWAP2 SUB SWAP1 LOG4 POP POP JUMP JUMPDEST PUSH1 0x0 DUP1 PUSH2 0x7A7 DUP4 PUSH2 0x4B2 JUMP JUMPDEST SWAP1 POP DUP1 PUSH1 0x1 PUSH1 0x1 PUSH1 0xA0 SHL SUB AND DUP5 PUSH1 0x1 PUSH1 0x1 PUSH1 0xA0 SHL SUB AND EQ DUP1 PUSH2 0x7CE JUMPI POP PUSH2 0x7CE DUP2 DUP6 PUSH2 0x69D JUMP JUMPDEST DUP1 PUSH2 0x7F2 JUMPI POP DUP4 PUSH1 0x1 PUSH1 0x1 PUSH1 0xA0 SHL SUB AND PUSH2 0x7E7 DUP5 PUSH2 0x325 JUMP JUMPDEST PUSH1 0x1 PUSH1 0x1 PUSH1 0xA0 SHL SUB AND EQ JUMPDEST SWAP5 SWAP4 POP POP POP POP JUMP JUMPDEST DUP3 PUSH1 0x1 PUSH1 0x1 PUSH1 0xA0 SHL SUB AND PUSH2 0x80D DUP3 PUSH2 0x4B2 JUMP JUMPDEST PUSH1 0x1 PUSH1 0x1 PUSH1 0xA0 SHL SUB AND EQ PUSH2 0x871 JUMPI PUSH1 0x40 MLOAD PUSH3 0x461BCD PUSH1 0xE5 SHL DUP2 MSTORE PUSH1 0x20 PUSH1 0x4 DUP3 ADD MSTORE PUSH1 0x25 PUSH1 0x24 DUP3 ADD MSTORE PUSH32 0x4552433732313A207472616E736665722066726F6D20696E636F727265637420 PUSH1 0x44 DUP3 ADD MSTORE PUSH5 0x37BBB732B9 PUSH1 0xD9 SHL PUSH1 0x64 DUP3 ADD MSTORE PUSH1 0x84 ADD PUSH2 0x3C0 JUMP JUMPDEST PUSH1 0x1 PUSH1 0x1 PUSH1 0xA0 SHL SUB DUP3 AND PUSH2 0x8D3 JUMPI PUSH1 0x40 MLOAD PUSH3 0x461BCD PUSH1 0xE5 SHL DUP2 MSTORE PUSH1 0x20 PUSH1 0x4 DUP3 ADD MSTORE PUSH1 0x24 DUP1 DUP3 ADD MSTORE PUSH32 0x4552433732313A207472616E7366657220746F20746865207A65726F20616464 PUSH1 0x44 DUP3 ADD MSTORE PUSH4 0x72657373 PUSH1 0xE0 SHL PUSH1 0x64 DUP3 ADD MSTORE PUSH1 0x84 ADD PUSH2 0x3C0 JUMP JUMPDEST PUSH2 0x8DE PUSH1 0x0 DUP3 PUSH2 0x72D JUMP JUMPDEST PUSH1 0x1 PUSH1 0x1 PUSH1 0xA0 SHL SUB DUP4 AND PUSH1 0x0 SWAP1 DUP2 MSTORE PUSH1 0x3 PUSH1 0x20 MSTORE PUSH1 0x40 DUP2 KECCAK256 DUP1 SLOAD PUSH1 0x1 SWAP3 SWAP1 PUSH2 0x907 SWAP1 DUP5 SWAP1 PUSH2 0x1238 JUMP JUMPDEST SWAP1 SWAP2 SSTORE POP POP PUSH1 0x1 PUSH1 0x1 PUSH1 0xA0 SHL SUB DUP3 AND PUSH1 0x0 SWAP1 DUP2 MSTORE PUSH1 0x3 PUSH1 0x20 MSTORE PUSH1 0x40 DUP2 KECCAK256 DUP1 SLOAD PUSH1 0x1 SWAP3 SWAP1 PUSH2 0x935 SWAP1 DUP5 SWAP1 PUSH2 0x1225 JUMP JUMPDEST SWAP1 SWAP2 SSTORE POP POP PUSH1 0x0 DUP2 DUP2 MSTORE PUSH1 0x2 PUSH1 0x20 MSTORE PUSH1 0x40 DUP1 DUP3 KECCAK256 DUP1 SLOAD PUSH1 0x1 PUSH1 0x1 PUSH1 0xA0 SHL SUB NOT AND PUSH1 0x1 PUSH1 0x1 PUSH1 0xA0 SHL SUB DUP7 DUP2 AND SWAP2 DUP3 OR SWAP1 SWAP3 SSTORE SWAP2 MLOAD DUP5 SWAP4 SWAP2 DUP8 AND SWAP2 PUSH32 0xDDF252AD1BE2C89B69C2B068FC378DAA952BA7F163C4A11628F55A4DF523B3EF SWAP2 LOG4 POP POP POP JUMP JUMPDEST DUP2 PUSH1 0x1 PUSH1 0x1 PUSH1 0xA0 SHL SUB AND DUP4 PUSH1 0x1 PUSH1 0x1 PUSH1 0xA0 SHL SUB AND SUB PUSH2 0x9F7 JUMPI PUSH1 0x40 MLOAD PUSH3 0x461BCD PUSH1 0xE5 SHL DUP2 MSTORE PUSH1 0x20 PUSH1 0x4 DUP3 ADD MSTORE PUSH1 0x19 PUSH1 0x24 DUP3 ADD MSTORE PUSH32 0x4552433732313A20617070726F766520746F2063616C6C657200000000000000 PUSH1 0x44 DUP3 ADD MSTORE PUSH1 0x64 ADD PUSH2 0x3C0 JUMP JUMPDEST PUSH1 0x1 PUSH1 0x1 PUSH1 0xA0 SHL SUB DUP4 DUP2 AND PUSH1 0x0 DUP2 DUP2 MSTORE PUSH1 0x5 PUSH1 0x20 SWAP1 DUP2 MSTORE PUSH1 0x40 DUP1 DUP4 KECCAK256 SWAP5 DUP8 AND DUP1 DUP5 MSTORE SWAP5 DUP3 MSTORE SWAP2 DUP3 SWAP1 KECCAK256 DUP1 SLOAD PUSH1 0xFF NOT AND DUP7 ISZERO ISZERO SWAP1 DUP2 OR SWAP1 SWAP2 SSTORE SWAP2 MLOAD SWAP2 DUP3 MSTORE PUSH32 0x17307EAB39AB6107E8899845AD3D59BD9653F200F220920489CA2B5937696C31 SWAP2 ADD PUSH1 0x40 MLOAD DUP1 SWAP2 SUB SWAP1 LOG3 POP POP POP JUMP JUMPDEST PUSH2 0xA6F DUP5 DUP5 DUP5 PUSH2 0x7FA JUMP JUMPDEST PUSH2 0xA7B DUP5 DUP5 DUP5 DUP5 PUSH2 0xBD6 JUMP JUMPDEST PUSH2 0x5E8 JUMPI PUSH1 0x40 MLOAD PUSH3 0x461BCD PUSH1 0xE5 SHL DUP2 MSTORE PUSH1 0x4 ADD PUSH2 0x3C0 SWAP1 PUSH2 0x124B JUMP JUMPDEST PUSH1 0x60 DUP2 PUSH1 0x0 SUB PUSH2 0xABE JUMPI POP POP PUSH1 0x40 DUP1 MLOAD DUP1 DUP3 ADD SWAP1 SWAP2 MSTORE PUSH1 0x1 DUP2 MSTORE PUSH1 0x3 PUSH1 0xFC SHL PUSH1 0x20 DUP3 ADD MSTORE SWAP1 JUMP JUMPDEST DUP2 PUSH1 0x0 JUMPDEST DUP2 ISZERO PUSH2 0xAE8 JUMPI DUP1 PUSH2 0xAD2 DUP2 PUSH2 0x129D JUMP JUMPDEST SWAP2 POP PUSH2 0xAE1 SWAP1 POP PUSH1 0xA DUP4 PUSH2 0x12CC JUMP JUMPDEST SWAP2 POP PUSH2 0xAC2 JUMP JUMPDEST PUSH1 0x0 DUP2 PUSH8 0xFFFFFFFFFFFFFFFF DUP2 GT ISZERO PUSH2 0xB03 JUMPI PUSH2 0xB03 PUSH2 0xFD4 JUMP JUMPDEST PUSH1 0x40 MLOAD SWAP1 DUP1 DUP3 MSTORE DUP1 PUSH1 0x1F ADD PUSH1 0x1F NOT AND PUSH1 0x20 ADD DUP3 ADD PUSH1 0x40 MSTORE DUP1 ISZERO PUSH2 0xB2D JUMPI PUSH1 0x20 DUP3 ADD DUP2 DUP1 CALLDATASIZE DUP4 CALLDATACOPY ADD SWAP1 POP JUMPDEST POP SWAP1 POP JUMPDEST DUP5 ISZERO PUSH2 0x7F2 JUMPI PUSH2 0xB42 PUSH1 0x1 DUP4 PUSH2 0x1238 JUMP JUMPDEST SWAP2 POP PUSH2 0xB4F PUSH1 0xA DUP7 PUSH2 0x12E0 JUMP JUMPDEST PUSH2 0xB5A SWAP1 PUSH1 0x30 PUSH2 0x1225 JUMP JUMPDEST PUSH1 0xF8 SHL DUP2 DUP4 DUP2 MLOAD DUP2 LT PUSH2 0xB6F JUMPI PUSH2 0xB6F PUSH2 0x12F4 JUMP JUMPDEST PUSH1 0x20 ADD ADD SWAP1 PUSH1 0x1 PUSH1 0x1 PUSH1 0xF8 SHL SUB NOT AND SWAP1 DUP2 PUSH1 0x0 BYTE SWAP1 MSTORE8 POP PUSH2 0xB91 PUSH1 0xA DUP7 PUSH2 0x12CC JUMP JUMPDEST SWAP5 POP PUSH2 0xB31 JUMP JUMPDEST PUSH2 0x5B2 DUP3 DUP3 PUSH1 0x40 MLOAD DUP1 PUSH1 0x20 ADD PUSH1 0x40 MSTORE DUP1 PUSH1 0x0 DUP2 MSTORE POP PUSH2 0xCD7 JUMP JUMPDEST PUSH1 0x60 PUSH1 0x0 DUP3 MLOAD GT PUSH2 0xBD2 JUMPI PUSH1 0x40 MLOAD DUP1 PUSH1 0x20 ADD PUSH1 0x40 MSTORE DUP1 PUSH1 0x0 DUP2 MSTORE POP PUSH2 0x28D JUMP JUMPDEST POP SWAP1 JUMP JUMPDEST PUSH1 0x0 PUSH1 0x1 PUSH1 0x1 PUSH1 0xA0 SHL SUB DUP5 AND EXTCODESIZE ISZERO PUSH2 0xCCC JUMPI PUSH1 0x40 MLOAD PUSH4 0xA85BD01 PUSH1 0xE1 SHL DUP2 MSTORE PUSH1 0x1 PUSH1 0x1 PUSH1 0xA0 SHL SUB DUP6 AND SWAP1 PUSH4 0x150B7A02 SWAP1 PUSH2 0xC1A SWAP1 CALLER SWAP1 DUP10 SWAP1 DUP9 SWAP1 DUP9 SWAP1 PUSH1 0x4 ADD PUSH2 0x130A JUMP JUMPDEST PUSH1 0x20 PUSH1 0x40 MLOAD DUP1 DUP4 SUB DUP2 PUSH1 0x0 DUP8 GAS CALL SWAP3 POP POP POP DUP1 ISZERO PUSH2 0xC55 JUMPI POP PUSH1 0x40 DUP1 MLOAD PUSH1 0x1F RETURNDATASIZE SWAP1 DUP2 ADD PUSH1 0x1F NOT AND DUP3 ADD SWAP1 SWAP3 MSTORE PUSH2 0xC52 SWAP2 DUP2 ADD SWAP1 PUSH2 0x1347 JUMP JUMPDEST PUSH1 0x1 JUMPDEST PUSH2 0xCB2 JUMPI RETURNDATASIZE DUP1 DUP1 ISZERO PUSH2 0xC83 JUMPI PUSH1 0x40 MLOAD SWAP2 POP PUSH1 0x1F NOT PUSH1 0x3F RETURNDATASIZE ADD AND DUP3 ADD PUSH1 0x40 MSTORE RETURNDATASIZE DUP3 MSTORE RETURNDATASIZE PUSH1 0x0 PUSH1 0x20 DUP5 ADD RETURNDATACOPY PUSH2 0xC88 JUMP JUMPDEST PUSH1 0x60 SWAP2 POP JUMPDEST POP DUP1 MLOAD PUSH1 0x0 SUB PUSH2 0xCAA JUMPI PUSH1 0x40 MLOAD PUSH3 0x461BCD PUSH1 0xE5 SHL DUP2 MSTORE PUSH1 0x4 ADD PUSH2 0x3C0 SWAP1 PUSH2 0x124B JUMP JUMPDEST DUP1 MLOAD DUP2 PUSH1 0x20 ADD REVERT JUMPDEST PUSH1 0x1 PUSH1 0x1 PUSH1 0xE0 SHL SUB NOT AND PUSH4 0xA85BD01 PUSH1 0xE1 SHL EQ SWAP1 POP PUSH2 0x7F2 JUMP JUMPDEST POP PUSH1 0x1 SWAP5 SWAP4 POP POP POP POP JUMP JUMPDEST PUSH2 0xCE1 DUP4 DUP4 PUSH2 0xD0A JUMP JUMPDEST PUSH2 0xCEE PUSH1 0x0 DUP5 DUP5 DUP5 PUSH2 0xBD6 JUMP JUMPDEST PUSH2 0x461 JUMPI PUSH1 0x40 MLOAD PUSH3 0x461BCD PUSH1 0xE5 SHL DUP2 MSTORE PUSH1 0x4 ADD PUSH2 0x3C0 SWAP1 PUSH2 0x124B JUMP JUMPDEST PUSH1 0x1 PUSH1 0x1 PUSH1 0xA0 SHL SUB DUP3 AND PUSH2 0xD60 JUMPI PUSH1 0x40 MLOAD PUSH3 0x461BCD PUSH1 0xE5 SHL DUP2 MSTORE PUSH1 0x20 PUSH1 0x4 DUP3 ADD DUP2 SWAP1 MSTORE PUSH1 0x24 DUP3 ADD MSTORE PUSH32 0x4552433732313A206D696E7420746F20746865207A65726F2061646472657373 PUSH1 0x44 DUP3 ADD MSTORE PUSH1 0x64 ADD PUSH2 0x3C0 JUMP JUMPDEST PUSH1 0x0 DUP2 DUP2 MSTORE PUSH1 0x2 PUSH1 0x20 MSTORE PUSH1 0x40 SWAP1 KECCAK256 SLOAD PUSH1 0x1 PUSH1 0x1 PUSH1 0xA0 SHL SUB AND ISZERO PUSH2 0xDC5 JUMPI PUSH1 0x40 MLOAD PUSH3 0x461BCD PUSH1 0xE5 SHL DUP2 MSTORE PUSH1 0x20 PUSH1 0x4 DUP3 ADD MSTORE PUSH1 0x1C PUSH1 0x24 DUP3 ADD MSTORE PUSH32 0x4552433732313A20746F6B656E20616C7265616479206D696E74656400000000 PUSH1 0x44 DUP3 ADD MSTORE PUSH1 0x64 ADD PUSH2 0x3C0 JUMP JUMPDEST PUSH1 0x1 PUSH1 0x1 PUSH1 0xA0 SHL SUB DUP3 AND PUSH1 0x0 SWAP1 DUP2 MSTORE PUSH1 0x3 PUSH1 0x20 MSTORE PUSH1 0x40 DUP2 KECCAK256 DUP1 SLOAD PUSH1 0x1 SWAP3 SWAP1 PUSH2 0xDEE SWAP1 DUP5 SWAP1 PUSH2 0x1225 JUMP JUMPDEST SWAP1 SWAP2 SSTORE POP POP PUSH1 0x0 DUP2 DUP2 MSTORE PUSH1 0x2 PUSH1 0x20 MSTORE PUSH1 0x40 DUP1 DUP3 KECCAK256 DUP1 SLOAD PUSH1 0x1 PUSH1 0x1 PUSH1 0xA0 SHL SUB NOT AND PUSH1 0x1 PUSH1 0x1 PUSH1 0xA0 SHL SUB DUP7 AND SWAP1 DUP2 OR SWAP1 SWAP2 SSTORE SWAP1 MLOAD DUP4 SWAP3 SWAP1 PUSH32 0xDDF252AD1BE2C89B69C2B068FC378DAA952BA7F163C4A11628F55A4DF523B3EF SWAP1 DUP3 SWAP1 LOG4 POP POP JUMP JUMPDEST PUSH1 0x1 PUSH1 0x1 PUSH1 0xE0 SHL SUB NOT DUP2 AND DUP2 EQ PUSH2 0x72A JUMPI PUSH1 0x0 DUP1 REVERT JUMPDEST PUSH1 0x0 PUSH1 0x20 DUP3 DUP5 SUB SLT ISZERO PUSH2 0xE74 JUMPI PUSH1 0x0 DUP1 REVERT JUMPDEST DUP2 CALLDATALOAD PUSH2 0x65B DUP2 PUSH2 0xE4C JUMP JUMPDEST PUSH1 0x0 JUMPDEST DUP4 DUP2 LT ISZERO PUSH2 0xE9A JUMPI DUP2 DUP2 ADD MLOAD DUP4 DUP3 ADD MSTORE PUSH1 0x20 ADD PUSH2 0xE82 JUMP JUMPDEST POP POP PUSH1 0x0 SWAP2 ADD MSTORE JUMP JUMPDEST PUSH1 0x0 DUP2 MLOAD DUP1 DUP5 MSTORE PUSH2 0xEBB DUP2 PUSH1 0x20 DUP7 ADD PUSH1 0x20 DUP7 ADD PUSH2 0xE7F JUMP JUMPDEST PUSH1 0x1F ADD PUSH1 0x1F NOT AND SWAP3 SWAP1 SWAP3 ADD PUSH1 0x20 ADD SWAP3 SWAP2 POP POP JUMP JUMPDEST PUSH1 0x20 DUP2 MSTORE PUSH1 0x0 PUSH2 0x65B PUSH1 0x20 DUP4 ADD DUP5 PUSH2 0xEA3 JUMP JUMPDEST PUSH1 0x0 PUSH1 0x20 DUP3 DUP5 SUB SLT ISZERO PUSH2 0xEF4 JUMPI PUSH1 0x0 DUP1 REVERT JUMPDEST POP CALLDATALOAD SWAP2 SWAP1 POP JUMP JUMPDEST DUP1 CALLDATALOAD PUSH1 0x1 PUSH1 0x1 PUSH1 0xA0 SHL SUB DUP2 AND DUP2 EQ PUSH2 0xF12 JUMPI PUSH1 0x0 DUP1 REVERT JUMPDEST SWAP2 SWAP1 POP JUMP JUMPDEST PUSH1 0x0 DUP1 PUSH1 0x40 DUP4 DUP6 SUB SLT ISZERO PUSH2 0xF2A JUMPI PUSH1 0x0 DUP1 REVERT JUMPDEST PUSH2 0xF33 DUP4 PUSH2 0xEFB JUMP JUMPDEST SWAP5 PUSH1 0x20 SWAP4 SWAP1 SWAP4 ADD CALLDATALOAD SWAP4 POP POP POP JUMP JUMPDEST PUSH1 0x0 DUP1 PUSH1 0x0 PUSH1 0x60 DUP5 DUP7 SUB SLT ISZERO PUSH2 0xF56 JUMPI PUSH1 0x0 DUP1 REVERT JUMPDEST PUSH2 0xF5F DUP5 PUSH2 0xEFB JUMP JUMPDEST SWAP3 POP PUSH2 0xF6D PUSH1 0x20 DUP6 ADD PUSH2 0xEFB JUMP JUMPDEST SWAP2 POP PUSH1 0x40 DUP5 ADD CALLDATALOAD SWAP1 POP SWAP3 POP SWAP3 POP SWAP3 JUMP JUMPDEST PUSH1 0x0 PUSH1 0x20 DUP3 DUP5 SUB SLT ISZERO PUSH2 0xF8F JUMPI PUSH1 0x0 DUP1 REVERT JUMPDEST PUSH2 0x65B DUP3 PUSH2 0xEFB JUMP JUMPDEST PUSH1 0x0 DUP1 PUSH1 0x40 DUP4 DUP6 SUB SLT ISZERO PUSH2 0xFAB JUMPI PUSH1 0x0 DUP1 REVERT JUMPDEST PUSH2 0xFB4 DUP4 PUSH2 0xEFB JUMP JUMPDEST SWAP2 POP PUSH1 0x20 DUP4 ADD CALLDATALOAD DUP1 ISZERO ISZERO DUP2 EQ PUSH2 0xFC9 JUMPI PUSH1 0x0 DUP1 REVERT JUMPDEST DUP1 SWAP2 POP POP SWAP3 POP SWAP3 SWAP1 POP JUMP JUMPDEST PUSH4 0x4E487B71 PUSH1 0xE0 SHL PUSH1 0x0 MSTORE PUSH1 0x41 PUSH1 0x4 MSTORE PUSH1 0x24 PUSH1 0x0 REVERT JUMPDEST PUSH1 0x0 PUSH8 0xFFFFFFFFFFFFFFFF DUP1 DUP5 GT ISZERO PUSH2 0x1005 JUMPI PUSH2 0x1005 PUSH2 0xFD4 JUMP JUMPDEST PUSH1 0x40 MLOAD PUSH1 0x1F DUP6 ADD PUSH1 0x1F NOT SWAP1 DUP2 AND PUSH1 0x3F ADD AND DUP2 ADD SWAP1 DUP3 DUP3 GT DUP2 DUP4 LT OR ISZERO PUSH2 0x102D JUMPI PUSH2 0x102D PUSH2 0xFD4 JUMP JUMPDEST DUP2 PUSH1 0x40 MSTORE DUP1 SWAP4 POP DUP6 DUP2 MSTORE DUP7 DUP7 DUP7 ADD GT ISZERO PUSH2 0x1046 JUMPI PUSH1 0x0 DUP1 REVERT JUMPDEST DUP6 DUP6 PUSH1 0x20 DUP4 ADD CALLDATACOPY PUSH1 0x0 PUSH1 0x20 DUP8 DUP4 ADD ADD MSTORE POP POP POP SWAP4 SWAP3 POP POP POP JUMP JUMPDEST PUSH1 0x0 DUP1 PUSH1 0x0 DUP1 PUSH1 0x80 DUP6 DUP8 SUB SLT ISZERO PUSH2 0x1076 JUMPI PUSH1 0x0 DUP1 REVERT JUMPDEST PUSH2 0x107F DUP6 PUSH2 0xEFB JUMP JUMPDEST SWAP4 POP PUSH2 0x108D PUSH1 0x20 DUP7 ADD PUSH2 0xEFB JUMP JUMPDEST SWAP3 POP PUSH1 0x40 DUP6 ADD CALLDATALOAD SWAP2 POP PUSH1 0x60 DUP6 ADD CALLDATALOAD PUSH8 0xFFFFFFFFFFFFFFFF DUP2 GT ISZERO PUSH2 0x10B0 JUMPI PUSH1 0x0 DUP1 REVERT JUMPDEST DUP6 ADD PUSH1 0x1F DUP2 ADD DUP8 SGT PUSH2 0x10C1 JUMPI PUSH1 0x0 DUP1 REVERT JUMPDEST PUSH2 0x10D0 DUP8 DUP3 CALLDATALOAD PUSH1 0x20 DUP5 ADD PUSH2 0xFEA JUMP JUMPDEST SWAP2 POP POP SWAP3 SWAP6 SWAP2 SWAP5 POP SWAP3 POP JUMP JUMPDEST PUSH1 0x0 PUSH1 0x20 DUP3 DUP5 SUB SLT ISZERO PUSH2 0x10EE JUMPI PUSH1 0x0 DUP1 REVERT JUMPDEST DUP2 CALLDATALOAD PUSH8 0xFFFFFFFFFFFFFFFF DUP2 GT ISZERO PUSH2 0x1105 JUMPI PUSH1 0x0 DUP1 REVERT JUMPDEST DUP3 ADD PUSH1 0x1F DUP2 ADD DUP5 SGT PUSH2 0x1116 JUMPI PUSH1 0x0 DUP1 REVERT JUMPDEST PUSH2 0x7F2 DUP5 DUP3 CALLDATALOAD PUSH1 0x20 DUP5 ADD PUSH2 0xFEA JUMP JUMPDEST PUSH1 0x0 DUP1 PUSH1 0x40 DUP4 DUP6 SUB SLT ISZERO PUSH2 0x1138 JUMPI PUSH1 0x0 DUP1 REVERT JUMPDEST PUSH2 0x1141 DUP4 PUSH2 0xEFB JUMP JUMPDEST SWAP2 POP PUSH2 0x114F PUSH1 0x20 DUP5 ADD PUSH2 0xEFB JUMP JUMPDEST SWAP1 POP SWAP3 POP SWAP3 SWAP1 POP JUMP JUMPDEST PUSH1 0x1 DUP2 DUP2 SHR SWAP1 DUP3 AND DUP1 PUSH2 0x116C JUMPI PUSH1 0x7F DUP3 AND SWAP2 POP JUMPDEST PUSH1 0x20 DUP3 LT DUP2 SUB PUSH2 0x118C JUMPI PUSH4 0x4E487B71 PUSH1 0xE0 SHL PUSH1 0x0 MSTORE PUSH1 0x22 PUSH1 0x4 MSTORE PUSH1 0x24 PUSH1 0x0 REVERT JUMPDEST POP SWAP2 SWAP1 POP JUMP JUMPDEST PUSH1 0x20 DUP1 DUP3 MSTORE PUSH1 0x2E SWAP1 DUP3 ADD MSTORE PUSH32 0x4552433732313A2063616C6C6572206973206E6F7420746F6B656E206F776E65 PUSH1 0x40 DUP3 ADD MSTORE PUSH14 0x1C881B9BDC88185C1C1C9BDD9959 PUSH1 0x92 SHL PUSH1 0x60 DUP3 ADD MSTORE PUSH1 0x80 ADD SWAP1 JUMP JUMPDEST PUSH1 0x0 DUP4 MLOAD PUSH2 0x11F2 DUP2 DUP5 PUSH1 0x20 DUP9 ADD PUSH2 0xE7F JUMP JUMPDEST DUP4 MLOAD SWAP1 DUP4 ADD SWAP1 PUSH2 0x1206 DUP2 DUP4 PUSH1 0x20 DUP9 ADD PUSH2 0xE7F JUMP JUMPDEST ADD SWAP5 SWAP4 POP POP POP POP JUMP JUMPDEST PUSH4 0x4E487B71 PUSH1 0xE0 SHL PUSH1 0x0 MSTORE PUSH1 0x11 PUSH1 0x4 MSTORE PUSH1 0x24 PUSH1 0x0 REVERT JUMPDEST DUP1 DUP3 ADD DUP1 DUP3 GT ISZERO PUSH2 0x28D JUMPI PUSH2 0x28D PUSH2 0x120F JUMP JUMPDEST DUP2 DUP2 SUB DUP2 DUP2 GT ISZERO PUSH2 0x28D JUMPI PUSH2 0x28D PUSH2 0x120F JUMP JUMPDEST PUSH1 0x20 DUP1 DUP3 MSTORE PUSH1 0x32 SWAP1 DUP3 ADD MSTORE PUSH32 0x4552433732313A207472616E7366657220746F206E6F6E204552433732315265 PUSH1 0x40 DUP3 ADD MSTORE PUSH18 0x31B2B4BB32B91034B6B83632B6B2B73A32B9 PUSH1 0x71 SHL PUSH1 0x60 DUP3 ADD MSTORE PUSH1 0x80 ADD SWAP1 JUMP JUMPDEST PUSH1 0x0 PUSH1 0x1 DUP3 ADD PUSH2 0x12AF JUMPI PUSH2 0x12AF PUSH2 0x120F JUMP JUMPDEST POP PUSH1 0x1 ADD SWAP1 JUMP JUMPDEST PUSH4 0x4E487B71 PUSH1 0xE0 SHL PUSH1 0x0 MSTORE PUSH1 0x12 PUSH1 0x4 MSTORE PUSH1 0x24 PUSH1 0x0 REVERT JUMPDEST PUSH1 0x0 DUP3 PUSH2 0x12DB JUMPI PUSH2 0x12DB PUSH2 0x12B6 JUMP JUMPDEST POP DIV SWAP1 JUMP JUMPDEST PUSH1 0x0 DUP3 PUSH2 0x12EF JUMPI PUSH2 0x12EF PUSH2 0x12B6 JUMP JUMPDEST POP MOD SWAP1 JUMP JUMPDEST PUSH4 0x4E487B71 PUSH1 0xE0 SHL PUSH1 0x0 MSTORE PUSH1 0x32 PUSH1 0x4 MSTORE PUSH1 0x24 PUSH1 0x0 REVERT JUMPDEST PUSH1 0x1 PUSH1 0x1 PUSH1 0xA0 SHL SUB DUP6 DUP2 AND DUP3 MSTORE DUP5 AND PUSH1 0x20 DUP3 ADD MSTORE PUSH1 0x40 DUP2 ADD DUP4 SWAP1 MSTORE PUSH1 0x80 PUSH1 0x60 DUP3 ADD DUP2 SWAP1 MSTORE PUSH1 0x0 SWAP1 PUSH2 0x133D SWAP1 DUP4 ADD DUP5 PUSH2 0xEA3 JUMP JUMPDEST SWAP7 SWAP6 POP POP POP POP POP POP JUMP JUMPDEST PUSH1 0x0 PUSH1 0x20 DUP3 DUP5 SUB SLT ISZERO PUSH2 0x1359 JUMPI PUSH1 0x0 DUP1 REVERT JUMPDEST DUP2 MLOAD PUSH2 0x65B DUP2 PUSH2 0xE4C JUMP INVALID LOG2 PUSH5 0x6970667358 0x22 SLT KECCAK256 0xEB 0xF6 EQ 0x2C SAR PUSH24 0x43C068152EAB492F27C09652335637CE1B792EC9D3C698A5 0xCB 0x4C PUSH5 0x736F6C6343 STOP ADDMOD GT STOP CALLER ","sha1":"2d2117cbb4aa6f380f9db3b1c3f0f915b5e42c29","source":"//SPDX-License-Identifier: MIT\n\npragma solidity ^0.8.0;\n\nimport \"@openzeppelin/contracts/token/ERC721/ERC721.sol\";\n\ncontract SimpleNFT is ERC721 {\n    uint256 public tokenCounter;\n\n    constructor() public ERC721(\"Dogie\", \"DOG\") {\n        tokenCounter = 0;\n    }\n\n    function createNFT(string memory tokenUri) public returns (uint256) {\n        uint256 newTokenId = tokenCounter;\n        _safeMint(msg.sender, newTokenId);\n        _baseURI(tokenUri);\n        tokenURI(newTokenId);\n        tokenCounter = tokenCounter + 1;\n        return newTokenId;\n    }\n\n    function _baseURI(string memory tokenUri) internal returns (string memory) {\n        return bytes(tokenUri).length > 0 ? tokenUri : \"\";\n    }\n}\n","sourcePath":"contracts/SimpleNFT.sol","type":"contract","deployment":{"address":"0x546ff4792be161C85535303585Eff7592014A0a0","chainid":"5","blockHeight":7922543}}