{"abi":[{"inputs":[{"internalType":"address","name":"_dappTokenAddress","type":"address"}],"stateMutability":"nonpayable","type":"constructor","name":"constructor"},{"anonymous":false,"inputs":[{"indexed":true,"internalType":"address","name":"previousOwner","type":"address"},{"indexed":true,"internalType":"address","name":"newOwner","type":"address"}],"name":"OwnershipTransferred","type":"event"},{"inputs":[{"internalType":"address","name":"_nftAddress","type":"address"}],"name":"addAllowedNfts","outputs":[],"stateMutability":"nonpayable","type":"function"},{"inputs":[{"internalType":"uint256","name":"","type":"uint256"}],"name":"allowedNfts","outputs":[{"internalType":"address","name":"","type":"address"}],"stateMutability":"view","type":"function"},{"inputs":[{"internalType":"address","name":"","type":"address"}],"name":"borrowerIndex","outputs":[{"internalType":"uint256","name":"","type":"uint256"}],"stateMutability":"view","type":"function"},{"inputs":[{"internalType":"uint256","name":"","type":"uint256"}],"name":"borrowers","outputs":[{"internalType":"address","name":"","type":"address"}],"stateMutability":"view","type":"function"},{"inputs":[],"name":"dappToken","outputs":[{"internalType":"contract IERC20","name":"","type":"address"}],"stateMutability":"view","type":"function"},{"inputs":[],"name":"getBalance","outputs":[{"internalType":"uint256","name":"","type":"uint256"}],"stateMutability":"view","type":"function"},{"inputs":[{"internalType":"address","name":"_nftAddress","type":"address"},{"internalType":"uint256","name":"_nftId","type":"uint256"}],"name":"getNftLockData","outputs":[{"internalType":"address","name":"","type":"address"},{"internalType":"uint256","name":"","type":"uint256"},{"internalType":"uint256","name":"","type":"uint256"}],"stateMutability":"view","type":"function"},{"inputs":[{"internalType":"address","name":"_nftAddress","type":"address"},{"internalType":"uint256","name":"_nftId","type":"uint256"}],"name":"getNftValue","outputs":[{"internalType":"uint256","name":"","type":"uint256"},{"internalType":"uint256","name":"","type":"uint256"}],"stateMutability":"view","type":"function"},{"inputs":[{"internalType":"address","name":"_user","type":"address"},{"internalType":"address","name":"_nftAddress","type":"address"},{"internalType":"uint256","name":"_nftId","type":"uint256"}],"name":"getUserSingleNftValue","outputs":[{"internalType":"uint256","name":"","type":"uint256"}],"stateMutability":"view","type":"function"},{"inputs":[{"internalType":"address","name":"_user","type":"address"}],"name":"getUserTotalValue","outputs":[{"internalType":"uint256","name":"","type":"uint256"}],"stateMutability":"view","type":"function"},{"inputs":[],"name":"inspector","outputs":[{"internalType":"address","name":"","type":"address"}],"stateMutability":"view","type":"function"},{"inputs":[],"name":"interestDecimals","outputs":[{"internalType":"uint256","name":"","type":"uint256"}],"stateMutability":"view","type":"function"},{"inputs":[{"internalType":"address","name":"_user","type":"address"}],"name":"isBorrowers","outputs":[{"internalType":"bool","name":"","type":"bool"}],"stateMutability":"view","type":"function"},{"inputs":[],"name":"issueTokens","outputs":[],"stateMutability":"nonpayable","type":"function"},{"inputs":[],"name":"lender","outputs":[{"internalType":"address","name":"","type":"address"}],"stateMutability":"view","type":"function"},{"inputs":[{"internalType":"address","name":"_loanTokenAddress","type":"address"},{"internalType":"address","name":"_escrowAddress","type":"address"},{"internalType":"uint256","name":"_repayAmount","type":"uint256"}],"name":"loanRepay","outputs":[],"stateMutability":"nonpayable","type":"function"},{"inputs":[{"internalType":"address","name":"_loanTokenAddress","type":"address"},{"internalType":"address","name":"_nftHolderAddress","type":"address"},{"internalType":"uint256","name":"_loanAmount","type":"uint256"}],"name":"loanTransfer","outputs":[],"stateMutability":"nonpayable","type":"function"},{"inputs":[{"internalType":"address","name":"_nftAddress","type":"address"}],"name":"nftIsAllowed","outputs":[{"internalType":"bool","name":"","type":"bool"}],"stateMutability":"view","type":"function"},{"inputs":[{"internalType":"address","name":"","type":"address"},{"internalType":"uint256","name":"","type":"uint256"}],"name":"nftLoanExpireTime","outputs":[{"internalType":"uint256","name":"","type":"uint256"}],"stateMutability":"view","type":"function"},{"inputs":[{"internalType":"address","name":"","type":"address"},{"internalType":"uint256","name":"","type":"uint256"}],"name":"nftLoanHolderAddress","outputs":[{"internalType":"address","name":"","type":"address"}],"stateMutability":"view","type":"function"},{"inputs":[{"internalType":"address","name":"","type":"address"},{"internalType":"uint256","name":"","type":"uint256"}],"name":"nftLoanRepayAmount","outputs":[{"internalType":"uint256","name":"","type":"uint256"}],"stateMutability":"view","type":"function"},{"inputs":[{"internalType":"address","name":"_nftAddress","type":"address"},{"internalType":"uint256","name":"_nftId","type":"uint256"},{"internalType":"address","name":"_holderAddress","type":"address"},{"internalType":"uint256","name":"_expireTime","type":"uint256"},{"internalType":"uint256","name":"_repayAmount","type":"uint256"}],"name":"nftLock","outputs":[],"stateMutability":"nonpayable","type":"function"},{"inputs":[{"internalType":"address","name":"","type":"address"}],"name":"nftPriceFeedMapping","outputs":[{"internalType":"address","name":"","type":"address"}],"stateMutability":"view","type":"function"},{"inputs":[{"internalType":"address","name":"_nftAddress","type":"address"},{"internalType":"uint256","name":"_nftId","type":"uint256"}],"name":"nftStaking","outputs":[],"stateMutability":"nonpayable","type":"function"},{"inputs":[{"internalType":"address","name":"_nftAddress","type":"address"},{"internalType":"uint256","name":"_nftId","type":"uint256"}],"name":"nftUnStaking","outputs":[],"stateMutability":"nonpayable","type":"function"},{"inputs":[{"internalType":"address","name":"","type":"address"}],"name":"numOfNftStaked","outputs":[{"internalType":"uint256","name":"","type":"uint256"}],"stateMutability":"view","type":"function"},{"inputs":[],"name":"owner","outputs":[{"internalType":"address","name":"","type":"address"}],"stateMutability":"view","type":"function"},{"inputs":[],"name":"renounceOwnership","outputs":[],"stateMutability":"nonpayable","type":"function"},{"inputs":[{"internalType":"address","name":"_loanTokenAddress","type":"address"},{"internalType":"address","name":"_nftAddress","type":"address"},{"internalType":"uint256","name":"_nftId","type":"uint256"},{"internalType":"uint256","name":"_loanAmount","type":"uint256"},{"internalType":"uint256","name":"_loanDays","type":"uint256"},{"internalType":"uint256","name":"_loanInterest","type":"uint256"}],"name":"requestLoan","outputs":[],"stateMutability":"nonpayable","type":"function"},{"inputs":[{"internalType":"address","name":"_nftAddress","type":"address"},{"internalType":"address","name":"_priceFeed","type":"address"}],"name":"setPriceFeedContract","outputs":[],"stateMutability":"nonpayable","type":"function"},{"inputs":[{"internalType":"address","name":"","type":"address"},{"internalType":"uint256","name":"","type":"uint256"}],"name":"stakedNftAddress","outputs":[{"internalType":"address","name":"","type":"address"}],"stateMutability":"view","type":"function"},{"inputs":[{"internalType":"address","name":"","type":"address"},{"internalType":"uint256","name":"","type":"uint256"}],"name":"stakedNftId","outputs":[{"internalType":"uint256","name":"","type":"uint256"}],"stateMutability":"view","type":"function"},{"inputs":[{"internalType":"address","name":"","type":"address"},{"internalType":"address","name":"","type":"address"},{"internalType":"uint256","name":"","type":"uint256"}],"name":"stakedNftIndex","outputs":[{"internalType":"uint256","name":"","type":"uint256"}],"stateMutability":"view","type":"function"},{"inputs":[{"internalType":"address","name":"newOwner","type":"address"}],"name":"transferOwnership","outputs":[],"stateMutability":"nonpayable","type":"function"}],"bytecode":"6080604052600460065534801561001557600080fd5b5060405161170d38038061170d833981016040819052610034916100b2565b61003d33610062565b600580546001600160a01b0319166001600160a01b03929092169190911790556100e2565b600080546001600160a01b038381166001600160a01b0319831681178455604051919092169283917f8be0079c531659141344cd1fd0a4f28419497f9722a3daafe3b4186f6b6457e09190a35050565b6000602082840312156100c457600080fd5b81516001600160a01b03811681146100db57600080fd5b9392505050565b61161c806100f16000396000f3fe608060405234801561001057600080fd5b50600436106102065760003560e01c8063877dd39d1161011a578063b026e6bd116100ad578063bfeecc511161007c578063bfeecc5114610571578063e45e09a214610584578063ed2cee9e146105ac578063f2fde38b146105bf578063f3eaf005146105d257600080fd5b8063b026e6bd14610518578063b3d4706514610538578063bbb620281461054b578063bcead63e1461055e57600080fd5b80639f42ce02116100e95780639f42ce0214610493578063ae422b53146104c7578063aeb4e4a4146104da578063af3f5e221461050557600080fd5b8063877dd39d146104495780638da5cb5b1461045c5780638dc3306f1461046d5780638ddefa361461048057600080fd5b8063567d1ebf1161019d5780636e9e97901161016c5780636e9e97901461039e578063715018a6146103c95780637924d93f146103d157806379d2fde4146103e45780637ef4c7ad1461041557600080fd5b8063567d1ebf146103675780635eb186f81461037057806360ab5852146103835780636c59eb3b1461038b57600080fd5b80632d1ab89c116101d95780632d1ab89c146102e95780633e7ba6a4146103145780634d23d8af14610329578063512a53bc1461035457600080fd5b80630e32a0e31461020b57806312065fe0146102335780631316263a146102435780632cdb786a14610263575b600080fd5b61021e6102193660046111cf565b6105fb565b60405190151581526020015b60405180910390f35b475b60405190815260200161022a565b6102356102513660046111cf565b600a6020526000908152604090205481565b6102c46102713660046111ea565b6001600160a01b039182166000818152600f60209081526040808320858452825280832054848452600e8352818420868552835281842054948452600d8352818420958452949091529020549190921692565b604080516001600160a01b03909416845260208401929092529082015260600161022a565b6102356102f73660046111ea565b600d60209081526000928352604080842090915290825290205481565b610327610322366004611214565b610664565b005b61033c610337366004611250565b6106dd565b6040516001600160a01b03909116815260200161022a565b610327610362366004611214565b610707565b61023560065481565b60055461033c906001600160a01b031681565b61032761070f565b6103276103993660046111cf565b6107ea565b6102356103ac3660046111ea565b600e60209081526000928352604080842090915290825290205481565b610327610843565b61033c6103df366004611250565b610857565b6102356103f2366004611214565b600960209081526000938452604080852082529284528284209052825290205481565b61033c6104233660046111ea565b600f6020908152600092835260408084209091529082529020546001600160a01b031681565b610327610457366004611269565b610867565b6000546001600160a01b031661033c565b61023561047b366004611214565b61089d565b61021e61048e3660046111cf565b6108f5565b61033c6104a13660046111ea565b60076020908152600092835260408084209091529082529020546001600160a01b031681565b6103276104d536600461129c565b610955565b6102356104e83660046111ea565b600860209081526000928352604080842090915290825290205481565b6102356105133660046111cf565b6109bc565b6102356105263660046111cf565b600c6020526000908152604090205481565b6103276105463660046112ea565b610a71565b6103276105593660046111ea565b610b95565b60025461033c906001600160a01b031681565b61032761057f3660046111ea565b610df6565b6105976105923660046111ea565b610f93565b6040805192835260208301919091520161022a565b60035461033c906001600160a01b031681565b6103276105cd3660046111cf565b611093565b61033c6105e03660046111cf565b6004602052600090815260409020546001600160a01b031681565b6000805b60015481101561065b57826001600160a01b0316600b82815481106106265761062661133f565b6000918252602090912001546001600160a01b0316036106495750600192915050565b806106538161136b565b9150506105ff565b50600092915050565b60405163a9059cbb60e01b81526001600160a01b0383811660048301526024820183905284169063a9059cbb906044016020604051808303816000875af11580156106b3573d6000803e3d6000fd5b505050506040513d601f19601f820116820180604052508101906106d79190611384565b50505050565b600181815481106106ed57600080fd5b6000918252602090912001546001600160a01b0316905081565b610664611109565b610717611109565b60005b600b548110156107e7576000600b82815481106107395761073961133f565b60009182526020822001546001600160a01b03169150610758826109bc565b60055460405163a9059cbb60e01b81526001600160a01b0385811660048301526024820184905292935091169063a9059cbb906044016020604051808303816000875af11580156107ad573d6000803e3d6000fd5b505050506040513d601f19601f820116820180604052508101906107d19190611384565b50505080806107df9061136b565b91505061071a565b50565b6107f2611109565b6001805480820182556000919091527fb10e2d527612073b26eecdfd717e6a320cf44b4afac2b0732d9fcbe2b7fa0cf60180546001600160a01b0319166001600160a01b0392909216919091179055565b61084b611109565b6108556000611163565b565b600b81815481106106ed57600080fd5b61086f611109565b6001600160a01b03918216600090815260046020526040902080546001600160a01b03191691909216179055565b6001600160a01b0383166000908152600a60205260408120546108c2575060006108ee565b6000806108cf8585610f93565b90925090506108df81600a61148c565b6108e99083611498565b925050505b9392505050565b6000805b60015481101561065b57826001600160a01b0316600182815481106109205761092061133f565b6000918252602090912001546001600160a01b0316036109435750600192915050565b8061094d8161136b565b9150506108f9565b6001600160a01b039485166000818152600f60209081526040808320888452825280832080546001600160a01b0319169790991696909617909755818152600e87528481208682528752848120939093558252600d85528282209382529290935290912055565b6001600160a01b0381166000908152600a602052604081205481906109e45750600092915050565b60005b6001600160a01b0384166000908152600a6020526040902054811015610a6a576001600160a01b03808516600081815260076020908152604080832086845282528083205493835260088252808320868452909152902054610a4c928792169061089d565b610a5690836114ba565b915080610a628161136b565b9150506109e7565b5092915050565b610a7a856108f5565b610a9f5760405162461bcd60e51b8152600401610a96906114cd565b60405180910390fd5b610aa98585610df6565b60405163a9059cbb60e01b8152336004820152602481018490526001600160a01b0387169063a9059cbb906044016020604051808303816000875af1158015610af6573d6000803e3d6000fd5b505050506040513d601f19601f82011682018060405250810190610b1a9190611384565b50426000610b29846018611519565b610b3490603c611519565b610b3f90603c611519565b610b4990836114ba565b90506000600654600a610b5c919061148c565b610b669085611498565b610b719060016114ba565b610b7b9087611519565b9050610b8a8888338585610955565b505050505050505050565b610b9d611109565b610ba6826108f5565b610bc25760405162461bcd60e51b8152600401610a96906114cd565b6040516323b872dd60e01b8152306004820152336024820152604481018290526001600160a01b038316906323b872dd90606401600060405180830381600087803b158015610c1057600080fd5b505af1158015610c24573d6000803e3d6000fd5b50503360008181526009602090815260408083206001600160a01b03898116855281845282852089865284528285205486865260078552838620600a8087528588208054808a52838952878a20548b8b5260088a52888b20918b52818a52888b2054868c52948a52888b2080546001600160a01b0319169190971690811790965588528689208390558489529487528588208289528752948720829055969095529190925290549194509250610cdc90600190611530565b336000908152600a6020526040812082905503610def57336000908152600c6020526040902054600b8054610d1390600190611530565b81548110610d2357610d2361133f565b600091825260209091200154600b80546001600160a01b039092169183908110610d4f57610d4f61133f565b9060005260206000200160006101000a8154816001600160a01b0302191690836001600160a01b0316021790555080600c6000600b8481548110610d9557610d9561133f565b60009182526020808320909101546001600160a01b03168352820192909252604001902055600b805480610dcb57610dcb611543565b600082815260209020810160001990810180546001600160a01b0319169055019055505b5050505050565b610dff826108f5565b610e1b5760405162461bcd60e51b8152600401610a96906114cd565b6040516323b872dd60e01b8152336004820152306024820152604481018290526001600160a01b038316906323b872dd90606401600060405180830381600087803b158015610e6957600080fd5b505af1158015610e7d573d6000803e3d6000fd5b5050336000818152600760209081526040808320600a8084528285208054865291845282852080546001600160a01b0319166001600160a01b038c16908117909155868652600885528386208354875285528386208a905586865291546009855283862092865291845282852089865284529184208190559383529052039150610f64905057600b80546001818101835560008390527f0175b7a638427703f0dbe7bb9bbf987a2551717b34e79f33b5b1008d1fa01db990910180546001600160a01b031916331790559054610f539190611530565b336000908152600c60205260409020555b336000908152600a6020526040902054610f7f9060016114ba565b336000908152600a60205260409020555050565b6001600160a01b038083166000908152600460208190526040808320548151633fabe5a360e21b815291519394859491169283928592849263feaf968c928082019260a09290918290030181865afa158015610ff3573d6000803e3d6000fd5b505050506040513d601f19601f820116820180604052508101906110179190611573565b5050509150506000826001600160a01b031663313ce5676040518163ffffffff1660e01b8152600401602060405180830381865afa15801561105d573d6000803e3d6000fd5b505050506040513d601f19601f8201168201806040525081019061108191906115c3565b9195505060ff16925050509250929050565b61109b611109565b6001600160a01b0381166111005760405162461bcd60e51b815260206004820152602660248201527f4f776e61626c653a206e6577206f776e657220697320746865207a65726f206160448201526564647265737360d01b6064820152608401610a96565b6107e781611163565b6000546001600160a01b031633146108555760405162461bcd60e51b815260206004820181905260248201527f4f776e61626c653a2063616c6c6572206973206e6f7420746865206f776e65726044820152606401610a96565b600080546001600160a01b038381166001600160a01b0319831681178455604051919092169283917f8be0079c531659141344cd1fd0a4f28419497f9722a3daafe3b4186f6b6457e09190a35050565b80356001600160a01b03811681146111ca57600080fd5b919050565b6000602082840312156111e157600080fd5b6108ee826111b3565b600080604083850312156111fd57600080fd5b611206836111b3565b946020939093013593505050565b60008060006060848603121561122957600080fd5b611232846111b3565b9250611240602085016111b3565b9150604084013590509250925092565b60006020828403121561126257600080fd5b5035919050565b6000806040838503121561127c57600080fd5b611285836111b3565b9150611293602084016111b3565b90509250929050565b600080600080600060a086880312156112b457600080fd5b6112bd866111b3565b9450602086013593506112d2604087016111b3565b94979396509394606081013594506080013592915050565b60008060008060008060c0878903121561130357600080fd5b61130c876111b3565b955061131a602088016111b3565b95989597505050506040840135936060810135936080820135935060a0909101359150565b634e487b7160e01b600052603260045260246000fd5b634e487b7160e01b600052601160045260246000fd5b60006001820161137d5761137d611355565b5060010190565b60006020828403121561139657600080fd5b815180151581146108ee57600080fd5b600181815b808511156113e15781600019048211156113c7576113c7611355565b808516156113d457918102915b93841c93908002906113ab565b509250929050565b6000826113f857506001611486565b8161140557506000611486565b816001811461141b576002811461142557611441565b6001915050611486565b60ff84111561143657611436611355565b50506001821b611486565b5060208310610133831016604e8410600b8410161715611464575081810a611486565b61146e83836113a6565b806000190482111561148257611482611355565b0290505b92915050565b60006108ee83836113e9565b6000826114b557634e487b7160e01b600052601260045260246000fd5b500490565b8082018082111561148657611486611355565b6020808252602c908201527f63757272656e74206e6674206973206e6f7420616c6c6f77656420696e206f7560408201526b722077686974656c6973742160a01b606082015260800190565b808202811582820484141761148657611486611355565b8181038181111561148657611486611355565b634e487b7160e01b600052603160045260246000fd5b805169ffffffffffffffffffff811681146111ca57600080fd5b600080600080600060a0868803121561158b57600080fd5b61159486611559565b94506020860151935060408601519250606086015191506115b760808701611559565b90509295509295909350565b6000602082840312156115d557600080fd5b815160ff811681146108ee57600080fdfea26469706673582212207e64f6a44410555c9f56ec0488cb9535ee70d16189112088da2493ae292d536664736f6c63430008110033","bytecodeSha1":"881ce26d840ed997bdb6c53db927406d6da23b01","compiler":{"evm_version":"istanbul","optimizer":{"enabled":true,"runs":200},"version":"0.8.17+commit.8df45f5f"},"contractName":"Escrow","language":"Solidity","natspec":{"kind":"dev","methods":{"owner()":{"details":"Returns the address of the current owner."},"renounceOwnership()":{"details":"Leaves the contract without owner. It will not be possible to call `onlyOwner` functions anymore. Can only be called by the current owner. NOTE: Renouncing ownership will leave the contract without an owner, thereby removing any functionality that is only available to the owner."},"transferOwnership(address)":{"details":"Transfers ownership of the contract to a new account (`newOwner`). Can only be called by the current owner."}},"version":1},"opcodes":"PUSH1 0x80 PUSH1 0x40 MSTORE CALLVALUE DUP1 ISZERO PUSH2 0x10 JUMPI PUSH1 0x0 DUP1 REVERT JUMPDEST POP PUSH1 0x4 CALLDATASIZE LT PUSH2 0x206 JUMPI PUSH1 0x0 CALLDATALOAD PUSH1 0xE0 SHR DUP1 PUSH4 0x877DD39D GT PUSH2 0x11A JUMPI DUP1 PUSH4 0xB026E6BD GT PUSH2 0xAD JUMPI DUP1 PUSH4 0xBFEECC51 GT PUSH2 0x7C JUMPI DUP1 PUSH4 0xBFEECC51 EQ PUSH2 0x571 JUMPI DUP1 PUSH4 0xE45E09A2 EQ PUSH2 0x584 JUMPI DUP1 PUSH4 0xED2CEE9E EQ PUSH2 0x5AC JUMPI DUP1 PUSH4 0xF2FDE38B EQ PUSH2 0x5BF JUMPI DUP1 PUSH4 0xF3EAF005 EQ PUSH2 0x5D2 JUMPI PUSH1 0x0 DUP1 REVERT JUMPDEST DUP1 PUSH4 0xB026E6BD EQ PUSH2 0x518 JUMPI DUP1 PUSH4 0xB3D47065 EQ PUSH2 0x538 JUMPI DUP1 PUSH4 0xBBB62028 EQ PUSH2 0x54B JUMPI DUP1 PUSH4 0xBCEAD63E EQ PUSH2 0x55E JUMPI PUSH1 0x0 DUP1 REVERT JUMPDEST DUP1 PUSH4 0x9F42CE02 GT PUSH2 0xE9 JUMPI DUP1 PUSH4 0x9F42CE02 EQ PUSH2 0x493 JUMPI DUP1 PUSH4 0xAE422B53 EQ PUSH2 0x4C7 JUMPI DUP1 PUSH4 0xAEB4E4A4 EQ PUSH2 0x4DA JUMPI DUP1 PUSH4 0xAF3F5E22 EQ PUSH2 0x505 JUMPI PUSH1 0x0 DUP1 REVERT JUMPDEST DUP1 PUSH4 0x877DD39D EQ PUSH2 0x449 JUMPI DUP1 PUSH4 0x8DA5CB5B EQ PUSH2 0x45C JUMPI DUP1 PUSH4 0x8DC3306F EQ PUSH2 0x46D JUMPI DUP1 PUSH4 0x8DDEFA36 EQ PUSH2 0x480 JUMPI PUSH1 0x0 DUP1 REVERT JUMPDEST DUP1 PUSH4 0x567D1EBF GT PUSH2 0x19D JUMPI DUP1 PUSH4 0x6E9E9790 GT PUSH2 0x16C JUMPI DUP1 PUSH4 0x6E9E9790 EQ PUSH2 0x39E JUMPI DUP1 PUSH4 0x715018A6 EQ PUSH2 0x3C9 JUMPI DUP1 PUSH4 0x7924D93F EQ PUSH2 0x3D1 JUMPI DUP1 PUSH4 0x79D2FDE4 EQ PUSH2 0x3E4 JUMPI DUP1 PUSH4 0x7EF4C7AD EQ PUSH2 0x415 JUMPI PUSH1 0x0 DUP1 REVERT JUMPDEST DUP1 PUSH4 0x567D1EBF EQ PUSH2 0x367 JUMPI DUP1 PUSH4 0x5EB186F8 EQ PUSH2 0x370 JUMPI DUP1 PUSH4 0x60AB5852 EQ PUSH2 0x383 JUMPI DUP1 PUSH4 0x6C59EB3B EQ PUSH2 0x38B JUMPI PUSH1 0x0 DUP1 REVERT JUMPDEST DUP1 PUSH4 0x2D1AB89C GT PUSH2 0x1D9 JUMPI DUP1 PUSH4 0x2D1AB89C EQ PUSH2 0x2E9 JUMPI DUP1 PUSH4 0x3E7BA6A4 EQ PUSH2 0x314 JUMPI DUP1 PUSH4 0x4D23D8AF EQ PUSH2 0x329 JUMPI DUP1 PUSH4 0x512A53BC EQ PUSH2 0x354 JUMPI PUSH1 0x0 DUP1 REVERT JUMPDEST DUP1 PUSH4 0xE32A0E3 EQ PUSH2 0x20B JUMPI DUP1 PUSH4 0x12065FE0 EQ PUSH2 0x233 JUMPI DUP1 PUSH4 0x1316263A EQ PUSH2 0x243 JUMPI DUP1 PUSH4 0x2CDB786A EQ PUSH2 0x263 JUMPI JUMPDEST PUSH1 0x0 DUP1 REVERT JUMPDEST PUSH2 0x21E PUSH2 0x219 CALLDATASIZE PUSH1 0x4 PUSH2 0x11CF JUMP JUMPDEST PUSH2 0x5FB JUMP JUMPDEST PUSH1 0x40 MLOAD SWAP1 ISZERO ISZERO DUP2 MSTORE PUSH1 0x20 ADD JUMPDEST PUSH1 0x40 MLOAD DUP1 SWAP2 SUB SWAP1 RETURN JUMPDEST SELFBALANCE JUMPDEST PUSH1 0x40 MLOAD SWAP1 DUP2 MSTORE PUSH1 0x20 ADD PUSH2 0x22A JUMP JUMPDEST PUSH2 0x235 PUSH2 0x251 CALLDATASIZE PUSH1 0x4 PUSH2 0x11CF JUMP JUMPDEST PUSH1 0xA PUSH1 0x20 MSTORE PUSH1 0x0 SWAP1 DUP2 MSTORE PUSH1 0x40 SWAP1 KECCAK256 SLOAD DUP2 JUMP JUMPDEST PUSH2 0x2C4 PUSH2 0x271 CALLDATASIZE PUSH1 0x4 PUSH2 0x11EA JUMP JUMPDEST PUSH1 0x1 PUSH1 0x1 PUSH1 0xA0 SHL SUB SWAP2 DUP3 AND PUSH1 0x0 DUP2 DUP2 MSTORE PUSH1 0xF PUSH1 0x20 SWAP1 DUP2 MSTORE PUSH1 0x40 DUP1 DUP4 KECCAK256 DUP6 DUP5 MSTORE DUP3 MSTORE DUP1 DUP4 KECCAK256 SLOAD DUP5 DUP5 MSTORE PUSH1 0xE DUP4 MSTORE DUP2 DUP5 KECCAK256 DUP7 DUP6 MSTORE DUP4 MSTORE DUP2 DUP5 KECCAK256 SLOAD SWAP5 DUP5 MSTORE PUSH1 0xD DUP4 MSTORE DUP2 DUP5 KECCAK256 SWAP6 DUP5 MSTORE SWAP5 SWAP1 SWAP2 MSTORE SWAP1 KECCAK256 SLOAD SWAP2 SWAP1 SWAP3 AND SWAP3 JUMP JUMPDEST PUSH1 0x40 DUP1 MLOAD PUSH1 0x1 PUSH1 0x1 PUSH1 0xA0 SHL SUB SWAP1 SWAP5 AND DUP5 MSTORE PUSH1 0x20 DUP5 ADD SWAP3 SWAP1 SWAP3 MSTORE SWAP1 DUP3 ADD MSTORE PUSH1 0x60 ADD PUSH2 0x22A JUMP JUMPDEST PUSH2 0x235 PUSH2 0x2F7 CALLDATASIZE PUSH1 0x4 PUSH2 0x11EA JUMP JUMPDEST PUSH1 0xD PUSH1 0x20 SWAP1 DUP2 MSTORE PUSH1 0x0 SWAP3 DUP4 MSTORE PUSH1 0x40 DUP1 DUP5 KECCAK256 SWAP1 SWAP2 MSTORE SWAP1 DUP3 MSTORE SWAP1 KECCAK256 SLOAD DUP2 JUMP JUMPDEST PUSH2 0x327 PUSH2 0x322 CALLDATASIZE PUSH1 0x4 PUSH2 0x1214 JUMP JUMPDEST PUSH2 0x664 JUMP JUMPDEST STOP JUMPDEST PUSH2 0x33C PUSH2 0x337 CALLDATASIZE PUSH1 0x4 PUSH2 0x1250 JUMP JUMPDEST PUSH2 0x6DD JUMP JUMPDEST PUSH1 0x40 MLOAD PUSH1 0x1 PUSH1 0x1 PUSH1 0xA0 SHL SUB SWAP1 SWAP2 AND DUP2 MSTORE PUSH1 0x20 ADD PUSH2 0x22A JUMP JUMPDEST PUSH2 0x327 PUSH2 0x362 CALLDATASIZE PUSH1 0x4 PUSH2 0x1214 JUMP JUMPDEST PUSH2 0x707 JUMP JUMPDEST PUSH2 0x235 PUSH1 0x6 SLOAD DUP2 JUMP JUMPDEST PUSH1 0x5 SLOAD PUSH2 0x33C SWAP1 PUSH1 0x1 PUSH1 0x1 PUSH1 0xA0 SHL SUB AND DUP2 JUMP JUMPDEST PUSH2 0x327 PUSH2 0x70F JUMP JUMPDEST PUSH2 0x327 PUSH2 0x399 CALLDATASIZE PUSH1 0x4 PUSH2 0x11CF JUMP JUMPDEST PUSH2 0x7EA JUMP JUMPDEST PUSH2 0x235 PUSH2 0x3AC CALLDATASIZE PUSH1 0x4 PUSH2 0x11EA JUMP JUMPDEST PUSH1 0xE PUSH1 0x20 SWAP1 DUP2 MSTORE PUSH1 0x0 SWAP3 DUP4 MSTORE PUSH1 0x40 DUP1 DUP5 KECCAK256 SWAP1 SWAP2 MSTORE SWAP1 DUP3 MSTORE SWAP1 KECCAK256 SLOAD DUP2 JUMP JUMPDEST PUSH2 0x327 PUSH2 0x843 JUMP JUMPDEST PUSH2 0x33C PUSH2 0x3DF CALLDATASIZE PUSH1 0x4 PUSH2 0x1250 JUMP JUMPDEST PUSH2 0x857 JUMP JUMPDEST PUSH2 0x235 PUSH2 0x3F2 CALLDATASIZE PUSH1 0x4 PUSH2 0x1214 JUMP JUMPDEST PUSH1 0x9 PUSH1 0x20 SWAP1 DUP2 MSTORE PUSH1 0x0 SWAP4 DUP5 MSTORE PUSH1 0x40 DUP1 DUP6 KECCAK256 DUP3 MSTORE SWAP3 DUP5 MSTORE DUP3 DUP5 KECCAK256 SWAP1 MSTORE DUP3 MSTORE SWAP1 KECCAK256 SLOAD DUP2 JUMP JUMPDEST PUSH2 0x33C PUSH2 0x423 CALLDATASIZE PUSH1 0x4 PUSH2 0x11EA JUMP JUMPDEST PUSH1 0xF PUSH1 0x20 SWAP1 DUP2 MSTORE PUSH1 0x0 SWAP3 DUP4 MSTORE PUSH1 0x40 DUP1 DUP5 KECCAK256 SWAP1 SWAP2 MSTORE SWAP1 DUP3 MSTORE SWAP1 KECCAK256 SLOAD PUSH1 0x1 PUSH1 0x1 PUSH1 0xA0 SHL SUB AND DUP2 JUMP JUMPDEST PUSH2 0x327 PUSH2 0x457 CALLDATASIZE PUSH1 0x4 PUSH2 0x1269 JUMP JUMPDEST PUSH2 0x867 JUMP JUMPDEST PUSH1 0x0 SLOAD PUSH1 0x1 PUSH1 0x1 PUSH1 0xA0 SHL SUB AND PUSH2 0x33C JUMP JUMPDEST PUSH2 0x235 PUSH2 0x47B CALLDATASIZE PUSH1 0x4 PUSH2 0x1214 JUMP JUMPDEST PUSH2 0x89D JUMP JUMPDEST PUSH2 0x21E PUSH2 0x48E CALLDATASIZE PUSH1 0x4 PUSH2 0x11CF JUMP JUMPDEST PUSH2 0x8F5 JUMP JUMPDEST PUSH2 0x33C PUSH2 0x4A1 CALLDATASIZE PUSH1 0x4 PUSH2 0x11EA JUMP JUMPDEST PUSH1 0x7 PUSH1 0x20 SWAP1 DUP2 MSTORE PUSH1 0x0 SWAP3 DUP4 MSTORE PUSH1 0x40 DUP1 DUP5 KECCAK256 SWAP1 SWAP2 MSTORE SWAP1 DUP3 MSTORE SWAP1 KECCAK256 SLOAD PUSH1 0x1 PUSH1 0x1 PUSH1 0xA0 SHL SUB AND DUP2 JUMP JUMPDEST PUSH2 0x327 PUSH2 0x4D5 CALLDATASIZE PUSH1 0x4 PUSH2 0x129C JUMP JUMPDEST PUSH2 0x955 JUMP JUMPDEST PUSH2 0x235 PUSH2 0x4E8 CALLDATASIZE PUSH1 0x4 PUSH2 0x11EA JUMP JUMPDEST PUSH1 0x8 PUSH1 0x20 SWAP1 DUP2 MSTORE PUSH1 0x0 SWAP3 DUP4 MSTORE PUSH1 0x40 DUP1 DUP5 KECCAK256 SWAP1 SWAP2 MSTORE SWAP1 DUP3 MSTORE SWAP1 KECCAK256 SLOAD DUP2 JUMP JUMPDEST PUSH2 0x235 PUSH2 0x513 CALLDATASIZE PUSH1 0x4 PUSH2 0x11CF JUMP JUMPDEST PUSH2 0x9BC JUMP JUMPDEST PUSH2 0x235 PUSH2 0x526 CALLDATASIZE PUSH1 0x4 PUSH2 0x11CF JUMP JUMPDEST PUSH1 0xC PUSH1 0x20 MSTORE PUSH1 0x0 SWAP1 DUP2 MSTORE PUSH1 0x40 SWAP1 KECCAK256 SLOAD DUP2 JUMP JUMPDEST PUSH2 0x327 PUSH2 0x546 CALLDATASIZE PUSH1 0x4 PUSH2 0x12EA JUMP JUMPDEST PUSH2 0xA71 JUMP JUMPDEST PUSH2 0x327 PUSH2 0x559 CALLDATASIZE PUSH1 0x4 PUSH2 0x11EA JUMP JUMPDEST PUSH2 0xB95 JUMP JUMPDEST PUSH1 0x2 SLOAD PUSH2 0x33C SWAP1 PUSH1 0x1 PUSH1 0x1 PUSH1 0xA0 SHL SUB AND DUP2 JUMP JUMPDEST PUSH2 0x327 PUSH2 0x57F CALLDATASIZE PUSH1 0x4 PUSH2 0x11EA JUMP JUMPDEST PUSH2 0xDF6 JUMP JUMPDEST PUSH2 0x597 PUSH2 0x592 CALLDATASIZE PUSH1 0x4 PUSH2 0x11EA JUMP JUMPDEST PUSH2 0xF93 JUMP JUMPDEST PUSH1 0x40 DUP1 MLOAD SWAP3 DUP4 MSTORE PUSH1 0x20 DUP4 ADD SWAP2 SWAP1 SWAP2 MSTORE ADD PUSH2 0x22A JUMP JUMPDEST PUSH1 0x3 SLOAD PUSH2 0x33C SWAP1 PUSH1 0x1 PUSH1 0x1 PUSH1 0xA0 SHL SUB AND DUP2 JUMP JUMPDEST PUSH2 0x327 PUSH2 0x5CD CALLDATASIZE PUSH1 0x4 PUSH2 0x11CF JUMP JUMPDEST PUSH2 0x1093 JUMP JUMPDEST PUSH2 0x33C PUSH2 0x5E0 CALLDATASIZE PUSH1 0x4 PUSH2 0x11CF JUMP JUMPDEST PUSH1 0x4 PUSH1 0x20 MSTORE PUSH1 0x0 SWAP1 DUP2 MSTORE PUSH1 0x40 SWAP1 KECCAK256 SLOAD PUSH1 0x1 PUSH1 0x1 PUSH1 0xA0 SHL SUB AND DUP2 JUMP JUMPDEST PUSH1 0x0 DUP1 JUMPDEST PUSH1 0x1 SLOAD DUP2 LT ISZERO PUSH2 0x65B JUMPI DUP3 PUSH1 0x1 PUSH1 0x1 PUSH1 0xA0 SHL SUB AND PUSH1 0xB DUP3 DUP2 SLOAD DUP2 LT PUSH2 0x626 JUMPI PUSH2 0x626 PUSH2 0x133F JUMP JUMPDEST PUSH1 0x0 SWAP2 DUP3 MSTORE PUSH1 0x20 SWAP1 SWAP2 KECCAK256 ADD SLOAD PUSH1 0x1 PUSH1 0x1 PUSH1 0xA0 SHL SUB AND SUB PUSH2 0x649 JUMPI POP PUSH1 0x1 SWAP3 SWAP2 POP POP JUMP JUMPDEST DUP1 PUSH2 0x653 DUP2 PUSH2 0x136B JUMP JUMPDEST SWAP2 POP POP PUSH2 0x5FF JUMP JUMPDEST POP PUSH1 0x0 SWAP3 SWAP2 POP POP JUMP JUMPDEST PUSH1 0x40 MLOAD PUSH4 0xA9059CBB PUSH1 0xE0 SHL DUP2 MSTORE PUSH1 0x1 PUSH1 0x1 PUSH1 0xA0 SHL SUB DUP4 DUP2 AND PUSH1 0x4 DUP4 ADD MSTORE PUSH1 0x24 DUP3 ADD DUP4 SWAP1 MSTORE DUP5 AND SWAP1 PUSH4 0xA9059CBB SWAP1 PUSH1 0x44 ADD PUSH1 0x20 PUSH1 0x40 MLOAD DUP1 DUP4 SUB DUP2 PUSH1 0x0 DUP8 GAS CALL ISZERO DUP1 ISZERO PUSH2 0x6B3 JUMPI RETURNDATASIZE PUSH1 0x0 DUP1 RETURNDATACOPY RETURNDATASIZE PUSH1 0x0 REVERT JUMPDEST POP POP POP POP PUSH1 0x40 MLOAD RETURNDATASIZE PUSH1 0x1F NOT PUSH1 0x1F DUP3 ADD AND DUP3 ADD DUP1 PUSH1 0x40 MSTORE POP DUP2 ADD SWAP1 PUSH2 0x6D7 SWAP2 SWAP1 PUSH2 0x1384 JUMP JUMPDEST POP POP POP POP JUMP JUMPDEST PUSH1 0x1 DUP2 DUP2 SLOAD DUP2 LT PUSH2 0x6ED JUMPI PUSH1 0x0 DUP1 REVERT JUMPDEST PUSH1 0x0 SWAP2 DUP3 MSTORE PUSH1 0x20 SWAP1 SWAP2 KECCAK256 ADD SLOAD PUSH1 0x1 PUSH1 0x1 PUSH1 0xA0 SHL SUB AND SWAP1 POP DUP2 JUMP JUMPDEST PUSH2 0x664 PUSH2 0x1109 JUMP JUMPDEST PUSH2 0x717 PUSH2 0x1109 JUMP JUMPDEST PUSH1 0x0 JUMPDEST PUSH1 0xB SLOAD DUP2 LT ISZERO PUSH2 0x7E7 JUMPI PUSH1 0x0 PUSH1 0xB DUP3 DUP2 SLOAD DUP2 LT PUSH2 0x739 JUMPI PUSH2 0x739 PUSH2 0x133F JUMP JUMPDEST PUSH1 0x0 SWAP2 DUP3 MSTORE PUSH1 0x20 DUP3 KECCAK256 ADD SLOAD PUSH1 0x1 PUSH1 0x1 PUSH1 0xA0 SHL SUB AND SWAP2 POP PUSH2 0x758 DUP3 PUSH2 0x9BC JUMP JUMPDEST PUSH1 0x5 SLOAD PUSH1 0x40 MLOAD PUSH4 0xA9059CBB PUSH1 0xE0 SHL DUP2 MSTORE PUSH1 0x1 PUSH1 0x1 PUSH1 0xA0 SHL SUB DUP6 DUP2 AND PUSH1 0x4 DUP4 ADD MSTORE PUSH1 0x24 DUP3 ADD DUP5 SWAP1 MSTORE SWAP3 SWAP4 POP SWAP2 AND SWAP1 PUSH4 0xA9059CBB SWAP1 PUSH1 0x44 ADD PUSH1 0x20 PUSH1 0x40 MLOAD DUP1 DUP4 SUB DUP2 PUSH1 0x0 DUP8 GAS CALL ISZERO DUP1 ISZERO PUSH2 0x7AD JUMPI RETURNDATASIZE PUSH1 0x0 DUP1 RETURNDATACOPY RETURNDATASIZE PUSH1 0x0 REVERT JUMPDEST POP POP POP POP PUSH1 0x40 MLOAD RETURNDATASIZE PUSH1 0x1F NOT PUSH1 0x1F DUP3 ADD AND DUP3 ADD DUP1 PUSH1 0x40 MSTORE POP DUP2 ADD SWAP1 PUSH2 0x7D1 SWAP2 SWAP1 PUSH2 0x1384 JUMP JUMPDEST POP POP POP DUP1 DUP1 PUSH2 0x7DF SWAP1 PUSH2 0x136B JUMP JUMPDEST SWAP2 POP POP PUSH2 0x71A JUMP JUMPDEST POP JUMP JUMPDEST PUSH2 0x7F2 PUSH2 0x1109 JUMP JUMPDEST PUSH1 0x1 DUP1 SLOAD DUP1 DUP3 ADD DUP3 SSTORE PUSH1 0x0 SWAP2 SWAP1 SWAP2 MSTORE PUSH32 0xB10E2D527612073B26EECDFD717E6A320CF44B4AFAC2B0732D9FCBE2B7FA0CF6 ADD DUP1 SLOAD PUSH1 0x1 PUSH1 0x1 PUSH1 0xA0 SHL SUB NOT AND PUSH1 0x1 PUSH1 0x1 PUSH1 0xA0 SHL SUB SWAP3 SWAP1 SWAP3 AND SWAP2 SWAP1 SWAP2 OR SWAP1 SSTORE JUMP JUMPDEST PUSH2 0x84B PUSH2 0x1109 JUMP JUMPDEST PUSH2 0x855 PUSH1 0x0 PUSH2 0x1163 JUMP JUMPDEST JUMP JUMPDEST PUSH1 0xB DUP2 DUP2 SLOAD DUP2 LT PUSH2 0x6ED JUMPI PUSH1 0x0 DUP1 REVERT JUMPDEST PUSH2 0x86F PUSH2 0x1109 JUMP JUMPDEST PUSH1 0x1 PUSH1 0x1 PUSH1 0xA0 SHL SUB SWAP2 DUP3 AND PUSH1 0x0 SWAP1 DUP2 MSTORE PUSH1 0x4 PUSH1 0x20 MSTORE PUSH1 0x40 SWAP1 KECCAK256 DUP1 SLOAD PUSH1 0x1 PUSH1 0x1 PUSH1 0xA0 SHL SUB NOT AND SWAP2 SWAP1 SWAP3 AND OR SWAP1 SSTORE JUMP JUMPDEST PUSH1 0x1 PUSH1 0x1 PUSH1 0xA0 SHL SUB DUP4 AND PUSH1 0x0 SWAP1 DUP2 MSTORE PUSH1 0xA PUSH1 0x20 MSTORE PUSH1 0x40 DUP2 KECCAK256 SLOAD PUSH2 0x8C2 JUMPI POP PUSH1 0x0 PUSH2 0x8EE JUMP JUMPDEST PUSH1 0x0 DUP1 PUSH2 0x8CF DUP6 DUP6 PUSH2 0xF93 JUMP JUMPDEST SWAP1 SWAP3 POP SWAP1 POP PUSH2 0x8DF DUP2 PUSH1 0xA PUSH2 0x148C JUMP JUMPDEST PUSH2 0x8E9 SWAP1 DUP4 PUSH2 0x1498 JUMP JUMPDEST SWAP3 POP POP POP JUMPDEST SWAP4 SWAP3 POP POP POP JUMP JUMPDEST PUSH1 0x0 DUP1 JUMPDEST PUSH1 0x1 SLOAD DUP2 LT ISZERO PUSH2 0x65B JUMPI DUP3 PUSH1 0x1 PUSH1 0x1 PUSH1 0xA0 SHL SUB AND PUSH1 0x1 DUP3 DUP2 SLOAD DUP2 LT PUSH2 0x920 JUMPI PUSH2 0x920 PUSH2 0x133F JUMP JUMPDEST PUSH1 0x0 SWAP2 DUP3 MSTORE PUSH1 0x20 SWAP1 SWAP2 KECCAK256 ADD SLOAD PUSH1 0x1 PUSH1 0x1 PUSH1 0xA0 SHL SUB AND SUB PUSH2 0x943 JUMPI POP PUSH1 0x1 SWAP3 SWAP2 POP POP JUMP JUMPDEST DUP1 PUSH2 0x94D DUP2 PUSH2 0x136B JUMP JUMPDEST SWAP2 POP POP PUSH2 0x8F9 JUMP JUMPDEST PUSH1 0x1 PUSH1 0x1 PUSH1 0xA0 SHL SUB SWAP5 DUP6 AND PUSH1 0x0 DUP2 DUP2 MSTORE PUSH1 0xF PUSH1 0x20 SWAP1 DUP2 MSTORE PUSH1 0x40 DUP1 DUP4 KECCAK256 DUP9 DUP5 MSTORE DUP3 MSTORE DUP1 DUP4 KECCAK256 DUP1 SLOAD PUSH1 0x1 PUSH1 0x1 PUSH1 0xA0 SHL SUB NOT AND SWAP8 SWAP1 SWAP10 AND SWAP7 SWAP1 SWAP7 OR SWAP1 SWAP8 SSTORE DUP2 DUP2 MSTORE PUSH1 0xE DUP8 MSTORE DUP5 DUP2 KECCAK256 DUP7 DUP3 MSTORE DUP8 MSTORE DUP5 DUP2 KECCAK256 SWAP4 SWAP1 SWAP4 SSTORE DUP3 MSTORE PUSH1 0xD DUP6 MSTORE DUP3 DUP3 KECCAK256 SWAP4 DUP3 MSTORE SWAP3 SWAP1 SWAP4 MSTORE SWAP1 SWAP2 KECCAK256 SSTORE JUMP JUMPDEST PUSH1 0x1 PUSH1 0x1 PUSH1 0xA0 SHL SUB DUP2 AND PUSH1 0x0 SWAP1 DUP2 MSTORE PUSH1 0xA PUSH1 0x20 MSTORE PUSH1 0x40 DUP2 KECCAK256 SLOAD DUP2 SWAP1 PUSH2 0x9E4 JUMPI POP PUSH1 0x0 SWAP3 SWAP2 POP POP JUMP JUMPDEST PUSH1 0x0 JUMPDEST PUSH1 0x1 PUSH1 0x1 PUSH1 0xA0 SHL SUB DUP5 AND PUSH1 0x0 SWAP1 DUP2 MSTORE PUSH1 0xA PUSH1 0x20 MSTORE PUSH1 0x40 SWAP1 KECCAK256 SLOAD DUP2 LT ISZERO PUSH2 0xA6A JUMPI PUSH1 0x1 PUSH1 0x1 PUSH1 0xA0 SHL SUB DUP1 DUP6 AND PUSH1 0x0 DUP2 DUP2 MSTORE PUSH1 0x7 PUSH1 0x20 SWAP1 DUP2 MSTORE PUSH1 0x40 DUP1 DUP4 KECCAK256 DUP7 DUP5 MSTORE DUP3 MSTORE DUP1 DUP4 KECCAK256 SLOAD SWAP4 DUP4 MSTORE PUSH1 0x8 DUP3 MSTORE DUP1 DUP4 KECCAK256 DUP7 DUP5 MSTORE SWAP1 SWAP2 MSTORE SWAP1 KECCAK256 SLOAD PUSH2 0xA4C SWAP3 DUP8 SWAP3 AND SWAP1 PUSH2 0x89D JUMP JUMPDEST PUSH2 0xA56 SWAP1 DUP4 PUSH2 0x14BA JUMP JUMPDEST SWAP2 POP DUP1 PUSH2 0xA62 DUP2 PUSH2 0x136B JUMP JUMPDEST SWAP2 POP POP PUSH2 0x9E7 JUMP JUMPDEST POP SWAP3 SWAP2 POP POP JUMP JUMPDEST PUSH2 0xA7A DUP6 PUSH2 0x8F5 JUMP JUMPDEST PUSH2 0xA9F JUMPI PUSH1 0x40 MLOAD PUSH3 0x461BCD PUSH1 0xE5 SHL DUP2 MSTORE PUSH1 0x4 ADD PUSH2 0xA96 SWAP1 PUSH2 0x14CD JUMP JUMPDEST PUSH1 0x40 MLOAD DUP1 SWAP2 SUB SWAP1 REVERT JUMPDEST PUSH2 0xAA9 DUP6 DUP6 PUSH2 0xDF6 JUMP JUMPDEST PUSH1 0x40 MLOAD PUSH4 0xA9059CBB PUSH1 0xE0 SHL DUP2 MSTORE CALLER PUSH1 0x4 DUP3 ADD MSTORE PUSH1 0x24 DUP2 ADD DUP5 SWAP1 MSTORE PUSH1 0x1 PUSH1 0x1 PUSH1 0xA0 SHL SUB DUP8 AND SWAP1 PUSH4 0xA9059CBB SWAP1 PUSH1 0x44 ADD PUSH1 0x20 PUSH1 0x40 MLOAD DUP1 DUP4 SUB DUP2 PUSH1 0x0 DUP8 GAS CALL ISZERO DUP1 ISZERO PUSH2 0xAF6 JUMPI RETURNDATASIZE PUSH1 0x0 DUP1 RETURNDATACOPY RETURNDATASIZE PUSH1 0x0 REVERT JUMPDEST POP POP POP POP PUSH1 0x40 MLOAD RETURNDATASIZE PUSH1 0x1F NOT PUSH1 0x1F DUP3 ADD AND DUP3 ADD DUP1 PUSH1 0x40 MSTORE POP DUP2 ADD SWAP1 PUSH2 0xB1A SWAP2 SWAP1 PUSH2 0x1384 JUMP JUMPDEST POP TIMESTAMP PUSH1 0x0 PUSH2 0xB29 DUP5 PUSH1 0x18 PUSH2 0x1519 JUMP JUMPDEST PUSH2 0xB34 SWAP1 PUSH1 0x3C PUSH2 0x1519 JUMP JUMPDEST PUSH2 0xB3F SWAP1 PUSH1 0x3C PUSH2 0x1519 JUMP JUMPDEST PUSH2 0xB49 SWAP1 DUP4 PUSH2 0x14BA JUMP JUMPDEST SWAP1 POP PUSH1 0x0 PUSH1 0x6 SLOAD PUSH1 0xA PUSH2 0xB5C SWAP2 SWAP1 PUSH2 0x148C JUMP JUMPDEST PUSH2 0xB66 SWAP1 DUP6 PUSH2 0x1498 JUMP JUMPDEST PUSH2 0xB71 SWAP1 PUSH1 0x1 PUSH2 0x14BA JUMP JUMPDEST PUSH2 0xB7B SWAP1 DUP8 PUSH2 0x1519 JUMP JUMPDEST SWAP1 POP PUSH2 0xB8A DUP9 DUP9 CALLER DUP6 DUP6 PUSH2 0x955 JUMP JUMPDEST POP POP POP POP POP POP POP POP POP JUMP JUMPDEST PUSH2 0xB9D PUSH2 0x1109 JUMP JUMPDEST PUSH2 0xBA6 DUP3 PUSH2 0x8F5 JUMP JUMPDEST PUSH2 0xBC2 JUMPI PUSH1 0x40 MLOAD PUSH3 0x461BCD PUSH1 0xE5 SHL DUP2 MSTORE PUSH1 0x4 ADD PUSH2 0xA96 SWAP1 PUSH2 0x14CD JUMP JUMPDEST PUSH1 0x40 MLOAD PUSH4 0x23B872DD PUSH1 0xE0 SHL DUP2 MSTORE ADDRESS PUSH1 0x4 DUP3 ADD MSTORE CALLER PUSH1 0x24 DUP3 ADD MSTORE PUSH1 0x44 DUP2 ADD DUP3 SWAP1 MSTORE PUSH1 0x1 PUSH1 0x1 PUSH1 0xA0 SHL SUB DUP4 AND SWAP1 PUSH4 0x23B872DD SWAP1 PUSH1 0x64 ADD PUSH1 0x0 PUSH1 0x40 MLOAD DUP1 DUP4 SUB DUP2 PUSH1 0x0 DUP8 DUP1 EXTCODESIZE ISZERO DUP1 ISZERO PUSH2 0xC10 JUMPI PUSH1 0x0 DUP1 REVERT JUMPDEST POP GAS CALL ISZERO DUP1 ISZERO PUSH2 0xC24 JUMPI RETURNDATASIZE PUSH1 0x0 DUP1 RETURNDATACOPY RETURNDATASIZE PUSH1 0x0 REVERT JUMPDEST POP POP CALLER PUSH1 0x0 DUP2 DUP2 MSTORE PUSH1 0x9 PUSH1 0x20 SWAP1 DUP2 MSTORE PUSH1 0x40 DUP1 DUP4 KECCAK256 PUSH1 0x1 PUSH1 0x1 PUSH1 0xA0 SHL SUB DUP10 DUP2 AND DUP6 MSTORE DUP2 DUP5 MSTORE DUP3 DUP6 KECCAK256 DUP10 DUP7 MSTORE DUP5 MSTORE DUP3 DUP6 KECCAK256 SLOAD DUP7 DUP7 MSTORE PUSH1 0x7 DUP6 MSTORE DUP4 DUP7 KECCAK256 PUSH1 0xA DUP1 DUP8 MSTORE DUP6 DUP9 KECCAK256 DUP1 SLOAD DUP1 DUP11 MSTORE DUP4 DUP10 MSTORE DUP8 DUP11 KECCAK256 SLOAD DUP12 DUP12 MSTORE PUSH1 0x8 DUP11 MSTORE DUP9 DUP12 KECCAK256 SWAP2 DUP12 MSTORE DUP2 DUP11 MSTORE DUP9 DUP12 KECCAK256 SLOAD DUP7 DUP13 MSTORE SWAP5 DUP11 MSTORE DUP9 DUP12 KECCAK256 DUP1 SLOAD PUSH1 0x1 PUSH1 0x1 PUSH1 0xA0 SHL SUB NOT AND SWAP2 SWAP1 SWAP8 AND SWAP1 DUP2 OR SWAP1 SWAP7 SSTORE DUP9 MSTORE DUP7 DUP10 KECCAK256 DUP4 SWAP1 SSTORE DUP5 DUP10 MSTORE SWAP5 DUP8 MSTORE DUP6 DUP9 KECCAK256 DUP3 DUP10 MSTORE DUP8 MSTORE SWAP5 DUP8 KECCAK256 DUP3 SWAP1 SSTORE SWAP7 SWAP1 SWAP6 MSTORE SWAP2 SWAP1 SWAP3 MSTORE SWAP1 SLOAD SWAP2 SWAP5 POP SWAP3 POP PUSH2 0xCDC SWAP1 PUSH1 0x1 SWAP1 PUSH2 0x1530 JUMP JUMPDEST CALLER PUSH1 0x0 SWAP1 DUP2 MSTORE PUSH1 0xA PUSH1 0x20 MSTORE PUSH1 0x40 DUP2 KECCAK256 DUP3 SWAP1 SSTORE SUB PUSH2 0xDEF JUMPI CALLER PUSH1 0x0 SWAP1 DUP2 MSTORE PUSH1 0xC PUSH1 0x20 MSTORE PUSH1 0x40 SWAP1 KECCAK256 SLOAD PUSH1 0xB DUP1 SLOAD PUSH2 0xD13 SWAP1 PUSH1 0x1 SWAP1 PUSH2 0x1530 JUMP JUMPDEST DUP2 SLOAD DUP2 LT PUSH2 0xD23 JUMPI PUSH2 0xD23 PUSH2 0x133F JUMP JUMPDEST PUSH1 0x0 SWAP2 DUP3 MSTORE PUSH1 0x20 SWAP1 SWAP2 KECCAK256 ADD SLOAD PUSH1 0xB DUP1 SLOAD PUSH1 0x1 PUSH1 0x1 PUSH1 0xA0 SHL SUB SWAP1 SWAP3 AND SWAP2 DUP4 SWAP1 DUP2 LT PUSH2 0xD4F JUMPI PUSH2 0xD4F PUSH2 0x133F JUMP JUMPDEST SWAP1 PUSH1 0x0 MSTORE PUSH1 0x20 PUSH1 0x0 KECCAK256 ADD PUSH1 0x0 PUSH2 0x100 EXP DUP2 SLOAD DUP2 PUSH1 0x1 PUSH1 0x1 PUSH1 0xA0 SHL SUB MUL NOT AND SWAP1 DUP4 PUSH1 0x1 PUSH1 0x1 PUSH1 0xA0 SHL SUB AND MUL OR SWAP1 SSTORE POP DUP1 PUSH1 0xC PUSH1 0x0 PUSH1 0xB DUP5 DUP2 SLOAD DUP2 LT PUSH2 0xD95 JUMPI PUSH2 0xD95 PUSH2 0x133F JUMP JUMPDEST PUSH1 0x0 SWAP2 DUP3 MSTORE PUSH1 0x20 DUP1 DUP4 KECCAK256 SWAP1 SWAP2 ADD SLOAD PUSH1 0x1 PUSH1 0x1 PUSH1 0xA0 SHL SUB AND DUP4 MSTORE DUP3 ADD SWAP3 SWAP1 SWAP3 MSTORE PUSH1 0x40 ADD SWAP1 KECCAK256 SSTORE PUSH1 0xB DUP1 SLOAD DUP1 PUSH2 0xDCB JUMPI PUSH2 0xDCB PUSH2 0x1543 JUMP JUMPDEST PUSH1 0x0 DUP3 DUP2 MSTORE PUSH1 0x20 SWAP1 KECCAK256 DUP2 ADD PUSH1 0x0 NOT SWAP1 DUP2 ADD DUP1 SLOAD PUSH1 0x1 PUSH1 0x1 PUSH1 0xA0 SHL SUB NOT AND SWAP1 SSTORE ADD SWAP1 SSTORE POP JUMPDEST POP POP POP POP POP JUMP JUMPDEST PUSH2 0xDFF DUP3 PUSH2 0x8F5 JUMP JUMPDEST PUSH2 0xE1B JUMPI PUSH1 0x40 MLOAD PUSH3 0x461BCD PUSH1 0xE5 SHL DUP2 MSTORE PUSH1 0x4 ADD PUSH2 0xA96 SWAP1 PUSH2 0x14CD JUMP JUMPDEST PUSH1 0x40 MLOAD PUSH4 0x23B872DD PUSH1 0xE0 SHL DUP2 MSTORE CALLER PUSH1 0x4 DUP3 ADD MSTORE ADDRESS PUSH1 0x24 DUP3 ADD MSTORE PUSH1 0x44 DUP2 ADD DUP3 SWAP1 MSTORE PUSH1 0x1 PUSH1 0x1 PUSH1 0xA0 SHL SUB DUP4 AND SWAP1 PUSH4 0x23B872DD SWAP1 PUSH1 0x64 ADD PUSH1 0x0 PUSH1 0x40 MLOAD DUP1 DUP4 SUB DUP2 PUSH1 0x0 DUP8 DUP1 EXTCODESIZE ISZERO DUP1 ISZERO PUSH2 0xE69 JUMPI PUSH1 0x0 DUP1 REVERT JUMPDEST POP GAS CALL ISZERO DUP1 ISZERO PUSH2 0xE7D JUMPI RETURNDATASIZE PUSH1 0x0 DUP1 RETURNDATACOPY RETURNDATASIZE PUSH1 0x0 REVERT JUMPDEST POP POP CALLER PUSH1 0x0 DUP2 DUP2 MSTORE PUSH1 0x7 PUSH1 0x20 SWAP1 DUP2 MSTORE PUSH1 0x40 DUP1 DUP4 KECCAK256 PUSH1 0xA DUP1 DUP5 MSTORE DUP3 DUP6 KECCAK256 DUP1 SLOAD DUP7 MSTORE SWAP2 DUP5 MSTORE DUP3 DUP6 KECCAK256 DUP1 SLOAD PUSH1 0x1 PUSH1 0x1 PUSH1 0xA0 SHL SUB NOT AND PUSH1 0x1 PUSH1 0x1 PUSH1 0xA0 SHL SUB DUP13 AND SWAP1 DUP2 OR SWAP1 SWAP2 SSTORE DUP7 DUP7 MSTORE PUSH1 0x8 DUP6 MSTORE DUP4 DUP7 KECCAK256 DUP4 SLOAD DUP8 MSTORE DUP6 MSTORE DUP4 DUP7 KECCAK256 DUP11 SWAP1 SSTORE DUP7 DUP7 MSTORE SWAP2 SLOAD PUSH1 0x9 DUP6 MSTORE DUP4 DUP7 KECCAK256 SWAP3 DUP7 MSTORE SWAP2 DUP5 MSTORE DUP3 DUP6 KECCAK256 DUP10 DUP7 MSTORE DUP5 MSTORE SWAP2 DUP5 KECCAK256 DUP2 SWAP1 SSTORE SWAP4 DUP4 MSTORE SWAP1 MSTORE SUB SWAP2 POP PUSH2 0xF64 SWAP1 POP JUMPI PUSH1 0xB DUP1 SLOAD PUSH1 0x1 DUP2 DUP2 ADD DUP4 SSTORE PUSH1 0x0 DUP4 SWAP1 MSTORE PUSH32 0x175B7A638427703F0DBE7BB9BBF987A2551717B34E79F33B5B1008D1FA01DB9 SWAP1 SWAP2 ADD DUP1 SLOAD PUSH1 0x1 PUSH1 0x1 PUSH1 0xA0 SHL SUB NOT AND CALLER OR SWAP1 SSTORE SWAP1 SLOAD PUSH2 0xF53 SWAP2 SWAP1 PUSH2 0x1530 JUMP JUMPDEST CALLER PUSH1 0x0 SWAP1 DUP2 MSTORE PUSH1 0xC PUSH1 0x20 MSTORE PUSH1 0x40 SWAP1 KECCAK256 SSTORE JUMPDEST CALLER PUSH1 0x0 SWAP1 DUP2 MSTORE PUSH1 0xA PUSH1 0x20 MSTORE PUSH1 0x40 SWAP1 KECCAK256 SLOAD PUSH2 0xF7F SWAP1 PUSH1 0x1 PUSH2 0x14BA JUMP JUMPDEST CALLER PUSH1 0x0 SWAP1 DUP2 MSTORE PUSH1 0xA PUSH1 0x20 MSTORE PUSH1 0x40 SWAP1 KECCAK256 SSTORE POP POP JUMP JUMPDEST PUSH1 0x1 PUSH1 0x1 PUSH1 0xA0 SHL SUB DUP1 DUP4 AND PUSH1 0x0 SWAP1 DUP2 MSTORE PUSH1 0x4 PUSH1 0x20 DUP2 SWAP1 MSTORE PUSH1 0x40 DUP1 DUP4 KECCAK256 SLOAD DUP2 MLOAD PUSH4 0x3FABE5A3 PUSH1 0xE2 SHL DUP2 MSTORE SWAP2 MLOAD SWAP4 SWAP5 DUP6 SWAP5 SWAP2 AND SWAP3 DUP4 SWAP3 DUP6 SWAP3 DUP5 SWAP3 PUSH4 0xFEAF968C SWAP3 DUP1 DUP3 ADD SWAP3 PUSH1 0xA0 SWAP3 SWAP1 SWAP2 DUP3 SWAP1 SUB ADD DUP2 DUP7 GAS STATICCALL ISZERO DUP1 ISZERO PUSH2 0xFF3 JUMPI RETURNDATASIZE PUSH1 0x0 DUP1 RETURNDATACOPY RETURNDATASIZE PUSH1 0x0 REVERT JUMPDEST POP POP POP POP PUSH1 0x40 MLOAD RETURNDATASIZE PUSH1 0x1F NOT PUSH1 0x1F DUP3 ADD AND DUP3 ADD DUP1 PUSH1 0x40 MSTORE POP DUP2 ADD SWAP1 PUSH2 0x1017 SWAP2 SWAP1 PUSH2 0x1573 JUMP JUMPDEST POP POP POP SWAP2 POP POP PUSH1 0x0 DUP3 PUSH1 0x1 PUSH1 0x1 PUSH1 0xA0 SHL SUB AND PUSH4 0x313CE567 PUSH1 0x40 MLOAD DUP2 PUSH4 0xFFFFFFFF AND PUSH1 0xE0 SHL DUP2 MSTORE PUSH1 0x4 ADD PUSH1 0x20 PUSH1 0x40 MLOAD DUP1 DUP4 SUB DUP2 DUP7 GAS STATICCALL ISZERO DUP1 ISZERO PUSH2 0x105D JUMPI RETURNDATASIZE PUSH1 0x0 DUP1 RETURNDATACOPY RETURNDATASIZE PUSH1 0x0 REVERT JUMPDEST POP POP POP POP PUSH1 0x40 MLOAD RETURNDATASIZE PUSH1 0x1F NOT PUSH1 0x1F DUP3 ADD AND DUP3 ADD DUP1 PUSH1 0x40 MSTORE POP DUP2 ADD SWAP1 PUSH2 0x1081 SWAP2 SWAP1 PUSH2 0x15C3 JUMP JUMPDEST SWAP2 SWAP6 POP POP PUSH1 0xFF AND SWAP3 POP POP POP SWAP3 POP SWAP3 SWAP1 POP JUMP JUMPDEST PUSH2 0x109B PUSH2 0x1109 JUMP JUMPDEST PUSH1 0x1 PUSH1 0x1 PUSH1 0xA0 SHL SUB DUP2 AND PUSH2 0x1100 JUMPI PUSH1 0x40 MLOAD PUSH3 0x461BCD PUSH1 0xE5 SHL DUP2 MSTORE PUSH1 0x20 PUSH1 0x4 DUP3 ADD MSTORE PUSH1 0x26 PUSH1 0x24 DUP3 ADD MSTORE PUSH32 0x4F776E61626C653A206E6577206F776E657220697320746865207A65726F2061 PUSH1 0x44 DUP3 ADD MSTORE PUSH6 0x646472657373 PUSH1 0xD0 SHL PUSH1 0x64 DUP3 ADD MSTORE PUSH1 0x84 ADD PUSH2 0xA96 JUMP JUMPDEST PUSH2 0x7E7 DUP2 PUSH2 0x1163 JUMP JUMPDEST PUSH1 0x0 SLOAD PUSH1 0x1 PUSH1 0x1 PUSH1 0xA0 SHL SUB AND CALLER EQ PUSH2 0x855 JUMPI PUSH1 0x40 MLOAD PUSH3 0x461BCD PUSH1 0xE5 SHL DUP2 MSTORE PUSH1 0x20 PUSH1 0x4 DUP3 ADD DUP2 SWAP1 MSTORE PUSH1 0x24 DUP3 ADD MSTORE PUSH32 0x4F776E61626C653A2063616C6C6572206973206E6F7420746865206F776E6572 PUSH1 0x44 DUP3 ADD MSTORE PUSH1 0x64 ADD PUSH2 0xA96 JUMP JUMPDEST PUSH1 0x0 DUP1 SLOAD PUSH1 0x1 PUSH1 0x1 PUSH1 0xA0 SHL SUB DUP4 DUP2 AND PUSH1 0x1 PUSH1 0x1 PUSH1 0xA0 SHL SUB NOT DUP4 AND DUP2 OR DUP5 SSTORE PUSH1 0x40 MLOAD SWAP2 SWAP1 SWAP3 AND SWAP3 DUP4 SWAP2 PUSH32 0x8BE0079C531659141344CD1FD0A4F28419497F9722A3DAAFE3B4186F6B6457E0 SWAP2 SWAP1 LOG3 POP POP JUMP JUMPDEST DUP1 CALLDATALOAD PUSH1 0x1 PUSH1 0x1 PUSH1 0xA0 SHL SUB DUP2 AND DUP2 EQ PUSH2 0x11CA JUMPI PUSH1 0x0 DUP1 REVERT JUMPDEST SWAP2 SWAP1 POP JUMP JUMPDEST PUSH1 0x0 PUSH1 0x20 DUP3 DUP5 SUB SLT ISZERO PUSH2 0x11E1 JUMPI PUSH1 0x0 DUP1 REVERT JUMPDEST PUSH2 0x8EE DUP3 PUSH2 0x11B3 JUMP JUMPDEST PUSH1 0x0 DUP1 PUSH1 0x40 DUP4 DUP6 SUB SLT ISZERO PUSH2 0x11FD JUMPI PUSH1 0x0 DUP1 REVERT JUMPDEST PUSH2 0x1206 DUP4 PUSH2 0x11B3 JUMP JUMPDEST SWAP5 PUSH1 0x20 SWAP4 SWAP1 SWAP4 ADD CALLDATALOAD SWAP4 POP POP POP JUMP JUMPDEST PUSH1 0x0 DUP1 PUSH1 0x0 PUSH1 0x60 DUP5 DUP7 SUB SLT ISZERO PUSH2 0x1229 JUMPI PUSH1 0x0 DUP1 REVERT JUMPDEST PUSH2 0x1232 DUP5 PUSH2 0x11B3 JUMP JUMPDEST SWAP3 POP PUSH2 0x1240 PUSH1 0x20 DUP6 ADD PUSH2 0x11B3 JUMP JUMPDEST SWAP2 POP PUSH1 0x40 DUP5 ADD CALLDATALOAD SWAP1 POP SWAP3 POP SWAP3 POP SWAP3 JUMP JUMPDEST PUSH1 0x0 PUSH1 0x20 DUP3 DUP5 SUB SLT ISZERO PUSH2 0x1262 JUMPI PUSH1 0x0 DUP1 REVERT JUMPDEST POP CALLDATALOAD SWAP2 SWAP1 POP JUMP JUMPDEST PUSH1 0x0 DUP1 PUSH1 0x40 DUP4 DUP6 SUB SLT ISZERO PUSH2 0x127C JUMPI PUSH1 0x0 DUP1 REVERT JUMPDEST PUSH2 0x1285 DUP4 PUSH2 0x11B3 JUMP JUMPDEST SWAP2 POP PUSH2 0x1293 PUSH1 0x20 DUP5 ADD PUSH2 0x11B3 JUMP JUMPDEST SWAP1 POP SWAP3 POP SWAP3 SWAP1 POP JUMP JUMPDEST PUSH1 0x0 DUP1 PUSH1 0x0 DUP1 PUSH1 0x0 PUSH1 0xA0 DUP7 DUP9 SUB SLT ISZERO PUSH2 0x12B4 JUMPI PUSH1 0x0 DUP1 REVERT JUMPDEST PUSH2 0x12BD DUP7 PUSH2 0x11B3 JUMP JUMPDEST SWAP5 POP PUSH1 0x20 DUP7 ADD CALLDATALOAD SWAP4 POP PUSH2 0x12D2 PUSH1 0x40 DUP8 ADD PUSH2 0x11B3 JUMP JUMPDEST SWAP5 SWAP8 SWAP4 SWAP7 POP SWAP4 SWAP5 PUSH1 0x60 DUP2 ADD CALLDATALOAD SWAP5 POP PUSH1 0x80 ADD CALLDATALOAD SWAP3 SWAP2 POP POP JUMP JUMPDEST PUSH1 0x0 DUP1 PUSH1 0x0 DUP1 PUSH1 0x0 DUP1 PUSH1 0xC0 DUP8 DUP10 SUB SLT ISZERO PUSH2 0x1303 JUMPI PUSH1 0x0 DUP1 REVERT JUMPDEST PUSH2 0x130C DUP8 PUSH2 0x11B3 JUMP JUMPDEST SWAP6 POP PUSH2 0x131A PUSH1 0x20 DUP9 ADD PUSH2 0x11B3 JUMP JUMPDEST SWAP6 SWAP9 SWAP6 SWAP8 POP POP POP POP PUSH1 0x40 DUP5 ADD CALLDATALOAD SWAP4 PUSH1 0x60 DUP2 ADD CALLDATALOAD SWAP4 PUSH1 0x80 DUP3 ADD CALLDATALOAD SWAP4 POP PUSH1 0xA0 SWAP1 SWAP2 ADD CALLDATALOAD SWAP2 POP JUMP JUMPDEST PUSH4 0x4E487B71 PUSH1 0xE0 SHL PUSH1 0x0 MSTORE PUSH1 0x32 PUSH1 0x4 MSTORE PUSH1 0x24 PUSH1 0x0 REVERT JUMPDEST PUSH4 0x4E487B71 PUSH1 0xE0 SHL PUSH1 0x0 MSTORE PUSH1 0x11 PUSH1 0x4 MSTORE PUSH1 0x24 PUSH1 0x0 REVERT JUMPDEST PUSH1 0x0 PUSH1 0x1 DUP3 ADD PUSH2 0x137D JUMPI PUSH2 0x137D PUSH2 0x1355 JUMP JUMPDEST POP PUSH1 0x1 ADD SWAP1 JUMP JUMPDEST PUSH1 0x0 PUSH1 0x20 DUP3 DUP5 SUB SLT ISZERO PUSH2 0x1396 JUMPI PUSH1 0x0 DUP1 REVERT JUMPDEST DUP2 MLOAD DUP1 ISZERO ISZERO DUP2 EQ PUSH2 0x8EE JUMPI PUSH1 0x0 DUP1 REVERT JUMPDEST PUSH1 0x1 DUP2 DUP2 JUMPDEST DUP1 DUP6 GT ISZERO PUSH2 0x13E1 JUMPI DUP2 PUSH1 0x0 NOT DIV DUP3 GT ISZERO PUSH2 0x13C7 JUMPI PUSH2 0x13C7 PUSH2 0x1355 JUMP JUMPDEST DUP1 DUP6 AND ISZERO PUSH2 0x13D4 JUMPI SWAP2 DUP2 MUL SWAP2 JUMPDEST SWAP4 DUP5 SHR SWAP4 SWAP1 DUP1 MUL SWAP1 PUSH2 0x13AB JUMP JUMPDEST POP SWAP3 POP SWAP3 SWAP1 POP JUMP JUMPDEST PUSH1 0x0 DUP3 PUSH2 0x13F8 JUMPI POP PUSH1 0x1 PUSH2 0x1486 JUMP JUMPDEST DUP2 PUSH2 0x1405 JUMPI POP PUSH1 0x0 PUSH2 0x1486 JUMP JUMPDEST DUP2 PUSH1 0x1 DUP2 EQ PUSH2 0x141B JUMPI PUSH1 0x2 DUP2 EQ PUSH2 0x1425 JUMPI PUSH2 0x1441 JUMP JUMPDEST PUSH1 0x1 SWAP2 POP POP PUSH2 0x1486 JUMP JUMPDEST PUSH1 0xFF DUP5 GT ISZERO PUSH2 0x1436 JUMPI PUSH2 0x1436 PUSH2 0x1355 JUMP JUMPDEST POP POP PUSH1 0x1 DUP3 SHL PUSH2 0x1486 JUMP JUMPDEST POP PUSH1 0x20 DUP4 LT PUSH2 0x133 DUP4 LT AND PUSH1 0x4E DUP5 LT PUSH1 0xB DUP5 LT AND OR ISZERO PUSH2 0x1464 JUMPI POP DUP2 DUP2 EXP PUSH2 0x1486 JUMP JUMPDEST PUSH2 0x146E DUP4 DUP4 PUSH2 0x13A6 JUMP JUMPDEST DUP1 PUSH1 0x0 NOT DIV DUP3 GT ISZERO PUSH2 0x1482 JUMPI PUSH2 0x1482 PUSH2 0x1355 JUMP JUMPDEST MUL SWAP1 POP JUMPDEST SWAP3 SWAP2 POP POP JUMP JUMPDEST PUSH1 0x0 PUSH2 0x8EE DUP4 DUP4 PUSH2 0x13E9 JUMP JUMPDEST PUSH1 0x0 DUP3 PUSH2 0x14B5 JUMPI PUSH4 0x4E487B71 PUSH1 0xE0 SHL PUSH1 0x0 MSTORE PUSH1 0x12 PUSH1 0x4 MSTORE PUSH1 0x24 PUSH1 0x0 REVERT JUMPDEST POP DIV SWAP1 JUMP JUMPDEST DUP1 DUP3 ADD DUP1 DUP3 GT ISZERO PUSH2 0x1486 JUMPI PUSH2 0x1486 PUSH2 0x1355 JUMP JUMPDEST PUSH1 0x20 DUP1 DUP3 MSTORE PUSH1 0x2C SWAP1 DUP3 ADD MSTORE PUSH32 0x63757272656E74206E6674206973206E6F7420616C6C6F77656420696E206F75 PUSH1 0x40 DUP3 ADD MSTORE PUSH12 0x722077686974656C69737421 PUSH1 0xA0 SHL PUSH1 0x60 DUP3 ADD MSTORE PUSH1 0x80 ADD SWAP1 JUMP JUMPDEST DUP1 DUP3 MUL DUP2 ISZERO DUP3 DUP3 DIV DUP5 EQ OR PUSH2 0x1486 JUMPI PUSH2 0x1486 PUSH2 0x1355 JUMP JUMPDEST DUP2 DUP2 SUB DUP2 DUP2 GT ISZERO PUSH2 0x1486 JUMPI PUSH2 0x1486 PUSH2 0x1355 JUMP JUMPDEST PUSH4 0x4E487B71 PUSH1 0xE0 SHL PUSH1 0x0 MSTORE PUSH1 0x31 PUSH1 0x4 MSTORE PUSH1 0x24 PUSH1 0x0 REVERT JUMPDEST DUP1 MLOAD PUSH10 0xFFFFFFFFFFFFFFFFFFFF DUP2 AND DUP2 EQ PUSH2 0x11CA JUMPI PUSH1 0x0 DUP1 REVERT JUMPDEST PUSH1 0x0 DUP1 PUSH1 0x0 DUP1 PUSH1 0x0 PUSH1 0xA0 DUP7 DUP9 SUB SLT ISZERO PUSH2 0x158B JUMPI PUSH1 0x0 DUP1 REVERT JUMPDEST PUSH2 0x1594 DUP7 PUSH2 0x1559 JUMP JUMPDEST SWAP5 POP PUSH1 0x20 DUP7 ADD MLOAD SWAP4 POP PUSH1 0x40 DUP7 ADD MLOAD SWAP3 POP PUSH1 0x60 DUP7 ADD MLOAD SWAP2 POP PUSH2 0x15B7 PUSH1 0x80 DUP8 ADD PUSH2 0x1559 JUMP JUMPDEST SWAP1 POP SWAP3 SWAP6 POP SWAP3 SWAP6 SWAP1 SWAP4 POP JUMP JUMPDEST PUSH1 0x0 PUSH1 0x20 DUP3 DUP5 SUB SLT ISZERO PUSH2 0x15D5 JUMPI PUSH1 0x0 DUP1 REVERT JUMPDEST DUP2 MLOAD PUSH1 0xFF DUP2 AND DUP2 EQ PUSH2 0x8EE JUMPI PUSH1 0x0 DUP1 REVERT INVALID LOG2 PUSH5 0x6970667358 0x22 SLT KECCAK256 PUSH31 0x64F6A44410555C9F56EC0488CB9535EE70D16189112088DA2493AE292D5366 PUSH5 0x736F6C6343 STOP ADDMOD GT STOP CALLER ","sha1":"10db54009cc5e416837a334cf03074acab7edf11","source":"//SPDX-License-Identifier: MIT\n\n// this will be upgraded for new roles and procedures\n// principles: minimize memory storage, breakdown a complex on-chain action to several short actions\n// roles: borrower, liquidator, inspector, validator(about price info.)\n//      inspector should be the owner of the contract, sometimes as liquidator\n//      validator acts as priceFeed Aggregator, when expired highest quote one of them\n//      can change into liquidator when they deposit the quoteAmount (internal)\n// Must functions: connectWallet, showLoanableNFT, setBasePrice(real fp deal in 14days), setThreshold(e.g., 60%on base price),\n//                 autoGenOffers(3 offers: amount[100,80,60], period[3,7,14], APR[80,100,120], +some random disturbation),\n//                 manGenOffers(amount, period, APR, ),\n//                 updateOffers(offerIndex, update=0:del/1:update/2)\n//                 acceptOffer(approveTransfer, nftDeposit,loanTransfer)\n// Later functions: getPrice, showOffers, makeOffers, approve,sendOffers(by validators)\n// objects: offer{evalAmount, loanPeriod, interest}\n// Global array: arrPeriod[3,7,14], arrAPR, arrLoanRatio\n// randome value: randDeltaAPR,randDeltaLoanRatio\n// Global mappings will be used:\n//      nftAddr->nftID->{ownerAddress, interest, repayAmount, loanTime{initTime, period, expireTime}}\n//      liquidatorAddr->depositLiquid (pre-deposited amount of liquidator)\n// Must check after repay & before return NFTs: ownerAddress, repayAmount, time\n// after loan: ownerAddress should be updated to borrower address\n// after expiration: ownerAddress should be updated to liquidator address\n// ? how to get rarity info. then corresponding evalPrice -> metadata\n// ? how to achieve bundle or reduce gas fee\n//\npragma solidity ^0.8.0;\n\nimport \"@openzeppelin/contracts/access/Ownable.sol\";\nimport \"@openzeppelin/contracts/token/ERC721/IERC721.sol\";\nimport \"@openzeppelin/contracts/token/ERC20/IERC20.sol\";\nimport \"@chainlink/contracts/src/v0.8/interfaces/AggregatorV3Interface.sol\";\n\ncontract Escrow is Ownable {\n    address[] public allowedNfts;\n    address public lender;\n    address public inspector;\n    mapping(address => address) public nftPriceFeedMapping;\n\n    IERC20 public dappToken;\n    // IERC20 public loanToken;\n\n    // struct addressId {\n    //     address _nftAddress;\n    //     uint256 _nftId;\n    // }\n    struct loanOffer {\n        uint256 _loanAmount; //18 decimals in ether(wei)\n        uint256 _loanDays; // in days\n        uint256 _loanInterest; //with decimals 10**4, e.g. 2.83% = 283/(10**4)\n    }\n    uint256 public interestDecimals = 4;\n    struct nftLockParameters {\n        uint256 _repayAmount; //18 decimals in ether(wei)\n        // uint256 _lockInitTime; // in seconds\n        uint256 _expireTime; // in seconds\n        address _holderAddress;\n    }\n    // mapping borrower address -> borrower stake index -> staked NFT address and ID\n    mapping(address => mapping(uint256 => address)) public stakedNftAddress;\n    mapping(address => mapping(uint256 => uint256)) public stakedNftId;\n    mapping(address => mapping(address => mapping(uint256 => uint256)))\n        public stakedNftIndex;\n    mapping(address => uint256) public numOfNftStaked;\n    address[] public borrowers;\n    mapping(address => uint256) public borrowerIndex;\n    // mapping nft address -> nft id -> {priceFeed, loanPeriod, repayAmount, holderAddress}\n    mapping(address => mapping(uint256 => uint256)) public nftLoanRepayAmount;\n    mapping(address => mapping(uint256 => uint256)) public nftLoanExpireTime;\n    mapping(address => mapping(uint256 => address)) public nftLoanHolderAddress;\n\n    constructor(address _dappTokenAddress) public {\n        dappToken = IERC20(_dappTokenAddress);\n    }\n\n    function loanRepay(\n        address _loanTokenAddress,\n        address _escrowAddress,\n        uint256 _repayAmount\n    ) public {\n        // where shall we put approve action, here or in .py?\n        IERC20(_loanTokenAddress).transfer(_escrowAddress, _repayAmount);\n    }\n\n    function loanTransfer(\n        address _loanTokenAddress,\n        address _nftHolderAddress,\n        uint256 _loanAmount\n    ) public onlyOwner {\n        // is onlyOwner used here correct?\n        IERC20(_loanTokenAddress).transfer(_nftHolderAddress, _loanAmount);\n    }\n\n    function nftUnStaking(address _nftAddress, uint256 _nftId)\n        public\n        onlyOwner\n    {\n        // must satisfy:\n        // 1. time not expire,\n        // 2. repay enough,\n        // 3. the owner is the owner\n        require(\n            nftIsAllowed(_nftAddress),\n            \"current nft is not allowed in our whitelist!\"\n        );\n\n        IERC721(_nftAddress).transferFrom(address(this), msg.sender, _nftId);\n        uint256 index = stakedNftIndex[msg.sender][_nftAddress][_nftId];\n        address nft_address = stakedNftAddress[msg.sender][\n            numOfNftStaked[msg.sender]\n        ];\n        uint256 nft_id = stakedNftId[msg.sender][numOfNftStaked[msg.sender]];\n        stakedNftAddress[msg.sender][index] = nft_address;\n        stakedNftId[msg.sender][index] = nft_id;\n        stakedNftIndex[msg.sender][nft_address][nft_id] = index;\n        numOfNftStaked[msg.sender] = numOfNftStaked[msg.sender] - 1;\n\n        if (numOfNftStaked[msg.sender] == 0) {\n            uint256 index = borrowerIndex[msg.sender];\n            borrowers[index] = borrowers[borrowers.length - 1];\n            borrowerIndex[borrowers[index]] = index;\n            borrowers.pop();\n        }\n    }\n\n    function nftStaking(address _nftAddress, uint256 _nftId) public {\n        // what NFT can they stake?\n        require(\n            nftIsAllowed(_nftAddress),\n            \"current nft is not allowed in our whitelist!\"\n        );\n        IERC721(_nftAddress).transferFrom(msg.sender, address(this), _nftId);\n        stakedNftAddress[msg.sender][numOfNftStaked[msg.sender]] = _nftAddress;\n        stakedNftId[msg.sender][numOfNftStaked[msg.sender]] = _nftId;\n        stakedNftIndex[msg.sender][_nftAddress][_nftId] = numOfNftStaked[\n            msg.sender\n        ];\n        if (numOfNftStaked[msg.sender] == 0) {\n            borrowers.push(msg.sender);\n            borrowerIndex[msg.sender] = borrowers.length - 1;\n        }\n        numOfNftStaked[msg.sender] = numOfNftStaked[msg.sender] + 1;\n    }\n\n    function nftLock(\n        address _nftAddress,\n        uint256 _nftId,\n        address _holderAddress,\n        uint256 _expireTime,\n        uint256 _repayAmount\n    ) public {\n        // nft lock parameters setting, is the function public ok?\n        nftLoanHolderAddress[_nftAddress][_nftId] = _holderAddress;\n        nftLoanExpireTime[_nftAddress][_nftId] = _expireTime;\n        nftLoanRepayAmount[_nftAddress][_nftId] = _repayAmount;\n    }\n\n    function getNftLockData(address _nftAddress, uint256 _nftId)\n        public\n        view\n        returns (\n            address,\n            uint256,\n            uint256\n        )\n    {\n        return (\n            nftLoanHolderAddress[_nftAddress][_nftId],\n            nftLoanExpireTime[_nftAddress][_nftId],\n            nftLoanRepayAmount[_nftAddress][_nftId]\n        );\n    }\n\n    function requestLoan(\n        address _loanTokenAddress,\n        address _nftAddress,\n        uint256 _nftId,\n        uint256 _loanAmount,\n        uint256 _loanDays,\n        uint256 _loanInterest\n    ) public {\n        require(\n            nftIsAllowed(_nftAddress),\n            \"current nft is not allowed in our whitelist!\"\n        );\n        nftStaking(_nftAddress, _nftId);\n        IERC20(_loanTokenAddress).transfer(address(msg.sender), _loanAmount);\n        uint256 initTime = block.timestamp;\n        uint256 expireTime = initTime + _loanDays * 24 * 60 * 60;\n        uint256 repayAmount = _loanAmount *\n            (1 + _loanInterest / (10**interestDecimals));\n        nftLock(\n            _nftAddress,\n            _nftId,\n            address(msg.sender),\n            expireTime,\n            repayAmount\n        );\n    }\n\n    function addAllowedNfts(address _nftAddress) public onlyOwner {\n        allowedNfts.push(_nftAddress);\n    }\n\n    function nftIsAllowed(address _nftAddress) public view returns (bool) {\n        for (\n            uint256 allowedNftsIndex = 0;\n            allowedNftsIndex < allowedNfts.length;\n            allowedNftsIndex++\n        ) {\n            if (allowedNfts[allowedNftsIndex] == _nftAddress) {\n                return true;\n            }\n        }\n        return false;\n    }\n\n    modifier onlyLender() {\n        require(msg.sender == lender, \"Only lender can call this method\");\n        _;\n    }\n\n    function isBorrowers(address _user) public view returns (bool) {\n        for (uint256 index = 0; index < allowedNfts.length; index++) {\n            if (borrowers[index] == _user) {\n                return true;\n            }\n        }\n        return false;\n    }\n\n    modifier onlyBorrower() {\n        require(isBorrowers(msg.sender), \"Only borrower can call this method\");\n        _;\n    }\n\n    modifier onlyInspector() {\n        require(msg.sender == inspector, \"Only inspector can call this method\");\n        _;\n    }\n\n    function getBalance() public view returns (uint256) {\n        return address(this).balance;\n    }\n\n    // e.g.: give 1 DappToken per loanToken loan\n    function issueTokens() public onlyOwner {\n        // ? get each borrower total loan interest profit\n        // ? get each NFT (address, id) loaned interest profit\n        // Issue tokens to all stakers\n        for (uint256 index = 0; index < borrowers.length; index++) {\n            address recipient = borrowers[index];\n            uint256 userTotalValue = getUserTotalValue(recipient);\n            dappToken.transfer(recipient, userTotalValue);\n        }\n    }\n\n    function getUserTotalValue(address _user) public view returns (uint256) {\n        uint256 totalValue = 0;\n        // require(numOfNftStaked[_user] > 0, \"No nft staked!\");\n        if (numOfNftStaked[_user] <= 0) {\n            return 0;\n        }\n        for (\n            uint256 nftStakedIndex = 0;\n            nftStakedIndex < numOfNftStaked[_user];\n            nftStakedIndex++\n        ) {\n            totalValue =\n                totalValue +\n                getUserSingleNftValue(\n                    _user,\n                    stakedNftAddress[_user][nftStakedIndex],\n                    stakedNftId[_user][nftStakedIndex]\n                );\n        }\n        return totalValue;\n    }\n\n    function getUserSingleNftValue(\n        address _user,\n        address _nftAddress,\n        uint256 _nftId\n    ) public view returns (uint256) {\n        if (numOfNftStaked[_user] <= 0) {\n            return 0;\n        }\n        (uint256 price, uint256 decimals) = getNftValue(_nftAddress, _nftId);\n        return (price / (10**decimals));\n        // 10000000000000000000 ETH\n        // ETH/USD -> 10000000000\n        // 10 * 100 = 1,000\n    }\n\n    function getNftValue(address _nftAddress, uint256 _nftId)\n        public\n        view\n        returns (uint256, uint256)\n    {\n        // // default setted to 1ETH and 18decimals\n        // return (1, 18);\n\n        // priceFeedAddress\n        // address priceFeedAddress = nftPriceFeedMapping[_nftAddress][_nftId];\n        address priceFeedAddress = nftPriceFeedMapping[_nftAddress];\n        AggregatorV3Interface priceFeed = AggregatorV3Interface(\n            priceFeedAddress\n        );\n        (, int256 price, , , ) = priceFeed.latestRoundData();\n        uint256 decimals = uint256(priceFeed.decimals());\n        return (uint256(price), decimals);\n    }\n\n    function setPriceFeedContract(\n        address _nftAddress,\n        // uint256 _nftId=none,\n        address _priceFeed\n    ) public onlyOwner {\n        // nftPriceFeedMapping[_nftAddress][_nftId] = _priceFeed;\n        nftPriceFeedMapping[_nftAddress] = _priceFeed;\n    }\n}\n","sourcePath":"contracts/Escrow.sol","type":"contract","deployment":{"address":"0xB7f5b59DE6fB4B4998b65d7a43B8fAb538e4b76f","chainid":"5","blockHeight":7931103}}