{
  "abi": [
    {
      "inputs": [
        {
          "internalType": "address",
          "name": "_dappTokenAddress",
          "type": "address"
        }
      ],
      "stateMutability": "nonpayable",
      "type": "constructor"
    },
    {
      "anonymous": false,
      "inputs": [
        {
          "indexed": true,
          "internalType": "address",
          "name": "previousOwner",
          "type": "address"
        },
        {
          "indexed": true,
          "internalType": "address",
          "name": "newOwner",
          "type": "address"
        }
      ],
      "name": "OwnershipTransferred",
      "type": "event"
    },
    {
      "inputs": [
        {
          "internalType": "address",
          "name": "_nftAddress",
          "type": "address"
        }
      ],
      "name": "addAllowedNfts",
      "outputs": [],
      "stateMutability": "nonpayable",
      "type": "function"
    },
    {
      "inputs": [
        {
          "internalType": "uint256",
          "name": "",
          "type": "uint256"
        }
      ],
      "name": "allowedNfts",
      "outputs": [
        {
          "internalType": "address",
          "name": "",
          "type": "address"
        }
      ],
      "stateMutability": "view",
      "type": "function"
    },
    {
      "inputs": [
        {
          "internalType": "address",
          "name": "",
          "type": "address"
        }
      ],
      "name": "borrowerIndex",
      "outputs": [
        {
          "internalType": "uint256",
          "name": "",
          "type": "uint256"
        }
      ],
      "stateMutability": "view",
      "type": "function"
    },
    {
      "inputs": [
        {
          "internalType": "uint256",
          "name": "",
          "type": "uint256"
        }
      ],
      "name": "borrowers",
      "outputs": [
        {
          "internalType": "address",
          "name": "",
          "type": "address"
        }
      ],
      "stateMutability": "view",
      "type": "function"
    },
    {
      "inputs": [],
      "name": "dappToken",
      "outputs": [
        {
          "internalType": "contract IERC20",
          "name": "",
          "type": "address"
        }
      ],
      "stateMutability": "view",
      "type": "function"
    },
    {
      "inputs": [],
      "name": "getBalance",
      "outputs": [
        {
          "internalType": "uint256",
          "name": "",
          "type": "uint256"
        }
      ],
      "stateMutability": "view",
      "type": "function"
    },
    {
      "inputs": [
        {
          "internalType": "address",
          "name": "_nftAddress",
          "type": "address"
        },
        {
          "internalType": "uint256",
          "name": "_nftId",
          "type": "uint256"
        }
      ],
      "name": "getNftLockData",
      "outputs": [
        {
          "internalType": "address",
          "name": "",
          "type": "address"
        },
        {
          "internalType": "uint256",
          "name": "",
          "type": "uint256"
        },
        {
          "internalType": "uint256",
          "name": "",
          "type": "uint256"
        }
      ],
      "stateMutability": "view",
      "type": "function"
    },
    {
      "inputs": [
        {
          "internalType": "address",
          "name": "_nftAddress",
          "type": "address"
        },
        {
          "internalType": "uint256",
          "name": "_nftId",
          "type": "uint256"
        }
      ],
      "name": "getNftValue",
      "outputs": [
        {
          "internalType": "uint256",
          "name": "",
          "type": "uint256"
        },
        {
          "internalType": "uint256",
          "name": "",
          "type": "uint256"
        }
      ],
      "stateMutability": "view",
      "type": "function"
    },
    {
      "inputs": [
        {
          "internalType": "address",
          "name": "_nftAddress",
          "type": "address"
        },
        {
          "internalType": "uint256",
          "name": "_nftId",
          "type": "uint256"
        }
      ],
      "name": "getOffers",
      "outputs": [
        {
          "internalType": "uint256",
          "name": "",
          "type": "uint256"
        },
        {
          "internalType": "uint256",
          "name": "",
          "type": "uint256"
        },
        {
          "internalType": "uint256",
          "name": "",
          "type": "uint256"
        }
      ],
      "stateMutability": "view",
      "type": "function"
    },
    {
      "inputs": [
        {
          "internalType": "address",
          "name": "_user",
          "type": "address"
        },
        {
          "internalType": "address",
          "name": "_nftAddress",
          "type": "address"
        },
        {
          "internalType": "uint256",
          "name": "_nftId",
          "type": "uint256"
        }
      ],
      "name": "getUserSingleNftValue",
      "outputs": [
        {
          "internalType": "uint256",
          "name": "",
          "type": "uint256"
        }
      ],
      "stateMutability": "view",
      "type": "function"
    },
    {
      "inputs": [
        {
          "internalType": "address",
          "name": "_user",
          "type": "address"
        }
      ],
      "name": "getUserTotalValue",
      "outputs": [
        {
          "internalType": "uint256",
          "name": "",
          "type": "uint256"
        }
      ],
      "stateMutability": "view",
      "type": "function"
    },
    {
      "inputs": [],
      "name": "interestDecimals",
      "outputs": [
        {
          "internalType": "uint256",
          "name": "",
          "type": "uint256"
        }
      ],
      "stateMutability": "view",
      "type": "function"
    },
    {
      "inputs": [
        {
          "internalType": "address",
          "name": "_user",
          "type": "address"
        }
      ],
      "name": "isBorrowers",
      "outputs": [
        {
          "internalType": "bool",
          "name": "",
          "type": "bool"
        }
      ],
      "stateMutability": "view",
      "type": "function"
    },
    {
      "inputs": [],
      "name": "issueTokens",
      "outputs": [],
      "stateMutability": "nonpayable",
      "type": "function"
    },
    {
      "inputs": [
        {
          "internalType": "address",
          "name": "_loanTokenAddress",
          "type": "address"
        },
        {
          "internalType": "uint256",
          "name": "_repayAmount",
          "type": "uint256"
        }
      ],
      "name": "loanRepay",
      "outputs": [],
      "stateMutability": "nonpayable",
      "type": "function"
    },
    {
      "inputs": [
        {
          "internalType": "address",
          "name": "_loanTokenAddress",
          "type": "address"
        },
        {
          "internalType": "address",
          "name": "_nftHolderAddress",
          "type": "address"
        },
        {
          "internalType": "uint256",
          "name": "_loanAmount",
          "type": "uint256"
        }
      ],
      "name": "loanTransfer",
      "outputs": [],
      "stateMutability": "nonpayable",
      "type": "function"
    },
    {
      "inputs": [
        {
          "internalType": "address",
          "name": "_nftAddress",
          "type": "address"
        }
      ],
      "name": "nftIsAllowed",
      "outputs": [
        {
          "internalType": "bool",
          "name": "",
          "type": "bool"
        }
      ],
      "stateMutability": "view",
      "type": "function"
    },
    {
      "inputs": [
        {
          "internalType": "address",
          "name": "",
          "type": "address"
        },
        {
          "internalType": "uint256",
          "name": "",
          "type": "uint256"
        }
      ],
      "name": "nftLoanAmount",
      "outputs": [
        {
          "internalType": "uint256",
          "name": "",
          "type": "uint256"
        }
      ],
      "stateMutability": "view",
      "type": "function"
    },
    {
      "inputs": [
        {
          "internalType": "address",
          "name": "",
          "type": "address"
        },
        {
          "internalType": "uint256",
          "name": "",
          "type": "uint256"
        }
      ],
      "name": "nftLoanExpireTime",
      "outputs": [
        {
          "internalType": "uint256",
          "name": "",
          "type": "uint256"
        }
      ],
      "stateMutability": "view",
      "type": "function"
    },
    {
      "inputs": [
        {
          "internalType": "address",
          "name": "",
          "type": "address"
        },
        {
          "internalType": "uint256",
          "name": "",
          "type": "uint256"
        }
      ],
      "name": "nftLoanHolderAddress",
      "outputs": [
        {
          "internalType": "address",
          "name": "",
          "type": "address"
        }
      ],
      "stateMutability": "view",
      "type": "function"
    },
    {
      "inputs": [
        {
          "internalType": "address",
          "name": "",
          "type": "address"
        },
        {
          "internalType": "uint256",
          "name": "",
          "type": "uint256"
        }
      ],
      "name": "nftLoanInterest",
      "outputs": [
        {
          "internalType": "uint256",
          "name": "",
          "type": "uint256"
        }
      ],
      "stateMutability": "view",
      "type": "function"
    },
    {
      "inputs": [
        {
          "internalType": "address",
          "name": "",
          "type": "address"
        },
        {
          "internalType": "uint256",
          "name": "",
          "type": "uint256"
        }
      ],
      "name": "nftLoanPeriod",
      "outputs": [
        {
          "internalType": "uint256",
          "name": "",
          "type": "uint256"
        }
      ],
      "stateMutability": "view",
      "type": "function"
    },
    {
      "inputs": [
        {
          "internalType": "address",
          "name": "",
          "type": "address"
        },
        {
          "internalType": "uint256",
          "name": "",
          "type": "uint256"
        }
      ],
      "name": "nftLoanRepayAmount",
      "outputs": [
        {
          "internalType": "uint256",
          "name": "",
          "type": "uint256"
        }
      ],
      "stateMutability": "view",
      "type": "function"
    },
    {
      "inputs": [
        {
          "internalType": "address",
          "name": "_nftAddress",
          "type": "address"
        },
        {
          "internalType": "uint256",
          "name": "_nftId",
          "type": "uint256"
        },
        {
          "internalType": "address",
          "name": "_holderAddress",
          "type": "address"
        },
        {
          "internalType": "uint256",
          "name": "_expireTime",
          "type": "uint256"
        },
        {
          "internalType": "uint256",
          "name": "_repayAmount",
          "type": "uint256"
        }
      ],
      "name": "nftLock",
      "outputs": [],
      "stateMutability": "nonpayable",
      "type": "function"
    },
    {
      "inputs": [
        {
          "internalType": "address",
          "name": "",
          "type": "address"
        }
      ],
      "name": "nftPriceFeedMapping",
      "outputs": [
        {
          "internalType": "address",
          "name": "",
          "type": "address"
        }
      ],
      "stateMutability": "view",
      "type": "function"
    },
    {
      "inputs": [
        {
          "internalType": "address",
          "name": "_nftAddress",
          "type": "address"
        },
        {
          "internalType": "uint256",
          "name": "_nftId",
          "type": "uint256"
        }
      ],
      "name": "nftStaking",
      "outputs": [],
      "stateMutability": "nonpayable",
      "type": "function"
    },
    {
      "inputs": [
        {
          "internalType": "address",
          "name": "_nftAddress",
          "type": "address"
        },
        {
          "internalType": "uint256",
          "name": "_nftId",
          "type": "uint256"
        }
      ],
      "name": "nftUnStaking",
      "outputs": [],
      "stateMutability": "nonpayable",
      "type": "function"
    },
    {
      "inputs": [
        {
          "internalType": "address",
          "name": "",
          "type": "address"
        }
      ],
      "name": "numOfNftStaked",
      "outputs": [
        {
          "internalType": "uint256",
          "name": "",
          "type": "uint256"
        }
      ],
      "stateMutability": "view",
      "type": "function"
    },
    {
      "inputs": [],
      "name": "owner",
      "outputs": [
        {
          "internalType": "address",
          "name": "",
          "type": "address"
        }
      ],
      "stateMutability": "view",
      "type": "function"
    },
    {
      "inputs": [],
      "name": "renounceOwnership",
      "outputs": [],
      "stateMutability": "nonpayable",
      "type": "function"
    },
    {
      "inputs": [
        {
          "internalType": "address",
          "name": "_nftAddress",
          "type": "address"
        },
        {
          "internalType": "uint256",
          "name": "_nftId",
          "type": "uint256"
        },
        {
          "internalType": "uint256",
          "name": "_loanAmount",
          "type": "uint256"
        },
        {
          "internalType": "uint256",
          "name": "_loanPeriod",
          "type": "uint256"
        },
        {
          "internalType": "uint256",
          "name": "_loanInterest",
          "type": "uint256"
        }
      ],
      "name": "setOffers",
      "outputs": [],
      "stateMutability": "nonpayable",
      "type": "function"
    },
    {
      "inputs": [
        {
          "internalType": "address",
          "name": "_nftAddress",
          "type": "address"
        },
        {
          "internalType": "address",
          "name": "_priceFeed",
          "type": "address"
        }
      ],
      "name": "setPriceFeedContract",
      "outputs": [],
      "stateMutability": "nonpayable",
      "type": "function"
    },
    {
      "inputs": [
        {
          "internalType": "address",
          "name": "",
          "type": "address"
        },
        {
          "internalType": "uint256",
          "name": "",
          "type": "uint256"
        }
      ],
      "name": "stakedNftAddress",
      "outputs": [
        {
          "internalType": "address",
          "name": "",
          "type": "address"
        }
      ],
      "stateMutability": "view",
      "type": "function"
    },
    {
      "inputs": [
        {
          "internalType": "address",
          "name": "",
          "type": "address"
        },
        {
          "internalType": "uint256",
          "name": "",
          "type": "uint256"
        }
      ],
      "name": "stakedNftId",
      "outputs": [
        {
          "internalType": "uint256",
          "name": "",
          "type": "uint256"
        }
      ],
      "stateMutability": "view",
      "type": "function"
    },
    {
      "inputs": [
        {
          "internalType": "address",
          "name": "",
          "type": "address"
        },
        {
          "internalType": "address",
          "name": "",
          "type": "address"
        },
        {
          "internalType": "uint256",
          "name": "",
          "type": "uint256"
        }
      ],
      "name": "stakedNftIndex",
      "outputs": [
        {
          "internalType": "uint256",
          "name": "",
          "type": "uint256"
        }
      ],
      "stateMutability": "view",
      "type": "function"
    },
    {
      "inputs": [
        {
          "internalType": "address",
          "name": "newOwner",
          "type": "address"
        }
      ],
      "name": "transferOwnership",
      "outputs": [],
      "stateMutability": "nonpayable",
      "type": "function"
    }
  ],
  "bytecode": "6080604052600460065534801561001557600080fd5b5060405161179b38038061179b833981016040819052610034916100b2565b61003d33610062565b600580546001600160a01b0319166001600160a01b03929092169190911790556100e2565b600080546001600160a01b038381166001600160a01b0319831681178455604051919092169283917f8be0079c531659141344cd1fd0a4f28419497f9722a3daafe3b4186f6b6457e09190a35050565b6000602082840312156100c457600080fd5b81516001600160a01b03811681146100db57600080fd5b9392505050565b6116aa806100f16000396000f3fe608060405234801561001057600080fd5b506004361061021c5760003560e01c80637ef4c7ad11610125578063b026e6bd116100ad578063e45e09a21161007c578063e45e09a2146105f9578063ea98a95014610621578063f2fde38b1461069b578063f3eaf005146106ae578063f8dede7c146106d757600080fd5b8063b026e6bd14610588578063bbb62028146105a8578063bfeecc51146105bb578063dcfd51c3146105ce57600080fd5b80638ddefa36116100f45780638ddefa36146104f05780639f42ce0214610503578063ae422b5314610537578063aeb4e4a41461054a578063af3f5e221461057557600080fd5b80637ef4c7ad14610485578063877dd39d146104b95780638da5cb5b146104cc5780638dc3306f146104dd57600080fd5b8063512a53bc116101a85780636c59eb3b116101775780636c59eb3b146103fb5780636e9e97901461040e578063715018a6146104395780637924d93f1461044157806379d2fde41461045457600080fd5b8063512a53bc146103c4578063567d1ebf146103d75780635eb186f8146103e057806360ab5852146103f357600080fd5b80632cdb786a116101ef5780632cdb786a146102a85780632d1ab89c1461032e57806344589e6e14610359578063466b3362146103845780634d23d8af1461039957600080fd5b80630bd4a267146102215780630e32a0e31461025f57806312065fe0146102825780631316263a14610288575b600080fd5b61024c61022f366004611287565b601060209081526000928352604080842090915290825290205481565b6040519081526020015b60405180910390f35b61027261026d3660046112b1565b6106ea565b6040519015158152602001610256565b4761024c565b61024c6102963660046112b1565b600a6020526000908152604090205481565b6103096102b6366004611287565b6001600160a01b039182166000818152600f60209081526040808320858452825280832054848452600e8352818420868552835281842054948452600d8352818420958452949091529020549190921692565b604080516001600160a01b039094168452602084019290925290820152606001610256565b61024c61033c366004611287565b600d60209081526000928352604080842090915290825290205481565b61024c610367366004611287565b601160209081526000928352604080842090915290825290205481565b610397610392366004611287565b610753565b005b6103ac6103a73660046112cc565b6107cf565b6040516001600160a01b039091168152602001610256565b6103976103d23660046112e5565b6107f9565b61024c60065481565b6005546103ac906001600160a01b031681565b61039761087a565b6103976104093660046112b1565b610955565b61024c61041c366004611287565b600e60209081526000928352604080842090915290825290205481565b6103976109ae565b6103ac61044f3660046112cc565b6109c2565b61024c6104623660046112e5565b600960209081526000938452604080852082529284528284209052825290205481565b6103ac610493366004611287565b600f6020908152600092835260408084209091529082529020546001600160a01b031681565b6103976104c7366004611321565b6109d2565b6000546001600160a01b03166103ac565b61024c6104eb3660046112e5565b610a08565b6102726104fe3660046112b1565b610a60565b6103ac610511366004611287565b60076020908152600092835260408084209091529082529020546001600160a01b031681565b610397610545366004611354565b610ac0565b61024c610558366004611287565b600860209081526000928352604080842090915290825290205481565b61024c6105833660046112b1565b610b2f565b61024c6105963660046112b1565b600c6020526000908152604090205481565b6103976105b6366004611287565b610be4565b6103976105c9366004611287565b610e51565b61024c6105dc366004611287565b601260209081526000928352604080842090915290825290205481565b61060c610607366004611287565b610fee565b60408051928352602083019190915201610256565b61068061062f366004611287565b6001600160a01b039190911660008181526010602090815260408083208584528252808320548484526012835281842086855283528184205494845260118352818420958452949091529020549192565b60408051938452602084019290925290820152606001610256565b6103976106a93660046112b1565b6110ef565b6103ac6106bc3660046112b1565b6002602052600090815260409020546001600160a01b031681565b6103976106e53660046113a2565b611165565b6000805b60015481101561074a57826001600160a01b0316600b8281548110610715576107156113e4565b6000918252602090912001546001600160a01b0316036107385750600192915050565b8061074281611410565b9150506106ee565b50600092915050565b6040516323b872dd60e01b8152336004820152306024820152604481018290526001600160a01b038316906323b872dd906064016020604051808303816000875af11580156107a6573d6000803e3d6000fd5b505050506040513d601f19601f820116820180604052508101906107ca9190611429565b505050565b600181815481106107df57600080fd5b6000918252602090912001546001600160a01b0316905081565b6108016111c1565b60405163a9059cbb60e01b81526001600160a01b0383811660048301526024820183905284169063a9059cbb906044016020604051808303816000875af1158015610850573d6000803e3d6000fd5b505050506040513d601f19601f820116820180604052508101906108749190611429565b50505050565b6108826111c1565b60005b600b54811015610952576000600b82815481106108a4576108a46113e4565b60009182526020822001546001600160a01b031691506108c382610b2f565b60055460405163a9059cbb60e01b81526001600160a01b0385811660048301526024820184905292935091169063a9059cbb906044016020604051808303816000875af1158015610918573d6000803e3d6000fd5b505050506040513d601f19601f8201168201806040525081019061093c9190611429565b505050808061094a90611410565b915050610885565b50565b61095d6111c1565b6001805480820182556000919091527fb10e2d527612073b26eecdfd717e6a320cf44b4afac2b0732d9fcbe2b7fa0cf60180546001600160a01b0319166001600160a01b0392909216919091179055565b6109b66111c1565b6109c0600061121b565b565b600b81815481106107df57600080fd5b6109da6111c1565b6001600160a01b03918216600090815260026020526040902080546001600160a01b03191691909216179055565b6001600160a01b0383166000908152600a6020526040812054610a2d57506000610a59565b600080610a3a8585610fee565b9092509050610a4a81600a611531565b610a54908361153d565b925050505b9392505050565b6000805b60015481101561074a57826001600160a01b031660018281548110610a8b57610a8b6113e4565b6000918252602090912001546001600160a01b031603610aae5750600192915050565b80610ab881611410565b915050610a64565b610ac86111c1565b6001600160a01b039485166000818152600f60209081526040808320888452825280832080546001600160a01b0319169790991696909617909755818152600e87528481208682528752848120939093558252600d85528282209382529290935290912055565b6001600160a01b0381166000908152600a60205260408120548190610b575750600092915050565b60005b6001600160a01b0384166000908152600a6020526040902054811015610bdd576001600160a01b03808516600081815260076020908152604080832086845282528083205493835260088252808320868452909152902054610bbf9287921690610a08565b610bc9908361155f565b915080610bd581611410565b915050610b5a565b5092915050565b610bec6111c1565b610bf582610a60565b610c1a5760405162461bcd60e51b8152600401610c1190611572565b60405180910390fd5b6040516323b872dd60e01b8152306004820152336024820152604481018290526001600160a01b038316906323b872dd90606401600060405180830381600087803b158015610c6857600080fd5b505af1158015610c7c573d6000803e3d6000fd5b50503360008181526009602090815260408083206001600160a01b03898116855281845282852089865284528285205486865260078552838620600a8087528588208054808a52838952878a20548b8b5260088a52888b20918b52818a52888b2054868c52948a52888b2080546001600160a01b0319169190971690811790965588528689208390558489529487528588208289528752948720829055969095529190925290549194509250610d34906001906115be565b336000908152600a6020526040812082905503610e4a57336000908152600c6020526040902054600b805491945090610d6f906001906115be565b81548110610d7f57610d7f6113e4565b600091825260209091200154600b80546001600160a01b039092169185908110610dab57610dab6113e4565b9060005260206000200160006101000a8154816001600160a01b0302191690836001600160a01b0316021790555082600c6000600b8681548110610df157610df16113e4565b60009182526020808320909101546001600160a01b03168352820192909252604001902055600b805480610e2757610e276115d1565b600082815260209020810160001990810180546001600160a01b03191690550190555b5050505050565b610e5a82610a60565b610e765760405162461bcd60e51b8152600401610c1190611572565b6040516323b872dd60e01b8152336004820152306024820152604481018290526001600160a01b038316906323b872dd90606401600060405180830381600087803b158015610ec457600080fd5b505af1158015610ed8573d6000803e3d6000fd5b5050336000818152600760209081526040808320600a8084528285208054865291845282852080546001600160a01b0319166001600160a01b038c16908117909155868652600885528386208354875285528386208a905586865291546009855283862092865291845282852089865284529184208190559383529052039150610fbf905057600b80546001818101835560008390527f0175b7a638427703f0dbe7bb9bbf987a2551717b34e79f33b5b1008d1fa01db990910180546001600160a01b031916331790559054610fae91906115be565b336000908152600c60205260409020555b336000908152600a6020526040902054610fda90600161155f565b336000908152600a60205260409020555050565b6001600160a01b03808316600090815260026020526040808220548151633fabe5a360e21b815291519293849391169182918491839163feaf968c9160048082019260a0929091908290030181865afa15801561104f573d6000803e3d6000fd5b505050506040513d601f19601f820116820180604052508101906110739190611601565b5050509150506000826001600160a01b031663313ce5676040518163ffffffff1660e01b8152600401602060405180830381865afa1580156110b9573d6000803e3d6000fd5b505050506040513d601f19601f820116820180604052508101906110dd9190611651565b9195505060ff16925050509250929050565b6110f76111c1565b6001600160a01b03811661115c5760405162461bcd60e51b815260206004820152602660248201527f4f776e61626c653a206e6577206f776e657220697320746865207a65726f206160448201526564647265737360d01b6064820152608401610c11565b6109528161121b565b61116d6111c1565b6001600160a01b039094166000818152601060209081526040808320878452825280832095909555828252601281528482208683528152848220969096559081526011855282812093815292909352902055565b6000546001600160a01b031633146109c05760405162461bcd60e51b815260206004820181905260248201527f4f776e61626c653a2063616c6c6572206973206e6f7420746865206f776e65726044820152606401610c11565b600080546001600160a01b038381166001600160a01b0319831681178455604051919092169283917f8be0079c531659141344cd1fd0a4f28419497f9722a3daafe3b4186f6b6457e09190a35050565b80356001600160a01b038116811461128257600080fd5b919050565b6000806040838503121561129a57600080fd5b6112a38361126b565b946020939093013593505050565b6000602082840312156112c357600080fd5b610a598261126b565b6000602082840312156112de57600080fd5b5035919050565b6000806000606084860312156112fa57600080fd5b6113038461126b565b92506113116020850161126b565b9150604084013590509250925092565b6000806040838503121561133457600080fd5b61133d8361126b565b915061134b6020840161126b565b90509250929050565b600080600080600060a0868803121561136c57600080fd5b6113758661126b565b94506020860135935061138a6040870161126b565b94979396509394606081013594506080013592915050565b600080600080600060a086880312156113ba57600080fd5b6113c38661126b565b97602087013597506040870135966060810135965060800135945092505050565b634e487b7160e01b600052603260045260246000fd5b634e487b7160e01b600052601160045260246000fd5b600060018201611422576114226113fa565b5060010190565b60006020828403121561143b57600080fd5b81518015158114610a5957600080fd5b600181815b8085111561148657816000190482111561146c5761146c6113fa565b8085161561147957918102915b93841c9390800290611450565b509250929050565b60008261149d5750600161152b565b816114aa5750600061152b565b81600181146114c057600281146114ca576114e6565b600191505061152b565b60ff8411156114db576114db6113fa565b50506001821b61152b565b5060208310610133831016604e8410600b8410161715611509575081810a61152b565b611513838361144b565b8060001904821115611527576115276113fa565b0290505b92915050565b6000610a59838361148e565b60008261155a57634e487b7160e01b600052601260045260246000fd5b500490565b8082018082111561152b5761152b6113fa565b6020808252602c908201527f63757272656e74206e6674206973206e6f7420616c6c6f77656420696e206f7560408201526b722077686974656c6973742160a01b606082015260800190565b8181038181111561152b5761152b6113fa565b634e487b7160e01b600052603160045260246000fd5b805169ffffffffffffffffffff8116811461128257600080fd5b600080600080600060a0868803121561161957600080fd5b611622866115e7565b9450602086015193506040860151925060608601519150611645608087016115e7565b90509295509295909350565b60006020828403121561166357600080fd5b815160ff81168114610a5957600080fdfea26469706673582212203a6c624ea9a1252264d5e2694af8da5ce0e80f7c15d28f2ef77682bc70b1f25f64736f6c63430008110033",
  "bytecodeSha1": "ef28a48dd1f0ea75226378d0387071b99b4cc8f9",
  "compiler": {
    "evm_version": "istanbul",
    "optimizer": {
      "enabled": true,
      "runs": 200
    },
    "version": "0.8.17+commit.8df45f5f"
  },
  "contractName": "Escrow",
  "language": "Solidity",
  "natspec": {
    "kind": "dev",
    "methods": {
      "owner()": {
        "details": "Returns the address of the current owner."
      },
      "renounceOwnership()": {
        "details": "Leaves the contract without owner. It will not be possible to call `onlyOwner` functions anymore. Can only be called by the current owner. NOTE: Renouncing ownership will leave the contract without an owner, thereby removing any functionality that is only available to the owner."
      },
      "transferOwnership(address)": {
        "details": "Transfers ownership of the contract to a new account (`newOwner`). Can only be called by the current owner."
      }
    },
    "version": 1
  },
  "opcodes": "PUSH1 0x80 PUSH1 0x40 MSTORE CALLVALUE DUP1 ISZERO PUSH2 0x10 JUMPI PUSH1 0x0 DUP1 REVERT JUMPDEST POP PUSH1 0x4 CALLDATASIZE LT PUSH2 0x21C JUMPI PUSH1 0x0 CALLDATALOAD PUSH1 0xE0 SHR DUP1 PUSH4 0x7EF4C7AD GT PUSH2 0x125 JUMPI DUP1 PUSH4 0xB026E6BD GT PUSH2 0xAD JUMPI DUP1 PUSH4 0xE45E09A2 GT PUSH2 0x7C JUMPI DUP1 PUSH4 0xE45E09A2 EQ PUSH2 0x5F9 JUMPI DUP1 PUSH4 0xEA98A950 EQ PUSH2 0x621 JUMPI DUP1 PUSH4 0xF2FDE38B EQ PUSH2 0x69B JUMPI DUP1 PUSH4 0xF3EAF005 EQ PUSH2 0x6AE JUMPI DUP1 PUSH4 0xF8DEDE7C EQ PUSH2 0x6D7 JUMPI PUSH1 0x0 DUP1 REVERT JUMPDEST DUP1 PUSH4 0xB026E6BD EQ PUSH2 0x588 JUMPI DUP1 PUSH4 0xBBB62028 EQ PUSH2 0x5A8 JUMPI DUP1 PUSH4 0xBFEECC51 EQ PUSH2 0x5BB JUMPI DUP1 PUSH4 0xDCFD51C3 EQ PUSH2 0x5CE JUMPI PUSH1 0x0 DUP1 REVERT JUMPDEST DUP1 PUSH4 0x8DDEFA36 GT PUSH2 0xF4 JUMPI DUP1 PUSH4 0x8DDEFA36 EQ PUSH2 0x4F0 JUMPI DUP1 PUSH4 0x9F42CE02 EQ PUSH2 0x503 JUMPI DUP1 PUSH4 0xAE422B53 EQ PUSH2 0x537 JUMPI DUP1 PUSH4 0xAEB4E4A4 EQ PUSH2 0x54A JUMPI DUP1 PUSH4 0xAF3F5E22 EQ PUSH2 0x575 JUMPI PUSH1 0x0 DUP1 REVERT JUMPDEST DUP1 PUSH4 0x7EF4C7AD EQ PUSH2 0x485 JUMPI DUP1 PUSH4 0x877DD39D EQ PUSH2 0x4B9 JUMPI DUP1 PUSH4 0x8DA5CB5B EQ PUSH2 0x4CC JUMPI DUP1 PUSH4 0x8DC3306F EQ PUSH2 0x4DD JUMPI PUSH1 0x0 DUP1 REVERT JUMPDEST DUP1 PUSH4 0x512A53BC GT PUSH2 0x1A8 JUMPI DUP1 PUSH4 0x6C59EB3B GT PUSH2 0x177 JUMPI DUP1 PUSH4 0x6C59EB3B EQ PUSH2 0x3FB JUMPI DUP1 PUSH4 0x6E9E9790 EQ PUSH2 0x40E JUMPI DUP1 PUSH4 0x715018A6 EQ PUSH2 0x439 JUMPI DUP1 PUSH4 0x7924D93F EQ PUSH2 0x441 JUMPI DUP1 PUSH4 0x79D2FDE4 EQ PUSH2 0x454 JUMPI PUSH1 0x0 DUP1 REVERT JUMPDEST DUP1 PUSH4 0x512A53BC EQ PUSH2 0x3C4 JUMPI DUP1 PUSH4 0x567D1EBF EQ PUSH2 0x3D7 JUMPI DUP1 PUSH4 0x5EB186F8 EQ PUSH2 0x3E0 JUMPI DUP1 PUSH4 0x60AB5852 EQ PUSH2 0x3F3 JUMPI PUSH1 0x0 DUP1 REVERT JUMPDEST DUP1 PUSH4 0x2CDB786A GT PUSH2 0x1EF JUMPI DUP1 PUSH4 0x2CDB786A EQ PUSH2 0x2A8 JUMPI DUP1 PUSH4 0x2D1AB89C EQ PUSH2 0x32E JUMPI DUP1 PUSH4 0x44589E6E EQ PUSH2 0x359 JUMPI DUP1 PUSH4 0x466B3362 EQ PUSH2 0x384 JUMPI DUP1 PUSH4 0x4D23D8AF EQ PUSH2 0x399 JUMPI PUSH1 0x0 DUP1 REVERT JUMPDEST DUP1 PUSH4 0xBD4A267 EQ PUSH2 0x221 JUMPI DUP1 PUSH4 0xE32A0E3 EQ PUSH2 0x25F JUMPI DUP1 PUSH4 0x12065FE0 EQ PUSH2 0x282 JUMPI DUP1 PUSH4 0x1316263A EQ PUSH2 0x288 JUMPI JUMPDEST PUSH1 0x0 DUP1 REVERT JUMPDEST PUSH2 0x24C PUSH2 0x22F CALLDATASIZE PUSH1 0x4 PUSH2 0x1287 JUMP JUMPDEST PUSH1 0x10 PUSH1 0x20 SWAP1 DUP2 MSTORE PUSH1 0x0 SWAP3 DUP4 MSTORE PUSH1 0x40 DUP1 DUP5 KECCAK256 SWAP1 SWAP2 MSTORE SWAP1 DUP3 MSTORE SWAP1 KECCAK256 SLOAD DUP2 JUMP JUMPDEST PUSH1 0x40 MLOAD SWAP1 DUP2 MSTORE PUSH1 0x20 ADD JUMPDEST PUSH1 0x40 MLOAD DUP1 SWAP2 SUB SWAP1 RETURN JUMPDEST PUSH2 0x272 PUSH2 0x26D CALLDATASIZE PUSH1 0x4 PUSH2 0x12B1 JUMP JUMPDEST PUSH2 0x6EA JUMP JUMPDEST PUSH1 0x40 MLOAD SWAP1 ISZERO ISZERO DUP2 MSTORE PUSH1 0x20 ADD PUSH2 0x256 JUMP JUMPDEST SELFBALANCE PUSH2 0x24C JUMP JUMPDEST PUSH2 0x24C PUSH2 0x296 CALLDATASIZE PUSH1 0x4 PUSH2 0x12B1 JUMP JUMPDEST PUSH1 0xA PUSH1 0x20 MSTORE PUSH1 0x0 SWAP1 DUP2 MSTORE PUSH1 0x40 SWAP1 KECCAK256 SLOAD DUP2 JUMP JUMPDEST PUSH2 0x309 PUSH2 0x2B6 CALLDATASIZE PUSH1 0x4 PUSH2 0x1287 JUMP JUMPDEST PUSH1 0x1 PUSH1 0x1 PUSH1 0xA0 SHL SUB SWAP2 DUP3 AND PUSH1 0x0 DUP2 DUP2 MSTORE PUSH1 0xF PUSH1 0x20 SWAP1 DUP2 MSTORE PUSH1 0x40 DUP1 DUP4 KECCAK256 DUP6 DUP5 MSTORE DUP3 MSTORE DUP1 DUP4 KECCAK256 SLOAD DUP5 DUP5 MSTORE PUSH1 0xE DUP4 MSTORE DUP2 DUP5 KECCAK256 DUP7 DUP6 MSTORE DUP4 MSTORE DUP2 DUP5 KECCAK256 SLOAD SWAP5 DUP5 MSTORE PUSH1 0xD DUP4 MSTORE DUP2 DUP5 KECCAK256 SWAP6 DUP5 MSTORE SWAP5 SWAP1 SWAP2 MSTORE SWAP1 KECCAK256 SLOAD SWAP2 SWAP1 SWAP3 AND SWAP3 JUMP JUMPDEST PUSH1 0x40 DUP1 MLOAD PUSH1 0x1 PUSH1 0x1 PUSH1 0xA0 SHL SUB SWAP1 SWAP5 AND DUP5 MSTORE PUSH1 0x20 DUP5 ADD SWAP3 SWAP1 SWAP3 MSTORE SWAP1 DUP3 ADD MSTORE PUSH1 0x60 ADD PUSH2 0x256 JUMP JUMPDEST PUSH2 0x24C PUSH2 0x33C CALLDATASIZE PUSH1 0x4 PUSH2 0x1287 JUMP JUMPDEST PUSH1 0xD PUSH1 0x20 SWAP1 DUP2 MSTORE PUSH1 0x0 SWAP3 DUP4 MSTORE PUSH1 0x40 DUP1 DUP5 KECCAK256 SWAP1 SWAP2 MSTORE SWAP1 DUP3 MSTORE SWAP1 KECCAK256 SLOAD DUP2 JUMP JUMPDEST PUSH2 0x24C PUSH2 0x367 CALLDATASIZE PUSH1 0x4 PUSH2 0x1287 JUMP JUMPDEST PUSH1 0x11 PUSH1 0x20 SWAP1 DUP2 MSTORE PUSH1 0x0 SWAP3 DUP4 MSTORE PUSH1 0x40 DUP1 DUP5 KECCAK256 SWAP1 SWAP2 MSTORE SWAP1 DUP3 MSTORE SWAP1 KECCAK256 SLOAD DUP2 JUMP JUMPDEST PUSH2 0x397 PUSH2 0x392 CALLDATASIZE PUSH1 0x4 PUSH2 0x1287 JUMP JUMPDEST PUSH2 0x753 JUMP JUMPDEST STOP JUMPDEST PUSH2 0x3AC PUSH2 0x3A7 CALLDATASIZE PUSH1 0x4 PUSH2 0x12CC JUMP JUMPDEST PUSH2 0x7CF JUMP JUMPDEST PUSH1 0x40 MLOAD PUSH1 0x1 PUSH1 0x1 PUSH1 0xA0 SHL SUB SWAP1 SWAP2 AND DUP2 MSTORE PUSH1 0x20 ADD PUSH2 0x256 JUMP JUMPDEST PUSH2 0x397 PUSH2 0x3D2 CALLDATASIZE PUSH1 0x4 PUSH2 0x12E5 JUMP JUMPDEST PUSH2 0x7F9 JUMP JUMPDEST PUSH2 0x24C PUSH1 0x6 SLOAD DUP2 JUMP JUMPDEST PUSH1 0x5 SLOAD PUSH2 0x3AC SWAP1 PUSH1 0x1 PUSH1 0x1 PUSH1 0xA0 SHL SUB AND DUP2 JUMP JUMPDEST PUSH2 0x397 PUSH2 0x87A JUMP JUMPDEST PUSH2 0x397 PUSH2 0x409 CALLDATASIZE PUSH1 0x4 PUSH2 0x12B1 JUMP JUMPDEST PUSH2 0x955 JUMP JUMPDEST PUSH2 0x24C PUSH2 0x41C CALLDATASIZE PUSH1 0x4 PUSH2 0x1287 JUMP JUMPDEST PUSH1 0xE PUSH1 0x20 SWAP1 DUP2 MSTORE PUSH1 0x0 SWAP3 DUP4 MSTORE PUSH1 0x40 DUP1 DUP5 KECCAK256 SWAP1 SWAP2 MSTORE SWAP1 DUP3 MSTORE SWAP1 KECCAK256 SLOAD DUP2 JUMP JUMPDEST PUSH2 0x397 PUSH2 0x9AE JUMP JUMPDEST PUSH2 0x3AC PUSH2 0x44F CALLDATASIZE PUSH1 0x4 PUSH2 0x12CC JUMP JUMPDEST PUSH2 0x9C2 JUMP JUMPDEST PUSH2 0x24C PUSH2 0x462 CALLDATASIZE PUSH1 0x4 PUSH2 0x12E5 JUMP JUMPDEST PUSH1 0x9 PUSH1 0x20 SWAP1 DUP2 MSTORE PUSH1 0x0 SWAP4 DUP5 MSTORE PUSH1 0x40 DUP1 DUP6 KECCAK256 DUP3 MSTORE SWAP3 DUP5 MSTORE DUP3 DUP5 KECCAK256 SWAP1 MSTORE DUP3 MSTORE SWAP1 KECCAK256 SLOAD DUP2 JUMP JUMPDEST PUSH2 0x3AC PUSH2 0x493 CALLDATASIZE PUSH1 0x4 PUSH2 0x1287 JUMP JUMPDEST PUSH1 0xF PUSH1 0x20 SWAP1 DUP2 MSTORE PUSH1 0x0 SWAP3 DUP4 MSTORE PUSH1 0x40 DUP1 DUP5 KECCAK256 SWAP1 SWAP2 MSTORE SWAP1 DUP3 MSTORE SWAP1 KECCAK256 SLOAD PUSH1 0x1 PUSH1 0x1 PUSH1 0xA0 SHL SUB AND DUP2 JUMP JUMPDEST PUSH2 0x397 PUSH2 0x4C7 CALLDATASIZE PUSH1 0x4 PUSH2 0x1321 JUMP JUMPDEST PUSH2 0x9D2 JUMP JUMPDEST PUSH1 0x0 SLOAD PUSH1 0x1 PUSH1 0x1 PUSH1 0xA0 SHL SUB AND PUSH2 0x3AC JUMP JUMPDEST PUSH2 0x24C PUSH2 0x4EB CALLDATASIZE PUSH1 0x4 PUSH2 0x12E5 JUMP JUMPDEST PUSH2 0xA08 JUMP JUMPDEST PUSH2 0x272 PUSH2 0x4FE CALLDATASIZE PUSH1 0x4 PUSH2 0x12B1 JUMP JUMPDEST PUSH2 0xA60 JUMP JUMPDEST PUSH2 0x3AC PUSH2 0x511 CALLDATASIZE PUSH1 0x4 PUSH2 0x1287 JUMP JUMPDEST PUSH1 0x7 PUSH1 0x20 SWAP1 DUP2 MSTORE PUSH1 0x0 SWAP3 DUP4 MSTORE PUSH1 0x40 DUP1 DUP5 KECCAK256 SWAP1 SWAP2 MSTORE SWAP1 DUP3 MSTORE SWAP1 KECCAK256 SLOAD PUSH1 0x1 PUSH1 0x1 PUSH1 0xA0 SHL SUB AND DUP2 JUMP JUMPDEST PUSH2 0x397 PUSH2 0x545 CALLDATASIZE PUSH1 0x4 PUSH2 0x1354 JUMP JUMPDEST PUSH2 0xAC0 JUMP JUMPDEST PUSH2 0x24C PUSH2 0x558 CALLDATASIZE PUSH1 0x4 PUSH2 0x1287 JUMP JUMPDEST PUSH1 0x8 PUSH1 0x20 SWAP1 DUP2 MSTORE PUSH1 0x0 SWAP3 DUP4 MSTORE PUSH1 0x40 DUP1 DUP5 KECCAK256 SWAP1 SWAP2 MSTORE SWAP1 DUP3 MSTORE SWAP1 KECCAK256 SLOAD DUP2 JUMP JUMPDEST PUSH2 0x24C PUSH2 0x583 CALLDATASIZE PUSH1 0x4 PUSH2 0x12B1 JUMP JUMPDEST PUSH2 0xB2F JUMP JUMPDEST PUSH2 0x24C PUSH2 0x596 CALLDATASIZE PUSH1 0x4 PUSH2 0x12B1 JUMP JUMPDEST PUSH1 0xC PUSH1 0x20 MSTORE PUSH1 0x0 SWAP1 DUP2 MSTORE PUSH1 0x40 SWAP1 KECCAK256 SLOAD DUP2 JUMP JUMPDEST PUSH2 0x397 PUSH2 0x5B6 CALLDATASIZE PUSH1 0x4 PUSH2 0x1287 JUMP JUMPDEST PUSH2 0xBE4 JUMP JUMPDEST PUSH2 0x397 PUSH2 0x5C9 CALLDATASIZE PUSH1 0x4 PUSH2 0x1287 JUMP JUMPDEST PUSH2 0xE51 JUMP JUMPDEST PUSH2 0x24C PUSH2 0x5DC CALLDATASIZE PUSH1 0x4 PUSH2 0x1287 JUMP JUMPDEST PUSH1 0x12 PUSH1 0x20 SWAP1 DUP2 MSTORE PUSH1 0x0 SWAP3 DUP4 MSTORE PUSH1 0x40 DUP1 DUP5 KECCAK256 SWAP1 SWAP2 MSTORE SWAP1 DUP3 MSTORE SWAP1 KECCAK256 SLOAD DUP2 JUMP JUMPDEST PUSH2 0x60C PUSH2 0x607 CALLDATASIZE PUSH1 0x4 PUSH2 0x1287 JUMP JUMPDEST PUSH2 0xFEE JUMP JUMPDEST PUSH1 0x40 DUP1 MLOAD SWAP3 DUP4 MSTORE PUSH1 0x20 DUP4 ADD SWAP2 SWAP1 SWAP2 MSTORE ADD PUSH2 0x256 JUMP JUMPDEST PUSH2 0x680 PUSH2 0x62F CALLDATASIZE PUSH1 0x4 PUSH2 0x1287 JUMP JUMPDEST PUSH1 0x1 PUSH1 0x1 PUSH1 0xA0 SHL SUB SWAP2 SWAP1 SWAP2 AND PUSH1 0x0 DUP2 DUP2 MSTORE PUSH1 0x10 PUSH1 0x20 SWAP1 DUP2 MSTORE PUSH1 0x40 DUP1 DUP4 KECCAK256 DUP6 DUP5 MSTORE DUP3 MSTORE DUP1 DUP4 KECCAK256 SLOAD DUP5 DUP5 MSTORE PUSH1 0x12 DUP4 MSTORE DUP2 DUP5 KECCAK256 DUP7 DUP6 MSTORE DUP4 MSTORE DUP2 DUP5 KECCAK256 SLOAD SWAP5 DUP5 MSTORE PUSH1 0x11 DUP4 MSTORE DUP2 DUP5 KECCAK256 SWAP6 DUP5 MSTORE SWAP5 SWAP1 SWAP2 MSTORE SWAP1 KECCAK256 SLOAD SWAP2 SWAP3 JUMP JUMPDEST PUSH1 0x40 DUP1 MLOAD SWAP4 DUP5 MSTORE PUSH1 0x20 DUP5 ADD SWAP3 SWAP1 SWAP3 MSTORE SWAP1 DUP3 ADD MSTORE PUSH1 0x60 ADD PUSH2 0x256 JUMP JUMPDEST PUSH2 0x397 PUSH2 0x6A9 CALLDATASIZE PUSH1 0x4 PUSH2 0x12B1 JUMP JUMPDEST PUSH2 0x10EF JUMP JUMPDEST PUSH2 0x3AC PUSH2 0x6BC CALLDATASIZE PUSH1 0x4 PUSH2 0x12B1 JUMP JUMPDEST PUSH1 0x2 PUSH1 0x20 MSTORE PUSH1 0x0 SWAP1 DUP2 MSTORE PUSH1 0x40 SWAP1 KECCAK256 SLOAD PUSH1 0x1 PUSH1 0x1 PUSH1 0xA0 SHL SUB AND DUP2 JUMP JUMPDEST PUSH2 0x397 PUSH2 0x6E5 CALLDATASIZE PUSH1 0x4 PUSH2 0x13A2 JUMP JUMPDEST PUSH2 0x1165 JUMP JUMPDEST PUSH1 0x0 DUP1 JUMPDEST PUSH1 0x1 SLOAD DUP2 LT ISZERO PUSH2 0x74A JUMPI DUP3 PUSH1 0x1 PUSH1 0x1 PUSH1 0xA0 SHL SUB AND PUSH1 0xB DUP3 DUP2 SLOAD DUP2 LT PUSH2 0x715 JUMPI PUSH2 0x715 PUSH2 0x13E4 JUMP JUMPDEST PUSH1 0x0 SWAP2 DUP3 MSTORE PUSH1 0x20 SWAP1 SWAP2 KECCAK256 ADD SLOAD PUSH1 0x1 PUSH1 0x1 PUSH1 0xA0 SHL SUB AND SUB PUSH2 0x738 JUMPI POP PUSH1 0x1 SWAP3 SWAP2 POP POP JUMP JUMPDEST DUP1 PUSH2 0x742 DUP2 PUSH2 0x1410 JUMP JUMPDEST SWAP2 POP POP PUSH2 0x6EE JUMP JUMPDEST POP PUSH1 0x0 SWAP3 SWAP2 POP POP JUMP JUMPDEST PUSH1 0x40 MLOAD PUSH4 0x23B872DD PUSH1 0xE0 SHL DUP2 MSTORE CALLER PUSH1 0x4 DUP3 ADD MSTORE ADDRESS PUSH1 0x24 DUP3 ADD MSTORE PUSH1 0x44 DUP2 ADD DUP3 SWAP1 MSTORE PUSH1 0x1 PUSH1 0x1 PUSH1 0xA0 SHL SUB DUP4 AND SWAP1 PUSH4 0x23B872DD SWAP1 PUSH1 0x64 ADD PUSH1 0x20 PUSH1 0x40 MLOAD DUP1 DUP4 SUB DUP2 PUSH1 0x0 DUP8 GAS CALL ISZERO DUP1 ISZERO PUSH2 0x7A6 JUMPI RETURNDATASIZE PUSH1 0x0 DUP1 RETURNDATACOPY RETURNDATASIZE PUSH1 0x0 REVERT JUMPDEST POP POP POP POP PUSH1 0x40 MLOAD RETURNDATASIZE PUSH1 0x1F NOT PUSH1 0x1F DUP3 ADD AND DUP3 ADD DUP1 PUSH1 0x40 MSTORE POP DUP2 ADD SWAP1 PUSH2 0x7CA SWAP2 SWAP1 PUSH2 0x1429 JUMP JUMPDEST POP POP POP JUMP JUMPDEST PUSH1 0x1 DUP2 DUP2 SLOAD DUP2 LT PUSH2 0x7DF JUMPI PUSH1 0x0 DUP1 REVERT JUMPDEST PUSH1 0x0 SWAP2 DUP3 MSTORE PUSH1 0x20 SWAP1 SWAP2 KECCAK256 ADD SLOAD PUSH1 0x1 PUSH1 0x1 PUSH1 0xA0 SHL SUB AND SWAP1 POP DUP2 JUMP JUMPDEST PUSH2 0x801 PUSH2 0x11C1 JUMP JUMPDEST PUSH1 0x40 MLOAD PUSH4 0xA9059CBB PUSH1 0xE0 SHL DUP2 MSTORE PUSH1 0x1 PUSH1 0x1 PUSH1 0xA0 SHL SUB DUP4 DUP2 AND PUSH1 0x4 DUP4 ADD MSTORE PUSH1 0x24 DUP3 ADD DUP4 SWAP1 MSTORE DUP5 AND SWAP1 PUSH4 0xA9059CBB SWAP1 PUSH1 0x44 ADD PUSH1 0x20 PUSH1 0x40 MLOAD DUP1 DUP4 SUB DUP2 PUSH1 0x0 DUP8 GAS CALL ISZERO DUP1 ISZERO PUSH2 0x850 JUMPI RETURNDATASIZE PUSH1 0x0 DUP1 RETURNDATACOPY RETURNDATASIZE PUSH1 0x0 REVERT JUMPDEST POP POP POP POP PUSH1 0x40 MLOAD RETURNDATASIZE PUSH1 0x1F NOT PUSH1 0x1F DUP3 ADD AND DUP3 ADD DUP1 PUSH1 0x40 MSTORE POP DUP2 ADD SWAP1 PUSH2 0x874 SWAP2 SWAP1 PUSH2 0x1429 JUMP JUMPDEST POP POP POP POP JUMP JUMPDEST PUSH2 0x882 PUSH2 0x11C1 JUMP JUMPDEST PUSH1 0x0 JUMPDEST PUSH1 0xB SLOAD DUP2 LT ISZERO PUSH2 0x952 JUMPI PUSH1 0x0 PUSH1 0xB DUP3 DUP2 SLOAD DUP2 LT PUSH2 0x8A4 JUMPI PUSH2 0x8A4 PUSH2 0x13E4 JUMP JUMPDEST PUSH1 0x0 SWAP2 DUP3 MSTORE PUSH1 0x20 DUP3 KECCAK256 ADD SLOAD PUSH1 0x1 PUSH1 0x1 PUSH1 0xA0 SHL SUB AND SWAP2 POP PUSH2 0x8C3 DUP3 PUSH2 0xB2F JUMP JUMPDEST PUSH1 0x5 SLOAD PUSH1 0x40 MLOAD PUSH4 0xA9059CBB PUSH1 0xE0 SHL DUP2 MSTORE PUSH1 0x1 PUSH1 0x1 PUSH1 0xA0 SHL SUB DUP6 DUP2 AND PUSH1 0x4 DUP4 ADD MSTORE PUSH1 0x24 DUP3 ADD DUP5 SWAP1 MSTORE SWAP3 SWAP4 POP SWAP2 AND SWAP1 PUSH4 0xA9059CBB SWAP1 PUSH1 0x44 ADD PUSH1 0x20 PUSH1 0x40 MLOAD DUP1 DUP4 SUB DUP2 PUSH1 0x0 DUP8 GAS CALL ISZERO DUP1 ISZERO PUSH2 0x918 JUMPI RETURNDATASIZE PUSH1 0x0 DUP1 RETURNDATACOPY RETURNDATASIZE PUSH1 0x0 REVERT JUMPDEST POP POP POP POP PUSH1 0x40 MLOAD RETURNDATASIZE PUSH1 0x1F NOT PUSH1 0x1F DUP3 ADD AND DUP3 ADD DUP1 PUSH1 0x40 MSTORE POP DUP2 ADD SWAP1 PUSH2 0x93C SWAP2 SWAP1 PUSH2 0x1429 JUMP JUMPDEST POP POP POP DUP1 DUP1 PUSH2 0x94A SWAP1 PUSH2 0x1410 JUMP JUMPDEST SWAP2 POP POP PUSH2 0x885 JUMP JUMPDEST POP JUMP JUMPDEST PUSH2 0x95D PUSH2 0x11C1 JUMP JUMPDEST PUSH1 0x1 DUP1 SLOAD DUP1 DUP3 ADD DUP3 SSTORE PUSH1 0x0 SWAP2 SWAP1 SWAP2 MSTORE PUSH32 0xB10E2D527612073B26EECDFD717E6A320CF44B4AFAC2B0732D9FCBE2B7FA0CF6 ADD DUP1 SLOAD PUSH1 0x1 PUSH1 0x1 PUSH1 0xA0 SHL SUB NOT AND PUSH1 0x1 PUSH1 0x1 PUSH1 0xA0 SHL SUB SWAP3 SWAP1 SWAP3 AND SWAP2 SWAP1 SWAP2 OR SWAP1 SSTORE JUMP JUMPDEST PUSH2 0x9B6 PUSH2 0x11C1 JUMP JUMPDEST PUSH2 0x9C0 PUSH1 0x0 PUSH2 0x121B JUMP JUMPDEST JUMP JUMPDEST PUSH1 0xB DUP2 DUP2 SLOAD DUP2 LT PUSH2 0x7DF JUMPI PUSH1 0x0 DUP1 REVERT JUMPDEST PUSH2 0x9DA PUSH2 0x11C1 JUMP JUMPDEST PUSH1 0x1 PUSH1 0x1 PUSH1 0xA0 SHL SUB SWAP2 DUP3 AND PUSH1 0x0 SWAP1 DUP2 MSTORE PUSH1 0x2 PUSH1 0x20 MSTORE PUSH1 0x40 SWAP1 KECCAK256 DUP1 SLOAD PUSH1 0x1 PUSH1 0x1 PUSH1 0xA0 SHL SUB NOT AND SWAP2 SWAP1 SWAP3 AND OR SWAP1 SSTORE JUMP JUMPDEST PUSH1 0x1 PUSH1 0x1 PUSH1 0xA0 SHL SUB DUP4 AND PUSH1 0x0 SWAP1 DUP2 MSTORE PUSH1 0xA PUSH1 0x20 MSTORE PUSH1 0x40 DUP2 KECCAK256 SLOAD PUSH2 0xA2D JUMPI POP PUSH1 0x0 PUSH2 0xA59 JUMP JUMPDEST PUSH1 0x0 DUP1 PUSH2 0xA3A DUP6 DUP6 PUSH2 0xFEE JUMP JUMPDEST SWAP1 SWAP3 POP SWAP1 POP PUSH2 0xA4A DUP2 PUSH1 0xA PUSH2 0x1531 JUMP JUMPDEST PUSH2 0xA54 SWAP1 DUP4 PUSH2 0x153D JUMP JUMPDEST SWAP3 POP POP POP JUMPDEST SWAP4 SWAP3 POP POP POP JUMP JUMPDEST PUSH1 0x0 DUP1 JUMPDEST PUSH1 0x1 SLOAD DUP2 LT ISZERO PUSH2 0x74A JUMPI DUP3 PUSH1 0x1 PUSH1 0x1 PUSH1 0xA0 SHL SUB AND PUSH1 0x1 DUP3 DUP2 SLOAD DUP2 LT PUSH2 0xA8B JUMPI PUSH2 0xA8B PUSH2 0x13E4 JUMP JUMPDEST PUSH1 0x0 SWAP2 DUP3 MSTORE PUSH1 0x20 SWAP1 SWAP2 KECCAK256 ADD SLOAD PUSH1 0x1 PUSH1 0x1 PUSH1 0xA0 SHL SUB AND SUB PUSH2 0xAAE JUMPI POP PUSH1 0x1 SWAP3 SWAP2 POP POP JUMP JUMPDEST DUP1 PUSH2 0xAB8 DUP2 PUSH2 0x1410 JUMP JUMPDEST SWAP2 POP POP PUSH2 0xA64 JUMP JUMPDEST PUSH2 0xAC8 PUSH2 0x11C1 JUMP JUMPDEST PUSH1 0x1 PUSH1 0x1 PUSH1 0xA0 SHL SUB SWAP5 DUP6 AND PUSH1 0x0 DUP2 DUP2 MSTORE PUSH1 0xF PUSH1 0x20 SWAP1 DUP2 MSTORE PUSH1 0x40 DUP1 DUP4 KECCAK256 DUP9 DUP5 MSTORE DUP3 MSTORE DUP1 DUP4 KECCAK256 DUP1 SLOAD PUSH1 0x1 PUSH1 0x1 PUSH1 0xA0 SHL SUB NOT AND SWAP8 SWAP1 SWAP10 AND SWAP7 SWAP1 SWAP7 OR SWAP1 SWAP8 SSTORE DUP2 DUP2 MSTORE PUSH1 0xE DUP8 MSTORE DUP5 DUP2 KECCAK256 DUP7 DUP3 MSTORE DUP8 MSTORE DUP5 DUP2 KECCAK256 SWAP4 SWAP1 SWAP4 SSTORE DUP3 MSTORE PUSH1 0xD DUP6 MSTORE DUP3 DUP3 KECCAK256 SWAP4 DUP3 MSTORE SWAP3 SWAP1 SWAP4 MSTORE SWAP1 SWAP2 KECCAK256 SSTORE JUMP JUMPDEST PUSH1 0x1 PUSH1 0x1 PUSH1 0xA0 SHL SUB DUP2 AND PUSH1 0x0 SWAP1 DUP2 MSTORE PUSH1 0xA PUSH1 0x20 MSTORE PUSH1 0x40 DUP2 KECCAK256 SLOAD DUP2 SWAP1 PUSH2 0xB57 JUMPI POP PUSH1 0x0 SWAP3 SWAP2 POP POP JUMP JUMPDEST PUSH1 0x0 JUMPDEST PUSH1 0x1 PUSH1 0x1 PUSH1 0xA0 SHL SUB DUP5 AND PUSH1 0x0 SWAP1 DUP2 MSTORE PUSH1 0xA PUSH1 0x20 MSTORE PUSH1 0x40 SWAP1 KECCAK256 SLOAD DUP2 LT ISZERO PUSH2 0xBDD JUMPI PUSH1 0x1 PUSH1 0x1 PUSH1 0xA0 SHL SUB DUP1 DUP6 AND PUSH1 0x0 DUP2 DUP2 MSTORE PUSH1 0x7 PUSH1 0x20 SWAP1 DUP2 MSTORE PUSH1 0x40 DUP1 DUP4 KECCAK256 DUP7 DUP5 MSTORE DUP3 MSTORE DUP1 DUP4 KECCAK256 SLOAD SWAP4 DUP4 MSTORE PUSH1 0x8 DUP3 MSTORE DUP1 DUP4 KECCAK256 DUP7 DUP5 MSTORE SWAP1 SWAP2 MSTORE SWAP1 KECCAK256 SLOAD PUSH2 0xBBF SWAP3 DUP8 SWAP3 AND SWAP1 PUSH2 0xA08 JUMP JUMPDEST PUSH2 0xBC9 SWAP1 DUP4 PUSH2 0x155F JUMP JUMPDEST SWAP2 POP DUP1 PUSH2 0xBD5 DUP2 PUSH2 0x1410 JUMP JUMPDEST SWAP2 POP POP PUSH2 0xB5A JUMP JUMPDEST POP SWAP3 SWAP2 POP POP JUMP JUMPDEST PUSH2 0xBEC PUSH2 0x11C1 JUMP JUMPDEST PUSH2 0xBF5 DUP3 PUSH2 0xA60 JUMP JUMPDEST PUSH2 0xC1A JUMPI PUSH1 0x40 MLOAD PUSH3 0x461BCD PUSH1 0xE5 SHL DUP2 MSTORE PUSH1 0x4 ADD PUSH2 0xC11 SWAP1 PUSH2 0x1572 JUMP JUMPDEST PUSH1 0x40 MLOAD DUP1 SWAP2 SUB SWAP1 REVERT JUMPDEST PUSH1 0x40 MLOAD PUSH4 0x23B872DD PUSH1 0xE0 SHL DUP2 MSTORE ADDRESS PUSH1 0x4 DUP3 ADD MSTORE CALLER PUSH1 0x24 DUP3 ADD MSTORE PUSH1 0x44 DUP2 ADD DUP3 SWAP1 MSTORE PUSH1 0x1 PUSH1 0x1 PUSH1 0xA0 SHL SUB DUP4 AND SWAP1 PUSH4 0x23B872DD SWAP1 PUSH1 0x64 ADD PUSH1 0x0 PUSH1 0x40 MLOAD DUP1 DUP4 SUB DUP2 PUSH1 0x0 DUP8 DUP1 EXTCODESIZE ISZERO DUP1 ISZERO PUSH2 0xC68 JUMPI PUSH1 0x0 DUP1 REVERT JUMPDEST POP GAS CALL ISZERO DUP1 ISZERO PUSH2 0xC7C JUMPI RETURNDATASIZE PUSH1 0x0 DUP1 RETURNDATACOPY RETURNDATASIZE PUSH1 0x0 REVERT JUMPDEST POP POP CALLER PUSH1 0x0 DUP2 DUP2 MSTORE PUSH1 0x9 PUSH1 0x20 SWAP1 DUP2 MSTORE PUSH1 0x40 DUP1 DUP4 KECCAK256 PUSH1 0x1 PUSH1 0x1 PUSH1 0xA0 SHL SUB DUP10 DUP2 AND DUP6 MSTORE DUP2 DUP5 MSTORE DUP3 DUP6 KECCAK256 DUP10 DUP7 MSTORE DUP5 MSTORE DUP3 DUP6 KECCAK256 SLOAD DUP7 DUP7 MSTORE PUSH1 0x7 DUP6 MSTORE DUP4 DUP7 KECCAK256 PUSH1 0xA DUP1 DUP8 MSTORE DUP6 DUP9 KECCAK256 DUP1 SLOAD DUP1 DUP11 MSTORE DUP4 DUP10 MSTORE DUP8 DUP11 KECCAK256 SLOAD DUP12 DUP12 MSTORE PUSH1 0x8 DUP11 MSTORE DUP9 DUP12 KECCAK256 SWAP2 DUP12 MSTORE DUP2 DUP11 MSTORE DUP9 DUP12 KECCAK256 SLOAD DUP7 DUP13 MSTORE SWAP5 DUP11 MSTORE DUP9 DUP12 KECCAK256 DUP1 SLOAD PUSH1 0x1 PUSH1 0x1 PUSH1 0xA0 SHL SUB NOT AND SWAP2 SWAP1 SWAP8 AND SWAP1 DUP2 OR SWAP1 SWAP7 SSTORE DUP9 MSTORE DUP7 DUP10 KECCAK256 DUP4 SWAP1 SSTORE DUP5 DUP10 MSTORE SWAP5 DUP8 MSTORE DUP6 DUP9 KECCAK256 DUP3 DUP10 MSTORE DUP8 MSTORE SWAP5 DUP8 KECCAK256 DUP3 SWAP1 SSTORE SWAP7 SWAP1 SWAP6 MSTORE SWAP2 SWAP1 SWAP3 MSTORE SWAP1 SLOAD SWAP2 SWAP5 POP SWAP3 POP PUSH2 0xD34 SWAP1 PUSH1 0x1 SWAP1 PUSH2 0x15BE JUMP JUMPDEST CALLER PUSH1 0x0 SWAP1 DUP2 MSTORE PUSH1 0xA PUSH1 0x20 MSTORE PUSH1 0x40 DUP2 KECCAK256 DUP3 SWAP1 SSTORE SUB PUSH2 0xE4A JUMPI CALLER PUSH1 0x0 SWAP1 DUP2 MSTORE PUSH1 0xC PUSH1 0x20 MSTORE PUSH1 0x40 SWAP1 KECCAK256 SLOAD PUSH1 0xB DUP1 SLOAD SWAP2 SWAP5 POP SWAP1 PUSH2 0xD6F SWAP1 PUSH1 0x1 SWAP1 PUSH2 0x15BE JUMP JUMPDEST DUP2 SLOAD DUP2 LT PUSH2 0xD7F JUMPI PUSH2 0xD7F PUSH2 0x13E4 JUMP JUMPDEST PUSH1 0x0 SWAP2 DUP3 MSTORE PUSH1 0x20 SWAP1 SWAP2 KECCAK256 ADD SLOAD PUSH1 0xB DUP1 SLOAD PUSH1 0x1 PUSH1 0x1 PUSH1 0xA0 SHL SUB SWAP1 SWAP3 AND SWAP2 DUP6 SWAP1 DUP2 LT PUSH2 0xDAB JUMPI PUSH2 0xDAB PUSH2 0x13E4 JUMP JUMPDEST SWAP1 PUSH1 0x0 MSTORE PUSH1 0x20 PUSH1 0x0 KECCAK256 ADD PUSH1 0x0 PUSH2 0x100 EXP DUP2 SLOAD DUP2 PUSH1 0x1 PUSH1 0x1 PUSH1 0xA0 SHL SUB MUL NOT AND SWAP1 DUP4 PUSH1 0x1 PUSH1 0x1 PUSH1 0xA0 SHL SUB AND MUL OR SWAP1 SSTORE POP DUP3 PUSH1 0xC PUSH1 0x0 PUSH1 0xB DUP7 DUP2 SLOAD DUP2 LT PUSH2 0xDF1 JUMPI PUSH2 0xDF1 PUSH2 0x13E4 JUMP JUMPDEST PUSH1 0x0 SWAP2 DUP3 MSTORE PUSH1 0x20 DUP1 DUP4 KECCAK256 SWAP1 SWAP2 ADD SLOAD PUSH1 0x1 PUSH1 0x1 PUSH1 0xA0 SHL SUB AND DUP4 MSTORE DUP3 ADD SWAP3 SWAP1 SWAP3 MSTORE PUSH1 0x40 ADD SWAP1 KECCAK256 SSTORE PUSH1 0xB DUP1 SLOAD DUP1 PUSH2 0xE27 JUMPI PUSH2 0xE27 PUSH2 0x15D1 JUMP JUMPDEST PUSH1 0x0 DUP3 DUP2 MSTORE PUSH1 0x20 SWAP1 KECCAK256 DUP2 ADD PUSH1 0x0 NOT SWAP1 DUP2 ADD DUP1 SLOAD PUSH1 0x1 PUSH1 0x1 PUSH1 0xA0 SHL SUB NOT AND SWAP1 SSTORE ADD SWAP1 SSTORE JUMPDEST POP POP POP POP POP JUMP JUMPDEST PUSH2 0xE5A DUP3 PUSH2 0xA60 JUMP JUMPDEST PUSH2 0xE76 JUMPI PUSH1 0x40 MLOAD PUSH3 0x461BCD PUSH1 0xE5 SHL DUP2 MSTORE PUSH1 0x4 ADD PUSH2 0xC11 SWAP1 PUSH2 0x1572 JUMP JUMPDEST PUSH1 0x40 MLOAD PUSH4 0x23B872DD PUSH1 0xE0 SHL DUP2 MSTORE CALLER PUSH1 0x4 DUP3 ADD MSTORE ADDRESS PUSH1 0x24 DUP3 ADD MSTORE PUSH1 0x44 DUP2 ADD DUP3 SWAP1 MSTORE PUSH1 0x1 PUSH1 0x1 PUSH1 0xA0 SHL SUB DUP4 AND SWAP1 PUSH4 0x23B872DD SWAP1 PUSH1 0x64 ADD PUSH1 0x0 PUSH1 0x40 MLOAD DUP1 DUP4 SUB DUP2 PUSH1 0x0 DUP8 DUP1 EXTCODESIZE ISZERO DUP1 ISZERO PUSH2 0xEC4 JUMPI PUSH1 0x0 DUP1 REVERT JUMPDEST POP GAS CALL ISZERO DUP1 ISZERO PUSH2 0xED8 JUMPI RETURNDATASIZE PUSH1 0x0 DUP1 RETURNDATACOPY RETURNDATASIZE PUSH1 0x0 REVERT JUMPDEST POP POP CALLER PUSH1 0x0 DUP2 DUP2 MSTORE PUSH1 0x7 PUSH1 0x20 SWAP1 DUP2 MSTORE PUSH1 0x40 DUP1 DUP4 KECCAK256 PUSH1 0xA DUP1 DUP5 MSTORE DUP3 DUP6 KECCAK256 DUP1 SLOAD DUP7 MSTORE SWAP2 DUP5 MSTORE DUP3 DUP6 KECCAK256 DUP1 SLOAD PUSH1 0x1 PUSH1 0x1 PUSH1 0xA0 SHL SUB NOT AND PUSH1 0x1 PUSH1 0x1 PUSH1 0xA0 SHL SUB DUP13 AND SWAP1 DUP2 OR SWAP1 SWAP2 SSTORE DUP7 DUP7 MSTORE PUSH1 0x8 DUP6 MSTORE DUP4 DUP7 KECCAK256 DUP4 SLOAD DUP8 MSTORE DUP6 MSTORE DUP4 DUP7 KECCAK256 DUP11 SWAP1 SSTORE DUP7 DUP7 MSTORE SWAP2 SLOAD PUSH1 0x9 DUP6 MSTORE DUP4 DUP7 KECCAK256 SWAP3 DUP7 MSTORE SWAP2 DUP5 MSTORE DUP3 DUP6 KECCAK256 DUP10 DUP7 MSTORE DUP5 MSTORE SWAP2 DUP5 KECCAK256 DUP2 SWAP1 SSTORE SWAP4 DUP4 MSTORE SWAP1 MSTORE SUB SWAP2 POP PUSH2 0xFBF SWAP1 POP JUMPI PUSH1 0xB DUP1 SLOAD PUSH1 0x1 DUP2 DUP2 ADD DUP4 SSTORE PUSH1 0x0 DUP4 SWAP1 MSTORE PUSH32 0x175B7A638427703F0DBE7BB9BBF987A2551717B34E79F33B5B1008D1FA01DB9 SWAP1 SWAP2 ADD DUP1 SLOAD PUSH1 0x1 PUSH1 0x1 PUSH1 0xA0 SHL SUB NOT AND CALLER OR SWAP1 SSTORE SWAP1 SLOAD PUSH2 0xFAE SWAP2 SWAP1 PUSH2 0x15BE JUMP JUMPDEST CALLER PUSH1 0x0 SWAP1 DUP2 MSTORE PUSH1 0xC PUSH1 0x20 MSTORE PUSH1 0x40 SWAP1 KECCAK256 SSTORE JUMPDEST CALLER PUSH1 0x0 SWAP1 DUP2 MSTORE PUSH1 0xA PUSH1 0x20 MSTORE PUSH1 0x40 SWAP1 KECCAK256 SLOAD PUSH2 0xFDA SWAP1 PUSH1 0x1 PUSH2 0x155F JUMP JUMPDEST CALLER PUSH1 0x0 SWAP1 DUP2 MSTORE PUSH1 0xA PUSH1 0x20 MSTORE PUSH1 0x40 SWAP1 KECCAK256 SSTORE POP POP JUMP JUMPDEST PUSH1 0x1 PUSH1 0x1 PUSH1 0xA0 SHL SUB DUP1 DUP4 AND PUSH1 0x0 SWAP1 DUP2 MSTORE PUSH1 0x2 PUSH1 0x20 MSTORE PUSH1 0x40 DUP1 DUP3 KECCAK256 SLOAD DUP2 MLOAD PUSH4 0x3FABE5A3 PUSH1 0xE2 SHL DUP2 MSTORE SWAP2 MLOAD SWAP3 SWAP4 DUP5 SWAP4 SWAP2 AND SWAP2 DUP3 SWAP2 DUP5 SWAP2 DUP4 SWAP2 PUSH4 0xFEAF968C SWAP2 PUSH1 0x4 DUP1 DUP3 ADD SWAP3 PUSH1 0xA0 SWAP3 SWAP1 SWAP2 SWAP1 DUP3 SWAP1 SUB ADD DUP2 DUP7 GAS STATICCALL ISZERO DUP1 ISZERO PUSH2 0x104F JUMPI RETURNDATASIZE PUSH1 0x0 DUP1 RETURNDATACOPY RETURNDATASIZE PUSH1 0x0 REVERT JUMPDEST POP POP POP POP PUSH1 0x40 MLOAD RETURNDATASIZE PUSH1 0x1F NOT PUSH1 0x1F DUP3 ADD AND DUP3 ADD DUP1 PUSH1 0x40 MSTORE POP DUP2 ADD SWAP1 PUSH2 0x1073 SWAP2 SWAP1 PUSH2 0x1601 JUMP JUMPDEST POP POP POP SWAP2 POP POP PUSH1 0x0 DUP3 PUSH1 0x1 PUSH1 0x1 PUSH1 0xA0 SHL SUB AND PUSH4 0x313CE567 PUSH1 0x40 MLOAD DUP2 PUSH4 0xFFFFFFFF AND PUSH1 0xE0 SHL DUP2 MSTORE PUSH1 0x4 ADD PUSH1 0x20 PUSH1 0x40 MLOAD DUP1 DUP4 SUB DUP2 DUP7 GAS STATICCALL ISZERO DUP1 ISZERO PUSH2 0x10B9 JUMPI RETURNDATASIZE PUSH1 0x0 DUP1 RETURNDATACOPY RETURNDATASIZE PUSH1 0x0 REVERT JUMPDEST POP POP POP POP PUSH1 0x40 MLOAD RETURNDATASIZE PUSH1 0x1F NOT PUSH1 0x1F DUP3 ADD AND DUP3 ADD DUP1 PUSH1 0x40 MSTORE POP DUP2 ADD SWAP1 PUSH2 0x10DD SWAP2 SWAP1 PUSH2 0x1651 JUMP JUMPDEST SWAP2 SWAP6 POP POP PUSH1 0xFF AND SWAP3 POP POP POP SWAP3 POP SWAP3 SWAP1 POP JUMP JUMPDEST PUSH2 0x10F7 PUSH2 0x11C1 JUMP JUMPDEST PUSH1 0x1 PUSH1 0x1 PUSH1 0xA0 SHL SUB DUP2 AND PUSH2 0x115C JUMPI PUSH1 0x40 MLOAD PUSH3 0x461BCD PUSH1 0xE5 SHL DUP2 MSTORE PUSH1 0x20 PUSH1 0x4 DUP3 ADD MSTORE PUSH1 0x26 PUSH1 0x24 DUP3 ADD MSTORE PUSH32 0x4F776E61626C653A206E6577206F776E657220697320746865207A65726F2061 PUSH1 0x44 DUP3 ADD MSTORE PUSH6 0x646472657373 PUSH1 0xD0 SHL PUSH1 0x64 DUP3 ADD MSTORE PUSH1 0x84 ADD PUSH2 0xC11 JUMP JUMPDEST PUSH2 0x952 DUP2 PUSH2 0x121B JUMP JUMPDEST PUSH2 0x116D PUSH2 0x11C1 JUMP JUMPDEST PUSH1 0x1 PUSH1 0x1 PUSH1 0xA0 SHL SUB SWAP1 SWAP5 AND PUSH1 0x0 DUP2 DUP2 MSTORE PUSH1 0x10 PUSH1 0x20 SWAP1 DUP2 MSTORE PUSH1 0x40 DUP1 DUP4 KECCAK256 DUP8 DUP5 MSTORE DUP3 MSTORE DUP1 DUP4 KECCAK256 SWAP6 SWAP1 SWAP6 SSTORE DUP3 DUP3 MSTORE PUSH1 0x12 DUP2 MSTORE DUP5 DUP3 KECCAK256 DUP7 DUP4 MSTORE DUP2 MSTORE DUP5 DUP3 KECCAK256 SWAP7 SWAP1 SWAP7 SSTORE SWAP1 DUP2 MSTORE PUSH1 0x11 DUP6 MSTORE DUP3 DUP2 KECCAK256 SWAP4 DUP2 MSTORE SWAP3 SWAP1 SWAP4 MSTORE SWAP1 KECCAK256 SSTORE JUMP JUMPDEST PUSH1 0x0 SLOAD PUSH1 0x1 PUSH1 0x1 PUSH1 0xA0 SHL SUB AND CALLER EQ PUSH2 0x9C0 JUMPI PUSH1 0x40 MLOAD PUSH3 0x461BCD PUSH1 0xE5 SHL DUP2 MSTORE PUSH1 0x20 PUSH1 0x4 DUP3 ADD DUP2 SWAP1 MSTORE PUSH1 0x24 DUP3 ADD MSTORE PUSH32 0x4F776E61626C653A2063616C6C6572206973206E6F7420746865206F776E6572 PUSH1 0x44 DUP3 ADD MSTORE PUSH1 0x64 ADD PUSH2 0xC11 JUMP JUMPDEST PUSH1 0x0 DUP1 SLOAD PUSH1 0x1 PUSH1 0x1 PUSH1 0xA0 SHL SUB DUP4 DUP2 AND PUSH1 0x1 PUSH1 0x1 PUSH1 0xA0 SHL SUB NOT DUP4 AND DUP2 OR DUP5 SSTORE PUSH1 0x40 MLOAD SWAP2 SWAP1 SWAP3 AND SWAP3 DUP4 SWAP2 PUSH32 0x8BE0079C531659141344CD1FD0A4F28419497F9722A3DAAFE3B4186F6B6457E0 SWAP2 SWAP1 LOG3 POP POP JUMP JUMPDEST DUP1 CALLDATALOAD PUSH1 0x1 PUSH1 0x1 PUSH1 0xA0 SHL SUB DUP2 AND DUP2 EQ PUSH2 0x1282 JUMPI PUSH1 0x0 DUP1 REVERT JUMPDEST SWAP2 SWAP1 POP JUMP JUMPDEST PUSH1 0x0 DUP1 PUSH1 0x40 DUP4 DUP6 SUB SLT ISZERO PUSH2 0x129A JUMPI PUSH1 0x0 DUP1 REVERT JUMPDEST PUSH2 0x12A3 DUP4 PUSH2 0x126B JUMP JUMPDEST SWAP5 PUSH1 0x20 SWAP4 SWAP1 SWAP4 ADD CALLDATALOAD SWAP4 POP POP POP JUMP JUMPDEST PUSH1 0x0 PUSH1 0x20 DUP3 DUP5 SUB SLT ISZERO PUSH2 0x12C3 JUMPI PUSH1 0x0 DUP1 REVERT JUMPDEST PUSH2 0xA59 DUP3 PUSH2 0x126B JUMP JUMPDEST PUSH1 0x0 PUSH1 0x20 DUP3 DUP5 SUB SLT ISZERO PUSH2 0x12DE JUMPI PUSH1 0x0 DUP1 REVERT JUMPDEST POP CALLDATALOAD SWAP2 SWAP1 POP JUMP JUMPDEST PUSH1 0x0 DUP1 PUSH1 0x0 PUSH1 0x60 DUP5 DUP7 SUB SLT ISZERO PUSH2 0x12FA JUMPI PUSH1 0x0 DUP1 REVERT JUMPDEST PUSH2 0x1303 DUP5 PUSH2 0x126B JUMP JUMPDEST SWAP3 POP PUSH2 0x1311 PUSH1 0x20 DUP6 ADD PUSH2 0x126B JUMP JUMPDEST SWAP2 POP PUSH1 0x40 DUP5 ADD CALLDATALOAD SWAP1 POP SWAP3 POP SWAP3 POP SWAP3 JUMP JUMPDEST PUSH1 0x0 DUP1 PUSH1 0x40 DUP4 DUP6 SUB SLT ISZERO PUSH2 0x1334 JUMPI PUSH1 0x0 DUP1 REVERT JUMPDEST PUSH2 0x133D DUP4 PUSH2 0x126B JUMP JUMPDEST SWAP2 POP PUSH2 0x134B PUSH1 0x20 DUP5 ADD PUSH2 0x126B JUMP JUMPDEST SWAP1 POP SWAP3 POP SWAP3 SWAP1 POP JUMP JUMPDEST PUSH1 0x0 DUP1 PUSH1 0x0 DUP1 PUSH1 0x0 PUSH1 0xA0 DUP7 DUP9 SUB SLT ISZERO PUSH2 0x136C JUMPI PUSH1 0x0 DUP1 REVERT JUMPDEST PUSH2 0x1375 DUP7 PUSH2 0x126B JUMP JUMPDEST SWAP5 POP PUSH1 0x20 DUP7 ADD CALLDATALOAD SWAP4 POP PUSH2 0x138A PUSH1 0x40 DUP8 ADD PUSH2 0x126B JUMP JUMPDEST SWAP5 SWAP8 SWAP4 SWAP7 POP SWAP4 SWAP5 PUSH1 0x60 DUP2 ADD CALLDATALOAD SWAP5 POP PUSH1 0x80 ADD CALLDATALOAD SWAP3 SWAP2 POP POP JUMP JUMPDEST PUSH1 0x0 DUP1 PUSH1 0x0 DUP1 PUSH1 0x0 PUSH1 0xA0 DUP7 DUP9 SUB SLT ISZERO PUSH2 0x13BA JUMPI PUSH1 0x0 DUP1 REVERT JUMPDEST PUSH2 0x13C3 DUP7 PUSH2 0x126B JUMP JUMPDEST SWAP8 PUSH1 0x20 DUP8 ADD CALLDATALOAD SWAP8 POP PUSH1 0x40 DUP8 ADD CALLDATALOAD SWAP7 PUSH1 0x60 DUP2 ADD CALLDATALOAD SWAP7 POP PUSH1 0x80 ADD CALLDATALOAD SWAP5 POP SWAP3 POP POP POP JUMP JUMPDEST PUSH4 0x4E487B71 PUSH1 0xE0 SHL PUSH1 0x0 MSTORE PUSH1 0x32 PUSH1 0x4 MSTORE PUSH1 0x24 PUSH1 0x0 REVERT JUMPDEST PUSH4 0x4E487B71 PUSH1 0xE0 SHL PUSH1 0x0 MSTORE PUSH1 0x11 PUSH1 0x4 MSTORE PUSH1 0x24 PUSH1 0x0 REVERT JUMPDEST PUSH1 0x0 PUSH1 0x1 DUP3 ADD PUSH2 0x1422 JUMPI PUSH2 0x1422 PUSH2 0x13FA JUMP JUMPDEST POP PUSH1 0x1 ADD SWAP1 JUMP JUMPDEST PUSH1 0x0 PUSH1 0x20 DUP3 DUP5 SUB SLT ISZERO PUSH2 0x143B JUMPI PUSH1 0x0 DUP1 REVERT JUMPDEST DUP2 MLOAD DUP1 ISZERO ISZERO DUP2 EQ PUSH2 0xA59 JUMPI PUSH1 0x0 DUP1 REVERT JUMPDEST PUSH1 0x1 DUP2 DUP2 JUMPDEST DUP1 DUP6 GT ISZERO PUSH2 0x1486 JUMPI DUP2 PUSH1 0x0 NOT DIV DUP3 GT ISZERO PUSH2 0x146C JUMPI PUSH2 0x146C PUSH2 0x13FA JUMP JUMPDEST DUP1 DUP6 AND ISZERO PUSH2 0x1479 JUMPI SWAP2 DUP2 MUL SWAP2 JUMPDEST SWAP4 DUP5 SHR SWAP4 SWAP1 DUP1 MUL SWAP1 PUSH2 0x1450 JUMP JUMPDEST POP SWAP3 POP SWAP3 SWAP1 POP JUMP JUMPDEST PUSH1 0x0 DUP3 PUSH2 0x149D JUMPI POP PUSH1 0x1 PUSH2 0x152B JUMP JUMPDEST DUP2 PUSH2 0x14AA JUMPI POP PUSH1 0x0 PUSH2 0x152B JUMP JUMPDEST DUP2 PUSH1 0x1 DUP2 EQ PUSH2 0x14C0 JUMPI PUSH1 0x2 DUP2 EQ PUSH2 0x14CA JUMPI PUSH2 0x14E6 JUMP JUMPDEST PUSH1 0x1 SWAP2 POP POP PUSH2 0x152B JUMP JUMPDEST PUSH1 0xFF DUP5 GT ISZERO PUSH2 0x14DB JUMPI PUSH2 0x14DB PUSH2 0x13FA JUMP JUMPDEST POP POP PUSH1 0x1 DUP3 SHL PUSH2 0x152B JUMP JUMPDEST POP PUSH1 0x20 DUP4 LT PUSH2 0x133 DUP4 LT AND PUSH1 0x4E DUP5 LT PUSH1 0xB DUP5 LT AND OR ISZERO PUSH2 0x1509 JUMPI POP DUP2 DUP2 EXP PUSH2 0x152B JUMP JUMPDEST PUSH2 0x1513 DUP4 DUP4 PUSH2 0x144B JUMP JUMPDEST DUP1 PUSH1 0x0 NOT DIV DUP3 GT ISZERO PUSH2 0x1527 JUMPI PUSH2 0x1527 PUSH2 0x13FA JUMP JUMPDEST MUL SWAP1 POP JUMPDEST SWAP3 SWAP2 POP POP JUMP JUMPDEST PUSH1 0x0 PUSH2 0xA59 DUP4 DUP4 PUSH2 0x148E JUMP JUMPDEST PUSH1 0x0 DUP3 PUSH2 0x155A JUMPI PUSH4 0x4E487B71 PUSH1 0xE0 SHL PUSH1 0x0 MSTORE PUSH1 0x12 PUSH1 0x4 MSTORE PUSH1 0x24 PUSH1 0x0 REVERT JUMPDEST POP DIV SWAP1 JUMP JUMPDEST DUP1 DUP3 ADD DUP1 DUP3 GT ISZERO PUSH2 0x152B JUMPI PUSH2 0x152B PUSH2 0x13FA JUMP JUMPDEST PUSH1 0x20 DUP1 DUP3 MSTORE PUSH1 0x2C SWAP1 DUP3 ADD MSTORE PUSH32 0x63757272656E74206E6674206973206E6F7420616C6C6F77656420696E206F75 PUSH1 0x40 DUP3 ADD MSTORE PUSH12 0x722077686974656C69737421 PUSH1 0xA0 SHL PUSH1 0x60 DUP3 ADD MSTORE PUSH1 0x80 ADD SWAP1 JUMP JUMPDEST DUP2 DUP2 SUB DUP2 DUP2 GT ISZERO PUSH2 0x152B JUMPI PUSH2 0x152B PUSH2 0x13FA JUMP JUMPDEST PUSH4 0x4E487B71 PUSH1 0xE0 SHL PUSH1 0x0 MSTORE PUSH1 0x31 PUSH1 0x4 MSTORE PUSH1 0x24 PUSH1 0x0 REVERT JUMPDEST DUP1 MLOAD PUSH10 0xFFFFFFFFFFFFFFFFFFFF DUP2 AND DUP2 EQ PUSH2 0x1282 JUMPI PUSH1 0x0 DUP1 REVERT JUMPDEST PUSH1 0x0 DUP1 PUSH1 0x0 DUP1 PUSH1 0x0 PUSH1 0xA0 DUP7 DUP9 SUB SLT ISZERO PUSH2 0x1619 JUMPI PUSH1 0x0 DUP1 REVERT JUMPDEST PUSH2 0x1622 DUP7 PUSH2 0x15E7 JUMP JUMPDEST SWAP5 POP PUSH1 0x20 DUP7 ADD MLOAD SWAP4 POP PUSH1 0x40 DUP7 ADD MLOAD SWAP3 POP PUSH1 0x60 DUP7 ADD MLOAD SWAP2 POP PUSH2 0x1645 PUSH1 0x80 DUP8 ADD PUSH2 0x15E7 JUMP JUMPDEST SWAP1 POP SWAP3 SWAP6 POP SWAP3 SWAP6 SWAP1 SWAP4 POP JUMP JUMPDEST PUSH1 0x0 PUSH1 0x20 DUP3 DUP5 SUB SLT ISZERO PUSH2 0x1663 JUMPI PUSH1 0x0 DUP1 REVERT JUMPDEST DUP2 MLOAD PUSH1 0xFF DUP2 AND DUP2 EQ PUSH2 0xA59 JUMPI PUSH1 0x0 DUP1 REVERT INVALID LOG2 PUSH5 0x6970667358 0x22 SLT KECCAK256 GASPRICE PUSH13 0x624EA9A1252264D5E2694AF8DA 0x5C 0xE0 0xE8 0xF PUSH29 0x15D28F2EF77682BC70B1F25F64736F6C63430008110033000000000000 ",
  "sha1": "0e015c79376f707e8fb2359b299a20f9bc4a52ab",
  "source": "//SPDX-License-Identifier: MIT\n\n// principles: minimize memory storage, breakdown a complex on-chain action to several short actions\n// Must functions: connectWallet, showLoanableNFT, setBasePrice(real fp deal in 14days), setThreshold(e.g., 60%on base price),\n//                 autoGenOffers(3 offers: amount[100,80,60], period[3,7,14], APR[80,100,120], +some random disturbation),\n//                 manGenOffers(amount, period, APR, ),\n//                 updateOffers(offerIndex, update=0:del/1:update/2)\n//                 acceptOffer(approveTransfer, nftDeposit,loanTransfer)\n// Later functions: getPrice, showOffers, makeOffers, approve,sendOffers\n// Struct: offer{evalAmount, loanPeriod, interest}\n// Global array: arrPeriod[3,7,14], arrAPR, arrLoanRatio\n// randome value: randDeltaAPR,randDeltaLoanRatio\n\n// ? how to get rarity info. then corresponding evalPrice -> metadata\n// ? how to achieve bundle or reduce gas fee\n//\npragma solidity ^0.8.0;\n\nimport \"@openzeppelin/contracts/access/Ownable.sol\";\nimport \"@openzeppelin/contracts/token/ERC721/IERC721.sol\";\nimport \"@openzeppelin/contracts/token/ERC20/IERC20.sol\";\nimport \"@chainlink/contracts/src/v0.8/interfaces/AggregatorV3Interface.sol\";\n\ncontract Escrow is Ownable {\n    address[] public allowedNfts;\n    mapping(address => address) public nftPriceFeedMapping; // need to upgraded to ranks\n    address lender;\n    address inspector;\n\n    IERC20 public dappToken;\n\n    struct loanOffer {\n        // struct may not be suggested, just use single variables\n        uint256 _loanAmount; //18 decimals in ether(wei)\n        uint256 _loanDays; // in days\n        uint256 _loanInterest; //with decimals 10**4, e.g. 2.83% = 283/(10**4)\n    }\n    uint256 public interestDecimals = 4;\n\n    // mapping borrower address -> borrower stake index -> staked NFT address and ID\n    mapping(address => mapping(uint256 => address)) public stakedNftAddress;\n    mapping(address => mapping(uint256 => uint256)) public stakedNftId;\n    // mapping borrower address -> nft address -> nft ID -> staked index\n    mapping(address => mapping(address => mapping(uint256 => uint256)))\n        public stakedNftIndex;\n    mapping(address => uint256) public numOfNftStaked;\n    address[] public borrowers;\n    mapping(address => uint256) public borrowerIndex;\n    // mapping nft address -> nft id -> { expireTime, repayAmount, holderAddress}\n    mapping(address => mapping(uint256 => uint256)) public nftLoanRepayAmount;\n    mapping(address => mapping(uint256 => uint256)) public nftLoanExpireTime;\n    mapping(address => mapping(uint256 => address)) public nftLoanHolderAddress;\n    // mapping nft address -> nft id -> { loanPeriod, loanAmount, loanInterest}\n    mapping(address => mapping(uint256 => uint256)) public nftLoanAmount; // unit: wei\n    mapping(address => mapping(uint256 => uint256)) public nftLoanPeriod; // unit: days\n    mapping(address => mapping(uint256 => uint256)) public nftLoanInterest; // decimals: 4\n\n    constructor(address _dappTokenAddress) public {\n        dappToken = IERC20(_dappTokenAddress);\n    }\n\n    function loanRepay(address _loanTokenAddress, uint256 _repayAmount) public {\n        // where shall we put approve action, here or in .py?\n        IERC20(_loanTokenAddress).transferFrom(\n            msg.sender,\n            address(this),\n            _repayAmount\n        );\n    }\n\n    function loanTransfer(\n        address _loanTokenAddress,\n        address _nftHolderAddress,\n        uint256 _loanAmount\n    ) public onlyOwner {\n        // is onlyOwner used here correct?\n        IERC20(_loanTokenAddress).transfer(_nftHolderAddress, _loanAmount);\n    }\n\n    function nftUnStaking(address _nftAddress, uint256 _nftId)\n        public\n        onlyOwner\n    {\n        // must satisfy:\n        // 1. time not expire,\n        // 2. repay enough,\n        // 3. the owner is the owner\n        require(\n            nftIsAllowed(_nftAddress),\n            \"current nft is not allowed in our whitelist!\"\n        );\n\n        IERC721(_nftAddress).transferFrom(address(this), msg.sender, _nftId);\n        uint256 index = stakedNftIndex[msg.sender][_nftAddress][_nftId];\n        address nft_address = stakedNftAddress[msg.sender][\n            numOfNftStaked[msg.sender]\n        ];\n        uint256 nft_id = stakedNftId[msg.sender][numOfNftStaked[msg.sender]];\n        stakedNftAddress[msg.sender][index] = nft_address;\n        stakedNftId[msg.sender][index] = nft_id;\n        stakedNftIndex[msg.sender][nft_address][nft_id] = index;\n        numOfNftStaked[msg.sender] = numOfNftStaked[msg.sender] - 1;\n\n        if (numOfNftStaked[msg.sender] == 0) {\n            index = borrowerIndex[msg.sender];\n            borrowers[index] = borrowers[borrowers.length - 1];\n            borrowerIndex[borrowers[index]] = index;\n            borrowers.pop();\n        }\n    }\n\n    function nftStaking(address _nftAddress, uint256 _nftId) public {\n        // what NFT can they stake?\n        require(\n            nftIsAllowed(_nftAddress),\n            \"current nft is not allowed in our whitelist!\"\n        );\n        IERC721(_nftAddress).transferFrom(msg.sender, address(this), _nftId);\n        stakedNftAddress[msg.sender][numOfNftStaked[msg.sender]] = _nftAddress;\n        stakedNftId[msg.sender][numOfNftStaked[msg.sender]] = _nftId;\n        stakedNftIndex[msg.sender][_nftAddress][_nftId] = numOfNftStaked[\n            msg.sender\n        ];\n        if (numOfNftStaked[msg.sender] == 0) {\n            borrowers.push(msg.sender);\n            borrowerIndex[msg.sender] = borrowers.length - 1;\n        }\n        numOfNftStaked[msg.sender] = numOfNftStaked[msg.sender] + 1;\n    }\n\n    function setOffers(\n        address _nftAddress,\n        uint256 _nftId,\n        uint256 _loanAmount,\n        uint256 _loanPeriod,\n        uint256 _loanInterest\n    ) public onlyOwner {\n        nftLoanAmount[_nftAddress][_nftId] = _loanAmount;\n        nftLoanInterest[_nftAddress][_nftId] = _loanInterest;\n        nftLoanPeriod[_nftAddress][_nftId] = _loanPeriod;\n    }\n\n    function getOffers(address _nftAddress, uint256 _nftId)\n        public\n        view\n        returns (\n            uint256,\n            uint256,\n            uint256\n        )\n    {\n        uint256 loan_amount = nftLoanAmount[_nftAddress][_nftId];\n        uint256 loan_interest = nftLoanInterest[_nftAddress][_nftId];\n        uint256 loan_period = nftLoanPeriod[_nftAddress][_nftId];\n        return (loan_amount, loan_period, loan_interest);\n    }\n\n    function nftLock(\n        address _nftAddress,\n        uint256 _nftId,\n        address _holderAddress,\n        uint256 _expireTime,\n        uint256 _repayAmount\n    ) public onlyOwner {\n        // nft lock parameters setting, is the function public ok?\n        nftLoanHolderAddress[_nftAddress][_nftId] = _holderAddress;\n        nftLoanExpireTime[_nftAddress][_nftId] = _expireTime;\n        nftLoanRepayAmount[_nftAddress][_nftId] = _repayAmount;\n    }\n\n    function getNftLockData(address _nftAddress, uint256 _nftId)\n        public\n        view\n        returns (\n            address,\n            uint256,\n            uint256\n        )\n    {\n        return (\n            nftLoanHolderAddress[_nftAddress][_nftId],\n            nftLoanExpireTime[_nftAddress][_nftId],\n            nftLoanRepayAmount[_nftAddress][_nftId]\n        );\n    }\n\n    function addAllowedNfts(address _nftAddress) public onlyOwner {\n        allowedNfts.push(_nftAddress);\n    }\n\n    function nftIsAllowed(address _nftAddress) public view returns (bool) {\n        for (\n            uint256 allowedNftsIndex = 0;\n            allowedNftsIndex < allowedNfts.length;\n            allowedNftsIndex++\n        ) {\n            if (allowedNfts[allowedNftsIndex] == _nftAddress) {\n                return true;\n            }\n        }\n        return false;\n    }\n\n    function isBorrowers(address _user) public view returns (bool) {\n        for (uint256 index = 0; index < allowedNfts.length; index++) {\n            if (borrowers[index] == _user) {\n                return true;\n            }\n        }\n        return false;\n    }\n\n    modifier onlyBorrower() {\n        require(isBorrowers(msg.sender), \"Only borrower can call this method\");\n        _;\n    }\n\n    modifier onlyLender() {\n        require(msg.sender == lender, \"Only lender can call this method\");\n        _;\n    }\n\n    modifier onlyInspector() {\n        require(msg.sender == inspector, \"Only inspector can call this method\");\n        _;\n    }\n\n    function getBalance() public view returns (uint256) {\n        return address(this).balance;\n    }\n\n    // function requestLoan(\n    //     address _loanTokenAddress,\n    //     address _nftAddress,\n    //     uint256 _nftId,\n    //     uint256 _loanAmount,\n    //     uint256 _loanDays,\n    //     uint256 _loanInterest\n    // ) public {\n    //     require(\n    //         nftIsAllowed(_nftAddress),\n    //         \"current nft is not allowed in our whitelist!\"\n    //     );\n    //     nftStaking(_nftAddress, _nftId);\n    //     IERC20(_loanTokenAddress).transfer(address(msg.sender), _loanAmount);\n    //     uint256 initTime = block.timestamp;\n    //     uint256 expireTime = initTime + _loanDays * 24 * 60 * 60;\n    //     uint256 repayAmount = _loanAmount *\n    //         (1 + _loanInterest / (10**interestDecimals));\n    //     nftLock(\n    //         _nftAddress,\n    //         _nftId,\n    //         address(msg.sender),\n    //         expireTime,\n    //         repayAmount\n    //     );\n    // }\n\n    // e.g.: give 1 DappToken per loanToken loan\n    function issueTokens() public onlyOwner {\n        // ? get each borrower total loan interest profit\n        // ? get each NFT (address, id) loaned interest profit\n        // Issue tokens to all stakers\n        for (uint256 index = 0; index < borrowers.length; index++) {\n            address recipient = borrowers[index];\n            uint256 userTotalValue = getUserTotalValue(recipient);\n            dappToken.transfer(recipient, userTotalValue);\n        }\n    }\n\n    function getUserTotalValue(address _user) public view returns (uint256) {\n        uint256 totalValue = 0;\n        // require(numOfNftStaked[_user] > 0, \"No nft staked!\");\n        if (numOfNftStaked[_user] <= 0) {\n            return 0;\n        }\n        for (\n            uint256 nftStakedIndex = 0;\n            nftStakedIndex < numOfNftStaked[_user];\n            nftStakedIndex++\n        ) {\n            totalValue =\n                totalValue +\n                getUserSingleNftValue(\n                    _user,\n                    stakedNftAddress[_user][nftStakedIndex],\n                    stakedNftId[_user][nftStakedIndex]\n                );\n        }\n        return totalValue;\n    }\n\n    function getUserSingleNftValue(\n        address _user,\n        address _nftAddress,\n        uint256 _nftId\n    ) public view returns (uint256) {\n        if (numOfNftStaked[_user] <= 0) {\n            return 0;\n        }\n        (uint256 price, uint256 decimals) = getNftValue(_nftAddress, _nftId);\n        return (price / (10**decimals));\n        // 10000000000000000000 ETH\n        // ETH/USD -> 10000000000\n        // 10 * 100 = 1,000\n    }\n\n    function getNftValue(address _nftAddress, uint256 _nftId)\n        public\n        view\n        returns (uint256, uint256)\n    {\n        // // default setted to 1ETH and 18decimals\n        // return (1, 18);\n\n        // priceFeedAddress\n        // address priceFeedAddress = nftPriceFeedMapping[_nftAddress][_nftId];\n        address priceFeedAddress = nftPriceFeedMapping[_nftAddress];\n        AggregatorV3Interface priceFeed = AggregatorV3Interface(\n            priceFeedAddress\n        );\n        (, int256 price, , , ) = priceFeed.latestRoundData();\n        uint256 decimals = uint256(priceFeed.decimals());\n        return (uint256(price), decimals);\n    }\n\n    function setPriceFeedContract(\n        address _nftAddress,\n        // uint256 _nftId=none,\n        address _priceFeed\n    ) public onlyOwner {\n        // nftPriceFeedMapping[_nftAddress][_nftId] = _priceFeed;\n        nftPriceFeedMapping[_nftAddress] = _priceFeed;\n    }\n}\n",
  "sourcePath": "contracts/Escrow.sol",
  "type": "contract"
}